{
  "transactions": [
    {
      "hash": "0xd77c812b96843f42711e32ffcad778fa588cab3407db7a93bfa58673720c7ab0",
      "transactionType": "CALL",
      "contractName": null,
      "contractAddress": "0xf80c0529bd94c773844e459853cd91b9263dd525",
      "function": "setSupplyQueue(bytes32[])",
      "arguments": [
        "[0xf6f43f1660f1f4779e92a2e21086f4ab49a3fc0cae8a17992808e6a6db488c16, 0x40ac09f34c5bc0b0b6d9b5f1ec1b97a6a149ff6278104797c9cb740453a2b794, 0x9103c3b4e834476c9a62ea009ba2c884ee42e94e6e314a26f04d312434191836, 0x8793cf302b8ffd655ab97bd1c695dbd967807e8367a65cb2f4edaf1380ba1bda]"
      ],
      "transaction": {
        "from": "0x6708e21113922ed588bbccaa5ef756becbb2a7d1",
        "to": "0xf80c0529bd94c773844e459853cd91b9263dd525",
        "gas": "0x15d81",
        "value": "0x0",
        "input": "0x2acc56f900000000000000000000000000000000000000000000000000000000000000200000000000000000000000000000000000000000000000000000000000000004f6f43f1660f1f4779e92a2e21086f4ab49a3fc0cae8a17992808e6a6db488c1640ac09f34c5bc0b0b6d9b5f1ec1b97a6a149ff6278104797c9cb740453a2b7949103c3b4e834476c9a62ea009ba2c884ee42e94e6e314a26f04d3124341918368793cf302b8ffd655ab97bd1c695dbd967807e8367a65cb2f4edaf1380ba1bda",
        "nonce": "0x28d",
        "chainId": "0x2105"
      },
      "additionalContracts": [],
      "isFixedGasLimit": false
    },
    {
      "hash": "0xdc426b3f48a86651f63e6459843acfc4ff3c0f86f56e312a62cebe99550487e2",
      "transactionType": "CALL",
      "contractName": null,
      "contractAddress": "0xf80c0529bd94c773844e459853cd91b9263dd525",
      "function": "reallocate(((address,address,address,address,uint256),uint256)[])",
      "arguments": [
        "[((0x833589fCD6eDb6E08f4c7C32D4f71b54bdA02913, 0xcbB7C0000aB88B473b1f5aFd9ef808440eed33Bf, 0x663BECd10daE6C4A3Dcd89F1d76c1174199639B9, 0x46415998764C29aB2a25CbeA6254146D50D22687, 860000000000000000), 0), ((0x833589fCD6eDb6E08f4c7C32D4f71b54bdA02913, 0x532f27101965dd16442E59d40670FaF5eBB142E4, 0x3378E48fF1e6bEf07d4d7F6Bb1e87C38A58D2619, 0x46415998764C29aB2a25CbeA6254146D50D22687, 625000000000000000), 115792089237316195423570985008687907853269984665640564039457584007913129639935)]"
      ],
      "transaction": {
        "from": "0x6708e21113922ed588bbccaa5ef756becbb2a7d1",
        "to": "0xf80c0529bd94c773844e459853cd91b9263dd525",
        "gas": "0x49e65",
        "value": "0x0",
        "input": "0x7299aa3100000000000000000000000000000000000000000000000000000000000000200000000000000000000000000000000000000000000000000000000000000002000000000000000000000000833589fcd6edb6e08f4c7c32d4f71b54bda02913000000000000000000000000cbb7c0000ab88b473b1f5afd9ef808440eed33bf000000000000000000000000663becd10dae6c4a3dcd89f1d76c1174199639b900000000000000000000000046415998764c29ab2a25cbea6254146d50d226870000000000000000000000000000000000000000000000000bef55718ad600000000000000000000000000000000000000000000000000000000000000000000000000000000000000000000833589fcd6edb6e08f4c7c32d4f71b54bda02913000000000000000000000000532f27101965dd16442e59d40670faf5ebb142e40000000000000000000000003378e48ff1e6bef07d4d7f6bb1e87c38a58d261900000000000000000000000046415998764c29ab2a25cbea6254146d50d2268700000000000000000000000000000000000000000000000008ac7230489e8000ffffffffffffffffffffffffffffffffffffffffffffffffffffffffffffffff",
        "nonce": "0x28e",
        "chainId": "0x2105"
      },
      "additionalContracts": [],
      "isFixedGasLimit": false
    }
  ],
  "receipts": [
    {
      "type": "0x2",
      "status": "0x1",
      "cumulativeGasUsed": "0x532399",
      "logs": [
        {
          "address": "0xf80c0529bd94c773844e459853cd91b9263dd525",
          "topics": [
            "0x6ce31538fc7fba95714ddc8a275a09252b4b1fb8f33d2550aa58a5f62ad934de",
            "0x0000000000000000000000006708e21113922ed588bbccaa5ef756becbb2a7d1"
          ],
          "data": "0x00000000000000000000000000000000000000000000000000000000000000200000000000000000000000000000000000000000000000000000000000000004f6f43f1660f1f4779e92a2e21086f4ab49a3fc0cae8a17992808e6a6db488c1640ac09f34c5bc0b0b6d9b5f1ec1b97a6a149ff6278104797c9cb740453a2b7949103c3b4e834476c9a62ea009ba2c884ee42e94e6e314a26f04d3124341918368793cf302b8ffd655ab97bd1c695dbd967807e8367a65cb2f4edaf1380ba1bda",
          "blockHash": "0x0000000000000000000000000000000000000000000000000000000000000000",
          "blockNumber": "0x2e8865f",
          "blockTimestamp": "0x6a5b69a1",
          "transactionHash": "0xd77c812b96843f42711e32ffcad778fa588cab3407db7a93bfa58673720c7ab0",
          "transactionIndex": "0x2c",
          "logIndex": "0x4b",
          "removed": false
        }
      ],
      "logsBloom": "0x00000000000000000000000000000000000000000000000000000000000000000000000000000000000000000000000000001000000000000000000000000000000000000000000000000000000000000000000000000000000000000040000000000000000000000000000200000000000000000000000000000000800000000000000000000000000000100000000000000000000000000000000000004000000000000000000000000000000000000000000000000000080000000000000000000000000000000000000000000000000000000000000000000000002000000000000000000000000000000000000000000000000000000000020000000000",
      "transactionHash": "0xd77c812b96843f42711e32ffcad778fa588cab3407db7a93bfa58673720c7ab0",
      "transactionIndex": "0x2c",
      "blockHash": "0x0000000000000000000000000000000000000000000000000000000000000000",
      "blockNumber": "0x2e8865f",
      "gasUsed": "0xeefb",
      "effectiveGasPrice": "0x501bd0",
      "blobGasUsed": "0x677c",
      "from": "0x6708e21113922ed588bbccaa5ef756becbb2a7d1",
      "to": "0xf80c0529bd94c773844e459853cd91b9263dd525",
      "contractAddress": null,
      "l1GasPrice": "0x3629ef0",
      "l1GasUsed": "0xb3e",
      "l1Fee": "0x29ebd83f",
      "l1BaseFeeScalar": "0x8dd",
      "l1BlobBaseFee": "0x35614c",
      "l1BlobBaseFeeScalar": "0x101c12",
      "daFootprintGasScalar": "0x94"
    },
    {
      "type": "0x2",
      "status": "0x1",
      "cumulativeGasUsed": "0xf3ff3e",
      "logs": [
        {
          "address": "0x46415998764c29ab2a25cbea6254146d50d22687",
          "topics": [
            "0x7120161a7b3d31251e01294ab351ef15a41b91659a36032e4641bb89b121e321",
            "0x9103c3b4e834476c9a62ea009ba2c884ee42e94e6e314a26f04d312434191836"
          ],
          "data": "0x00000000000000000000000000000000000000000000000000000000584e48420000000000000000000000000000000000000000000000000000000058b0a849",
          "blockHash": "0x205e041cf88ad574c9e0b91880ad379bac3686f0c2e6d11f78df054dfbd39d28",
          "blockNumber": "0x2e88660",
          "blockTimestamp": "0x6a5b69a3",
          "transactionHash": "0xdc426b3f48a86651f63e6459843acfc4ff3c0f86f56e312a62cebe99550487e2",
          "transactionIndex": "0x3f",
          "logIndex": "0x132",
          "removed": false
        },
        {
          "address": "0xbbbbbbbbbb9cc5e90e3b3af64bdaf62c37eeffcb",
          "topics": [
            "0x9d9bd501d0657d7dfe415f779a620a62b78bc508ddc0891fbbd8b7ac0f8fce87",
            "0x9103c3b4e834476c9a62ea009ba2c884ee42e94e6e314a26f04d312434191836"
          ],
          "data": "0x00000000000000000000000000000000000000000000000000000000584e484200000000000000000000000000000000000000000000000000000000023923c50000000000000000000000000000000000000000000000000000000000000000",
          "blockHash": "0x205e041cf88ad574c9e0b91880ad379bac3686f0c2e6d11f78df054dfbd39d28",
          "blockNumber": "0x2e88660",
          "blockTimestamp": "0x6a5b69a3",
          "transactionHash": "0xdc426b3f48a86651f63e6459843acfc4ff3c0f86f56e312a62cebe99550487e2",
          "transactionIndex": "0x3f",
          "logIndex": "0x133",
          "removed": false
        },
        {
          "address": "0xbbbbbbbbbb9cc5e90e3b3af64bdaf62c37eeffcb",
          "topics": [
            "0xa56fc0ad5702ec05ce63666221f796fb62437c32db1aa1aa075fc6484cf58fbf",
            "0x9103c3b4e834476c9a62ea009ba2c884ee42e94e6e314a26f04d312434191836",
            "0x000000000000000000000000f80c0529bd94c773844e459853cd91b9263dd525",
            "0x000000000000000000000000f80c0529bd94c773844e459853cd91b9263dd525"
          ],
          "data": "0x000000000000000000000000f80c0529bd94c773844e459853cd91b9263dd5250000000000000000000000000000000000000000000000000000000000000001000000000000000000000000000000000000000000000000000000000013feca",
          "blockHash": "0x205e041cf88ad574c9e0b91880ad379bac3686f0c2e6d11f78df054dfbd39d28",
          "blockNumber": "0x2e88660",
          "blockTimestamp": "0x6a5b69a3",
          "transactionHash": "0xdc426b3f48a86651f63e6459843acfc4ff3c0f86f56e312a62cebe99550487e2",
          "transactionIndex": "0x3f",
          "logIndex": "0x134",
          "removed": false
        },
        {
          "address": "0x833589fcd6edb6e08f4c7c32d4f71b54bda02913",
          "topics": [
            "0xddf252ad1be2c89b69c2b068fc378daa952ba7f163c4a11628f55a4df523b3ef",
            "0x000000000000000000000000bbbbbbbbbb9cc5e90e3b3af64bdaf62c37eeffcb",
            "0x000000000000000000000000f80c0529bd94c773844e459853cd91b9263dd525"
          ],
          "data": "0x0000000000000000000000000000000000000000000000000000000000000001",
          "blockHash": "0x205e041cf88ad574c9e0b91880ad379bac3686f0c2e6d11f78df054dfbd39d28",
          "blockNumber": "0x2e88660",
          "blockTimestamp": "0x6a5b69a3",
          "transactionHash": "0xdc426b3f48a86651f63e6459843acfc4ff3c0f86f56e312a62cebe99550487e2",
          "transactionIndex": "0x3f",
          "logIndex": "0x135",
          "removed": false
        },
        {
          "address": "0xf80c0529bd94c773844e459853cd91b9263dd525",
          "topics": [
            "0xdd8bf5226dff861316e0fa7863fdb7dc7b87c614eb29a135f524eb79d5a1189a",
            "0x0000000000000000000000006708e21113922ed588bbccaa5ef756becbb2a7d1",
            "0x9103c3b4e834476c9a62ea009ba2c884ee42e94e6e314a26f04d312434191836"
          ],
          "data": "0x0000000000000000000000000000000000000000000000000000000000000001000000000000000000000000000000000000000000000000000000000013feca",
          "blockHash": "0x205e041cf88ad574c9e0b91880ad379bac3686f0c2e6d11f78df054dfbd39d28",
          "blockNumber": "0x2e88660",
          "blockTimestamp": "0x6a5b69a3",
          "transactionHash": "0xdc426b3f48a86651f63e6459843acfc4ff3c0f86f56e312a62cebe99550487e2",
          "transactionIndex": "0x3f",
          "logIndex": "0x136",
          "removed": false
        },
        {
          "address": "0x46415998764c29ab2a25cbea6254146d50d22687",
          "topics": [
            "0x7120161a7b3d31251e01294ab351ef15a41b91659a36032e4641bb89b121e321",
            "0xf6f43f1660f1f4779e92a2e21086f4ab49a3fc0cae8a17992808e6a6db488c16"
          ],
          "data": "0x0000000000000000000000000000000000000000000000000000000012debaee000000000000000000000000000000000000000000000000000000004b5bbee7",
          "blockHash": "0x205e041cf88ad574c9e0b91880ad379bac3686f0c2e6d11f78df054dfbd39d28",
          "blockNumber": "0x2e88660",
          "blockTimestamp": "0x6a5b69a3",
          "transactionHash": "0xdc426b3f48a86651f63e6459843acfc4ff3c0f86f56e312a62cebe99550487e2",
          "transactionIndex": "0x3f",
          "logIndex": "0x137",
          "removed": false
        },
        {
          "address": "0xbbbbbbbbbb9cc5e90e3b3af64bdaf62c37eeffcb",
          "topics": [
            "0x9d9bd501d0657d7dfe415f779a620a62b78bc508ddc0891fbbd8b7ac0f8fce87",
            "0xf6f43f1660f1f4779e92a2e21086f4ab49a3fc0cae8a17992808e6a6db488c16"
          ],
          "data": "0x0000000000000000000000000000000000000000000000000000000012debaee00000000000000000000000000000000000000000000000000000000000000000000000000000000000000000000000000000000000000000000000000000000",
          "blockHash": "0x205e041cf88ad574c9e0b91880ad379bac3686f0c2e6d11f78df054dfbd39d28",
          "blockNumber": "0x2e88660",
          "blockTimestamp": "0x6a5b69a3",
          "transactionHash": "0xdc426b3f48a86651f63e6459843acfc4ff3c0f86f56e312a62cebe99550487e2",
          "transactionIndex": "0x3f",
          "logIndex": "0x138",
          "removed": false
        },
        {
          "address": "0xbbbbbbbbbb9cc5e90e3b3af64bdaf62c37eeffcb",
          "topics": [
            "0xedf8870433c83823eb071d3df1caa8d008f12f6440918c20d75a3602cda30fe0",
            "0xf6f43f1660f1f4779e92a2e21086f4ab49a3fc0cae8a17992808e6a6db488c16",
            "0x000000000000000000000000f80c0529bd94c773844e459853cd91b9263dd525",
            "0x000000000000000000000000f80c0529bd94c773844e459853cd91b9263dd525"
          ],
          "data": "0x000000000000000000000000000000000000000000000000000000000000000100000000000000000000000000000000000000000000000000000000000f4240",
          "blockHash": "0x205e041cf88ad574c9e0b91880ad379bac3686f0c2e6d11f78df054dfbd39d28",
          "blockNumber": "0x2e88660",
          "blockTimestamp": "0x6a5b69a3",
          "transactionHash": "0xdc426b3f48a86651f63e6459843acfc4ff3c0f86f56e312a62cebe99550487e2",
          "transactionIndex": "0x3f",
          "logIndex": "0x139",
          "removed": false
        },
        {
          "address": "0x833589fcd6edb6e08f4c7c32d4f71b54bda02913",
          "topics": [
            "0xddf252ad1be2c89b69c2b068fc378daa952ba7f163c4a11628f55a4df523b3ef",
            "0x000000000000000000000000f80c0529bd94c773844e459853cd91b9263dd525",
            "0x000000000000000000000000bbbbbbbbbb9cc5e90e3b3af64bdaf62c37eeffcb"
          ],
          "data": "0x0000000000000000000000000000000000000000000000000000000000000001",
          "blockHash": "0x205e041cf88ad574c9e0b91880ad379bac3686f0c2e6d11f78df054dfbd39d28",
          "blockNumber": "0x2e88660",
          "blockTimestamp": "0x6a5b69a3",
          "transactionHash": "0xdc426b3f48a86651f63e6459843acfc4ff3c0f86f56e312a62cebe99550487e2",
          "transactionIndex": "0x3f",
          "logIndex": "0x13a",
          "removed": false
        },
        {
          "address": "0xf80c0529bd94c773844e459853cd91b9263dd525",
          "topics": [
            "0x89bf199df65bf65155e3e0a8abc4ad4a1be606220c8295840dba2ab5656c1f6d",
            "0x0000000000000000000000006708e21113922ed588bbccaa5ef756becbb2a7d1",
            "0xf6f43f1660f1f4779e92a2e21086f4ab49a3fc0cae8a17992808e6a6db488c16"
          ],
          "data": "0x000000000000000000000000000000000000000000000000000000000000000100000000000000000000000000000000000000000000000000000000000f4240",
          "blockHash": "0x205e041cf88ad574c9e0b91880ad379bac3686f0c2e6d11f78df054dfbd39d28",
          "blockNumber": "0x2e88660",
          "blockTimestamp": "0x6a5b69a3",
          "transactionHash": "0xdc426b3f48a86651f63e6459843acfc4ff3c0f86f56e312a62cebe99550487e2",
          "transactionIndex": "0x3f",
          "logIndex": "0x13b",
          "removed": false
        }
      ],
      "logsBloom": "0x00000000000000000000000000000080000002000000000001000000000000000000440000000100000000000000100000001000000000000000000020804000000000000010000000000009800000000000000800080010000000088000000000800000000000000000000200800000000001000000000010000010800000000000000000000008000000100000000000000000000000000009000000044000008000000000000000000002000000040000000000000000000000000000000020000002000000000000000000000000000100000000000000000000002000400000000001000000000000200001400000004000000000100000000000040000",
      "transactionHash": "0xdc426b3f48a86651f63e6459843acfc4ff3c0f86f56e312a62cebe99550487e2",
      "transactionIndex": "0x3f",
      "blockHash": "0x205e041cf88ad574c9e0b91880ad379bac3686f0c2e6d11f78df054dfbd39d28",
      "blockNumber": "0x2e88660",
      "gasUsed": "0x3287a",
      "effectiveGasPrice": "0x501bd0",
      "blobGasUsed": "0x84f8",
      "from": "0x6708e21113922ed588bbccaa5ef756becbb2a7d1",
      "to": "0xf80c0529bd94c773844e459853cd91b9263dd525",
      "contractAddress": null,
      "l1GasPrice": "0x3629ef0",
      "l1GasUsed": "0xe6f",
      "l1Fee": "0x4f39a971",
      "l1BaseFeeScalar": "0x8dd",
      "l1BlobBaseFee": "0x35614c",
      "l1BlobBaseFeeScalar": "0x101c12",
      "daFootprintGasScalar": "0x94"
    }
  ],
  "libraries": [],
  "pending": [],
  "returns": {},
  "timestamp": 1784375715337,
  "chain": 8453,
  "commit": "2e7aef2"
}