{
  "transactions": [
    {
      "hash": "0xdcefb23140caa339b41ffc4f0e7b8e9008c5586ef7160f807190fdf21c89af03",
      "transactionType": "CREATE",
      "contractName": "CrownPsm",
      "contractAddress": "0x3fbbbd4c00ae3f40762bf58ccbbff92ec3ff4ecf",
      "function": null,
      "arguments": [
        "0x833589fCD6eDb6E08f4c7C32D4f71b54bdA02913",
        "0x0FEA62084A024544891f03035E85401C2C886c1b",
        "0x6708e21113922ED588bBCcAA5ef756BEcBb2a7d1",
        "0x5Adcea5319eA9Eac1241B95Ca53690574cFa2357",
        "0x6708e21113922ED588bBCcAA5ef756BEcBb2a7d1"
      ],
      "transaction": {
        "from": "0x6708e21113922ed588bbccaa5ef756becbb2a7d1",
        "to": null,
        "gas": "0x10e232",
        "value": "0x0",
        "input": "0x60e03461012157601f610e7838819003918201601f19168301916001600160401b038311848410176101255780849260a0946040528339810103126101215761008661004a82610139565b9161005760208201610139565b608061006560408401610139565b9161007260608501610139565b9360018060a01b0380968194829301610139565b169660018060a01b031997885f5416175f5560018055166080521660a05260c05216906002541617600255604051610d2a908161014e823960805181818161029a015281816104a0015281816105c00152818161084b0152818161089f0152610a35015260a0518181816102440152818161039e015281816104f80152818161075d01526108e3015260c051818181610301015261078e0152f35b5f80fd5b634e487b7160e01b5f52604160045260245ffd5b51906001600160a01b03821682036101215756fe60806040818152600480361015610014575f80fd5b5f92833560e01c9081630b6f878e1461092f5750806314fc2297146109125780632398a4d7146108ce5780633e413bee1461088a57806358a0340e146107dd5780636d0d50ed146107b457806371c4a5a1146106c6578063764eea961461064057806383a254141461052757806388ae3a26146104405780638da5cb5b146104185780639901e916146103f95780639f1198f514610330578063cc181ca8146102ec578063d921554d146101e4578063da8911bb1461018f578063e36b0f8f1461016c5763f2fde38b146100e6575f80fd5b34610168576020366003190112610168576100ff610965565b835491906001600160a01b03908184163303610158571692831561012f5750506001600160a01b03191617815580f35b60649250519062461bcd60e51b82526020818301526024820152635a45524f60e01b6044820152fd5b84516330cd747160e01b81528390fd5b8280fd5b50503461018b578160031936011261018b576020906006549051908152f35b5080fd5b5090346101685760203660031901126101685782546001600160a01b031633036101d757506101d0906101c5600180541461097b565b600260015535610a17565b6001805580f35b516330cd747160e01b8152fd5b50903461016857602036600319011261016857813591610207600180541461097b565b6002600155821580156102e1575b6102d357907fa20e7fb876314220fa3044ad9d1f58e5c42db8de1b2d90c684ee5ff3f86473ef916102688430337f0000000000000000000000000000000000000000000000000000000000000000610c1c565b610274846006546109b3565b600655610283846003546109d4565b6003556102918482546109b3565b90556102be83337f0000000000000000000000000000000000000000000000000000000000000000610b52565b80519280845260208401523392a26001805580f35b9051631ed9509560e11b8152fd5b506003548311610215565b50503461018b578160031936011261018b57517f00000000000000000000000000000000000000000000000000000000000000006001600160a01b03168152602090f35b509034610168576020366003190112610168578254823592906001600160a01b031633036103eb57610365600180541461097b565b600260015582156103dd5750816020916103c27f5f1c8439d0d667d2c223ac6cdc938385543585868dcb9181f912487552ae921c9430337f0000000000000000000000000000000000000000000000000000000000000000610c1c565b6103ce826006546109b3565b60065551908152a16001805580f35b905163cbb0251360e01b8152fd5b90516330cd747160e01b8152fd5b50503461018b578160031936011261018b576020906005549051908152f35b50503461018b578160031936011261018b57905490516001600160a01b039091168152602090f35b50903461016857602036600319011261016857813591610463600180541461097b565b60026001558215801561051c575b6102d357507fead7182d26be3249ed3388846881d494e126c0f41caf40db3d73827321751592906104c48330337f0000000000000000000000000000000000000000000000000000000000000000610c1c565b6104d0836003546109b3565b6003556104df836006546109d4565b6006556104ee836005546109b3565b6005556102be83337f0000000000000000000000000000000000000000000000000000000000000000610b52565b506006548311610471565b5082903461018b578260031936011261018b57803561054461094b565b83549092906001600160a01b03908116330361063157610567600180541461097b565b600260015580841615610625575b508115801561061a575b61060c57506106027f4bd17910a91e0f1030c9175de2db5d574b89ea3c3ceab7285e893238ea85914693946105b6836003546109d4565b6003556105e483857f0000000000000000000000000000000000000000000000000000000000000000610b52565b519182526001600160a01b0390921660208201529081906040820190565b0390a16001805580f35b845163cbb0251360e01b8152fd5b50600354821161057f565b60025416925085610575565b5084516330cd747160e01b8152fd5b5090346101685760203660031901126101685761065b610965565b83546001600160a01b039190821633036106b757169182156103dd5750600280546001600160a01b03191683179055519081527fc9c4e985b1c67dbd44443ee281453491dda50d921d4acde87b304600d0ad0a8490602090a180f35b5050516330cd747160e01b8152fd5b5082903461018b578260031936011261018b5780356106e361094b565b83549092906001600160a01b03908116330361063157610706600180541461097b565b600260015583161561078c575b81158015610781575b61060c57506106027f4bd17910a91e0f1030c9175de2db5d574b89ea3c3ceab7285e893238ea8591469394610753836006546109d4565b6006556105e483857f0000000000000000000000000000000000000000000000000000000000000000610b52565b50600654821161071c565b7f00000000000000000000000000000000000000000000000000000000000000009250610713565b50503461018b578160031936011261018b5760025490516001600160a01b039091168152602090f35b509034610168576020366003190112610168578254823592906001600160a01b031633036103eb57610812600180541461097b565b600260015582156103dd57508160209161086f7f5f1c8439d0d667d2c223ac6cdc938385543585868dcb9181f912487552ae921c9430337f0000000000000000000000000000000000000000000000000000000000000000610c1c565b61087b826003546109b3565b60035551908152a16001805580f35b50503461018b578160031936011261018b57517f00000000000000000000000000000000000000000000000000000000000000006001600160a01b03168152602090f35b50503461018b578160031936011261018b57517f00000000000000000000000000000000000000000000000000000000000000006001600160a01b03168152602090f35b503461016857826003193601126101685760209250549051908152f35b84903461018b578160031936011261018b576020906003548152f35b602435906001600160a01b038216820361096157565b5f80fd5b600435906001600160a01b038216820361096157565b1561098257565b60405162461bcd60e51b815260206004820152600960248201526814915153951490539560ba1b6044820152606490fd5b919082018092116109c057565b634e487b7160e01b5f52601160045260245ffd5b919082039182116109c057565b90601f8019910116810190811067ffffffffffffffff821117610a0357604052565b634e487b7160e01b5f52604160045260245ffd5b6040516370a0823160e01b81523060048201526001600160a01b03907f0000000000000000000000000000000000000000000000000000000000000000906020816024818686165afa908115610af0575f91610abc575b5083811115610ab657610aa393610a84916109d4565b91600354838181115f14610aa55750505f6003555b6002541690610b52565b565b610aae916109d4565b600355610a99565b50505050565b906020823d8211610ae8575b81610ad5602093836109e1565b81010312610ae55750515f610a6e565b80fd5b3d9150610ac8565b6040513d5f823e3d90fd5b3d15610b35573d9067ffffffffffffffff8211610a035760405191610b2a601f8201601f1916602001846109e1565b82523d5f602084013e565b606090565b90816020910312610961575180151581036109615790565b60405163a9059cbb60e01b602082019081526001600160a01b03938416602483015260448083019590955293815291926080830167ffffffffffffffff811184821017610a03575f94859485926040525193165af1610baf610afb565b81610bed575b5015610bbd57565b60405162461bcd60e51b81526020600482015260086024820152672a2920a729a322a960c11b6044820152606490fd5b8051801592508215610c02575b50505f610bb5565b610c159250602080918301019101610b3a565b5f80610bfa565b6040516323b872dd60e01b602082019081526001600160a01b039384166024830152938316604482015260648082019590955293845290929160a0830167ffffffffffffffff811184821017610a03575f94859485926040525193165af1610c82610afb565b81610cc5575b5015610c9057565b60405162461bcd60e51b815260206004820152600d60248201526c5452414e534645525f46524f4d60981b6044820152606490fd5b8051801592508215610cda575b50505f610c88565b610ced9250602080918301019101610b3a565b5f80610cd256fea26469706673582212205b6115d19fa884a0b253abb179f39e885f0be94c3591feda6f3b0947686d446a64736f6c63430008140033000000000000000000000000833589fcd6edb6e08f4c7c32d4f71b54bda029130000000000000000000000000fea62084a024544891f03035e85401c2c886c1b0000000000000000000000006708e21113922ed588bbccaa5ef756becbb2a7d10000000000000000000000005adcea5319ea9eac1241b95ca53690574cfa23570000000000000000000000006708e21113922ed588bbccaa5ef756becbb2a7d1",
        "nonce": "0x35e",
        "chainId": "0x2105"
      },
      "additionalContracts": [],
      "isFixedGasLimit": false
    },
    {
      "hash": "0x7a5cce538b633f47dfa1b7245fe977d8a2bb0262fcfe8642bf197f59a2009d5f",
      "transactionType": "CALL",
      "contractName": null,
      "contractAddress": "0x0fea62084a024544891f03035e85401c2c886c1b",
      "function": "approve(address,uint256)",
      "arguments": [
        "0x3fbBBd4c00AE3f40762Bf58Ccbbff92ec3FF4eCf",
        "700000000000"
      ],
      "transaction": {
        "from": "0x6708e21113922ed588bbccaa5ef756becbb2a7d1",
        "to": "0x0fea62084a024544891f03035e85401c2c886c1b",
        "gas": "0x1066e",
        "value": "0x0",
        "input": "0x095ea7b30000000000000000000000003fbbbd4c00ae3f40762bf58ccbbff92ec3ff4ecf000000000000000000000000000000000000000000000000000000a2fb405800",
        "nonce": "0x35f",
        "chainId": "0x2105"
      },
      "additionalContracts": [],
      "isFixedGasLimit": false
    },
    {
      "hash": "0x6f8d35a4f982e1870afed3490faca09b2ef9c2871a8c9c69248c466876115327",
      "transactionType": "CALL",
      "contractName": "CrownPsm",
      "contractAddress": "0x3fbbbd4c00ae3f40762bf58ccbbff92ec3ff4ecf",
      "function": "stockKusd(uint256)",
      "arguments": [
        "700000000000"
      ],
      "transaction": {
        "from": "0x6708e21113922ed588bbccaa5ef756becbb2a7d1",
        "to": "0x3fbbbd4c00ae3f40762bf58ccbbff92ec3ff4ecf",
        "gas": "0x1a718",
        "value": "0x0",
        "input": "0x9f1198f5000000000000000000000000000000000000000000000000000000a2fb405800",
        "nonce": "0x360",
        "chainId": "0x2105"
      },
      "additionalContracts": [],
      "isFixedGasLimit": false
    },
    {
      "hash": "0x96cbe5f4b23e51b8cdb687ad66d447d2a2311e191c81e41bc0212dbf3ad374b6",
      "transactionType": "CALL",
      "contractName": null,
      "contractAddress": "0x420dd381b31aef6683db6b902084cb0ffece40da",
      "function": "createPool(address,address,bool)",
      "arguments": [
        "0x0FEA62084A024544891f03035E85401C2C886c1b",
        "0x833589fCD6eDb6E08f4c7C32D4f71b54bdA02913",
        "true"
      ],
      "transaction": {
        "from": "0x6708e21113922ed588bbccaa5ef756becbb2a7d1",
        "to": "0x420dd381b31aef6683db6b902084cb0ffece40da",
        "gas": "0xff804",
        "value": "0x0",
        "input": "0x36bf95a00000000000000000000000000fea62084a024544891f03035e85401c2c886c1b000000000000000000000000833589fcd6edb6e08f4c7c32d4f71b54bda029130000000000000000000000000000000000000000000000000000000000000001",
        "nonce": "0x361",
        "chainId": "0x2105"
      },
      "additionalContracts": [
        {
          "transactionType": "CREATE2",
          "contractName": null,
          "address": "0xe9e60e513fb43f6b8b0a2f71af099a189732def1",
          "initCode": "0x3d602d80600a3d3981f3363d3d373d3d3d363d73a4e46b4f701c62e14df11b48dce76a7d793cd6d75af43d82803e903d91602b57fd5bf3"
        },
        {
          "transactionType": "CREATE",
          "contractName": null,
          "address": "0xabea15fa3acd1f4283cee00c63ea439f8acea199",
          "initCode": "0x60e060405234801561001057600080fd5b5060405161058138038061058183398101604081905261002f91610066565b336080526001600160a01b0391821660a0521660c052610099565b80516001600160a01b038116811461006157600080fd5b919050565b6000806040838503121561007957600080fd5b6100828361004a565b91506100906020840161004a565b90509250929050565b60805160a05160c0516104bc6100c5600039600060db0152600060a101526000605001526104bc6000f3fe608060405234801561001057600080fd5b506004361061002b5760003560e01c8063533cf5ce14610030575b600080fd5b61004361003e3660046103a9565b610045565b005b336001600160a01b037f0000000000000000000000000000000000000000000000000000000000000000161461008e57604051636f61f64160e01b815260040160405180910390fd5b81156100c8576100c86001600160a01b037f0000000000000000000000000000000000000000000000000000000000000000168484610107565b8015610102576101026001600160a01b037f0000000000000000000000000000000000000000000000000000000000000000168483610107565b505050565b604080516001600160a01b03848116602483015260448083018590528351808403909101815260649092018352602080830180516001600160e01b031663a9059cbb60e01b17905283518085019094528084527f5361666545524332303a206c6f772d6c6576656c2063616c6c206661696c65649084015261010292869291600091610197918516908490610219565b80519091501561010257808060200190518101906101b591906103ea565b6101025760405162461bcd60e51b815260206004820152602a60248201527f5361666545524332303a204552433230206f7065726174696f6e20646964206e6044820152691bdd081cdd58d8d9595960b21b60648201526084015b60405180910390fd5b60606102288484600085610230565b949350505050565b6060824710156102915760405162461bcd60e51b815260206004820152602660248201527f416464726573733a20696e73756666696369656e742062616c616e636520666f6044820152651c8818d85b1b60d21b6064820152608401610210565b600080866001600160a01b031685876040516102ad9190610437565b60006040518083038185875af1925050503d80600081146102ea576040519150601f19603f3d011682016040523d82523d6000602084013e6102ef565b606091505b50915091506103008783838761030b565b979650505050505050565b6060831561037a578251600003610373576001600160a01b0385163b6103735760405162461bcd60e51b815260206004820152601d60248201527f416464726573733a2063616c6c20746f206e6f6e2d636f6e74726163740000006044820152606401610210565b5081610228565b610228838381511561038f5781518083602001fd5b8060405162461bcd60e51b81526004016102109190610453565b6000806000606084860312156103be57600080fd5b83356001600160a01b03811681146103d557600080fd5b95602085013595506040909401359392505050565b6000602082840312156103fc57600080fd5b8151801515811461040c57600080fd5b9392505050565b60005b8381101561042e578181015183820152602001610416565b50506000910152565b60008251610449818460208701610413565b9190910192915050565b6020815260008251806020840152610472816040850160208701610413565b601f01601f1916919091016040019291505056fea264697066735822122037bdba78ad80472041e64941d7abb24fca959772f9fc80806e469bbd68d5595d64736f6c634300081300330000000000000000000000000fea62084a024544891f03035e85401c2c886c1b000000000000000000000000833589fcd6edb6e08f4c7c32d4f71b54bda02913"
        }
      ],
      "isFixedGasLimit": false
    }
  ],
  "receipts": [
    {
      "type": "0x2",
      "status": "0x1",
      "cumulativeGasUsed": "0x43f509",
      "logs": [],
      "logsBloom": "0x00000000000000000000000000000000000000000000000000000000000000000000000000000000000000000000000000000000000000000000000000000000000000000000000000000000000000000000000000000000000000000000000000000000000000000000000000000000000000000000000000000000000000000000000000000000000000000000000000000000000000000000000000000000000000000000000000000000000000000000000000000000000000000000000000000000000000000000000000000000000000000000000000000000000000000000000000000000000000000000000000000000000000000000000000000000",
      "transactionHash": "0xdcefb23140caa339b41ffc4f0e7b8e9008c5586ef7160f807190fdf21c89af03",
      "transactionIndex": "0x1a",
      "blockHash": "0xf21f82d2275647e6c84b139eea51473126bf8928d4ca447f96f1fe72c6935f64",
      "blockNumber": "0x2eabc76",
      "gasUsed": "0xcfcc4",
      "effectiveGasPrice": "0x5a10bd",
      "blobGasUsed": "0x48e14",
      "from": "0x6708e21113922ed588bbccaa5ef756becbb2a7d1",
      "to": null,
      "contractAddress": "0x3fbbbd4c00ae3f40762bf58ccbbff92ec3ff4ecf",
      "l1GasPrice": "0xc7cd14b",
      "l1GasUsed": "0x7e1b",
      "l1Fee": "0x6d2cddec2",
      "l1BaseFeeScalar": "0x8dd",
      "l1BlobBaseFee": "0x63feac",
      "l1BlobBaseFeeScalar": "0x101c12",
      "daFootprintGasScalar": "0x94"
    },
    {
      "type": "0x2",
      "status": "0x1",
      "cumulativeGasUsed": "0xbb64c1",
      "logs": [
        {
          "address": "0x0fea62084a024544891f03035e85401c2c886c1b",
          "topics": [
            "0x8c5be1e5ebec7d5bd14f71427d1e84f3dd0314c0f7b2291e5b200ac8c7c3b925",
            "0x0000000000000000000000006708e21113922ed588bbccaa5ef756becbb2a7d1",
            "0x0000000000000000000000003fbbbd4c00ae3f40762bf58ccbbff92ec3ff4ecf"
          ],
          "data": "0x000000000000000000000000000000000000000000000000000000a2fb405800",
          "blockHash": "0x684b6e762db63b1add93b94e938d9209f79d764b6bf62ce4267d451ef87f81c9",
          "blockNumber": "0x2eabc77",
          "blockTimestamp": "0x6a5fd5d1",
          "transactionHash": "0x7a5cce538b633f47dfa1b7245fe977d8a2bb0262fcfe8642bf197f59a2009d5f",
          "transactionIndex": "0x60",
          "logIndex": "0x10b",
          "removed": false
        }
      ],
      "logsBloom": "0x00000000000000000000000000020000000000000000000000000000000000000000000000000000000000000000000000000000000000000000000000200000000000000000000000000000000000000000000000000000000000000000000000000000000000100000000000000000000000000000000000000000000000000000000000000000000000100000000000000000000000000000000000004000020000000100000000000000000000000000000000000000000000000000000000000000000000000000000000000000000000080000000000000000002200000010000000000000000000000000000000000000000000000000000100000000",
      "transactionHash": "0x7a5cce538b633f47dfa1b7245fe977d8a2bb0262fcfe8642bf197f59a2009d5f",
      "transactionIndex": "0x60",
      "blockHash": "0x684b6e762db63b1add93b94e938d9209f79d764b6bf62ce4267d451ef87f81c9",
      "blockNumber": "0x2eabc77",
      "gasUsed": "0xb371",
      "effectiveGasPrice": "0x5a10bd",
      "blobGasUsed": "0x39d0",
      "from": "0x6708e21113922ed588bbccaa5ef756becbb2a7d1",
      "to": "0x0fea62084a024544891f03035e85401c2c886c1b",
      "contractAddress": null,
      "l1GasPrice": "0xc7cd14b",
      "l1GasUsed": "0x640",
      "l1Fee": "0x5692cc78",
      "l1BaseFeeScalar": "0x8dd",
      "l1BlobBaseFee": "0x63feac",
      "l1BlobBaseFeeScalar": "0x101c12",
      "daFootprintGasScalar": "0x94"
    },
    {
      "type": "0x2",
      "status": "0x1",
      "cumulativeGasUsed": "0x41205d",
      "logs": [
        {
          "address": "0x0fea62084a024544891f03035e85401c2c886c1b",
          "topics": [
            "0xddf252ad1be2c89b69c2b068fc378daa952ba7f163c4a11628f55a4df523b3ef",
            "0x0000000000000000000000006708e21113922ed588bbccaa5ef756becbb2a7d1",
            "0x0000000000000000000000003fbbbd4c00ae3f40762bf58ccbbff92ec3ff4ecf"
          ],
          "data": "0x000000000000000000000000000000000000000000000000000000a2fb405800",
          "blockHash": "0x3907b24e26f38e6bb28a164803e9a125a16baa5e4c53011e61b85a025a114547",
          "blockNumber": "0x2eabc79",
          "blockTimestamp": "0x6a5fd5d5",
          "transactionHash": "0x6f8d35a4f982e1870afed3490faca09b2ef9c2871a8c9c69248c466876115327",
          "transactionIndex": "0x1d",
          "logIndex": "0x55",
          "removed": false
        },
        {
          "address": "0x3fbbbd4c00ae3f40762bf58ccbbff92ec3ff4ecf",
          "topics": [
            "0x5f1c8439d0d667d2c223ac6cdc938385543585868dcb9181f912487552ae921c"
          ],
          "data": "0x000000000000000000000000000000000000000000000000000000a2fb405800",
          "blockHash": "0x3907b24e26f38e6bb28a164803e9a125a16baa5e4c53011e61b85a025a114547",
          "blockNumber": "0x2eabc79",
          "blockTimestamp": "0x6a5fd5d5",
          "transactionHash": "0x6f8d35a4f982e1870afed3490faca09b2ef9c2871a8c9c69248c466876115327",
          "transactionIndex": "0x1d",
          "logIndex": "0x56",
          "removed": false
        }
      ],
      "logsBloom": "0x00000000000000000000000000020000000000000000000000000000000000000000000000008000000000000000008000000000000000000000000000000000000000000000000000000008000000000000000000000000000000000000000000000000000000100100000000000000000000000000000000000010000000000000000000000000000000100000000000000000000000000000000000004000000000000100000000000004000400000000000000000000000000000000000000020002000000000000000000000000000000080000000000000000002200000000000000000000000000000000000000000000000000000000000100000000",
      "transactionHash": "0x6f8d35a4f982e1870afed3490faca09b2ef9c2871a8c9c69248c466876115327",
      "transactionIndex": "0x1d",
      "blockHash": "0x3907b24e26f38e6bb28a164803e9a125a16baa5e4c53011e61b85a025a114547",
      "blockNumber": "0x2eabc79",
      "gasUsed": "0x13250",
      "effectiveGasPrice": "0x5a10bd",
      "blobGasUsed": "0x39d0",
      "from": "0x6708e21113922ed588bbccaa5ef756becbb2a7d1",
      "to": "0x3fbbbd4c00ae3f40762bf58ccbbff92ec3ff4ecf",
      "contractAddress": null,
      "l1GasPrice": "0xc94906b",
      "l1GasUsed": "0x640",
      "l1Fee": "0x57108e4e",
      "l1BaseFeeScalar": "0x8dd",
      "l1BlobBaseFee": "0x645e91",
      "l1BlobBaseFeeScalar": "0x101c12",
      "daFootprintGasScalar": "0x94"
    },
    {
      "type": "0x2",
      "status": "0x1",
      "cumulativeGasUsed": "0x3647fd",
      "logs": [
        {
          "address": "0x420dd381b31aef6683db6b902084cb0ffece40da",
          "topics": [
            "0x2128d88d14c80cb081c1252a5acff7a264671bf199ce226b53788fb26065005e",
            "0x0000000000000000000000000fea62084a024544891f03035e85401c2c886c1b",
            "0x000000000000000000000000833589fcd6edb6e08f4c7c32d4f71b54bda02913",
            "0x0000000000000000000000000000000000000000000000000000000000000001"
          ],
          "data": "0x000000000000000000000000e9e60e513fb43f6b8b0a2f71af099a189732def10000000000000000000000000000000000000000000000000000000000006e5b",
          "blockHash": "0x0000000000000000000000000000000000000000000000000000000000000000",
          "blockNumber": "0x2eabc7b",
          "blockTimestamp": "0x6a5fd5d9",
          "transactionHash": "0x96cbe5f4b23e51b8cdb687ad66d447d2a2311e191c81e41bc0212dbf3ad374b6",
          "transactionIndex": "0x1d",
          "logIndex": "0x26",
          "removed": false
        }
      ],
      "logsBloom": "0x00000100000800000020000000000000000000000000000000000000000000000000000000002000000000000000000000000000800000000000000000040000000000000000040000000000000000000000000000040000000000000000000000000000000000000000000000000000010000000000000000000000000000000000000000000000400000000000000000000000000000000000000000000000000000000000000000000000000000000400000000000000000000000000000000000001000000000000000000000000000000000000000000000000000040000000000000000000000000000000000400000000000000000000400000000000",
      "transactionHash": "0x96cbe5f4b23e51b8cdb687ad66d447d2a2311e191c81e41bc0212dbf3ad374b6",
      "transactionIndex": "0x1d",
      "blockHash": "0x0000000000000000000000000000000000000000000000000000000000000000",
      "blockNumber": "0x2eabc7b",
      "gasUsed": "0xaeb3a",
      "effectiveGasPrice": "0x5a10bd",
      "blobGasUsed": "0x3d48",
      "from": "0x6708e21113922ed588bbccaa5ef756becbb2a7d1",
      "to": "0x420dd381b31aef6683db6b902084cb0ffece40da",
      "contractAddress": null,
      "l1GasPrice": "0xc94906b",
      "l1GasUsed": "0x6a4",
      "l1Fee": "0x57108e4e",
      "l1BaseFeeScalar": "0x8dd",
      "l1BlobBaseFee": "0x645e91",
      "l1BlobBaseFeeScalar": "0x101c12",
      "daFootprintGasScalar": "0x94"
    }
  ],
  "libraries": [],
  "pending": [],
  "returns": {},
  "timestamp": 1784665560805,
  "chain": 8453,
  "commit": "c76b26f"
}