{
  "transactions": [
    {
      "hash": "0x914a8a207a71bd70bdcc22463a6c439be486d6c22ca4a1c2feb6a525b6d31965",
      "transactionType": "CALL",
      "contractName": null,
      "contractAddress": "0x1b61da8f654569f48ac7e2752bd3d8016ed4fcb9",
      "function": "setRails(address,address,address,address)",
      "arguments": [
        "0x70dcAb53a156936A9fBAf7785176BebDfd057012",
        "0x683886A3911323e92A6C764c3331CAC168D0029E",
        "0xbC47996a7B34F049DF4701116BA7936F360a7242",
        "0xB96BcfFBB458581a3AF7fEd3150B7CD4b233A7b9"
      ],
      "transaction": {
        "from": "0x6708e21113922ed588bbccaa5ef756becbb2a7d1",
        "to": "0x1b61da8f654569f48ac7e2752bd3d8016ed4fcb9",
        "gas": "0xc32c",
        "value": "0x0",
        "input": "0x9c88d8d500000000000000000000000070dcab53a156936a9fbaf7785176bebdfd057012000000000000000000000000683886a3911323e92a6c764c3331cac168d0029e000000000000000000000000bc47996a7b34f049df4701116ba7936f360a7242000000000000000000000000b96bcffbb458581a3af7fed3150b7cd4b233a7b9",
        "nonce": "0x38a",
        "chainId": "0x2105"
      },
      "additionalContracts": [],
      "isFixedGasLimit": false
    },
    {
      "hash": "0x2a89b58ed838f5fc912b68a0b94b3ee1c8631bc2af4252131b32fb2349682747",
      "transactionType": "CALL",
      "contractName": null,
      "contractAddress": "0x7a305d07b537359cf468eaea9bb176e5308bc337",
      "function": "approve(address,uint256)",
      "arguments": [
        "0x1B61Da8F654569F48AC7E2752BD3d8016ED4fcb9",
        "200000000000000000000000"
      ],
      "transaction": {
        "from": "0x6708e21113922ed588bbccaa5ef756becbb2a7d1",
        "to": "0x7a305d07b537359cf468eaea9bb176e5308bc337",
        "gas": "0x10aeb",
        "value": "0x0",
        "input": "0x095ea7b30000000000000000000000001b61da8f654569f48ac7e2752bd3d8016ed4fcb9000000000000000000000000000000000000000000002a5a058fc295ed000000",
        "nonce": "0x38b",
        "chainId": "0x2105"
      },
      "additionalContracts": [],
      "isFixedGasLimit": false
    },
    {
      "hash": "0x2f06d04ec38090914dd2d55ff6b723844179ce24a9753c8e81986a3bd5f0f27a",
      "transactionType": "CALL",
      "contractName": null,
      "contractAddress": "0x1b61da8f654569f48ac7e2752bd3d8016ed4fcb9",
      "function": "depositPcv(uint256)",
      "arguments": [
        "200000000000000000000000"
      ],
      "transaction": {
        "from": "0x6708e21113922ed588bbccaa5ef756becbb2a7d1",
        "to": "0x1b61da8f654569f48ac7e2752bd3d8016ed4fcb9",
        "gas": "0x1c893",
        "value": "0x0",
        "input": "0x824a33ba000000000000000000000000000000000000000000002a5a058fc295ed000000",
        "nonce": "0x38c",
        "chainId": "0x2105"
      },
      "additionalContracts": [],
      "isFixedGasLimit": false
    },
    {
      "hash": "0x6185a880dff84f15760f1e827f62611b59511ba5a2e4650bf590030bcccfc211",
      "transactionType": "CALL",
      "contractName": null,
      "contractAddress": "0x833589fcd6edb6e08f4c7c32d4f71b54bda02913",
      "function": "approve(address,uint256)",
      "arguments": [
        "0x1B61Da8F654569F48AC7E2752BD3d8016ED4fcb9",
        "1000000"
      ],
      "transaction": {
        "from": "0x6708e21113922ed588bbccaa5ef756becbb2a7d1",
        "to": "0x833589fcd6edb6e08f4c7c32d4f71b54bda02913",
        "gas": "0x12b1b",
        "value": "0x0",
        "input": "0x095ea7b30000000000000000000000001b61da8f654569f48ac7e2752bd3d8016ed4fcb900000000000000000000000000000000000000000000000000000000000f4240",
        "nonce": "0x38d",
        "chainId": "0x2105"
      },
      "additionalContracts": [],
      "isFixedGasLimit": false
    },
    {
      "hash": "0x15a8bfba8f8276f2a8f79e020c066c35ebf20fcecd7f705ac6856e0b6ecbe2c9",
      "transactionType": "CALL",
      "contractName": null,
      "contractAddress": "0x1b61da8f654569f48ac7e2752bd3d8016ed4fcb9",
      "function": "seedLbpFromPcv(uint256,uint256,uint64)",
      "arguments": [
        "50000000000000000000000",
        "1000000",
        "172800"
      ],
      "transaction": {
        "from": "0x6708e21113922ed588bbccaa5ef756becbb2a7d1",
        "to": "0x1b61da8f654569f48ac7e2752bd3d8016ed4fcb9",
        "gas": "0x508a5",
        "value": "0x0",
        "input": "0xbdabc52f000000000000000000000000000000000000000000000a968163f0a57b40000000000000000000000000000000000000000000000000000000000000000f4240000000000000000000000000000000000000000000000000000000000002a300",
        "nonce": "0x38e",
        "chainId": "0x2105"
      },
      "additionalContracts": [],
      "isFixedGasLimit": false
    },
    {
      "hash": "0x83ef886b6d8dfff9f58dd600d218bea854064001b49358ab0b7188d0357dc65f",
      "transactionType": "CALL",
      "contractName": null,
      "contractAddress": "0x1b61da8f654569f48ac7e2752bd3d8016ed4fcb9",
      "function": "postMorphoBook(uint256)",
      "arguments": [
        "50000000000000000000000"
      ],
      "transaction": {
        "from": "0x6708e21113922ed588bbccaa5ef756becbb2a7d1",
        "to": "0x1b61da8f654569f48ac7e2752bd3d8016ed4fcb9",
        "gas": "0x22ed2",
        "value": "0x0",
        "input": "0x7bc0c812000000000000000000000000000000000000000000000a968163f0a57b400000",
        "nonce": "0x38f",
        "chainId": "0x2105"
      },
      "additionalContracts": [],
      "isFixedGasLimit": false
    }
  ],
  "receipts": [
    {
      "type": "0x2",
      "status": "0x1",
      "cumulativeGasUsed": "0xaa62b6",
      "logs": [
        {
          "address": "0x1b61da8f654569f48ac7e2752bd3d8016ed4fcb9",
          "topics": [
            "0x179105829a7ded9d784bcc3aa208c2460b197bbda2ce77c6a8ee169965c93957"
          ],
          "data": "0x00000000000000000000000070dcab53a156936a9fbaf7785176bebdfd057012000000000000000000000000683886a3911323e92a6c764c3331cac168d0029e000000000000000000000000bc47996a7b34f049df4701116ba7936f360a7242000000000000000000000000b96bcffbb458581a3af7fed3150b7cd4b233a7b9",
          "blockHash": "0x0000000000000000000000000000000000000000000000000000000000000000",
          "blockNumber": "0x2ead684",
          "blockTimestamp": "0x6a6009eb",
          "transactionHash": "0x914a8a207a71bd70bdcc22463a6c439be486d6c22ca4a1c2feb6a525b6d31965",
          "transactionIndex": "0x3e",
          "logIndex": "0xc6",
          "removed": false
        }
      ],
      "logsBloom": "0x00000000000000000000000000000000000000000000000000000000000000000000000000000000000000000001000000000000020000000000000000000000000000000000000000000000000000000000000000000000000000000000000000000000000000000000000000000000000000000000000000000000000000000000000000000000000000000000000000000000000000000000000000000000000000000000000000000000820000000000000000000000000000000000000000000000000000000000000000000000000000000000000000000000000000000000000000000000000000000000000000080000000000000000000008000000",
      "transactionHash": "0x914a8a207a71bd70bdcc22463a6c439be486d6c22ca4a1c2feb6a525b6d31965",
      "transactionIndex": "0x3e",
      "blockHash": "0x0000000000000000000000000000000000000000000000000000000000000000",
      "blockNumber": "0x2ead684",
      "gasUsed": "0x8d4e",
      "effectiveGasPrice": "0x4c85d8",
      "blobGasUsed": "0x5218",
      "from": "0x6708e21113922ed588bbccaa5ef756becbb2a7d1",
      "to": "0x1b61da8f654569f48ac7e2752bd3d8016ed4fcb9",
      "contractAddress": null,
      "l1GasPrice": "0x4753aae",
      "l1GasUsed": "0x8e4",
      "l1Fee": "0x40484652",
      "l1BaseFeeScalar": "0x8dd",
      "l1BlobBaseFee": "0x40cda7",
      "l1BlobBaseFeeScalar": "0x101c12",
      "daFootprintGasScalar": "0x94"
    },
    {
      "type": "0x2",
      "status": "0x1",
      "cumulativeGasUsed": "0x1f54ce4",
      "logs": [
        {
          "address": "0x7a305d07b537359cf468eaea9bb176e5308bc337",
          "topics": [
            "0x8c5be1e5ebec7d5bd14f71427d1e84f3dd0314c0f7b2291e5b200ac8c7c3b925",
            "0x0000000000000000000000006708e21113922ed588bbccaa5ef756becbb2a7d1",
            "0x0000000000000000000000001b61da8f654569f48ac7e2752bd3d8016ed4fcb9"
          ],
          "data": "0x000000000000000000000000000000000000000000002a5a058fc295ed000000",
          "blockHash": "0xe348c416f2b52765092c113b659d1cfcacac8ef39de252c867eb40cdc64e93bd",
          "blockNumber": "0x2ead685",
          "blockTimestamp": "0x6a6009ed",
          "transactionHash": "0x2a89b58ed838f5fc912b68a0b94b3ee1c8631bc2af4252131b32fb2349682747",
          "transactionIndex": "0xbf",
          "logIndex": "0x298",
          "removed": false
        }
      ],
      "logsBloom": "0x00000000000000000000000000000000000200020000000000000000000000000000000000000000000000000000000000000000000000000000000000200000000000000000000000000000000000000000000000000000000000000000000000000000000000000000000000000000000000000000000000400000000000100000000000000000000000100000000000000000000000000000000000004004020000000000000000000000000000000000000000000000000000000000000000000000000000000000000000000000000000000000000000000000002000000010000000000000000000000000000000000008000000000000000000000000",
      "transactionHash": "0x2a89b58ed838f5fc912b68a0b94b3ee1c8631bc2af4252131b32fb2349682747",
      "transactionIndex": "0xbf",
      "blockHash": "0xe348c416f2b52765092c113b659d1cfcacac8ef39de252c867eb40cdc64e93bd",
      "blockNumber": "0x2ead685",
      "gasUsed": "0xb683",
      "effectiveGasPrice": "0x4c85d8",
      "blobGasUsed": "0x39d0",
      "from": "0x6708e21113922ed588bbccaa5ef756becbb2a7d1",
      "to": "0x7a305d07b537359cf468eaea9bb176e5308bc337",
      "contractAddress": null,
      "l1GasPrice": "0x4753aae",
      "l1GasUsed": "0x640",
      "l1Fee": "0x2ae8cecd",
      "l1BaseFeeScalar": "0x8dd",
      "l1BlobBaseFee": "0x40cda7",
      "l1BlobBaseFeeScalar": "0x101c12",
      "daFootprintGasScalar": "0x94"
    },
    {
      "type": "0x2",
      "status": "0x1",
      "cumulativeGasUsed": "0x2991510",
      "logs": [
        {
          "address": "0x7a305d07b537359cf468eaea9bb176e5308bc337",
          "topics": [
            "0xddf252ad1be2c89b69c2b068fc378daa952ba7f163c4a11628f55a4df523b3ef",
            "0x0000000000000000000000006708e21113922ed588bbccaa5ef756becbb2a7d1",
            "0x0000000000000000000000001b61da8f654569f48ac7e2752bd3d8016ed4fcb9"
          ],
          "data": "0x000000000000000000000000000000000000000000002a5a058fc295ed000000",
          "blockHash": "0x29db51c1781562e320c0defef3095ffd920e148c2016ca379b1e830bbc54fd2e",
          "blockNumber": "0x2ead686",
          "blockTimestamp": "0x6a6009ef",
          "transactionHash": "0x2f06d04ec38090914dd2d55ff6b723844179ce24a9753c8e81986a3bd5f0f27a",
          "transactionIndex": "0xed",
          "logIndex": "0x1ee",
          "removed": false
        },
        {
          "address": "0x1b61da8f654569f48ac7e2752bd3d8016ed4fcb9",
          "topics": [
            "0x63e44e596c609ef46281500aba2fcfe2b3dc0589d607cffdd9b6a4ca881edeea"
          ],
          "data": "0x000000000000000000000000000000000000000000002a5a058fc295ed000000",
          "blockHash": "0x29db51c1781562e320c0defef3095ffd920e148c2016ca379b1e830bbc54fd2e",
          "blockNumber": "0x2ead686",
          "blockTimestamp": "0x6a6009ef",
          "transactionHash": "0x2f06d04ec38090914dd2d55ff6b723844179ce24a9753c8e81986a3bd5f0f27a",
          "transactionIndex": "0xed",
          "logIndex": "0x1ef",
          "removed": false
        }
      ],
      "logsBloom": "0x00000000000000000000000000000000000200020000000000000000000000000000010000000000000000000000000000000000020000000000000000000000000000000000000000000008000000000000000000000000000000000000000000000000000000000000000000000000000000000000000000400210000000100000000000000000000000100000000000000000000000000000000000004004000000000000000000000000020000000000000000000000000000000000000000000002000000000000000000000000000000000000000000000000002000000000000000000000000000000000000000000008000008000000000008000000",
      "transactionHash": "0x2f06d04ec38090914dd2d55ff6b723844179ce24a9753c8e81986a3bd5f0f27a",
      "transactionIndex": "0xed",
      "blockHash": "0x29db51c1781562e320c0defef3095ffd920e148c2016ca379b1e830bbc54fd2e",
      "blockNumber": "0x2ead686",
      "gasUsed": "0x14a8e",
      "effectiveGasPrice": "0x4c85d8",
      "blobGasUsed": "0x39d0",
      "from": "0x6708e21113922ed588bbccaa5ef756becbb2a7d1",
      "to": "0x1b61da8f654569f48ac7e2752bd3d8016ed4fcb9",
      "contractAddress": null,
      "l1GasPrice": "0x4753aae",
      "l1GasUsed": "0x640",
      "l1Fee": "0x2ae8cecd",
      "l1BaseFeeScalar": "0x8dd",
      "l1BlobBaseFee": "0x40cda7",
      "l1BlobBaseFeeScalar": "0x101c12",
      "daFootprintGasScalar": "0x94"
    },
    {
      "type": "0x2",
      "status": "0x1",
      "cumulativeGasUsed": "0x1416427",
      "logs": [
        {
          "address": "0x833589fcd6edb6e08f4c7c32d4f71b54bda02913",
          "topics": [
            "0x8c5be1e5ebec7d5bd14f71427d1e84f3dd0314c0f7b2291e5b200ac8c7c3b925",
            "0x0000000000000000000000006708e21113922ed588bbccaa5ef756becbb2a7d1",
            "0x0000000000000000000000001b61da8f654569f48ac7e2752bd3d8016ed4fcb9"
          ],
          "data": "0x00000000000000000000000000000000000000000000000000000000000f4240",
          "blockHash": "0x084072b9375796bbd71c96eb3a668127ec6684c6e746959d152d77c9da2b1a14",
          "blockNumber": "0x2ead687",
          "blockTimestamp": "0x6a6009f1",
          "transactionHash": "0x6185a880dff84f15760f1e827f62611b59511ba5a2e4650bf590030bcccfc211",
          "transactionIndex": "0x9b",
          "logIndex": "0x17a",
          "removed": false
        }
      ],
      "logsBloom": "0x00000000000000000000000000000000000200000000000000000000000000000000000000000000000000000000100000000000000000000000000000200000000000000000000000000000000000000000000000080000000000000000000000800000000000000000000000000000000000000000000000000000000000100000000000000000000000100000000000000000000000000000000000004000020000000000000000000000000000000000000000000000000000000000000000000000000000000000000000000000000000000000000000000000002000000010000000000000000000000000000000000008000000000000000000000000",
      "transactionHash": "0x6185a880dff84f15760f1e827f62611b59511ba5a2e4650bf590030bcccfc211",
      "transactionIndex": "0x9b",
      "blockHash": "0x084072b9375796bbd71c96eb3a668127ec6684c6e746959d152d77c9da2b1a14",
      "blockNumber": "0x2ead687",
      "gasUsed": "0xd88d",
      "effectiveGasPrice": "0x4c85d8",
      "blobGasUsed": "0x39d0",
      "from": "0x6708e21113922ed588bbccaa5ef756becbb2a7d1",
      "to": "0x833589fcd6edb6e08f4c7c32d4f71b54bda02913",
      "contractAddress": null,
      "l1GasPrice": "0x4753aae",
      "l1GasUsed": "0x640",
      "l1Fee": "0x2ae8cecd",
      "l1BaseFeeScalar": "0x8dd",
      "l1BlobBaseFee": "0x40cda7",
      "l1BlobBaseFeeScalar": "0x101c12",
      "daFootprintGasScalar": "0x94"
    },
    {
      "type": "0x2",
      "status": "0x1",
      "cumulativeGasUsed": "0xb26b9f",
      "logs": [
        {
          "address": "0x7a305d07b537359cf468eaea9bb176e5308bc337",
          "topics": [
            "0x8c5be1e5ebec7d5bd14f71427d1e84f3dd0314c0f7b2291e5b200ac8c7c3b925",
            "0x0000000000000000000000001b61da8f654569f48ac7e2752bd3d8016ed4fcb9",
            "0x00000000000000000000000070dcab53a156936a9fbaf7785176bebdfd057012"
          ],
          "data": "0x000000000000000000000000000000000000000000000a968163f0a57b400000",
          "blockHash": "0xec9cf12e13df9618f1d418d63f7959f89c7e56a539bca837a906ebf279ce734e",
          "blockNumber": "0x2ead688",
          "blockTimestamp": "0x6a6009f3",
          "transactionHash": "0x15a8bfba8f8276f2a8f79e020c066c35ebf20fcecd7f705ac6856e0b6ecbe2c9",
          "transactionIndex": "0x50",
          "logIndex": "0xe7",
          "removed": false
        },
        {
          "address": "0x833589fcd6edb6e08f4c7c32d4f71b54bda02913",
          "topics": [
            "0xddf252ad1be2c89b69c2b068fc378daa952ba7f163c4a11628f55a4df523b3ef",
            "0x0000000000000000000000006708e21113922ed588bbccaa5ef756becbb2a7d1",
            "0x0000000000000000000000001b61da8f654569f48ac7e2752bd3d8016ed4fcb9"
          ],
          "data": "0x00000000000000000000000000000000000000000000000000000000000f4240",
          "blockHash": "0xec9cf12e13df9618f1d418d63f7959f89c7e56a539bca837a906ebf279ce734e",
          "blockNumber": "0x2ead688",
          "blockTimestamp": "0x6a6009f3",
          "transactionHash": "0x15a8bfba8f8276f2a8f79e020c066c35ebf20fcecd7f705ac6856e0b6ecbe2c9",
          "transactionIndex": "0x50",
          "logIndex": "0xe8",
          "removed": false
        },
        {
          "address": "0x833589fcd6edb6e08f4c7c32d4f71b54bda02913",
          "topics": [
            "0x8c5be1e5ebec7d5bd14f71427d1e84f3dd0314c0f7b2291e5b200ac8c7c3b925",
            "0x0000000000000000000000001b61da8f654569f48ac7e2752bd3d8016ed4fcb9",
            "0x00000000000000000000000070dcab53a156936a9fbaf7785176bebdfd057012"
          ],
          "data": "0x00000000000000000000000000000000000000000000000000000000000f4240",
          "blockHash": "0xec9cf12e13df9618f1d418d63f7959f89c7e56a539bca837a906ebf279ce734e",
          "blockNumber": "0x2ead688",
          "blockTimestamp": "0x6a6009f3",
          "transactionHash": "0x15a8bfba8f8276f2a8f79e020c066c35ebf20fcecd7f705ac6856e0b6ecbe2c9",
          "transactionIndex": "0x50",
          "logIndex": "0xe9",
          "removed": false
        },
        {
          "address": "0x7a305d07b537359cf468eaea9bb176e5308bc337",
          "topics": [
            "0xddf252ad1be2c89b69c2b068fc378daa952ba7f163c4a11628f55a4df523b3ef",
            "0x0000000000000000000000001b61da8f654569f48ac7e2752bd3d8016ed4fcb9",
            "0x00000000000000000000000070dcab53a156936a9fbaf7785176bebdfd057012"
          ],
          "data": "0x000000000000000000000000000000000000000000000a968163f0a57b400000",
          "blockHash": "0xec9cf12e13df9618f1d418d63f7959f89c7e56a539bca837a906ebf279ce734e",
          "blockNumber": "0x2ead688",
          "blockTimestamp": "0x6a6009f3",
          "transactionHash": "0x15a8bfba8f8276f2a8f79e020c066c35ebf20fcecd7f705ac6856e0b6ecbe2c9",
          "transactionIndex": "0x50",
          "logIndex": "0xea",
          "removed": false
        },
        {
          "address": "0x833589fcd6edb6e08f4c7c32d4f71b54bda02913",
          "topics": [
            "0xddf252ad1be2c89b69c2b068fc378daa952ba7f163c4a11628f55a4df523b3ef",
            "0x0000000000000000000000001b61da8f654569f48ac7e2752bd3d8016ed4fcb9",
            "0x00000000000000000000000070dcab53a156936a9fbaf7785176bebdfd057012"
          ],
          "data": "0x00000000000000000000000000000000000000000000000000000000000f4240",
          "blockHash": "0xec9cf12e13df9618f1d418d63f7959f89c7e56a539bca837a906ebf279ce734e",
          "blockNumber": "0x2ead688",
          "blockTimestamp": "0x6a6009f3",
          "transactionHash": "0x15a8bfba8f8276f2a8f79e020c066c35ebf20fcecd7f705ac6856e0b6ecbe2c9",
          "transactionIndex": "0x50",
          "logIndex": "0xeb",
          "removed": false
        },
        {
          "address": "0x70dcab53a156936a9fbaf7785176bebdfd057012",
          "topics": [
            "0xb04da588109787f2e1bce4cc15cc0e414cae26034cea4902695311f75568bf87"
          ],
          "data": "0x000000000000000000000000000000000000000000000a968163f0a57b40000000000000000000000000000000000000000000000000000000000000000f4240000000000000000000000000000000000000000000000000000000000002a300",
          "blockHash": "0xec9cf12e13df9618f1d418d63f7959f89c7e56a539bca837a906ebf279ce734e",
          "blockNumber": "0x2ead688",
          "blockTimestamp": "0x6a6009f3",
          "transactionHash": "0x15a8bfba8f8276f2a8f79e020c066c35ebf20fcecd7f705ac6856e0b6ecbe2c9",
          "transactionIndex": "0x50",
          "logIndex": "0xec",
          "removed": false
        },
        {
          "address": "0x1b61da8f654569f48ac7e2752bd3d8016ed4fcb9",
          "topics": [
            "0x383c17ca96ee606b029974321d5296226ca92e280fe7fe094910e928c949b737"
          ],
          "data": "0x000000000000000000000000000000000000000000000a968163f0a57b40000000000000000000000000000000000000000000000000000000000000000f4240000000000000000000000000000000000000000000000000000000000002a300",
          "blockHash": "0xec9cf12e13df9618f1d418d63f7959f89c7e56a539bca837a906ebf279ce734e",
          "blockNumber": "0x2ead688",
          "blockTimestamp": "0x6a6009f3",
          "transactionHash": "0x15a8bfba8f8276f2a8f79e020c066c35ebf20fcecd7f705ac6856e0b6ecbe2c9",
          "transactionIndex": "0x50",
          "logIndex": "0xed",
          "removed": false
        }
      ],
      "logsBloom": "0x00000000000000000400000000000000000201020000000008000000000000000000000000000000000000000000100000000000020000000000000000200000000000000000000000000008000010000000000000080000000000000000000000800000000000000000000000000000000000000000000000400010000000100000020000000000000000100000000000000000000000000000000000004004220000000000000000000000020000100000000100000008000000000000000000000002000000000000000000000000000000000000000000000000002002000010000000000000000000001000000000000808000000000000000008000000",
      "transactionHash": "0x15a8bfba8f8276f2a8f79e020c066c35ebf20fcecd7f705ac6856e0b6ecbe2c9",
      "transactionIndex": "0x50",
      "blockHash": "0xec9cf12e13df9618f1d418d63f7959f89c7e56a539bca837a906ebf279ce734e",
      "blockNumber": "0x2ead688",
      "gasUsed": "0x3a4f5",
      "effectiveGasPrice": "0x4c85d8",
      "blobGasUsed": "0x39d0",
      "from": "0x6708e21113922ed588bbccaa5ef756becbb2a7d1",
      "to": "0x1b61da8f654569f48ac7e2752bd3d8016ed4fcb9",
      "contractAddress": null,
      "l1GasPrice": "0x4a827d7",
      "l1GasUsed": "0x640",
      "l1Fee": "0x2beede81",
      "l1BaseFeeScalar": "0x8dd",
      "l1BlobBaseFee": "0x4188cb",
      "l1BlobBaseFeeScalar": "0x101c12",
      "daFootprintGasScalar": "0x94"
    },
    {
      "type": "0x2",
      "status": "0x1",
      "cumulativeGasUsed": "0xd6d5a7",
      "logs": [
        {
          "address": "0x7a305d07b537359cf468eaea9bb176e5308bc337",
          "topics": [
            "0x8c5be1e5ebec7d5bd14f71427d1e84f3dd0314c0f7b2291e5b200ac8c7c3b925",
            "0x0000000000000000000000001b61da8f654569f48ac7e2752bd3d8016ed4fcb9",
            "0x000000000000000000000000bbbbbbbbbb9cc5e90e3b3af64bdaf62c37eeffcb"
          ],
          "data": "0x000000000000000000000000000000000000000000000a968163f0a57b400000",
          "blockHash": "0x0000000000000000000000000000000000000000000000000000000000000000",
          "blockNumber": "0x2ead689",
          "blockTimestamp": "0x6a6009f5",
          "transactionHash": "0x83ef886b6d8dfff9f58dd600d218bea854064001b49358ab0b7188d0357dc65f",
          "transactionIndex": "0x5d",
          "logIndex": "0x11f",
          "removed": false
        },
        {
          "address": "0xbbbbbbbbbb9cc5e90e3b3af64bdaf62c37eeffcb",
          "topics": [
            "0xa3b9472a1399e17e123f3c2e6586c23e504184d504de59cdaa2b375e880c6184",
            "0x40ac09f34c5bc0b0b6d9b5f1ec1b97a6a149ff6278104797c9cb740453a2b794",
            "0x0000000000000000000000001b61da8f654569f48ac7e2752bd3d8016ed4fcb9",
            "0x0000000000000000000000001b61da8f654569f48ac7e2752bd3d8016ed4fcb9"
          ],
          "data": "0x000000000000000000000000000000000000000000000a968163f0a57b400000",
          "blockHash": "0x0000000000000000000000000000000000000000000000000000000000000000",
          "blockNumber": "0x2ead689",
          "blockTimestamp": "0x6a6009f5",
          "transactionHash": "0x83ef886b6d8dfff9f58dd600d218bea854064001b49358ab0b7188d0357dc65f",
          "transactionIndex": "0x5d",
          "logIndex": "0x120",
          "removed": false
        },
        {
          "address": "0x7a305d07b537359cf468eaea9bb176e5308bc337",
          "topics": [
            "0xddf252ad1be2c89b69c2b068fc378daa952ba7f163c4a11628f55a4df523b3ef",
            "0x0000000000000000000000001b61da8f654569f48ac7e2752bd3d8016ed4fcb9",
            "0x000000000000000000000000bbbbbbbbbb9cc5e90e3b3af64bdaf62c37eeffcb"
          ],
          "data": "0x000000000000000000000000000000000000000000000a968163f0a57b400000",
          "blockHash": "0x0000000000000000000000000000000000000000000000000000000000000000",
          "blockNumber": "0x2ead689",
          "blockTimestamp": "0x6a6009f5",
          "transactionHash": "0x83ef886b6d8dfff9f58dd600d218bea854064001b49358ab0b7188d0357dc65f",
          "transactionIndex": "0x5d",
          "logIndex": "0x121",
          "removed": false
        },
        {
          "address": "0x1b61da8f654569f48ac7e2752bd3d8016ed4fcb9",
          "topics": [
            "0x8193ba7e936bac1df237655468d3e8a24915499e3832d43c0f41b0c8a8279a0a"
          ],
          "data": "0x000000000000000000000000000000000000000000000a968163f0a57b400000",
          "blockHash": "0x0000000000000000000000000000000000000000000000000000000000000000",
          "blockNumber": "0x2ead689",
          "blockTimestamp": "0x6a6009f5",
          "transactionHash": "0x83ef886b6d8dfff9f58dd600d218bea854064001b49358ab0b7188d0357dc65f",
          "transactionIndex": "0x5d",
          "logIndex": "0x122",
          "removed": false
        }
      ],
      "logsBloom": "0x00000000000000800000000000000081000200020000000000000000000000000000000000000000000000000000000000000000020000000000000000240000000000000010000000000008000000000000000000000000000000000000000000000000000000000000000001000000000000000000000000400010000000100000008000000008000000000000000000000000000000000000000000a00004020000000000000000000000020000000000000000000000000000000000000020000002000000000000000000000000000000000000000400000000000000000010000001000000000000200000200000000008000000000000000008000000",
      "transactionHash": "0x83ef886b6d8dfff9f58dd600d218bea854064001b49358ab0b7188d0357dc65f",
      "transactionIndex": "0x5d",
      "blockHash": "0x0000000000000000000000000000000000000000000000000000000000000000",
      "blockNumber": "0x2ead689",
      "gasUsed": "0x19494",
      "effectiveGasPrice": "0x4c85d8",
      "blobGasUsed": "0x39d0",
      "from": "0x6708e21113922ed588bbccaa5ef756becbb2a7d1",
      "to": "0x1b61da8f654569f48ac7e2752bd3d8016ed4fcb9",
      "contractAddress": null,
      "l1GasPrice": "0x4a827d7",
      "l1GasUsed": "0x640",
      "l1Fee": "0x43492ffc",
      "l1BaseFeeScalar": "0x8dd",
      "l1BlobBaseFee": "0x4188cb",
      "l1BlobBaseFeeScalar": "0x101c12",
      "daFootprintGasScalar": "0x94"
    }
  ],
  "libraries": [],
  "pending": [],
  "returns": {},
  "timestamp": 1784678901093,
  "chain": 8453,
  "commit": "0c63520"
}