{
  "transactions": [
    {
      "hash": "0x0967d2a549aeef8bbbca941805c300b836c71941fa1b0a9075d28fc5f23a193a",
      "transactionType": "CALL",
      "contractName": null,
      "contractAddress": "0x61bfd6f7df1f72427f472144d043c25d742d145e",
      "function": "approve(address,uint256)",
      "arguments": [
        "0x01D1De8796B1dDbdB5C900277A54b6944C125906",
        "115792089237316195423570985008687907853269984665640564039457584007913129639935"
      ],
      "transaction": {
        "from": "0x6708e21113922ed588bbccaa5ef756becbb2a7d1",
        "to": "0x61bfd6f7df1f72427f472144d043c25d742d145e",
        "gas": "0xfa06",
        "value": "0x0",
        "input": "0x095ea7b300000000000000000000000001d1de8796b1ddbdb5c900277a54b6944c125906ffffffffffffffffffffffffffffffffffffffffffffffffffffffffffffffff",
        "nonce": "0x4c0",
        "chainId": "0x2105"
      },
      "additionalContracts": [],
      "isFixedGasLimit": false
    },
    {
      "hash": "0x0caffdddba2242e4f9660c5ba60f5f4bc954aa5ca59642b0aa67d6f3d8eaee47",
      "transactionType": "CALL",
      "contractName": null,
      "contractAddress": "0x833589fcd6edb6e08f4c7c32d4f71b54bda02913",
      "function": "transfer(address,uint256)",
      "arguments": [
        "0x01D1De8796B1dDbdB5C900277A54b6944C125906",
        "5649319"
      ],
      "transaction": {
        "from": "0x6708e21113922ed588bbccaa5ef756becbb2a7d1",
        "to": "0x833589fcd6edb6e08f4c7c32d4f71b54bda02913",
        "gas": "0x1479d",
        "value": "0x0",
        "input": "0xa9059cbb00000000000000000000000001d1de8796b1ddbdb5c900277a54b6944c12590600000000000000000000000000000000000000000000000000000000005633a7",
        "nonce": "0x4c1",
        "chainId": "0x2105"
      },
      "additionalContracts": [],
      "isFixedGasLimit": false
    },
    {
      "hash": "0x704afa3365e21a76ffc69b484f7998cb803495b3ba44abcb8d06fb9a4109cb63",
      "transactionType": "CALL",
      "contractName": null,
      "contractAddress": "0x01d1de8796b1ddbdb5c900277a54b6944c125906",
      "function": "unwind()",
      "arguments": [],
      "transaction": {
        "from": "0x6708e21113922ed588bbccaa5ef756becbb2a7d1",
        "to": "0x01d1de8796b1ddbdb5c900277a54b6944c125906",
        "gas": "0x6c8fb",
        "value": "0x0",
        "input": "0x807763ab",
        "nonce": "0x4c2",
        "chainId": "0x2105"
      },
      "additionalContracts": [],
      "isFixedGasLimit": false
    }
  ],
  "receipts": [
    {
      "type": "0x2",
      "status": "0x1",
      "cumulativeGasUsed": "0x1335a63",
      "logs": [
        {
          "address": "0x61bfd6f7df1f72427f472144d043c25d742d145e",
          "topics": [
            "0x8c5be1e5ebec7d5bd14f71427d1e84f3dd0314c0f7b2291e5b200ac8c7c3b925",
            "0x0000000000000000000000006708e21113922ed588bbccaa5ef756becbb2a7d1",
            "0x00000000000000000000000001d1de8796b1ddbdb5c900277a54b6944c125906"
          ],
          "data": "0xffffffffffffffffffffffffffffffffffffffffffffffffffffffffffffffff",
          "blockHash": "0x3bc7296f414224961a932643bce935a82957888ca825ee8d25c1f9145b4357d2",
          "blockNumber": "0x2ec4089",
          "blockTimestamp": "0x6a62ddf5",
          "transactionHash": "0x0967d2a549aeef8bbbca941805c300b836c71941fa1b0a9075d28fc5f23a193a",
          "transactionIndex": "0x59",
          "logIndex": "0x1f2",
          "removed": false
        }
      ],
      "logsBloom": "0x00000000000000400000008000000000000000000000000000000000000000000000000000000000000000000000000000000000000000000000200000200000000000000000000000000000000000000000000000000000000000000000000000000000000000000000000000000000000000000000000000000000000000000000000000000000000000100000000000000000000000000000000000004000020000000000000000010000000000000000000000000000000000000000000000000000000000000000000000000080000000000000000000000000002000000010000000000000000000800000000000000000000000000000000000000000",
      "transactionHash": "0x0967d2a549aeef8bbbca941805c300b836c71941fa1b0a9075d28fc5f23a193a",
      "transactionIndex": "0x59",
      "blockHash": "0x3bc7296f414224961a932643bce935a82957888ca825ee8d25c1f9145b4357d2",
      "blockNumber": "0x2ec4089",
      "gasUsed": "0xb504",
      "effectiveGasPrice": "0x4d0579",
      "blobGasUsed": "0x39d0",
      "from": "0x6708e21113922ed588bbccaa5ef756becbb2a7d1",
      "to": "0x61bfd6f7df1f72427f472144d043c25d742d145e",
      "contractAddress": null,
      "l1GasPrice": "0x37ca222",
      "l1GasUsed": "0x640",
      "l1Fee": "0x21b09769",
      "l1BaseFeeScalar": "0x8dd",
      "l1BlobBaseFee": "0x32ff01",
      "l1BlobBaseFeeScalar": "0x101c12",
      "daFootprintGasScalar": "0x94"
    },
    {
      "type": "0x2",
      "status": "0x1",
      "cumulativeGasUsed": "0xda076d",
      "logs": [
        {
          "address": "0x833589fcd6edb6e08f4c7c32d4f71b54bda02913",
          "topics": [
            "0xddf252ad1be2c89b69c2b068fc378daa952ba7f163c4a11628f55a4df523b3ef",
            "0x0000000000000000000000006708e21113922ed588bbccaa5ef756becbb2a7d1",
            "0x00000000000000000000000001d1de8796b1ddbdb5c900277a54b6944c125906"
          ],
          "data": "0x00000000000000000000000000000000000000000000000000000000005633a7",
          "blockHash": "0x52465d400e9419fbf070952a15d40c9740da3074c7b71eaff03d5df919d38b84",
          "blockNumber": "0x2ec408a",
          "blockTimestamp": "0x6a62ddf7",
          "transactionHash": "0x0caffdddba2242e4f9660c5ba60f5f4bc954aa5ca59642b0aa67d6f3d8eaee47",
          "transactionIndex": "0x4e",
          "logIndex": "0x161",
          "removed": false
        }
      ],
      "logsBloom": "0x00000000000000000000008000000000000000000000000000000000000000000000000000000000000000000000100000000000000000000000000000000000000000000000000000000008000000000000000000080000000000000000000000800000000000000000000000000000000000000000000000000010000000000000000000000000000000100000000000000000000000000000000000004000000000000000000000010000000000000000000000000000000000000000000000000002000000000000000000000000000000000000000000000000002000000000000000000000000000800000000000000000000000000000000000000000",
      "transactionHash": "0x0caffdddba2242e4f9660c5ba60f5f4bc954aa5ca59642b0aa67d6f3d8eaee47",
      "transactionIndex": "0x4e",
      "blockHash": "0x52465d400e9419fbf070952a15d40c9740da3074c7b71eaff03d5df919d38b84",
      "blockNumber": "0x2ec408a",
      "gasUsed": "0xe003",
      "effectiveGasPrice": "0x4d0579",
      "blobGasUsed": "0x39d0",
      "from": "0x6708e21113922ed588bbccaa5ef756becbb2a7d1",
      "to": "0x833589fcd6edb6e08f4c7c32d4f71b54bda02913",
      "contractAddress": null,
      "l1GasPrice": "0x37ca222",
      "l1GasUsed": "0x640",
      "l1Fee": "0x21b09769",
      "l1BaseFeeScalar": "0x8dd",
      "l1BlobBaseFee": "0x32ff01",
      "l1BlobBaseFeeScalar": "0x101c12",
      "daFootprintGasScalar": "0x94"
    },
    {
      "type": "0x2",
      "status": "0x1",
      "cumulativeGasUsed": "0xeff7e4",
      "logs": [
        {
          "address": "0x46415998764c29ab2a25cbea6254146d50d22687",
          "topics": [
            "0x7120161a7b3d31251e01294ab351ef15a41b91659a36032e4641bb89b121e321",
            "0xa4ec527128b425ee3fcb7f60eca37677b63b3d003345ec2a72ef6a2e72da53fc"
          ],
          "data": "0x00000000000000000000000000000000000000000000000000000000fc1fef54000000000000000000000000000000000000000000000000000000003f6e2aed",
          "blockHash": "0x927eec8e6a121875657e38928c4714ef201e3ee0afe963c26b1f6e1058debdd9",
          "blockNumber": "0x2ec408b",
          "blockTimestamp": "0x6a62ddf9",
          "transactionHash": "0x704afa3365e21a76ffc69b484f7998cb803495b3ba44abcb8d06fb9a4109cb63",
          "transactionIndex": "0x5c",
          "logIndex": "0x13c",
          "removed": false
        },
        {
          "address": "0xbbbbbbbbbb9cc5e90e3b3af64bdaf62c37eeffcb",
          "topics": [
            "0x9d9bd501d0657d7dfe415f779a620a62b78bc508ddc0891fbbd8b7ac0f8fce87",
            "0xa4ec527128b425ee3fcb7f60eca37677b63b3d003345ec2a72ef6a2e72da53fc"
          ],
          "data": "0x00000000000000000000000000000000000000000000000000000000fc1fef54000000000000000000000000000000000000000000000000000000001c2704e70000000000000000000000000000000000000000000000000000000000000000",
          "blockHash": "0x927eec8e6a121875657e38928c4714ef201e3ee0afe963c26b1f6e1058debdd9",
          "blockNumber": "0x2ec408b",
          "blockTimestamp": "0x6a62ddf9",
          "transactionHash": "0x704afa3365e21a76ffc69b484f7998cb803495b3ba44abcb8d06fb9a4109cb63",
          "transactionIndex": "0x5c",
          "logIndex": "0x13d",
          "removed": false
        },
        {
          "address": "0xbbbbbbbbbb9cc5e90e3b3af64bdaf62c37eeffcb",
          "topics": [
            "0xc76f1b4fe4396ac07a9fa55a415d4ca430e72651d37d3401f3bed7cb13fc4f12",
            "0x00000000000000000000000001d1de8796b1ddbdb5c900277a54b6944c125906",
            "0x000000000000000000000000833589fcd6edb6e08f4c7c32d4f71b54bda02913"
          ],
          "data": "0x00000000000000000000000000000000000000000000000000000cbb96885b4c",
          "blockHash": "0x927eec8e6a121875657e38928c4714ef201e3ee0afe963c26b1f6e1058debdd9",
          "blockNumber": "0x2ec408b",
          "blockTimestamp": "0x6a62ddf9",
          "transactionHash": "0x704afa3365e21a76ffc69b484f7998cb803495b3ba44abcb8d06fb9a4109cb63",
          "transactionIndex": "0x5c",
          "logIndex": "0x13e",
          "removed": false
        },
        {
          "address": "0x833589fcd6edb6e08f4c7c32d4f71b54bda02913",
          "topics": [
            "0xddf252ad1be2c89b69c2b068fc378daa952ba7f163c4a11628f55a4df523b3ef",
            "0x000000000000000000000000bbbbbbbbbb9cc5e90e3b3af64bdaf62c37eeffcb",
            "0x00000000000000000000000001d1de8796b1ddbdb5c900277a54b6944c125906"
          ],
          "data": "0x00000000000000000000000000000000000000000000000000000cbb96885b4c",
          "blockHash": "0x927eec8e6a121875657e38928c4714ef201e3ee0afe963c26b1f6e1058debdd9",
          "blockNumber": "0x2ec408b",
          "blockTimestamp": "0x6a62ddf9",
          "transactionHash": "0x704afa3365e21a76ffc69b484f7998cb803495b3ba44abcb8d06fb9a4109cb63",
          "transactionIndex": "0x5c",
          "logIndex": "0x13f",
          "removed": false
        },
        {
          "address": "0x833589fcd6edb6e08f4c7c32d4f71b54bda02913",
          "topics": [
            "0x8c5be1e5ebec7d5bd14f71427d1e84f3dd0314c0f7b2291e5b200ac8c7c3b925",
            "0x00000000000000000000000001d1de8796b1ddbdb5c900277a54b6944c125906",
            "0x000000000000000000000000bbbbbbbbbb9cc5e90e3b3af64bdaf62c37eeffcb"
          ],
          "data": "0xffffffffffffffffffffffffffffffffffffffffffffffffffffffffffffffff",
          "blockHash": "0x927eec8e6a121875657e38928c4714ef201e3ee0afe963c26b1f6e1058debdd9",
          "blockNumber": "0x2ec408b",
          "blockTimestamp": "0x6a62ddf9",
          "transactionHash": "0x704afa3365e21a76ffc69b484f7998cb803495b3ba44abcb8d06fb9a4109cb63",
          "transactionIndex": "0x5c",
          "logIndex": "0x140",
          "removed": false
        },
        {
          "address": "0xbbbbbbbbbb9cc5e90e3b3af64bdaf62c37eeffcb",
          "topics": [
            "0x52acb05cebbd3cd39715469f22afbf5a17496295ef3bc9bb5944056c63ccaa09",
            "0xa4ec527128b425ee3fcb7f60eca37677b63b3d003345ec2a72ef6a2e72da53fc",
            "0x00000000000000000000000001d1de8796b1ddbdb5c900277a54b6944c125906",
            "0x0000000000000000000000006708e21113922ed588bbccaa5ef756becbb2a7d1"
          ],
          "data": "0x00000000000000000000000000000000000000000000000000000cbb963c100c000000000000000000000000000000000000000000000000c2466e702796bba5",
          "blockHash": "0x927eec8e6a121875657e38928c4714ef201e3ee0afe963c26b1f6e1058debdd9",
          "blockNumber": "0x2ec408b",
          "blockTimestamp": "0x6a62ddf9",
          "transactionHash": "0x704afa3365e21a76ffc69b484f7998cb803495b3ba44abcb8d06fb9a4109cb63",
          "transactionIndex": "0x5c",
          "logIndex": "0x141",
          "removed": false
        },
        {
          "address": "0x833589fcd6edb6e08f4c7c32d4f71b54bda02913",
          "topics": [
            "0xddf252ad1be2c89b69c2b068fc378daa952ba7f163c4a11628f55a4df523b3ef",
            "0x00000000000000000000000001d1de8796b1ddbdb5c900277a54b6944c125906",
            "0x000000000000000000000000bbbbbbbbbb9cc5e90e3b3af64bdaf62c37eeffcb"
          ],
          "data": "0x00000000000000000000000000000000000000000000000000000cbb963c100c",
          "blockHash": "0x927eec8e6a121875657e38928c4714ef201e3ee0afe963c26b1f6e1058debdd9",
          "blockNumber": "0x2ec408b",
          "blockTimestamp": "0x6a62ddf9",
          "transactionHash": "0x704afa3365e21a76ffc69b484f7998cb803495b3ba44abcb8d06fb9a4109cb63",
          "transactionIndex": "0x5c",
          "logIndex": "0x142",
          "removed": false
        },
        {
          "address": "0xbbbbbbbbbb9cc5e90e3b3af64bdaf62c37eeffcb",
          "topics": [
            "0xe80ebd7cc9223d7382aab2e0d1d6155c65651f83d53c8b9b06901d167e321142",
            "0xa4ec527128b425ee3fcb7f60eca37677b63b3d003345ec2a72ef6a2e72da53fc",
            "0x0000000000000000000000006708e21113922ed588bbccaa5ef756becbb2a7d1",
            "0x0000000000000000000000006708e21113922ed588bbccaa5ef756becbb2a7d1"
          ],
          "data": "0x00000000000000000000000001d1de8796b1ddbdb5c900277a54b6944c12590600000000000000000000000000000000000000000000000000071adc572cd8f0",
          "blockHash": "0x927eec8e6a121875657e38928c4714ef201e3ee0afe963c26b1f6e1058debdd9",
          "blockNumber": "0x2ec408b",
          "blockTimestamp": "0x6a62ddf9",
          "transactionHash": "0x704afa3365e21a76ffc69b484f7998cb803495b3ba44abcb8d06fb9a4109cb63",
          "transactionIndex": "0x5c",
          "logIndex": "0x143",
          "removed": false
        },
        {
          "address": "0x50639c42e2ffdec4f68fb468968a55b3af944583",
          "topics": [
            "0xddf252ad1be2c89b69c2b068fc378daa952ba7f163c4a11628f55a4df523b3ef",
            "0x000000000000000000000000bbbbbbbbbb9cc5e90e3b3af64bdaf62c37eeffcb",
            "0x0000000000000000000000006708e21113922ed588bbccaa5ef756becbb2a7d1"
          ],
          "data": "0x00000000000000000000000000000000000000000000000000071adc572cd8f0",
          "blockHash": "0x927eec8e6a121875657e38928c4714ef201e3ee0afe963c26b1f6e1058debdd9",
          "blockNumber": "0x2ec408b",
          "blockTimestamp": "0x6a62ddf9",
          "transactionHash": "0x704afa3365e21a76ffc69b484f7998cb803495b3ba44abcb8d06fb9a4109cb63",
          "transactionIndex": "0x5c",
          "logIndex": "0x144",
          "removed": false
        },
        {
          "address": "0x61bfd6f7df1f72427f472144d043c25d742d145e",
          "topics": [
            "0x15c027cc4fd826d986cad358803439f7326d3aa4ed969ff90dbee4bc150f68e9"
          ],
          "data": "0x00000000000000000000000000000000000000000000000000000cbb963c100b",
          "blockHash": "0x927eec8e6a121875657e38928c4714ef201e3ee0afe963c26b1f6e1058debdd9",
          "blockNumber": "0x2ec408b",
          "blockTimestamp": "0x6a62ddf9",
          "transactionHash": "0x704afa3365e21a76ffc69b484f7998cb803495b3ba44abcb8d06fb9a4109cb63",
          "transactionIndex": "0x5c",
          "logIndex": "0x145",
          "removed": false
        },
        {
          "address": "0x61bfd6f7df1f72427f472144d043c25d742d145e",
          "topics": [
            "0x548669ea9bcc24888e6d74a69c9865fa98d795686853b8aa3eb87814261bbb71"
          ],
          "data": "0x0000000000000000000000000000000000000000000000000000000000000000",
          "blockHash": "0x927eec8e6a121875657e38928c4714ef201e3ee0afe963c26b1f6e1058debdd9",
          "blockNumber": "0x2ec408b",
          "blockTimestamp": "0x6a62ddf9",
          "transactionHash": "0x704afa3365e21a76ffc69b484f7998cb803495b3ba44abcb8d06fb9a4109cb63",
          "transactionIndex": "0x5c",
          "logIndex": "0x146",
          "removed": false
        },
        {
          "address": "0x61bfd6f7df1f72427f472144d043c25d742d145e",
          "topics": [
            "0xf66f28b40975dbb933913542c7e6a0f50a1d0f20aa74ea6e0efe65ab616323ec"
          ],
          "data": "0x00000000000000000000000000000000000000000000000000000cbb963c100b0000000000000000000000000000000000000000000000000000000000000000",
          "blockHash": "0x927eec8e6a121875657e38928c4714ef201e3ee0afe963c26b1f6e1058debdd9",
          "blockNumber": "0x2ec408b",
          "blockTimestamp": "0x6a62ddf9",
          "transactionHash": "0x704afa3365e21a76ffc69b484f7998cb803495b3ba44abcb8d06fb9a4109cb63",
          "transactionIndex": "0x5c",
          "logIndex": "0x147",
          "removed": false
        },
        {
          "address": "0x61bfd6f7df1f72427f472144d043c25d742d145e",
          "topics": [
            "0x15c027cc4fd826d986cad358803439f7326d3aa4ed969ff90dbee4bc150f68e9"
          ],
          "data": "0x0000000000000000000000000000000000000000000000000000000000000002",
          "blockHash": "0x927eec8e6a121875657e38928c4714ef201e3ee0afe963c26b1f6e1058debdd9",
          "blockNumber": "0x2ec408b",
          "blockTimestamp": "0x6a62ddf9",
          "transactionHash": "0x704afa3365e21a76ffc69b484f7998cb803495b3ba44abcb8d06fb9a4109cb63",
          "transactionIndex": "0x5c",
          "logIndex": "0x148",
          "removed": false
        },
        {
          "address": "0xbbbbbbbbbb9cc5e90e3b3af64bdaf62c37eeffcb",
          "topics": [
            "0xa56fc0ad5702ec05ce63666221f796fb62437c32db1aa1aa075fc6484cf58fbf",
            "0xa4ec527128b425ee3fcb7f60eca37677b63b3d003345ec2a72ef6a2e72da53fc",
            "0x00000000000000000000000061bfd6f7df1f72427f472144d043c25d742d145e",
            "0x00000000000000000000000061bfd6f7df1f72427f472144d043c25d742d145e"
          ],
          "data": "0x00000000000000000000000061bfd6f7df1f72427f472144d043c25d742d145e00000000000000000000000000000000000000000000000000000cbb963c1009000000000000000000000000000000000000000000000000c2466e70278ff589",
          "blockHash": "0x927eec8e6a121875657e38928c4714ef201e3ee0afe963c26b1f6e1058debdd9",
          "blockNumber": "0x2ec408b",
          "blockTimestamp": "0x6a62ddf9",
          "transactionHash": "0x704afa3365e21a76ffc69b484f7998cb803495b3ba44abcb8d06fb9a4109cb63",
          "transactionIndex": "0x5c",
          "logIndex": "0x149",
          "removed": false
        },
        {
          "address": "0x833589fcd6edb6e08f4c7c32d4f71b54bda02913",
          "topics": [
            "0xddf252ad1be2c89b69c2b068fc378daa952ba7f163c4a11628f55a4df523b3ef",
            "0x000000000000000000000000bbbbbbbbbb9cc5e90e3b3af64bdaf62c37eeffcb",
            "0x00000000000000000000000061bfd6f7df1f72427f472144d043c25d742d145e"
          ],
          "data": "0x00000000000000000000000000000000000000000000000000000cbb963c1009",
          "blockHash": "0x927eec8e6a121875657e38928c4714ef201e3ee0afe963c26b1f6e1058debdd9",
          "blockNumber": "0x2ec408b",
          "blockTimestamp": "0x6a62ddf9",
          "transactionHash": "0x704afa3365e21a76ffc69b484f7998cb803495b3ba44abcb8d06fb9a4109cb63",
          "transactionIndex": "0x5c",
          "logIndex": "0x14a",
          "removed": false
        },
        {
          "address": "0x61bfd6f7df1f72427f472144d043c25d742d145e",
          "topics": [
            "0xddf252ad1be2c89b69c2b068fc378daa952ba7f163c4a11628f55a4df523b3ef",
            "0x0000000000000000000000006708e21113922ed588bbccaa5ef756becbb2a7d1",
            "0x0000000000000000000000000000000000000000000000000000000000000000"
          ],
          "data": "0x0000000000000000000000000000000000000000000b946b8073b2e22d6536f7",
          "blockHash": "0x927eec8e6a121875657e38928c4714ef201e3ee0afe963c26b1f6e1058debdd9",
          "blockNumber": "0x2ec408b",
          "blockTimestamp": "0x6a62ddf9",
          "transactionHash": "0x704afa3365e21a76ffc69b484f7998cb803495b3ba44abcb8d06fb9a4109cb63",
          "transactionIndex": "0x5c",
          "logIndex": "0x14b",
          "removed": false
        },
        {
          "address": "0x833589fcd6edb6e08f4c7c32d4f71b54bda02913",
          "topics": [
            "0xddf252ad1be2c89b69c2b068fc378daa952ba7f163c4a11628f55a4df523b3ef",
            "0x00000000000000000000000061bfd6f7df1f72427f472144d043c25d742d145e",
            "0x00000000000000000000000001d1de8796b1ddbdb5c900277a54b6944c125906"
          ],
          "data": "0x00000000000000000000000000000000000000000000000000000cbb963c1009",
          "blockHash": "0x927eec8e6a121875657e38928c4714ef201e3ee0afe963c26b1f6e1058debdd9",
          "blockNumber": "0x2ec408b",
          "blockTimestamp": "0x6a62ddf9",
          "transactionHash": "0x704afa3365e21a76ffc69b484f7998cb803495b3ba44abcb8d06fb9a4109cb63",
          "transactionIndex": "0x5c",
          "logIndex": "0x14c",
          "removed": false
        },
        {
          "address": "0x61bfd6f7df1f72427f472144d043c25d742d145e",
          "topics": [
            "0xfbde797d201c681b91056529119e0b02407c7bb96a4a2c75c01fc9667232c8db",
            "0x00000000000000000000000001d1de8796b1ddbdb5c900277a54b6944c125906",
            "0x00000000000000000000000001d1de8796b1ddbdb5c900277a54b6944c125906",
            "0x0000000000000000000000006708e21113922ed588bbccaa5ef756becbb2a7d1"
          ],
          "data": "0x00000000000000000000000000000000000000000000000000000cbb963c10090000000000000000000000000000000000000000000b946b8073b2e22d6536f7",
          "blockHash": "0x927eec8e6a121875657e38928c4714ef201e3ee0afe963c26b1f6e1058debdd9",
          "blockNumber": "0x2ec408b",
          "blockTimestamp": "0x6a62ddf9",
          "transactionHash": "0x704afa3365e21a76ffc69b484f7998cb803495b3ba44abcb8d06fb9a4109cb63",
          "transactionIndex": "0x5c",
          "logIndex": "0x14d",
          "removed": false
        },
        {
          "address": "0x833589fcd6edb6e08f4c7c32d4f71b54bda02913",
          "topics": [
            "0x8c5be1e5ebec7d5bd14f71427d1e84f3dd0314c0f7b2291e5b200ac8c7c3b925",
            "0x00000000000000000000000001d1de8796b1ddbdb5c900277a54b6944c125906",
            "0x000000000000000000000000bbbbbbbbbb9cc5e90e3b3af64bdaf62c37eeffcb"
          ],
          "data": "0x00000000000000000000000000000000000000000000000000000cbb96885b4c",
          "blockHash": "0x927eec8e6a121875657e38928c4714ef201e3ee0afe963c26b1f6e1058debdd9",
          "blockNumber": "0x2ec408b",
          "blockTimestamp": "0x6a62ddf9",
          "transactionHash": "0x704afa3365e21a76ffc69b484f7998cb803495b3ba44abcb8d06fb9a4109cb63",
          "transactionIndex": "0x5c",
          "logIndex": "0x14e",
          "removed": false
        },
        {
          "address": "0x833589fcd6edb6e08f4c7c32d4f71b54bda02913",
          "topics": [
            "0xddf252ad1be2c89b69c2b068fc378daa952ba7f163c4a11628f55a4df523b3ef",
            "0x00000000000000000000000001d1de8796b1ddbdb5c900277a54b6944c125906",
            "0x000000000000000000000000bbbbbbbbbb9cc5e90e3b3af64bdaf62c37eeffcb"
          ],
          "data": "0x00000000000000000000000000000000000000000000000000000cbb96885b4c",
          "blockHash": "0x927eec8e6a121875657e38928c4714ef201e3ee0afe963c26b1f6e1058debdd9",
          "blockNumber": "0x2ec408b",
          "blockTimestamp": "0x6a62ddf9",
          "transactionHash": "0x704afa3365e21a76ffc69b484f7998cb803495b3ba44abcb8d06fb9a4109cb63",
          "transactionIndex": "0x5c",
          "logIndex": "0x14f",
          "removed": false
        },
        {
          "address": "0x833589fcd6edb6e08f4c7c32d4f71b54bda02913",
          "topics": [
            "0xddf252ad1be2c89b69c2b068fc378daa952ba7f163c4a11628f55a4df523b3ef",
            "0x00000000000000000000000001d1de8796b1ddbdb5c900277a54b6944c125906",
            "0x0000000000000000000000005adcea5319ea9eac1241b95ca53690574cfa2357"
          ],
          "data": "0x00000000000000000000000000000000000000000000000000000000005633a4",
          "blockHash": "0x927eec8e6a121875657e38928c4714ef201e3ee0afe963c26b1f6e1058debdd9",
          "blockNumber": "0x2ec408b",
          "blockTimestamp": "0x6a62ddf9",
          "transactionHash": "0x704afa3365e21a76ffc69b484f7998cb803495b3ba44abcb8d06fb9a4109cb63",
          "transactionIndex": "0x5c",
          "logIndex": "0x150",
          "removed": false
        },
        {
          "address": "0x01d1de8796b1ddbdb5c900277a54b6944c125906",
          "topics": [
            "0x4c3d23f4b0edde833cd41eed293a18401cc8c74f41aaa1889f89e75d05abf994"
          ],
          "data": "0x000000000000000000000000000000000000000000000000c2466e702796bba500000000000000000000000000000000000000000000000000071adc572cd8f000000000000000000000000000000000000000000000000000000000005633a4",
          "blockHash": "0x927eec8e6a121875657e38928c4714ef201e3ee0afe963c26b1f6e1058debdd9",
          "blockNumber": "0x2ec408b",
          "blockTimestamp": "0x6a62ddf9",
          "transactionHash": "0x704afa3365e21a76ffc69b484f7998cb803495b3ba44abcb8d06fb9a4109cb63",
          "transactionIndex": "0x5c",
          "logIndex": "0x151",
          "removed": false
        }
      ],
      "logsBloom": "0x000000000000004000000480000200800000020010000000000010000000000000004000000001000000000c0000100000000000000000000000200020a04000000000000010040000000008200000002002000040081000000000080100000000800000020000000000000000020800090000000000002010000010000100000048000000000008400004100010000000000000000000000028000000044400020000000020000000010000000000020000100004000200200000000000000020000002000000000004002000200080080100000000008000000000002020004010000001000000000000a00001000000000000000400000000000000080000",
      "transactionHash": "0x704afa3365e21a76ffc69b484f7998cb803495b3ba44abcb8d06fb9a4109cb63",
      "transactionIndex": "0x5c",
      "blockHash": "0x927eec8e6a121875657e38928c4714ef201e3ee0afe963c26b1f6e1058debdd9",
      "blockNumber": "0x2ec408b",
      "gasUsed": "0x4e98c",
      "effectiveGasPrice": "0x4d0579",
      "blobGasUsed": "0x39d0",
      "from": "0x6708e21113922ed588bbccaa5ef756becbb2a7d1",
      "to": "0x01d1de8796b1ddbdb5c900277a54b6944c125906",
      "contractAddress": null,
      "l1GasPrice": "0x37ace29",
      "l1GasUsed": "0x640",
      "l1Fee": "0x21fb15b6",
      "l1BaseFeeScalar": "0x8dd",
      "l1BlobBaseFee": "0x33c3ba",
      "l1BlobBaseFeeScalar": "0x101c12",
      "daFootprintGasScalar": "0x94"
    }
  ],
  "libraries": [],
  "pending": [],
  "returns": {},
  "timestamp": 1784864249692,
  "chain": 8453,
  "commit": "f476e88"
}