{
  "transactions": [
    {
      "hash": "0x305a2cec0e6c418793336dcb59e1e2d9a79346522b8d32dcaf27abb6954847a7",
      "transactionType": "CALL",
      "contractName": null,
      "contractAddress": "0x46b1d159b3a2694e7b70f550b7d5def6df451174",
      "function": "withdraw(uint256)",
      "arguments": [
        "126242214770371"
      ],
      "transaction": {
        "from": "0x6708e21113922ed588bbccaa5ef756becbb2a7d1",
        "to": "0x46b1d159b3a2694e7b70f550b7d5def6df451174",
        "gas": "0x21854",
        "value": "0x0",
        "input": "0x2e1a7d4d000000000000000000000000000000000000000000000000000072d10e5df6c3",
        "nonce": "0x4b2",
        "chainId": "0x2105"
      },
      "additionalContracts": [],
      "isFixedGasLimit": false
    }
  ],
  "receipts": [
    {
      "type": "0x2",
      "status": "0x1",
      "cumulativeGasUsed": "0xa60c6d",
      "logs": [
        {
          "address": "0xe8aad0dddb2e856183c8417654bfbf9e507caf8a",
          "topics": [
            "0xddf252ad1be2c89b69c2b068fc378daa952ba7f163c4a11628f55a4df523b3ef",
            "0x0000000000000000000000000000000000000000000000000000000000000000",
            "0x0000000000000000000000005adcea5319ea9eac1241b95ca53690574cfa2357"
          ],
          "data": "0x000000000000000000000000000000000000000000000000033807458ecae780",
          "blockHash": "0x0000000000000000000000000000000000000000000000000000000000000000",
          "blockNumber": "0x2ec3111",
          "blockTimestamp": "0x6a62bf05",
          "transactionHash": "0x305a2cec0e6c418793336dcb59e1e2d9a79346522b8d32dcaf27abb6954847a7",
          "transactionIndex": "0x68",
          "logIndex": "0xbc",
          "removed": false
        },
        {
          "address": "0x46b1d159b3a2694e7b70f550b7d5def6df451174",
          "topics": [
            "0xe0c50b11a6cc6d75470f28bd76d20c8d223c626324486a273eefadf6c6e973a7"
          ],
          "data": "0x0000000000000000000000000000000000000000033b320782b3f9b6d5ff8545000000000000000000000000000000000000000000000000033807458ecae780",
          "blockHash": "0x0000000000000000000000000000000000000000000000000000000000000000",
          "blockNumber": "0x2ec3111",
          "blockTimestamp": "0x6a62bf05",
          "transactionHash": "0x305a2cec0e6c418793336dcb59e1e2d9a79346522b8d32dcaf27abb6954847a7",
          "transactionIndex": "0x68",
          "logIndex": "0xbd",
          "removed": false
        },
        {
          "address": "0x46b1d159b3a2694e7b70f550b7d5def6df451174",
          "topics": [
            "0xabd2ab552bc04cdbfa4a54107fa44ac8c9cb06f6d21da11933ac05a653be19e9"
          ],
          "data": "0x000000000000000000000000000000000000000000000000000072d10e5df6c30000000000000000000000000000000000000000000000000008811c2a77893d00000000000000000000000000000000000000000000000016b549b094d279ce",
          "blockHash": "0x0000000000000000000000000000000000000000000000000000000000000000",
          "blockNumber": "0x2ec3111",
          "blockTimestamp": "0x6a62bf05",
          "transactionHash": "0x305a2cec0e6c418793336dcb59e1e2d9a79346522b8d32dcaf27abb6954847a7",
          "transactionIndex": "0x68",
          "logIndex": "0xbe",
          "removed": false
        },
        {
          "address": "0x50639c42e2ffdec4f68fb468968a55b3af944583",
          "topics": [
            "0xddf252ad1be2c89b69c2b068fc378daa952ba7f163c4a11628f55a4df523b3ef",
            "0x00000000000000000000000046b1d159b3a2694e7b70f550b7d5def6df451174",
            "0x0000000000000000000000006708e21113922ed588bbccaa5ef756becbb2a7d1"
          ],
          "data": "0x000000000000000000000000000000000000000000000000000072d10e5df6c3",
          "blockHash": "0x0000000000000000000000000000000000000000000000000000000000000000",
          "blockNumber": "0x2ec3111",
          "blockTimestamp": "0x6a62bf05",
          "transactionHash": "0x305a2cec0e6c418793336dcb59e1e2d9a79346522b8d32dcaf27abb6954847a7",
          "transactionIndex": "0x68",
          "logIndex": "0xbf",
          "removed": false
        }
      ],
      "logsBloom": "0x00000000000000000000000000000000000000000000000000000000200100000000000000000000000000000018000000000000000000000000000000004000000000000000000000000008200000000000000000001000000080000100000000000000020000000000000000000800000100000000000000000010000000000040000000000000000000100000000000000000000001000000000000004000000800000000000000008000000000000000000020000200000001000000000000000002000000000000000000000001000000000000008000000000002020000000000000000000000000000000000000000000000000004000000000000000",
      "transactionHash": "0x305a2cec0e6c418793336dcb59e1e2d9a79346522b8d32dcaf27abb6954847a7",
      "transactionIndex": "0x68",
      "blockHash": "0x0000000000000000000000000000000000000000000000000000000000000000",
      "blockNumber": "0x2ec3111",
      "gasUsed": "0x1844c",
      "effectiveGasPrice": "0x5b8d80",
      "blobGasUsed": "0x39d0",
      "from": "0x6708e21113922ed588bbccaa5ef756becbb2a7d1",
      "to": "0x46b1d159b3a2694e7b70f550b7d5def6df451174",
      "contractAddress": null,
      "l1GasPrice": "0x40154ee",
      "l1GasUsed": "0x640",
      "l1Fee": "0x33eaa03b",
      "l1BaseFeeScalar": "0x8dd",
      "l1BlobBaseFee": "0x3e682d",
      "l1BlobBaseFeeScalar": "0x101c12",
      "daFootprintGasScalar": "0x94"
    }
  ],
  "libraries": [],
  "pending": [],
  "returns": {},
  "timestamp": 1784856324368,
  "chain": 8453,
  "commit": "c963f49"
}