{
  "transactions": [
    {
      "hash": "0xa22cfd4e3b2b30356733eb0a08aa1cdb55ad2c1cde5f68522126d6d197805752",
      "transactionType": "CALL",
      "contractName": null,
      "contractAddress": "0x46b1d159b3a2694e7b70f550b7d5def6df451174",
      "function": "mintTo(address,uint256)",
      "arguments": [
        "0x5Adcea5319eA9Eac1241B95Ca53690574cFa2357",
        "1628900000000000000000000"
      ],
      "transaction": {
        "from": "0x6708e21113922ed588bbccaa5ef756becbb2a7d1",
        "to": "0x46b1d159b3a2694e7b70f550b7d5def6df451174",
        "gas": "0x1f1a9",
        "value": "0x0",
        "input": "0x449a52f80000000000000000000000005adcea5319ea9eac1241b95ca53690574cfa23570000000000000000000000000000000000000000000158eed88f65ec3d100000",
        "nonce": "0x4b1",
        "chainId": "0x2105"
      },
      "additionalContracts": [],
      "isFixedGasLimit": false
    }
  ],
  "receipts": [
    {
      "type": "0x2",
      "status": "0x1",
      "cumulativeGasUsed": "0xa45e8c",
      "logs": [
        {
          "address": "0xe8aad0dddb2e856183c8417654bfbf9e507caf8a",
          "topics": [
            "0xddf252ad1be2c89b69c2b068fc378daa952ba7f163c4a11628f55a4df523b3ef",
            "0x0000000000000000000000000000000000000000000000000000000000000000",
            "0x0000000000000000000000005adcea5319ea9eac1241b95ca53690574cfa2357"
          ],
          "data": "0x00000000000000000000000000000000000000000000000c9c3fc4f02788f1d9",
          "blockHash": "0x0000000000000000000000000000000000000000000000000000000000000000",
          "blockNumber": "0x2ec310c",
          "blockTimestamp": "0x6a62befb",
          "transactionHash": "0xa22cfd4e3b2b30356733eb0a08aa1cdb55ad2c1cde5f68522126d6d197805752",
          "transactionIndex": "0x7e",
          "logIndex": "0x9d",
          "removed": false
        },
        {
          "address": "0x46b1d159b3a2694e7b70f550b7d5def6df451174",
          "topics": [
            "0xe0c50b11a6cc6d75470f28bd76d20c8d223c626324486a273eefadf6c6e973a7"
          ],
          "data": "0x0000000000000000000000000000000000000000033b3206a6ab0fc8c926359e00000000000000000000000000000000000000000000000c9c3fc4f02788f1d9",
          "blockHash": "0x0000000000000000000000000000000000000000000000000000000000000000",
          "blockNumber": "0x2ec310c",
          "blockTimestamp": "0x6a62befb",
          "transactionHash": "0xa22cfd4e3b2b30356733eb0a08aa1cdb55ad2c1cde5f68522126d6d197805752",
          "transactionIndex": "0x7e",
          "logIndex": "0x9e",
          "removed": false
        },
        {
          "address": "0xe8aad0dddb2e856183c8417654bfbf9e507caf8a",
          "topics": [
            "0xddf252ad1be2c89b69c2b068fc378daa952ba7f163c4a11628f55a4df523b3ef",
            "0x0000000000000000000000000000000000000000000000000000000000000000",
            "0x0000000000000000000000005adcea5319ea9eac1241b95ca53690574cfa2357"
          ],
          "data": "0x0000000000000000000000000000000000000000000158eed88f65ec3d100000",
          "blockHash": "0x0000000000000000000000000000000000000000000000000000000000000000",
          "blockNumber": "0x2ec310c",
          "blockTimestamp": "0x6a62befb",
          "transactionHash": "0xa22cfd4e3b2b30356733eb0a08aa1cdb55ad2c1cde5f68522126d6d197805752",
          "transactionIndex": "0x7e",
          "logIndex": "0x9f",
          "removed": false
        },
        {
          "address": "0x46b1d159b3a2694e7b70f550b7d5def6df451174",
          "topics": [
            "0x488bbf7ce8682b98371a0bb07d4e838ce2e533a907ceda8ac6ee658fdbd162e0"
          ],
          "data": "0x0000000000000000000000000000000000000000000158eed88f65ec3d1000000000000000000000000000000000000000000000000c19d6de4f92ed9198f1d900000000000000000000000000000000000000000000000017e7dea14a8dd0ed",
          "blockHash": "0x0000000000000000000000000000000000000000000000000000000000000000",
          "blockNumber": "0x2ec310c",
          "blockTimestamp": "0x6a62befb",
          "transactionHash": "0xa22cfd4e3b2b30356733eb0a08aa1cdb55ad2c1cde5f68522126d6d197805752",
          "transactionIndex": "0x7e",
          "logIndex": "0xa0",
          "removed": false
        }
      ],
      "logsBloom": "0x00000000000000000000000000000000000000000000000000000000200000000000400000000000000000001010000000000000000000000000000000000000000000000000000002000008000000000000000000000000000080000100000000000000020000000000000000000800000000000000000000000010000000000040000000000000000000000000000000000000000001000000000000000000000000000000000000008000000000000000000020000000000000000000000000000002000000000000000000000001000000000000008000000000000020000000000000000000000000000000000000000000000000004000000000000000",
      "transactionHash": "0xa22cfd4e3b2b30356733eb0a08aa1cdb55ad2c1cde5f68522126d6d197805752",
      "transactionIndex": "0x7e",
      "blockHash": "0x0000000000000000000000000000000000000000000000000000000000000000",
      "blockNumber": "0x2ec310c",
      "gasUsed": "0x1684d",
      "effectiveGasPrice": "0x50502f",
      "blobGasUsed": "0x39d0",
      "from": "0x6708e21113922ed588bbccaa5ef756becbb2a7d1",
      "to": "0x46b1d159b3a2694e7b70f550b7d5def6df451174",
      "contractAddress": null,
      "l1GasPrice": "0x40d8d2a",
      "l1GasUsed": "0x640",
      "l1Fee": "0x2d431c05",
      "l1BaseFeeScalar": "0x8dd",
      "l1BlobBaseFee": "0x42c075",
      "l1BlobBaseFeeScalar": "0x101c12",
      "daFootprintGasScalar": "0x94"
    }
  ],
  "libraries": [],
  "pending": [],
  "returns": {},
  "timestamp": 1784856314865,
  "chain": 8453,
  "commit": "c963f49"
}