{
  "transactions": [
    {
      "hash": "0x356017a9f494cf0e5a1b83671e72c24b8b818d7c95bdea37248c53f3128b9e11",
      "transactionType": "CALL",
      "contractName": null,
      "contractAddress": "0xaf9570a3fe67988ae1c7d4da0cd5c54cfe147205",
      "function": "submitProof(uint256[2],uint256[2][2],uint256[2],uint256[3])",
      "arguments": [
        "[17305817744980936913109705084437321986250753677631398653950529428857545161150, 4131838220983257703786443982891411158783704445728436336745259032983311017059]",
        "[[15078702755481609522762591263308089322184140964819406481228923084162874231169, 14718700732322351452227333974921122284932699470844031960563565755881543881647], [14979165117287114557769066549587402803316497248929317178244599922964844063320, 13312274666655628706212724437420753886709559512842250168616395415224090667765]]",
        "[8288473847642172493894184015532776473476567557726675980006102485678860116489, 21101542894841460420608903538812714173864075376165525138903895521869903698709]",
        "[1, 700000000000, 588224148543878888622858987941633173888015968209]"
      ],
      "transaction": {
        "from": "0x6708e21113922ed588bbccaa5ef756becbb2a7d1",
        "to": "0xaf9570a3fe67988ae1c7d4da0cd5c54cfe147205",
        "gas": "0x6beb9",
        "value": "0x0",
        "input": "0xb43412ec2642bee8393d12312a22a354e594044c4aabacfe50bdb342e40a503b1d09f9be0922899d6dddbd4980610cffdd1a92c5ebb198c6c40e34e450d67831c360e46321563e4a0cd9bf237537ee48435a6b7eaf3f0fac12250837820b84b8b7984981208a7d48dd54ccc8fe98f39eb27a3c6eb60f165c8795e76f7d62b948e4eed3af211de831da1f2f736dc917a4db3f35f7496840d7ecfd90f65d523d70a7b12a581d6e7afebb63f57ca6e4ea075f72bcff43ae626c2790f3d96b4e083a4e54aaf512531c25c13ea009ab9fae0375135f19e61c84fe3a0009a26d511d396edda2092ea70ccef205ff22dfd26ce42af87c641b6b391bc9fd9830bdd961d389301b150000000000000000000000000000000000000000000000000000000000000001000000000000000000000000000000000000000000000000000000a2fb4058000000000000000000000000006708e21113922ed588bbccaa5ef756becbb2a7d1",
        "nonce": "0x355",
        "chainId": "0x2105"
      },
      "additionalContracts": [],
      "isFixedGasLimit": false
    }
  ],
  "receipts": [
    {
      "type": "0x2",
      "status": "0x1",
      "cumulativeGasUsed": "0xdb8159",
      "logs": [
        {
          "address": "0xaf9570a3fe67988ae1c7d4da0cd5c54cfe147205",
          "topics": [
            "0xe62100178bfe254dec259cd2450f4ae5ab0669b3c64d8b931ab9a47a379e1e86",
            "0x0000000000000000000000006708e21113922ed588bbccaa5ef756becbb2a7d1"
          ],
          "data": "0x000000000000000000000000000000000000000000000000000000a2fb405800000000000000000000000000000000000000000000000000000000006a5f5fb3",
          "blockHash": "0x4cc25d80f82eac689c828c5fa6165887fc6a4e37c3ffaf1afb7cb3373235da3e",
          "blockNumber": "0x2ea8168",
          "blockTimestamp": "0x6a5f5fb3",
          "transactionHash": "0x356017a9f494cf0e5a1b83671e72c24b8b818d7c95bdea37248c53f3128b9e11",
          "transactionIndex": "0x5f",
          "logIndex": "0x12b",
          "removed": false
        }
      ],
      "logsBloom": "0x00020000004000000000000000000000000000000000000000000000000000000000000000020000000000000000000000000000000000000000001000000000000000000000000000000000000000000000000000000000000000000000000000000000000000000000000000000000000000000000000000000000000000000000000000000000000000100000000000000000000000000000000000004000000000000000000000000000000000000000000000000000000001000000000000000000000000000000000000000000000000000000000000000000002000000000000000000000000000000000000000000000000000000000800000000000",
      "transactionHash": "0x356017a9f494cf0e5a1b83671e72c24b8b818d7c95bdea37248c53f3128b9e11",
      "transactionIndex": "0x5f",
      "blockHash": "0x4cc25d80f82eac689c828c5fa6165887fc6a4e37c3ffaf1afb7cb3373235da3e",
      "blockNumber": "0x2ea8168",
      "gasUsed": "0x49cab",
      "effectiveGasPrice": "0x4de568",
      "blobGasUsed": "0xb460",
      "from": "0x6708e21113922ed588bbccaa5ef756becbb2a7d1",
      "to": "0xaf9570a3fe67988ae1c7d4da0cd5c54cfe147205",
      "contractAddress": null,
      "l1GasPrice": "0x357c7f0",
      "l1GasUsed": "0x138e",
      "l1Fee": "0x6144ef16",
      "l1BaseFeeScalar": "0x8dd",
      "l1BlobBaseFee": "0x2df1af",
      "l1BlobBaseFeeScalar": "0x101c12",
      "daFootprintGasScalar": "0x94"
    }
  ],
  "libraries": [],
  "pending": [],
  "returns": {},
  "timestamp": 1784635315756,
  "chain": 8453,
  "commit": "69fe89d"
}