{
  "transactions": [
    {
      "hash": "0xf593e53b99eb5101fb07f00cfafa8debac4bd7f27b402d33038cda8d8eda6a43",
      "transactionType": "CALL",
      "contractName": null,
      "contractAddress": "0xbbbbbbbbbb9cc5e90e3b3af64bdaf62c37eeffcb",
      "function": "borrow((address,address,address,address,uint256),uint256,uint256,address,address)",
      "arguments": [
        "(0x833589fCD6eDb6E08f4c7C32D4f71b54bdA02913, 0x7a305D07B537359cf468eAea9bb176E5308bC337, 0x284EC3A9674e6C62ea552Bf75BDeE9B799627D2e, 0x46415998764C29aB2a25CbeA6254146D50D22687, 770000000000000000)",
        "8171102",
        "0",
        "0x6708e21113922ED588bBCcAA5ef756BEcBb2a7d1",
        "0xA1aFcb46a64C9173519180458C1cF302179c832a"
      ],
      "transaction": {
        "from": "0x6708e21113922ed588bbccaa5ef756becbb2a7d1",
        "to": "0xbbbbbbbbbb9cc5e90e3b3af64bdaf62c37eeffcb",
        "gas": "0x28b84",
        "value": "0x0",
        "input": "0x50d8cd4b000000000000000000000000833589fcd6edb6e08f4c7c32d4f71b54bda029130000000000000000000000007a305d07b537359cf468eaea9bb176e5308bc337000000000000000000000000284ec3a9674e6c62ea552bf75bdee9b799627d2e00000000000000000000000046415998764c29ab2a25cbea6254146d50d226870000000000000000000000000000000000000000000000000aaf96eb9d0d000000000000000000000000000000000000000000000000000000000000007cae5e00000000000000000000000000000000000000000000000000000000000000000000000000000000000000006708e21113922ed588bbccaa5ef756becbb2a7d1000000000000000000000000a1afcb46a64c9173519180458c1cf302179c832a",
        "nonce": "0x11c",
        "chainId": "0x2105"
      },
      "additionalContracts": [],
      "isFixedGasLimit": false
    }
  ],
  "receipts": [
    {
      "type": "0x2",
      "status": "0x1",
      "cumulativeGasUsed": "0x52583b",
      "logs": [
        {
          "address": "0x46415998764c29ab2a25cbea6254146d50d22687",
          "topics": [
            "0x7120161a7b3d31251e01294ab351ef15a41b91659a36032e4641bb89b121e321",
            "0x40ac09f34c5bc0b0b6d9b5f1ec1b97a6a149ff6278104797c9cb740453a2b794"
          ],
          "data": "0x0000000000000000000000000000000000000000000000000000000100cdd78e000000000000000000000000000000000000000000000000000000004033d478",
          "blockHash": "0x0000000000000000000000000000000000000000000000000000000000000000",
          "blockNumber": "0x2e80ecb",
          "blockTimestamp": "0x6a5a7a79",
          "transactionHash": "0xf593e53b99eb5101fb07f00cfafa8debac4bd7f27b402d33038cda8d8eda6a43",
          "transactionIndex": "0x27",
          "logIndex": "0x80",
          "removed": false
        },
        {
          "address": "0xbbbbbbbbbb9cc5e90e3b3af64bdaf62c37eeffcb",
          "topics": [
            "0x9d9bd501d0657d7dfe415f779a620a62b78bc508ddc0891fbbd8b7ac0f8fce87",
            "0x40ac09f34c5bc0b0b6d9b5f1ec1b97a6a149ff6278104797c9cb740453a2b794"
          ],
          "data": "0x0000000000000000000000000000000000000000000000000000000100cdd78e00000000000000000000000000000000000000000000000000000000000c29db0000000000000000000000000000000000000000000000000000000000000000",
          "blockHash": "0x0000000000000000000000000000000000000000000000000000000000000000",
          "blockNumber": "0x2e80ecb",
          "blockTimestamp": "0x6a5a7a79",
          "transactionHash": "0xf593e53b99eb5101fb07f00cfafa8debac4bd7f27b402d33038cda8d8eda6a43",
          "transactionIndex": "0x27",
          "logIndex": "0x81",
          "removed": false
        },
        {
          "address": "0xbbbbbbbbbb9cc5e90e3b3af64bdaf62c37eeffcb",
          "topics": [
            "0x570954540bed6b1304a87dfe815a5eda4a648f7097a16240dcd85c9b5fd42a43",
            "0x40ac09f34c5bc0b0b6d9b5f1ec1b97a6a149ff6278104797c9cb740453a2b794",
            "0x0000000000000000000000006708e21113922ed588bbccaa5ef756becbb2a7d1",
            "0x000000000000000000000000a1afcb46a64c9173519180458c1cf302179c832a"
          ],
          "data": "0x0000000000000000000000006708e21113922ed588bbccaa5ef756becbb2a7d100000000000000000000000000000000000000000000000000000000007cae5e0000000000000000000000000000000000000000000000000000076e46e381c3",
          "blockHash": "0x0000000000000000000000000000000000000000000000000000000000000000",
          "blockNumber": "0x2e80ecb",
          "blockTimestamp": "0x6a5a7a79",
          "transactionHash": "0xf593e53b99eb5101fb07f00cfafa8debac4bd7f27b402d33038cda8d8eda6a43",
          "transactionIndex": "0x27",
          "logIndex": "0x82",
          "removed": false
        },
        {
          "address": "0x833589fcd6edb6e08f4c7c32d4f71b54bda02913",
          "topics": [
            "0xddf252ad1be2c89b69c2b068fc378daa952ba7f163c4a11628f55a4df523b3ef",
            "0x000000000000000000000000bbbbbbbbbb9cc5e90e3b3af64bdaf62c37eeffcb",
            "0x000000000000000000000000a1afcb46a64c9173519180458c1cf302179c832a"
          ],
          "data": "0x00000000000000000000000000000000000000000000000000000000007cae5e",
          "blockHash": "0x0000000000000000000000000000000000000000000000000000000000000000",
          "blockNumber": "0x2e80ecb",
          "blockTimestamp": "0x6a5a7a79",
          "transactionHash": "0xf593e53b99eb5101fb07f00cfafa8debac4bd7f27b402d33038cda8d8eda6a43",
          "transactionIndex": "0x27",
          "logIndex": "0x83",
          "removed": false
        }
      ],
      "logsBloom": "0x00000000000000000002000000000081000000000000000002000000000000000000400000000100000000000000140000000000000000000000000020804000000000000010000000000008000000000000000000080000000000080000000000800000000000000000000001000000000000000000000000000010000000000000000000000008000000100000000000000000000000000008000000804000000000000000000000000000000000000000000000000000000000000000000020000002000000000000000000000000000100000000000000000000002000000000004001000008000000200001000000000000000000000000000000000000",
      "transactionHash": "0xf593e53b99eb5101fb07f00cfafa8debac4bd7f27b402d33038cda8d8eda6a43",
      "transactionIndex": "0x27",
      "blockHash": "0x0000000000000000000000000000000000000000000000000000000000000000",
      "blockNumber": "0x2e80ecb",
      "gasUsed": "0x1d7b0",
      "effectiveGasPrice": "0x5b8d80",
      "blobGasUsed": "0x7684",
      "from": "0x6708e21113922ed588bbccaa5ef756becbb2a7d1",
      "to": "0xbbbbbbbbbb9cc5e90e3b3af64bdaf62c37eeffcb",
      "contractAddress": null,
      "l1GasPrice": "0x455a789",
      "l1GasUsed": "0xcd0",
      "l1Fee": "0x2c056af0",
      "l1BaseFeeScalar": "0x8dd",
      "l1BlobBaseFee": "0x4495b9",
      "l1BlobBaseFeeScalar": "0x101c12",
      "daFootprintGasScalar": "0x94"
    }
  ],
  "libraries": [],
  "pending": [],
  "returns": {},
  "timestamp": 1784314488899,
  "chain": 8453,
  "commit": "1182e57"
}