{
  "transactions": [
    {
      "hash": "0x1976a462b3d2c341071fa44a65f7092c0a12e897270dd1fbf2a9df4b8beb9426",
      "transactionType": "CREATE",
      "contractName": "CrownZkAdvance",
      "contractAddress": "0xd36ad3bf4e4a619f5b8f8c22dda90e313f23035b",
      "function": null,
      "arguments": [
        "0x833589fCD6eDb6E08f4c7C32D4f71b54bdA02913",
        "0x0FEA62084A024544891f03035E85401C2C886c1b",
        "0xAf9570a3Fe67988AE1c7d4dA0cD5c54CFE147205",
        "0x6708e21113922ED588bBCcAA5ef756BEcBb2a7d1",
        "0x5Adcea5319eA9Eac1241B95Ca53690574cFa2357",
        "0x6708e21113922ED588bBCcAA5ef756BEcBb2a7d1"
      ],
      "transaction": {
        "from": "0x6708e21113922ed588bbccaa5ef756becbb2a7d1",
        "to": null,
        "gas": "0xec8a0",
        "value": "0x0",
        "input": "0x6101003461013557601f610c9f38819003918201601f19168301916001600160401b038311848410176101395780849260c0946040528339810103126101355761009461004b8261014d565b916100586020820161014d565b9060a06100676040830161014d565b6100736060840161014d565b926100806080820161014d565b94600180851b03808098819682950161014d565b169860018060a01b0319998a5f5416175f5560018055166080521660a0521660c05260e05216906002541617600255604051610b3d908161016282396080518181816105a701526107e1015260a051818181610215015281816105ee015281816107260152610824015260c05181818161028c01528181610433015261055b015260e051818181610178015281816102bc0152818161052d015261076d0152f35b5f80fd5b634e487b7160e01b5f52604160045260245ffd5b51906001600160a01b03821682036101355756fe60806040818152600480361015610014575f80fd5b5f92833560e01c9081632398a4d714610810575080633e413bee146107cc5780636d0d50ed146107a357806371c4a5a1146106b357806371d6ddd6146104e8578063764eea96146104625780637a0ebc881461041e5780638da5cb5b146103f65780638ea42cac146103d9578063999b93af146102705780639f1198f5146101a7578063cc181ca814610163578063e36b0f8f146101405763f2fde38b146100ba575f80fd5b3461013c57602036600319011261013c576100d3610853565b835491906001600160a01b0390818416330361012c57169283156101035750506001600160a01b03191617815580f35b60649250519062461bcd60e51b82526020818301526024820152635a45524f60e01b6044820152fd5b84516330cd747160e01b81528390fd5b8280fd5b50503461015f578160031936011261015f576020906003549051908152f35b5080fd5b50503461015f578160031936011261015f57517f00000000000000000000000000000000000000000000000000000000000000006001600160a01b03168152602090f35b50903461013c57602036600319011261013c578254823592906001600160a01b03163303610262576101dc600180541461086d565b600260015582156102545750816020916102397fb9d0fd37b38187ab8d265cf743c8eb9fa34702b7f1466cd298a8870e128d641b9430337f0000000000000000000000000000000000000000000000000000000000000000610a27565b610245826003546108a5565b60035551908152a16001805580f35b905163cbb0251360e01b8152fd5b90516330cd747160e01b8152fd5b503461013c578260031936011261013c5760018060a01b0391827f0000000000000000000000000000000000000000000000000000000000000000169181519363194b68ef60e31b85527f0000000000000000000000000000000000000000000000000000000000000000168082860152602085602481875afa9485156103cf57869561038e575b5060609060246003549385519687938492630406ae0960e31b84528301525afa92831561038457859361033c575b5060609450815193151584526020840152820152f35b9092506060813d821161037c575b81610357606093836108d3565b8101031261037857606094506103708282519201610909565b50915f610326565b8480fd5b3d915061034a565b82513d87823e3d90fd5b9094506020813d82116103c7575b816103a9602093836108d3565b810103126103c3576103bc606091610909565b94906102f8565b8580fd5b3d915061039c565b83513d88823e3d90fd5b503461013c578260031936011261013c5760209250549051908152f35b50503461015f578160031936011261015f57905490516001600160a01b039091168152602090f35b50503461015f578160031936011261015f57517f00000000000000000000000000000000000000000000000000000000000000006001600160a01b03168152602090f35b50903461013c57602036600319011261013c5761047d610853565b83546001600160a01b039190821633036104d957169182156102545750600280546001600160a01b03191683179055519081527fc9c4e985b1c67dbd44443ee281453491dda50d921d4acde87b304600d0ad0a8490602090a180f35b5050516330cd747160e01b8152fd5b503461013c57602091826003193601126106af5781359161050c600180541461086d565b6002600155821561025457815163194b68ef60e31b81526001600160a01b037f0000000000000000000000000000000000000000000000000000000000000000811683830152919085816024817f000000000000000000000000000000000000000000000000000000000000000087165afa9081156106a557879161066c575b501561065e576003548411610650576105cb848360025416337f0000000000000000000000000000000000000000000000000000000000000000610a27565b6105d7846003546108c6565b6003556105e58482546108a5565b905561061283337f0000000000000000000000000000000000000000000000000000000000000000610955565b60025416918151938185528401528201527fccde1461f1b4a32bfbe0eda989f1aaa73e5f70e8149f16512418ca496025e93460603392a26001805580f35b8251631ed9509560e11b8152fd5b825163f306711960e01b8152fd5b90508581813d831161069e575b61068381836108d3565b8101031261069a5761069490610909565b5f61058c565b8680fd5b503d610679565b84513d89823e3d90fd5b8380fd5b5091903461015f578060031936011261015f578235906001600160a01b0360243581811692918382036103c3578554163303610793576106f6600180541461086d565b6002600155911561076b575b82158015610760575b61075157509061074a91610721826003546108c6565b6003557f0000000000000000000000000000000000000000000000000000000000000000610955565b6001805580f35b5163cbb0251360e01b81528490fd5b50600354831161070b565b7f00000000000000000000000000000000000000000000000000000000000000009150610702565b81516330cd747160e01b81528690fd5b50503461015f578160031936011261015f5760025490516001600160a01b039091168152602090f35b50503461015f578160031936011261015f57517f00000000000000000000000000000000000000000000000000000000000000006001600160a01b03168152602090f35b84903461015f578160031936011261015f577f00000000000000000000000000000000000000000000000000000000000000006001600160a01b03168152602090f35b600435906001600160a01b038216820361086957565b5f80fd5b1561087457565b60405162461bcd60e51b815260206004820152600960248201526814915153951490539560ba1b6044820152606490fd5b919082018092116108b257565b634e487b7160e01b5f52601160045260245ffd5b919082039182116108b257565b90601f8019910116810190811067ffffffffffffffff8211176108f557604052565b634e487b7160e01b5f52604160045260245ffd5b5190811515820361086957565b3d15610950573d9067ffffffffffffffff82116108f55760405191610945601f8201601f1916602001846108d3565b82523d5f602084013e565b606090565b60405163a9059cbb60e01b602082019081526001600160a01b03938416602483015260448083019590955293815291926080830167ffffffffffffffff8111848210176108f5575f94859485926040525193165af16109b2610916565b816109f0575b50156109c057565b60405162461bcd60e51b81526020600482015260086024820152672a2920a729a322a960c11b6044820152606490fd5b8051801592508215610a05575b50505f6109b8565b8192509060209181010312610869576020610a209101610909565b5f806109fd565b6040516323b872dd60e01b602082019081526001600160a01b039384166024830152938316604482015260648082019590955293845290929160a0830167ffffffffffffffff8111848210176108f5575f94859485926040525193165af1610a8d610916565b81610ad0575b5015610a9b57565b60405162461bcd60e51b815260206004820152600d60248201526c5452414e534645525f46524f4d60981b6044820152606490fd5b8051801592508215610ae5575b50505f610a93565b8192509060209181010312610869576020610b009101610909565b5f80610add56fea2646970667358221220b60a88cf8bf95d4652eb731b241e15f55d0475af105aa53063537196e2b6582364736f6c63430008140033000000000000000000000000833589fcd6edb6e08f4c7c32d4f71b54bda029130000000000000000000000000fea62084a024544891f03035e85401c2c886c1b000000000000000000000000af9570a3fe67988ae1c7d4da0cd5c54cfe1472050000000000000000000000006708e21113922ed588bbccaa5ef756becbb2a7d10000000000000000000000005adcea5319ea9eac1241b95ca53690574cfa23570000000000000000000000006708e21113922ed588bbccaa5ef756becbb2a7d1",
        "nonce": "0x369",
        "chainId": "0x2105"
      },
      "additionalContracts": [],
      "isFixedGasLimit": false
    },
    {
      "hash": "0x3ac6f34ac8c8f2f2f2f2334f1c2ba2719b7d455a57fde2e9ea0ff0ae27883c33",
      "transactionType": "CALL",
      "contractName": null,
      "contractAddress": "0x3fbbbd4c00ae3f40762bf58ccbbff92ec3ff4ecf",
      "function": "unstockKusd(uint256,address)",
      "arguments": [
        "699994000000",
        "0x6708e21113922ED588bBCcAA5ef756BEcBb2a7d1"
      ],
      "transaction": {
        "from": "0x6708e21113922ed588bbccaa5ef756becbb2a7d1",
        "to": "0x3fbbbd4c00ae3f40762bf58ccbbff92ec3ff4ecf",
        "gas": "0x13223",
        "value": "0x0",
        "input": "0x71c4a5a1000000000000000000000000000000000000000000000000000000a2fae4ca800000000000000000000000006708e21113922ed588bbccaa5ef756becbb2a7d1",
        "nonce": "0x36a",
        "chainId": "0x2105"
      },
      "additionalContracts": [],
      "isFixedGasLimit": false
    },
    {
      "hash": "0x32841de2101827a12adf0d364c762156859e13660416c11c0c8aa864383ea830",
      "transactionType": "CALL",
      "contractName": null,
      "contractAddress": "0x0fea62084a024544891f03035e85401c2c886c1b",
      "function": "approve(address,uint256)",
      "arguments": [
        "0xD36ad3bf4E4A619f5b8F8C22DDA90E313F23035B",
        "699994000000"
      ],
      "transaction": {
        "from": "0x6708e21113922ed588bbccaa5ef756becbb2a7d1",
        "to": "0x0fea62084a024544891f03035e85401c2c886c1b",
        "gas": "0x10691",
        "value": "0x0",
        "input": "0x095ea7b3000000000000000000000000d36ad3bf4e4a619f5b8f8c22dda90e313f23035b000000000000000000000000000000000000000000000000000000a2fae4ca80",
        "nonce": "0x36b",
        "chainId": "0x2105"
      },
      "additionalContracts": [],
      "isFixedGasLimit": false
    },
    {
      "hash": "0x28f7a231b250c485cbc3b682ec9da6ca74a2c5e76aa8bb101624a6f2f81a9aa1",
      "transactionType": "CALL",
      "contractName": "CrownZkAdvance",
      "contractAddress": "0xd36ad3bf4e4a619f5b8f8c22dda90e313f23035b",
      "function": "stockKusd(uint256)",
      "arguments": [
        "699994000000"
      ],
      "transaction": {
        "from": "0x6708e21113922ed588bbccaa5ef756becbb2a7d1",
        "to": "0xd36ad3bf4e4a619f5b8f8c22dda90e313f23035b",
        "gas": "0x1a6de",
        "value": "0x0",
        "input": "0x9f1198f5000000000000000000000000000000000000000000000000000000a2fae4ca80",
        "nonce": "0x36c",
        "chainId": "0x2105"
      },
      "additionalContracts": [],
      "isFixedGasLimit": false
    }
  ],
  "receipts": [
    {
      "type": "0x2",
      "status": "0x1",
      "cumulativeGasUsed": "0x4d979d",
      "logs": [],
      "logsBloom": "0x00000000000000000000000000000000000000000000000000000000000000000000000000000000000000000000000000000000000000000000000000000000000000000000000000000000000000000000000000000000000000000000000000000000000000000000000000000000000000000000000000000000000000000000000000000000000000000000000000000000000000000000000000000000000000000000000000000000000000000000000000000000000000000000000000000000000000000000000000000000000000000000000000000000000000000000000000000000000000000000000000000000000000000000000000000000",
      "transactionHash": "0x1976a462b3d2c341071fa44a65f7092c0a12e897270dd1fbf2a9df4b8beb9426",
      "transactionIndex": "0x31",
      "blockHash": "0x22acc8007ee59cfcb0566bcf4ffe605b9a35b9c71ea97be277e5d2b0f7852fbf",
      "blockNumber": "0x2eabec4",
      "gasUsed": "0xb5f40",
      "effectiveGasPrice": "0x5b8d80",
      "blobGasUsed": "0x45b34",
      "from": "0x6708e21113922ed588bbccaa5ef756becbb2a7d1",
      "to": null,
      "contractAddress": "0xd36ad3bf4e4a619f5b8f8c22dda90e313f23035b",
      "l1GasPrice": "0x91202ae",
      "l1GasUsed": "0x789e",
      "l1Fee": "0x630402b0e",
      "l1BaseFeeScalar": "0x8dd",
      "l1BlobBaseFee": "0x7734d7",
      "l1BlobBaseFeeScalar": "0x101c12",
      "daFootprintGasScalar": "0x94"
    },
    {
      "type": "0x2",
      "status": "0x1",
      "cumulativeGasUsed": "0x103dd92",
      "logs": [
        {
          "address": "0x0fea62084a024544891f03035e85401c2c886c1b",
          "topics": [
            "0xddf252ad1be2c89b69c2b068fc378daa952ba7f163c4a11628f55a4df523b3ef",
            "0x0000000000000000000000003fbbbd4c00ae3f40762bf58ccbbff92ec3ff4ecf",
            "0x0000000000000000000000006708e21113922ed588bbccaa5ef756becbb2a7d1"
          ],
          "data": "0x000000000000000000000000000000000000000000000000000000a2fae4ca80",
          "blockHash": "0xfb851a879fa388d6525c1871b2bc95651edb285b21c2d4741028a19a88a133fa",
          "blockNumber": "0x2eabec5",
          "blockTimestamp": "0x6a5fda6d",
          "transactionHash": "0x3ac6f34ac8c8f2f2f2f2334f1c2ba2719b7d455a57fde2e9ea0ff0ae27883c33",
          "transactionIndex": "0x7f",
          "logIndex": "0x115",
          "removed": false
        },
        {
          "address": "0x3fbbbd4c00ae3f40762bf58ccbbff92ec3ff4ecf",
          "topics": [
            "0x4bd17910a91e0f1030c9175de2db5d574b89ea3c3ceab7285e893238ea859146"
          ],
          "data": "0x000000000000000000000000000000000000000000000000000000a2fae4ca800000000000000000000000006708e21113922ed588bbccaa5ef756becbb2a7d1",
          "blockHash": "0xfb851a879fa388d6525c1871b2bc95651edb285b21c2d4741028a19a88a133fa",
          "blockNumber": "0x2eabec5",
          "blockTimestamp": "0x6a5fda6d",
          "transactionHash": "0x3ac6f34ac8c8f2f2f2f2334f1c2ba2719b7d455a57fde2e9ea0ff0ae27883c33",
          "transactionIndex": "0x7f",
          "logIndex": "0x116",
          "removed": false
        }
      ],
      "logsBloom": "0x00000000000000000000000000020000000000000000000000000000000000000000000000008000000000000000400000000000000000000000000000000000000000000000000000000008000000000000000000000000000000000000000000000000000000100100000000000000000000000000000000000010000000000000000000000000000000100000000000000000000000000000000000004000000000000100000000000000000400000000000000000000000000000000000008000002000000000000000000000000000000080004000000000000002200000000000000000000000000000000000000000000000000000000000100000000",
      "transactionHash": "0x3ac6f34ac8c8f2f2f2f2334f1c2ba2719b7d455a57fde2e9ea0ff0ae27883c33",
      "transactionIndex": "0x7f",
      "blockHash": "0xfb851a879fa388d6525c1871b2bc95651edb285b21c2d4741028a19a88a133fa",
      "blockNumber": "0x2eabec5",
      "gasUsed": "0xdda4",
      "effectiveGasPrice": "0x5b8d80",
      "blobGasUsed": "0x39d0",
      "from": "0x6708e21113922ed588bbccaa5ef756becbb2a7d1",
      "to": "0x3fbbbd4c00ae3f40762bf58ccbbff92ec3ff4ecf",
      "contractAddress": null,
      "l1GasPrice": "0x91202ae",
      "l1GasUsed": "0x640",
      "l1Fee": "0x52172fa5",
      "l1BaseFeeScalar": "0x8dd",
      "l1BlobBaseFee": "0x7734d7",
      "l1BlobBaseFeeScalar": "0x101c12",
      "daFootprintGasScalar": "0x94"
    },
    {
      "type": "0x2",
      "status": "0x1",
      "cumulativeGasUsed": "0x9f8f95",
      "logs": [
        {
          "address": "0x0fea62084a024544891f03035e85401c2c886c1b",
          "topics": [
            "0x8c5be1e5ebec7d5bd14f71427d1e84f3dd0314c0f7b2291e5b200ac8c7c3b925",
            "0x0000000000000000000000006708e21113922ed588bbccaa5ef756becbb2a7d1",
            "0x000000000000000000000000d36ad3bf4e4a619f5b8f8c22dda90e313f23035b"
          ],
          "data": "0x000000000000000000000000000000000000000000000000000000a2fae4ca80",
          "blockHash": "0x0c1bb16b58ffece3955d980d427e1f9ec6f8ece7fd37824f55014abfd2d018e9",
          "blockNumber": "0x2eabec7",
          "blockTimestamp": "0x6a5fda71",
          "transactionHash": "0x32841de2101827a12adf0d364c762156859e13660416c11c0c8aa864383ea830",
          "transactionIndex": "0x2d",
          "logIndex": "0x108",
          "removed": false
        }
      ],
      "logsBloom": "0x00000000000000000000000000000000000000000000000000000000000000000004000000000000000000000000000000000000000000000000000000200000000000000000000000000000000000000000000000000004000000000000000000000000000000100000000000000000000000000000000000000000000000000000000000000000000000100000000000000000000000000000000000004000020000000080000000000000000000000000000000000000000000000000000000000000000000000000000000000000000000080000000000000000002200000010000000000000000000000000000000000000000000000000000000000000",
      "transactionHash": "0x32841de2101827a12adf0d364c762156859e13660416c11c0c8aa864383ea830",
      "transactionIndex": "0x2d",
      "blockHash": "0x0c1bb16b58ffece3955d980d427e1f9ec6f8ece7fd37824f55014abfd2d018e9",
      "blockNumber": "0x2eabec7",
      "gasUsed": "0xb389",
      "effectiveGasPrice": "0x5b8d80",
      "blobGasUsed": "0x39d0",
      "from": "0x6708e21113922ed588bbccaa5ef756becbb2a7d1",
      "to": "0x0fea62084a024544891f03035e85401c2c886c1b",
      "contractAddress": null,
      "l1GasPrice": "0x91202ae",
      "l1GasUsed": "0x640",
      "l1Fee": "0x52172fa5",
      "l1BaseFeeScalar": "0x8dd",
      "l1BlobBaseFee": "0x7734d7",
      "l1BlobBaseFeeScalar": "0x101c12",
      "daFootprintGasScalar": "0x94"
    },
    {
      "type": "0x2",
      "status": "0x1",
      "cumulativeGasUsed": "0x595403",
      "logs": [
        {
          "address": "0x0fea62084a024544891f03035e85401c2c886c1b",
          "topics": [
            "0xddf252ad1be2c89b69c2b068fc378daa952ba7f163c4a11628f55a4df523b3ef",
            "0x0000000000000000000000006708e21113922ed588bbccaa5ef756becbb2a7d1",
            "0x000000000000000000000000d36ad3bf4e4a619f5b8f8c22dda90e313f23035b"
          ],
          "data": "0x000000000000000000000000000000000000000000000000000000a2fae4ca80",
          "blockHash": "0x0000000000000000000000000000000000000000000000000000000000000000",
          "blockNumber": "0x2eabec9",
          "blockTimestamp": "0x6a5fda75",
          "transactionHash": "0x28f7a231b250c485cbc3b682ec9da6ca74a2c5e76aa8bb101624a6f2f81a9aa1",
          "transactionIndex": "0x34",
          "logIndex": "0x52",
          "removed": false
        },
        {
          "address": "0xd36ad3bf4e4a619f5b8f8c22dda90e313f23035b",
          "topics": [
            "0xb9d0fd37b38187ab8d265cf743c8eb9fa34702b7f1466cd298a8870e128d641b"
          ],
          "data": "0x000000000000000000000000000000000000000000000000000000a2fae4ca80",
          "blockHash": "0x0000000000000000000000000000000000000000000000000000000000000000",
          "blockNumber": "0x2eabec9",
          "blockTimestamp": "0x6a5fda75",
          "transactionHash": "0x28f7a231b250c485cbc3b682ec9da6ca74a2c5e76aa8bb101624a6f2f81a9aa1",
          "transactionIndex": "0x34",
          "logIndex": "0x53",
          "removed": false
        }
      ],
      "logsBloom": "0x00000000000000000000000000000000000000000000000000000000000000000004400000000000000000002000000000000000000000000000000000000000000000000000000000000008000000000000000000000004000001000000000000000000000000100000000000000000000000000000000000000010000000000000000000000000000000100000000000000000000000000000000000004000000000000080000000000000000000000000000000000020000000000000000000000002000000000000000800000000000000080000000000000000002200000000000000000000000000000000400000000000000000000000000000000000",
      "transactionHash": "0x28f7a231b250c485cbc3b682ec9da6ca74a2c5e76aa8bb101624a6f2f81a9aa1",
      "transactionIndex": "0x34",
      "blockHash": "0x0000000000000000000000000000000000000000000000000000000000000000",
      "blockNumber": "0x2eabec9",
      "gasUsed": "0x13227",
      "effectiveGasPrice": "0x5b8d80",
      "blobGasUsed": "0x39d0",
      "from": "0x6708e21113922ed588bbccaa5ef756becbb2a7d1",
      "to": "0xd36ad3bf4e4a619f5b8f8c22dda90e313f23035b",
      "contractAddress": null,
      "l1GasPrice": "0x91202ae",
      "l1GasUsed": "0x640",
      "l1Fee": "0xe14bbcac",
      "l1BaseFeeScalar": "0x8dd",
      "l1BlobBaseFee": "0x7734d7",
      "l1BlobBaseFeeScalar": "0x101c12",
      "daFootprintGasScalar": "0x94"
    }
  ],
  "libraries": [],
  "pending": [],
  "returns": {},
  "timestamp": 1784666740888,
  "chain": 8453,
  "commit": "26c6b3e"
}