{
  "transactions": [
    {
      "hash": "0xe5c62b04bb129f4c0cd23a4844547fdaf7235cb5b08f0560d0b7a1927be956ca",
      "transactionType": "CALL",
      "contractName": null,
      "contractAddress": "0xbbbbbbbbbb9cc5e90e3b3af64bdaf62c37eeffcb",
      "function": "withdrawCollateral((address,address,address,address,uint256),uint256,address,address)",
      "arguments": [
        "(0x833589fCD6eDb6E08f4c7C32D4f71b54bdA02913, 0x50639C42E2FFDEC4F68FB468968a55b3Af944583, 0xe290B586FAa8A2cC219edFEb202bf1E6ec64cf19, 0x46415998764C29aB2a25CbeA6254146D50D22687, 770000000000000000)",
        "2014284462484057",
        "0x6708e21113922ED588bBCcAA5ef756BEcBb2a7d1",
        "0x6708e21113922ED588bBCcAA5ef756BEcBb2a7d1"
      ],
      "transaction": {
        "from": "0x6708e21113922ed588bbccaa5ef756becbb2a7d1",
        "to": "0xbbbbbbbbbb9cc5e90e3b3af64bdaf62c37eeffcb",
        "gas": "0x1dd40",
        "value": "0x0",
        "input": "0x8720316d000000000000000000000000833589fcd6edb6e08f4c7c32d4f71b54bda0291300000000000000000000000050639c42e2ffdec4f68fb468968a55b3af944583000000000000000000000000e290b586faa8a2cc219edfeb202bf1e6ec64cf1900000000000000000000000046415998764c29ab2a25cbea6254146d50d226870000000000000000000000000000000000000000000000000aaf96eb9d0d0000000000000000000000000000000000000000000000000000000727fb25dcea590000000000000000000000006708e21113922ed588bbccaa5ef756becbb2a7d10000000000000000000000006708e21113922ed588bbccaa5ef756becbb2a7d1",
        "nonce": "0x4b0",
        "chainId": "0x2105"
      },
      "additionalContracts": [],
      "isFixedGasLimit": false
    }
  ],
  "receipts": [
    {
      "type": "0x2",
      "status": "0x1",
      "cumulativeGasUsed": "0x72c1c9",
      "logs": [
        {
          "address": "0x46415998764c29ab2a25cbea6254146d50d22687",
          "topics": [
            "0x7120161a7b3d31251e01294ab351ef15a41b91659a36032e4641bb89b121e321",
            "0xa4ec527128b425ee3fcb7f60eca37677b63b3d003345ec2a72ef6a2e72da53fc"
          ],
          "data": "0x00000000000000000000000000000000000000000000000000000000f964d418000000000000000000000000000000000000000000000000000000003ea21ecc",
          "blockHash": "0x0000000000000000000000000000000000000000000000000000000000000000",
          "blockNumber": "0x2ec30f7",
          "blockTimestamp": "0x6a62bed1",
          "transactionHash": "0xe5c62b04bb129f4c0cd23a4844547fdaf7235cb5b08f0560d0b7a1927be956ca",
          "transactionIndex": "0x56",
          "logIndex": "0x8a",
          "removed": false
        },
        {
          "address": "0xbbbbbbbbbb9cc5e90e3b3af64bdaf62c37eeffcb",
          "topics": [
            "0x9d9bd501d0657d7dfe415f779a620a62b78bc508ddc0891fbbd8b7ac0f8fce87",
            "0xa4ec527128b425ee3fcb7f60eca37677b63b3d003345ec2a72ef6a2e72da53fc"
          ],
          "data": "0x00000000000000000000000000000000000000000000000000000000f964d41800000000000000000000000000000000000000000000000000000000141891d10000000000000000000000000000000000000000000000000000000000000000",
          "blockHash": "0x0000000000000000000000000000000000000000000000000000000000000000",
          "blockNumber": "0x2ec30f7",
          "blockTimestamp": "0x6a62bed1",
          "transactionHash": "0xe5c62b04bb129f4c0cd23a4844547fdaf7235cb5b08f0560d0b7a1927be956ca",
          "transactionIndex": "0x56",
          "logIndex": "0x8b",
          "removed": false
        },
        {
          "address": "0xbbbbbbbbbb9cc5e90e3b3af64bdaf62c37eeffcb",
          "topics": [
            "0xe80ebd7cc9223d7382aab2e0d1d6155c65651f83d53c8b9b06901d167e321142",
            "0xa4ec527128b425ee3fcb7f60eca37677b63b3d003345ec2a72ef6a2e72da53fc",
            "0x0000000000000000000000006708e21113922ed588bbccaa5ef756becbb2a7d1",
            "0x0000000000000000000000006708e21113922ed588bbccaa5ef756becbb2a7d1"
          ],
          "data": "0x0000000000000000000000006708e21113922ed588bbccaa5ef756becbb2a7d1000000000000000000000000000000000000000000000000000727fb25dcea59",
          "blockHash": "0x0000000000000000000000000000000000000000000000000000000000000000",
          "blockNumber": "0x2ec30f7",
          "blockTimestamp": "0x6a62bed1",
          "transactionHash": "0xe5c62b04bb129f4c0cd23a4844547fdaf7235cb5b08f0560d0b7a1927be956ca",
          "transactionIndex": "0x56",
          "logIndex": "0x8c",
          "removed": false
        },
        {
          "address": "0x50639c42e2ffdec4f68fb468968a55b3af944583",
          "topics": [
            "0xddf252ad1be2c89b69c2b068fc378daa952ba7f163c4a11628f55a4df523b3ef",
            "0x000000000000000000000000bbbbbbbbbb9cc5e90e3b3af64bdaf62c37eeffcb",
            "0x0000000000000000000000006708e21113922ed588bbccaa5ef756becbb2a7d1"
          ],
          "data": "0x000000000000000000000000000000000000000000000000000727fb25dcea59",
          "blockHash": "0x0000000000000000000000000000000000000000000000000000000000000000",
          "blockNumber": "0x2ec30f7",
          "blockTimestamp": "0x6a62bed1",
          "transactionHash": "0xe5c62b04bb129f4c0cd23a4844547fdaf7235cb5b08f0560d0b7a1927be956ca",
          "transactionIndex": "0x56",
          "logIndex": "0x8d",
          "removed": false
        }
      ],
      "logsBloom": "0x00000000000000000000000000000080000000001000000000000000000000000000400000000100000000000000000000000000000000000000000020804000000000000010000000000008200000000000000040001000000000080000000000000000000000000000000000000000080000000000000000000010000000000000000000000008000000100000000000000000000000000008000000004000000000000000000000000000000000000000000000000200000000000000000020000002000000000004002000000000000100000000000000000000002000000000000001000000000000200001000000000000000400000000000000000000",
      "transactionHash": "0xe5c62b04bb129f4c0cd23a4844547fdaf7235cb5b08f0560d0b7a1927be956ca",
      "transactionIndex": "0x56",
      "blockHash": "0x0000000000000000000000000000000000000000000000000000000000000000",
      "blockNumber": "0x2ec30f7",
      "gasUsed": "0x15986",
      "effectiveGasPrice": "0x5b8d80",
      "blobGasUsed": "0x6f00",
      "from": "0x6708e21113922ed588bbccaa5ef756becbb2a7d1",
      "to": "0xbbbbbbbbbb9cc5e90e3b3af64bdaf62c37eeffcb",
      "contractAddress": null,
      "l1GasPrice": "0x4d3fc49",
      "l1GasUsed": "0xc07",
      "l1Fee": "0x30c9e854",
      "l1BaseFeeScalar": "0x8dd",
      "l1BlobBaseFee": "0x4bcd11",
      "l1BlobBaseFeeScalar": "0x101c12",
      "daFootprintGasScalar": "0x94"
    }
  ],
  "libraries": [],
  "pending": [],
  "returns": {},
  "timestamp": 1784856272478,
  "chain": 8453,
  "commit": "c963f49"
}