{
  "transactions": [
    {
      "hash": "0xa4226d75fa81fe278d69f19677747ceec39444fee22c1a9f53921ebd0625b29c",
      "transactionType": "CALL",
      "contractName": null,
      "contractAddress": "0xf80c0529bd94c773844e459853cd91b9263dd525",
      "function": "setFeeRecipient(address)",
      "arguments": [
        "0x5Adcea5319eA9Eac1241B95Ca53690574cFa2357"
      ],
      "transaction": {
        "from": "0x6708e21113922ed588bbccaa5ef756becbb2a7d1",
        "to": "0xf80c0529bd94c773844e459853cd91b9263dd525",
        "gas": "0x47a56",
        "value": "0x0",
        "input": "0xe74b981b0000000000000000000000005adcea5319ea9eac1241b95ca53690574cfa2357",
        "nonce": "0x333",
        "chainId": "0x2105"
      },
      "additionalContracts": [],
      "isFixedGasLimit": false
    }
  ],
  "receipts": [
    {
      "type": "0x2",
      "status": "0x1",
      "cumulativeGasUsed": "0x7a138e",
      "logs": [
        {
          "address": "0xf80c0529bd94c773844e459853cd91b9263dd525",
          "topics": [
            "0x15c027cc4fd826d986cad358803439f7326d3aa4ed969ff90dbee4bc150f68e9"
          ],
          "data": "0x0000000000000000000000000000000000000000000000000000000000644a7e",
          "blockHash": "0x0000000000000000000000000000000000000000000000000000000000000000",
          "blockNumber": "0x2ea62e2",
          "blockTimestamp": "0x6a5f22a7",
          "transactionHash": "0xa4226d75fa81fe278d69f19677747ceec39444fee22c1a9f53921ebd0625b29c",
          "transactionIndex": "0x1d",
          "logIndex": "0xf8",
          "removed": false
        },
        {
          "address": "0xf80c0529bd94c773844e459853cd91b9263dd525",
          "topics": [
            "0x548669ea9bcc24888e6d74a69c9865fa98d795686853b8aa3eb87814261bbb71"
          ],
          "data": "0x0000000000000000000000000000000000000000000000000000000000000000",
          "blockHash": "0x0000000000000000000000000000000000000000000000000000000000000000",
          "blockNumber": "0x2ea62e2",
          "blockTimestamp": "0x6a5f22a7",
          "transactionHash": "0xa4226d75fa81fe278d69f19677747ceec39444fee22c1a9f53921ebd0625b29c",
          "transactionIndex": "0x1d",
          "logIndex": "0xf9",
          "removed": false
        },
        {
          "address": "0xf80c0529bd94c773844e459853cd91b9263dd525",
          "topics": [
            "0xf66f28b40975dbb933913542c7e6a0f50a1d0f20aa74ea6e0efe65ab616323ec"
          ],
          "data": "0x0000000000000000000000000000000000000000000000000000000000644a7e0000000000000000000000000000000000000000000000000000000000000000",
          "blockHash": "0x0000000000000000000000000000000000000000000000000000000000000000",
          "blockNumber": "0x2ea62e2",
          "blockTimestamp": "0x6a5f22a7",
          "transactionHash": "0xa4226d75fa81fe278d69f19677747ceec39444fee22c1a9f53921ebd0625b29c",
          "transactionIndex": "0x1d",
          "logIndex": "0xfa",
          "removed": false
        },
        {
          "address": "0xf80c0529bd94c773844e459853cd91b9263dd525",
          "topics": [
            "0x2e979f80fe4d43055c584cf4a8467c55875ea36728fc37176c05acd784eb7a73",
            "0x0000000000000000000000005adcea5319ea9eac1241b95ca53690574cfa2357"
          ],
          "data": "0x",
          "blockHash": "0x0000000000000000000000000000000000000000000000000000000000000000",
          "blockNumber": "0x2ea62e2",
          "blockTimestamp": "0x6a5f22a7",
          "transactionHash": "0xa4226d75fa81fe278d69f19677747ceec39444fee22c1a9f53921ebd0625b29c",
          "transactionIndex": "0x1d",
          "logIndex": "0xfb",
          "removed": false
        }
      ],
      "logsBloom": "0x00000000000000000000000000000000000000000000000000000000000000000000000000000000000000000000000000001000000000000000000000000000000000000000000000000000000000000000000000000000000000000100000000000000000000000000000200000000000000000000002000000000800000000048000000000000000000000000000000000000000000000020000000000400000000000020010000000000000000000000100004000000000000000000000000000000000000000000000000000000080000000000008000000000000000014000000000000000000000000000000000000000000000000000000000080000",
      "transactionHash": "0xa4226d75fa81fe278d69f19677747ceec39444fee22c1a9f53921ebd0625b29c",
      "transactionIndex": "0x1d",
      "blockHash": "0x0000000000000000000000000000000000000000000000000000000000000000",
      "blockNumber": "0x2ea62e2",
      "gasUsed": "0x33dee",
      "effectiveGasPrice": "0x4c7250",
      "blobGasUsed": "0x39d0",
      "from": "0x6708e21113922ed588bbccaa5ef756becbb2a7d1",
      "to": "0xf80c0529bd94c773844e459853cd91b9263dd525",
      "contractAddress": null,
      "l1GasPrice": "0x78e443b",
      "l1GasUsed": "0x640",
      "l1Fee": "0x4b81db76",
      "l1BaseFeeScalar": "0x8dd",
      "l1BlobBaseFee": "0x6709ec",
      "l1BlobBaseFeeScalar": "0x101c12",
      "daFootprintGasScalar": "0x94"
    }
  ],
  "libraries": [],
  "pending": [],
  "returns": {},
  "timestamp": 1784619686648,
  "chain": 8453,
  "commit": "d8b2232"
}