{
  "transactions": [
    {
      "hash": "0x4e3f8384a3f5b985d4b81e8b71e962d6cf155f2c4421302d39d39b50cef78639",
      "transactionType": "CREATE",
      "contractName": "CrownElepanSelfSeed",
      "contractAddress": "0xed6149de4b8d17da2df7d1b5e67c950efd8aef74",
      "function": null,
      "arguments": [
        "0xBBBBBbbBBb9cC5e90e3b3Af64bdAF62C37EEFFCb",
        "0x833589fCD6eDb6E08f4c7C32D4f71b54bdA02913",
        "0x50639C42E2FFDEC4F68FB468968a55b3Af944583",
        "0x61bfD6F7df1f72427F472144d043c25d742D145E",
        "0x6708e21113922ED588bBCcAA5ef756BEcBb2a7d1",
        "0xa4ec527128b425ee3fcb7f60eca37677b63b3d003345ec2a72ef6a2e72da53fc",
        "0xe290B586FAa8A2cC219edFEb202bf1E6ec64cf19",
        "0x46415998764C29aB2a25CbeA6254146D50D22687",
        "770000000000000000",
        "0x6708e21113922ED588bBCcAA5ef756BEcBb2a7d1"
      ],
      "transaction": {
        "from": "0x6708e21113922ed588bbccaa5ef756becbb2a7d1",
        "to": null,
        "gas": "0x13b9cd",
        "value": "0x0",
        "input": "0x610140346200021157601f6200104038819003918201601f19168301916001600160401b03831184841017620001fd578084926101409460405283398101031262000211576200004f8162000215565b906200005e6020820162000215565b6200006c6040830162000215565b926200007b6060840162000215565b936200008a6080850162000215565b9460a0850151916200009f60c0870162000215565b94620000ae60e0880162000215565b9361010098620000d66101208b8b01519a60018060a01b039586808095819582950162000215565b169b60018060a01b03199c8d5f5416175f55600180551660805216958660a05216958660c0521660e0528952610120526040519560a087019187831060018060401b03841117620001fd57806080928a94604052858a528660208b015216958660408a0152169687606082015201528360025416176002558260035416176003558160045416176004556005541617600555600655604051610e1591826200022b833960805182818161030a015281816106b4015261088a015260a0518281816103f80152818161080301526108d7015260c05182818161025a015281816105cc01526107bf015260e0518281816108fa0152610c2e0152518181816102910152818161059d015281816106f8015261093901526101205181818161078701526109870152f35b634e487b7160e01b5f52604160045260245ffd5b5f80fd5b51906001600160a01b0382168203620002115756fe60806040818152600480361015610014575f80fd5b5f92833560e01c90816309feb3b014610c1a575080631bfaae1d14610bfd57806331f57072146108325780633e413bee146107ee5780635af1d67b146107aa5780636ed71ede1461076f578063894ac5751461074f5780638da5cb5b14610727578063cc181ca8146106e3578063d8fbc8331461069f578063e0619765146101b8578063ee29568014610193578063f2fde38b1461010b5763f4002708146100ba575f80fd5b3461010757826003193601126101075760a09250600180841b0391826002541692808060035416935416906005541691600654938151958652602086015284015260608301526080820152f35b8280fd5b509034610107576020366003190112610107576001600160a01b0382358181169391929084900361018f57845492831633036101825783156101595750506001600160a01b03191617815580f35b60649250519062461bcd60e51b82526020818301526024820152635a45524f60e01b6044820152fd5b516330cd747160e01b8152fd5b8480fd5b5050346101b457816003193601126101b4576020905165082f79cd90008152f35b5080fd5b503461010757816003193601126101075782546001600160a01b039260248035928435908616330361068f57600195868054036106615760028755818515610653575b64e8d4a510008610610643571561058f575b6305f5e10080860290868204148615171561057d57611b5880840290848204148415171561056b576401a13b8600840290808204620f4240149015171561056b5761271090041061055b577f000000000000000000000000000000000000000000000000000000000000000092845195602092838801926323b872dd60e01b8452817f0000000000000000000000000000000000000000000000000000000000000000169384828b01523060448b01528660648b015260648a5260a08a019967ffffffffffffffff9a8181108c821117610549578a52518d91829190828b87165af16102f7610cbf565b81610519575b50156104e85761033186837f0000000000000000000000000000000000000000000000000000000000000000168099610d16565b863b156104e457875163238d657960e01b81526002546001600160a01b039081168c830190815260035482166020820152600454821660408201526005549091166060820152600654608090910152938660a486015260c485015260e493610100858201528c6101048201528c8161012481838c5af180156104da576104c7575b5060ff19998b8b60075416176007558851968688015283898801528887526060870199878b10908b11176104b6575050878752853b156104b25763701195a160e11b88527f00000000000000000000000000000000000000000000000000000000000000001660648501526084840152606060a4840152825160c48401819052899695949392909190875b83811061049d5750508660848484838a97958199978997010152601f801991011681010301925af19081156104945750610480575b505060075416600755805580f35b61048990610c5d565b61010757825f610472565b513d84823e3d90fd5b80850180830151908401528b9850810161043d565b8a80fd5b604190634e487b7160e01b5f52525ffd5b6104d3909c919c610c5d565b9a5f6103b2565b89513d8f823e3d90fd5b8b80fd5b89600d606492878b519362461bcd60e51b85528401528201526c5452414e534645525f46524f4d60981b6044820152fd5b80518015925087908315610531575b5050505f6102fd565b6105419350820181019101610cfe565b5f8681610528565b634e487b7160e01b8f5260418d52838ffd5b8351630fa5991d60e01b81528690fd5b634e487b7160e01b8a5260118852848afd5b634e487b7160e01b8952601187528389fd5b83516370a0823160e01b81527f000000000000000000000000000000000000000000000000000000000000000082168782015290915060208184817f000000000000000000000000000000000000000000000000000000000000000086165afa908115610639578891610604575b509061020d565b90506020813d8211610631575b8161061e60209383610c85565b8101031261062d57515f6105fd565b8780fd5b3d9150610611565b84513d8a823e3d90fd5b845163cbb0251360e01b81528790fd5b65082f79cd900095506101fb565b835162461bcd60e51b81526020818801526009818501526814915153951490539560ba1b6044820152606490fd5b82516330cd747160e01b81528590fd5b5050346101b457816003193601126101b457517f00000000000000000000000000000000000000000000000000000000000000006001600160a01b03168152602090f35b5050346101b457816003193601126101b457517f00000000000000000000000000000000000000000000000000000000000000006001600160a01b03168152602090f35b5050346101b457816003193601126101b457905490516001600160a01b039091168152602090f35b5050346101b457816003193601126101b4576020905164e8d4a510008152f35b5050346101b457816003193601126101b457602090517f00000000000000000000000000000000000000000000000000000000000000008152f35b5050346101b457816003193601126101b457517f00000000000000000000000000000000000000000000000000000000000000006001600160a01b03168152602090f35b5050346101b457816003193601126101b457517f00000000000000000000000000000000000000000000000000000000000000006001600160a01b03168152602090f35b509190346101b457806003193601126101b457823560249081359267ffffffffffffffff808511610bf95736602386011215610bf95784870135908111610bf9578401923681850111610bf9576001600160a01b03937f000000000000000000000000000000000000000000000000000000000000000085169033829003610be95760ff6007541615610be9578684910312610be55760448601358403610bd55786977f000000000000000000000000000000000000000000000000000000000000000090867f000000000000000000000000000000000000000000000000000000000000000016610925878285610d16565b855197636e553f6560e01b895287838a01527f0000000000000000000000000000000000000000000000000000000000000000169081868a01528860448160209d8e945af1978815610bcb578b98610b9c575b508551632e3071cd60e11b81527f00000000000000000000000000000000000000000000000000000000000000008382015260c0818781885afa908115610b92578c908d92610b1a575b506001600160801b03908116911680821115610b11578103908111610aff5787905b10610af057610a308651926350d8cd4b60e01b8452830160018060a01b038060025416825280600354166020830152806004541660408301526005541660608201526080600654910152565b8660a48301528a60c483015260e4820152306101048201528481610124818d875af18015610ae657610aa9575b5096849392610a93856080999897947fbae9a1d4c3c616dde26bbb5d9640866d675e516a73afef81fb64fd9e87b2a6059b610d16565b835196013586528501528301526060820152a180f35b93809398919297969594813d8311610adf575b610ac68183610c85565b81010312610adb57969192939495905f610a5d565b8880fd5b503d610abc565b85513d8c823e3d90fd5b50845163c972004360e01b8152fd5b634e487b7160e01b8c5260118352858cfd5b5050868b6109e4565b91505060c0813d8211610b8a575b81610b3560c09383610c85565b810103126104e457610b4681610ca7565b610b518c8301610ca7565b50610b8360a0610b628a8501610ca7565b93610b6f60608201610ca7565b50610b7c60808201610ca7565b5001610ca7565b505f6109c2565b3d9150610b28565b87513d8e823e3d90fd5b9097508981813d8311610bc4575b610bb48183610c85565b810103126104b25751965f610978565b503d610baa565b86513d8d823e3d90fd5b825163cbb0251360e01b81528890fd5b8680fd5b8351637e5f4b6160e01b81528990fd5b8580fd5b5050346101b457816003193601126101b45760209051611b588152f35b8490346101b457816003193601126101b4577f00000000000000000000000000000000000000000000000000000000000000006001600160a01b03168152602090f35b67ffffffffffffffff8111610c7157604052565b634e487b7160e01b5f52604160045260245ffd5b90601f8019910116810190811067ffffffffffffffff821117610c7157604052565b51906001600160801b0382168203610cbb57565b5f80fd5b3d15610cf9573d9067ffffffffffffffff8211610c715760405191610cee601f8201601f191660200184610c85565b82523d5f602084013e565b606090565b90816020910312610cbb57518015158103610cbb5790565b60405163095ea7b360e01b602082019081526001600160a01b03938416602483015260448083019590955293815291926080830167ffffffffffffffff811184821017610c71575f94859485926040525193165af1610d73610cbf565b81610db0575b5015610d8157565b60405162461bcd60e51b8152602060048201526007602482015266415050524f564560c81b6044820152606490fd5b8051801592508215610dc5575b50505f610d79565b610dd89250602080918301019101610cfe565b5f80610dbd56fea264697066735822122098e1c5b34826d556a34bf7eaf9e524c2ce31f333cefb4f5ce73d46cba95a005464736f6c63430008140033000000000000000000000000bbbbbbbbbb9cc5e90e3b3af64bdaf62c37eeffcb000000000000000000000000833589fcd6edb6e08f4c7c32d4f71b54bda0291300000000000000000000000050639c42e2ffdec4f68fb468968a55b3af94458300000000000000000000000061bfd6f7df1f72427f472144d043c25d742d145e0000000000000000000000006708e21113922ed588bbccaa5ef756becbb2a7d1a4ec527128b425ee3fcb7f60eca37677b63b3d003345ec2a72ef6a2e72da53fc000000000000000000000000e290b586faa8a2cc219edfeb202bf1e6ec64cf1900000000000000000000000046415998764c29ab2a25cbea6254146d50d226870000000000000000000000000000000000000000000000000aaf96eb9d0d00000000000000000000000000006708e21113922ed588bbccaa5ef756becbb2a7d1",
        "nonce": "0x4a3",
        "chainId": "0x2105"
      },
      "additionalContracts": [],
      "isFixedGasLimit": false
    },
    {
      "hash": "0x52e062b56266a7c468f1bba569f8cf9ef466b3d661c8988710736ad4e6df450b",
      "transactionType": "CALL",
      "contractName": null,
      "contractAddress": "0xbbbbbbbbbb9cc5e90e3b3af64bdaf62c37eeffcb",
      "function": "setAuthorization(address,bool)",
      "arguments": [
        "0xed6149dE4B8D17DA2DF7d1B5E67c950EFd8aeF74",
        "true"
      ],
      "transaction": {
        "from": "0x6708e21113922ed588bbccaa5ef756becbb2a7d1",
        "to": "0xbbbbbbbbbb9cc5e90e3b3af64bdaf62c37eeffcb",
        "gas": "0x10dee",
        "value": "0x0",
        "input": "0xeecea000000000000000000000000000ed6149de4b8d17da2df7d1b5e67c950efd8aef740000000000000000000000000000000000000000000000000000000000000001",
        "nonce": "0x4a4",
        "chainId": "0x2105"
      },
      "additionalContracts": [],
      "isFixedGasLimit": false
    },
    {
      "hash": "0x8e71723a7de9513e918e1c23309e2bdf9a01efa8a00a8e0f39ff5ff8f037943f",
      "transactionType": "CALL",
      "contractName": null,
      "contractAddress": "0x50639c42e2ffdec4f68fb468968a55b3af944583",
      "function": "approve(address,uint256)",
      "arguments": [
        "0xed6149dE4B8D17DA2DF7d1B5E67c950EFd8aeF74",
        "115792089237316195423570985008687907853269984665640564039457584007913129639935"
      ],
      "transaction": {
        "from": "0x6708e21113922ed588bbccaa5ef756becbb2a7d1",
        "to": "0x50639c42e2ffdec4f68fb468968a55b3af944583",
        "gas": "0xfaaf",
        "value": "0x0",
        "input": "0x095ea7b3000000000000000000000000ed6149de4b8d17da2df7d1b5e67c950efd8aef74ffffffffffffffffffffffffffffffffffffffffffffffffffffffffffffffff",
        "nonce": "0x4a5",
        "chainId": "0x2105"
      },
      "additionalContracts": [],
      "isFixedGasLimit": false
    },
    {
      "hash": "0x94465542a55acaab9409b04c5d29546504161ee93ff4624d4a8c7a028da1a0d5",
      "transactionType": "CALL",
      "contractName": "CrownElepanSelfSeed",
      "contractAddress": "0xed6149de4b8d17da2df7d1b5e67c950efd8aef74",
      "function": "selfSeed(uint256,uint256)",
      "arguments": [
        "1300000000000000",
        "9000000000000"
      ],
      "transaction": {
        "from": "0x6708e21113922ed588bbccaa5ef756becbb2a7d1",
        "to": "0xed6149de4b8d17da2df7d1b5e67c950efd8aef74",
        "gas": "0x85f6a",
        "value": "0x0",
        "input": "0xe061976500000000000000000000000000000000000000000000000000049e57d63540000000000000000000000000000000000000000000000000000000082f79cd9000",
        "nonce": "0x4a6",
        "chainId": "0x2105"
      },
      "additionalContracts": [],
      "isFixedGasLimit": false
    }
  ],
  "receipts": [
    {
      "type": "0x2",
      "status": "0x1",
      "cumulativeGasUsed": "0xbb6047",
      "logs": [],
      "logsBloom": "0x00000000000000000000000000000000000000000000000000000000000000000000000000000000000000000000000000000000000000000000000000000000000000000000000000000000000000000000000000000000000000000000000000000000000000000000000000000000000000000000000000000000000000000000000000000000000000000000000000000000000000000000000000000000000000000000000000000000000000000000000000000000000000000000000000000000000000000000000000000000000000000000000000000000000000000000000000000000000000000000000000000000000000000000000000000000",
      "transactionHash": "0x4e3f8384a3f5b985d4b81e8b71e962d6cf155f2c4421302d39d39b50cef78639",
      "transactionIndex": "0x2f",
      "blockHash": "0x0000000000000000000000000000000000000000000000000000000000000000",
      "blockNumber": "0x2ec2553",
      "gasUsed": "0xf2c77",
      "effectiveGasPrice": "0x4dd1e0",
      "blobGasUsed": "0x61734",
      "from": "0x6708e21113922ed588bbccaa5ef756becbb2a7d1",
      "to": null,
      "contractAddress": "0xed6149de4b8d17da2df7d1b5e67c950efd8aef74",
      "l1GasPrice": "0x58a9a40",
      "l1GasUsed": "0xa89c",
      "l1Fee": "0x6ea0d5de",
      "l1BaseFeeScalar": "0x8dd",
      "l1BlobBaseFee": "0x570c8b",
      "l1BlobBaseFeeScalar": "0x101c12",
      "daFootprintGasScalar": "0x94"
    },
    {
      "type": "0x2",
      "status": "0x1",
      "cumulativeGasUsed": "0x138ec41",
      "logs": [
        {
          "address": "0xbbbbbbbbbb9cc5e90e3b3af64bdaf62c37eeffcb",
          "topics": [
            "0xd5e969f01efe921d3f766bdebad25f0a05e3f237311f56482bf132d0326309c0",
            "0x0000000000000000000000006708e21113922ed588bbccaa5ef756becbb2a7d1",
            "0x0000000000000000000000006708e21113922ed588bbccaa5ef756becbb2a7d1",
            "0x000000000000000000000000ed6149de4b8d17da2df7d1b5e67c950efd8aef74"
          ],
          "data": "0x0000000000000000000000000000000000000000000000000000000000000001",
          "blockHash": "0x0ee965da3f3fea355cde185731d1967aee8c21b66482d8df5cdbefabcc41bc43",
          "blockNumber": "0x2ec2554",
          "blockTimestamp": "0x6a62a78b",
          "transactionHash": "0x52e062b56266a7c468f1bba569f8cf9ef466b3d661c8988710736ad4e6df450b",
          "transactionIndex": "0x69",
          "logIndex": "0x194",
          "removed": false
        }
      ],
      "logsBloom": "0x00000000000000000000002000000000000000000000000000000000000000000000000000000000000000000000000000000000000004000000000000000000000000000010000000000000000000000000000800000000000000000000000000000000000000000000200000000000000000000000000000040000000000000000000000000008000000100000020000000000000000000000000000004000000000000000000000000000000000000000000000000000000000000000000020000000000000000000000000000000000000000000000000000000002000000000000000000000000000000000000000000000000000000000000000000000",
      "transactionHash": "0x52e062b56266a7c468f1bba569f8cf9ef466b3d661c8988710736ad4e6df450b",
      "transactionIndex": "0x69",
      "blockHash": "0x0ee965da3f3fea355cde185731d1967aee8c21b66482d8df5cdbefabcc41bc43",
      "blockNumber": "0x2ec2554",
      "gasUsed": "0xb892",
      "effectiveGasPrice": "0x4dd1e0",
      "blobGasUsed": "0x39d0",
      "from": "0x6708e21113922ed588bbccaa5ef756becbb2a7d1",
      "to": "0xbbbbbbbbbb9cc5e90e3b3af64bdaf62c37eeffcb",
      "contractAddress": null,
      "l1GasPrice": "0x58a9a40",
      "l1GasUsed": "0x640",
      "l1Fee": "0x38046599",
      "l1BaseFeeScalar": "0x8dd",
      "l1BlobBaseFee": "0x570c8b",
      "l1BlobBaseFeeScalar": "0x101c12",
      "daFootprintGasScalar": "0x94"
    },
    {
      "type": "0x2",
      "status": "0x1",
      "cumulativeGasUsed": "0x18eb6b0",
      "logs": [
        {
          "address": "0x50639c42e2ffdec4f68fb468968a55b3af944583",
          "topics": [
            "0x8c5be1e5ebec7d5bd14f71427d1e84f3dd0314c0f7b2291e5b200ac8c7c3b925",
            "0x0000000000000000000000006708e21113922ed588bbccaa5ef756becbb2a7d1",
            "0x000000000000000000000000ed6149de4b8d17da2df7d1b5e67c950efd8aef74"
          ],
          "data": "0xffffffffffffffffffffffffffffffffffffffffffffffffffffffffffffffff",
          "blockHash": "0x19b943190fa5afcb6eafa8c1d63c24b1605a23b5b0e92873b49b3800c8d736cf",
          "blockNumber": "0x2ec2555",
          "blockTimestamp": "0x6a62a78d",
          "transactionHash": "0x8e71723a7de9513e918e1c23309e2bdf9a01efa8a00a8e0f39ff5ff8f037943f",
          "transactionIndex": "0x7c",
          "logIndex": "0x234",
          "removed": false
        }
      ],
      "logsBloom": "0x00000000000000000000000000000000000000000000000000000000000000000000000000000000000000000000000000000000000004000000000000200000000000000000000000000000200000000000000000001000000000000000000000000000000000000000000000000000000000000000000000040000000000000000000000000000000000100000020000000000000000000000000000004000020000000000000000000000000000000000000000000200000000000000000000000000000000000000000000000000000000000000000000000000002000000010000000000000000000000000000000000000000000000000000000000000",
      "transactionHash": "0x8e71723a7de9513e918e1c23309e2bdf9a01efa8a00a8e0f39ff5ff8f037943f",
      "transactionIndex": "0x7c",
      "blockHash": "0x19b943190fa5afcb6eafa8c1d63c24b1605a23b5b0e92873b49b3800c8d736cf",
      "blockNumber": "0x2ec2555",
      "gasUsed": "0xb57f",
      "effectiveGasPrice": "0x4dd1e0",
      "blobGasUsed": "0x39d0",
      "from": "0x6708e21113922ed588bbccaa5ef756becbb2a7d1",
      "to": "0x50639c42e2ffdec4f68fb468968a55b3af944583",
      "contractAddress": null,
      "l1GasPrice": "0x580e6b9",
      "l1GasUsed": "0x640",
      "l1Fee": "0x3848d971",
      "l1BaseFeeScalar": "0x8dd",
      "l1BlobBaseFee": "0x5807ed",
      "l1BlobBaseFeeScalar": "0x101c12",
      "daFootprintGasScalar": "0x94"
    },
    {
      "type": "0x2",
      "status": "0x1",
      "cumulativeGasUsed": "0xe46616",
      "logs": [
        {
          "address": "0x50639c42e2ffdec4f68fb468968a55b3af944583",
          "topics": [
            "0xddf252ad1be2c89b69c2b068fc378daa952ba7f163c4a11628f55a4df523b3ef",
            "0x0000000000000000000000006708e21113922ed588bbccaa5ef756becbb2a7d1",
            "0x000000000000000000000000ed6149de4b8d17da2df7d1b5e67c950efd8aef74"
          ],
          "data": "0x00000000000000000000000000000000000000000000000000049e57d6354000",
          "blockHash": "0x570c3b9878edcc7e4b596738d6666d2459ea1bfbb3e7d8b3b0cc84e3e1a29f73",
          "blockNumber": "0x2ec2556",
          "blockTimestamp": "0x6a62a78f",
          "transactionHash": "0x94465542a55acaab9409b04c5d29546504161ee93ff4624d4a8c7a028da1a0d5",
          "transactionIndex": "0x68",
          "logIndex": "0x150",
          "removed": false
        },
        {
          "address": "0x50639c42e2ffdec4f68fb468968a55b3af944583",
          "topics": [
            "0x8c5be1e5ebec7d5bd14f71427d1e84f3dd0314c0f7b2291e5b200ac8c7c3b925",
            "0x000000000000000000000000ed6149de4b8d17da2df7d1b5e67c950efd8aef74",
            "0x000000000000000000000000bbbbbbbbbb9cc5e90e3b3af64bdaf62c37eeffcb"
          ],
          "data": "0x00000000000000000000000000000000000000000000000000049e57d6354000",
          "blockHash": "0x570c3b9878edcc7e4b596738d6666d2459ea1bfbb3e7d8b3b0cc84e3e1a29f73",
          "blockNumber": "0x2ec2556",
          "blockTimestamp": "0x6a62a78f",
          "transactionHash": "0x94465542a55acaab9409b04c5d29546504161ee93ff4624d4a8c7a028da1a0d5",
          "transactionIndex": "0x68",
          "logIndex": "0x151",
          "removed": false
        },
        {
          "address": "0xbbbbbbbbbb9cc5e90e3b3af64bdaf62c37eeffcb",
          "topics": [
            "0xa3b9472a1399e17e123f3c2e6586c23e504184d504de59cdaa2b375e880c6184",
            "0xa4ec527128b425ee3fcb7f60eca37677b63b3d003345ec2a72ef6a2e72da53fc",
            "0x000000000000000000000000ed6149de4b8d17da2df7d1b5e67c950efd8aef74",
            "0x0000000000000000000000006708e21113922ed588bbccaa5ef756becbb2a7d1"
          ],
          "data": "0x00000000000000000000000000000000000000000000000000049e57d6354000",
          "blockHash": "0x570c3b9878edcc7e4b596738d6666d2459ea1bfbb3e7d8b3b0cc84e3e1a29f73",
          "blockNumber": "0x2ec2556",
          "blockTimestamp": "0x6a62a78f",
          "transactionHash": "0x94465542a55acaab9409b04c5d29546504161ee93ff4624d4a8c7a028da1a0d5",
          "transactionIndex": "0x68",
          "logIndex": "0x152",
          "removed": false
        },
        {
          "address": "0x50639c42e2ffdec4f68fb468968a55b3af944583",
          "topics": [
            "0xddf252ad1be2c89b69c2b068fc378daa952ba7f163c4a11628f55a4df523b3ef",
            "0x000000000000000000000000ed6149de4b8d17da2df7d1b5e67c950efd8aef74",
            "0x000000000000000000000000bbbbbbbbbb9cc5e90e3b3af64bdaf62c37eeffcb"
          ],
          "data": "0x00000000000000000000000000000000000000000000000000049e57d6354000",
          "blockHash": "0x570c3b9878edcc7e4b596738d6666d2459ea1bfbb3e7d8b3b0cc84e3e1a29f73",
          "blockNumber": "0x2ec2556",
          "blockTimestamp": "0x6a62a78f",
          "transactionHash": "0x94465542a55acaab9409b04c5d29546504161ee93ff4624d4a8c7a028da1a0d5",
          "transactionIndex": "0x68",
          "logIndex": "0x153",
          "removed": false
        },
        {
          "address": "0xbbbbbbbbbb9cc5e90e3b3af64bdaf62c37eeffcb",
          "topics": [
            "0xc76f1b4fe4396ac07a9fa55a415d4ca430e72651d37d3401f3bed7cb13fc4f12",
            "0x000000000000000000000000ed6149de4b8d17da2df7d1b5e67c950efd8aef74",
            "0x000000000000000000000000833589fcd6edb6e08f4c7c32d4f71b54bda02913"
          ],
          "data": "0x0000000000000000000000000000000000000000000000000000082f79cd9000",
          "blockHash": "0x570c3b9878edcc7e4b596738d6666d2459ea1bfbb3e7d8b3b0cc84e3e1a29f73",
          "blockNumber": "0x2ec2556",
          "blockTimestamp": "0x6a62a78f",
          "transactionHash": "0x94465542a55acaab9409b04c5d29546504161ee93ff4624d4a8c7a028da1a0d5",
          "transactionIndex": "0x68",
          "logIndex": "0x154",
          "removed": false
        },
        {
          "address": "0x833589fcd6edb6e08f4c7c32d4f71b54bda02913",
          "topics": [
            "0xddf252ad1be2c89b69c2b068fc378daa952ba7f163c4a11628f55a4df523b3ef",
            "0x000000000000000000000000bbbbbbbbbb9cc5e90e3b3af64bdaf62c37eeffcb",
            "0x000000000000000000000000ed6149de4b8d17da2df7d1b5e67c950efd8aef74"
          ],
          "data": "0x0000000000000000000000000000000000000000000000000000082f79cd9000",
          "blockHash": "0x570c3b9878edcc7e4b596738d6666d2459ea1bfbb3e7d8b3b0cc84e3e1a29f73",
          "blockNumber": "0x2ec2556",
          "blockTimestamp": "0x6a62a78f",
          "transactionHash": "0x94465542a55acaab9409b04c5d29546504161ee93ff4624d4a8c7a028da1a0d5",
          "transactionIndex": "0x68",
          "logIndex": "0x155",
          "removed": false
        },
        {
          "address": "0x833589fcd6edb6e08f4c7c32d4f71b54bda02913",
          "topics": [
            "0x8c5be1e5ebec7d5bd14f71427d1e84f3dd0314c0f7b2291e5b200ac8c7c3b925",
            "0x000000000000000000000000ed6149de4b8d17da2df7d1b5e67c950efd8aef74",
            "0x00000000000000000000000061bfd6f7df1f72427f472144d043c25d742d145e"
          ],
          "data": "0x0000000000000000000000000000000000000000000000000000082f79cd9000",
          "blockHash": "0x570c3b9878edcc7e4b596738d6666d2459ea1bfbb3e7d8b3b0cc84e3e1a29f73",
          "blockNumber": "0x2ec2556",
          "blockTimestamp": "0x6a62a78f",
          "transactionHash": "0x94465542a55acaab9409b04c5d29546504161ee93ff4624d4a8c7a028da1a0d5",
          "transactionIndex": "0x68",
          "logIndex": "0x156",
          "removed": false
        },
        {
          "address": "0x61bfd6f7df1f72427f472144d043c25d742d145e",
          "topics": [
            "0x15c027cc4fd826d986cad358803439f7326d3aa4ed969ff90dbee4bc150f68e9"
          ],
          "data": "0x00000000000000000000000000000000000000000000000000000000001e8480",
          "blockHash": "0x570c3b9878edcc7e4b596738d6666d2459ea1bfbb3e7d8b3b0cc84e3e1a29f73",
          "blockNumber": "0x2ec2556",
          "blockTimestamp": "0x6a62a78f",
          "transactionHash": "0x94465542a55acaab9409b04c5d29546504161ee93ff4624d4a8c7a028da1a0d5",
          "transactionIndex": "0x68",
          "logIndex": "0x157",
          "removed": false
        },
        {
          "address": "0x61bfd6f7df1f72427f472144d043c25d742d145e",
          "topics": [
            "0x548669ea9bcc24888e6d74a69c9865fa98d795686853b8aa3eb87814261bbb71"
          ],
          "data": "0x0000000000000000000000000000000000000000000000000000000000000000",
          "blockHash": "0x570c3b9878edcc7e4b596738d6666d2459ea1bfbb3e7d8b3b0cc84e3e1a29f73",
          "blockNumber": "0x2ec2556",
          "blockTimestamp": "0x6a62a78f",
          "transactionHash": "0x94465542a55acaab9409b04c5d29546504161ee93ff4624d4a8c7a028da1a0d5",
          "transactionIndex": "0x68",
          "logIndex": "0x158",
          "removed": false
        },
        {
          "address": "0x61bfd6f7df1f72427f472144d043c25d742d145e",
          "topics": [
            "0xf66f28b40975dbb933913542c7e6a0f50a1d0f20aa74ea6e0efe65ab616323ec"
          ],
          "data": "0x00000000000000000000000000000000000000000000000000000000001e84800000000000000000000000000000000000000000000000000000000000000000",
          "blockHash": "0x570c3b9878edcc7e4b596738d6666d2459ea1bfbb3e7d8b3b0cc84e3e1a29f73",
          "blockNumber": "0x2ec2556",
          "blockTimestamp": "0x6a62a78f",
          "transactionHash": "0x94465542a55acaab9409b04c5d29546504161ee93ff4624d4a8c7a028da1a0d5",
          "transactionIndex": "0x68",
          "logIndex": "0x159",
          "removed": false
        },
        {
          "address": "0x833589fcd6edb6e08f4c7c32d4f71b54bda02913",
          "topics": [
            "0xddf252ad1be2c89b69c2b068fc378daa952ba7f163c4a11628f55a4df523b3ef",
            "0x000000000000000000000000ed6149de4b8d17da2df7d1b5e67c950efd8aef74",
            "0x00000000000000000000000061bfd6f7df1f72427f472144d043c25d742d145e"
          ],
          "data": "0x0000000000000000000000000000000000000000000000000000082f79cd9000",
          "blockHash": "0x570c3b9878edcc7e4b596738d6666d2459ea1bfbb3e7d8b3b0cc84e3e1a29f73",
          "blockNumber": "0x2ec2556",
          "blockTimestamp": "0x6a62a78f",
          "transactionHash": "0x94465542a55acaab9409b04c5d29546504161ee93ff4624d4a8c7a028da1a0d5",
          "transactionIndex": "0x68",
          "logIndex": "0x15a",
          "removed": false
        },
        {
          "address": "0x61bfd6f7df1f72427f472144d043c25d742d145e",
          "topics": [
            "0xddf252ad1be2c89b69c2b068fc378daa952ba7f163c4a11628f55a4df523b3ef",
            "0x0000000000000000000000000000000000000000000000000000000000000000",
            "0x0000000000000000000000006708e21113922ed588bbccaa5ef756becbb2a7d1"
          ],
          "data": "0x0000000000000000000000000000000000000000000771d2fa45345aa9000000",
          "blockHash": "0x570c3b9878edcc7e4b596738d6666d2459ea1bfbb3e7d8b3b0cc84e3e1a29f73",
          "blockNumber": "0x2ec2556",
          "blockTimestamp": "0x6a62a78f",
          "transactionHash": "0x94465542a55acaab9409b04c5d29546504161ee93ff4624d4a8c7a028da1a0d5",
          "transactionIndex": "0x68",
          "logIndex": "0x15b",
          "removed": false
        },
        {
          "address": "0x61bfd6f7df1f72427f472144d043c25d742d145e",
          "topics": [
            "0xdcbc1c05240f31ff3ad067ef1ee35ce4997762752e3a095284754544f4c709d7",
            "0x000000000000000000000000ed6149de4b8d17da2df7d1b5e67c950efd8aef74",
            "0x0000000000000000000000006708e21113922ed588bbccaa5ef756becbb2a7d1"
          ],
          "data": "0x0000000000000000000000000000000000000000000000000000082f79cd90000000000000000000000000000000000000000000000771d2fa45345aa9000000",
          "blockHash": "0x570c3b9878edcc7e4b596738d6666d2459ea1bfbb3e7d8b3b0cc84e3e1a29f73",
          "blockNumber": "0x2ec2556",
          "blockTimestamp": "0x6a62a78f",
          "transactionHash": "0x94465542a55acaab9409b04c5d29546504161ee93ff4624d4a8c7a028da1a0d5",
          "transactionIndex": "0x68",
          "logIndex": "0x15c",
          "removed": false
        },
        {
          "address": "0x46415998764c29ab2a25cbea6254146d50d22687",
          "topics": [
            "0x7120161a7b3d31251e01294ab351ef15a41b91659a36032e4641bb89b121e321",
            "0xa4ec527128b425ee3fcb7f60eca37677b63b3d003345ec2a72ef6a2e72da53fc"
          ],
          "data": "0x00000000000000000000000000000000000000000000000000000000102da2c3000000000000000000000000000000000000000000000000000000003e0b78ec",
          "blockHash": "0x570c3b9878edcc7e4b596738d6666d2459ea1bfbb3e7d8b3b0cc84e3e1a29f73",
          "blockNumber": "0x2ec2556",
          "blockTimestamp": "0x6a62a78f",
          "transactionHash": "0x94465542a55acaab9409b04c5d29546504161ee93ff4624d4a8c7a028da1a0d5",
          "transactionIndex": "0x68",
          "logIndex": "0x15d",
          "removed": false
        },
        {
          "address": "0xbbbbbbbbbb9cc5e90e3b3af64bdaf62c37eeffcb",
          "topics": [
            "0x9d9bd501d0657d7dfe415f779a620a62b78bc508ddc0891fbbd8b7ac0f8fce87",
            "0xa4ec527128b425ee3fcb7f60eca37677b63b3d003345ec2a72ef6a2e72da53fc"
          ],
          "data": "0x00000000000000000000000000000000000000000000000000000000102da2c300000000000000000000000000000000000000000000000000000000000000000000000000000000000000000000000000000000000000000000000000000000",
          "blockHash": "0x570c3b9878edcc7e4b596738d6666d2459ea1bfbb3e7d8b3b0cc84e3e1a29f73",
          "blockNumber": "0x2ec2556",
          "blockTimestamp": "0x6a62a78f",
          "transactionHash": "0x94465542a55acaab9409b04c5d29546504161ee93ff4624d4a8c7a028da1a0d5",
          "transactionIndex": "0x68",
          "logIndex": "0x15e",
          "removed": false
        },
        {
          "address": "0xbbbbbbbbbb9cc5e90e3b3af64bdaf62c37eeffcb",
          "topics": [
            "0xedf8870433c83823eb071d3df1caa8d008f12f6440918c20d75a3602cda30fe0",
            "0xa4ec527128b425ee3fcb7f60eca37677b63b3d003345ec2a72ef6a2e72da53fc",
            "0x00000000000000000000000061bfd6f7df1f72427f472144d043c25d742d145e",
            "0x00000000000000000000000061bfd6f7df1f72427f472144d043c25d742d145e"
          ],
          "data": "0x0000000000000000000000000000000000000000000000000000082f79cd90000000000000000000000000000000000000000000000000007ce66c50e2840000",
          "blockHash": "0x570c3b9878edcc7e4b596738d6666d2459ea1bfbb3e7d8b3b0cc84e3e1a29f73",
          "blockNumber": "0x2ec2556",
          "blockTimestamp": "0x6a62a78f",
          "transactionHash": "0x94465542a55acaab9409b04c5d29546504161ee93ff4624d4a8c7a028da1a0d5",
          "transactionIndex": "0x68",
          "logIndex": "0x15f",
          "removed": false
        },
        {
          "address": "0x833589fcd6edb6e08f4c7c32d4f71b54bda02913",
          "topics": [
            "0xddf252ad1be2c89b69c2b068fc378daa952ba7f163c4a11628f55a4df523b3ef",
            "0x00000000000000000000000061bfd6f7df1f72427f472144d043c25d742d145e",
            "0x000000000000000000000000bbbbbbbbbb9cc5e90e3b3af64bdaf62c37eeffcb"
          ],
          "data": "0x0000000000000000000000000000000000000000000000000000082f79cd9000",
          "blockHash": "0x570c3b9878edcc7e4b596738d6666d2459ea1bfbb3e7d8b3b0cc84e3e1a29f73",
          "blockNumber": "0x2ec2556",
          "blockTimestamp": "0x6a62a78f",
          "transactionHash": "0x94465542a55acaab9409b04c5d29546504161ee93ff4624d4a8c7a028da1a0d5",
          "transactionIndex": "0x68",
          "logIndex": "0x160",
          "removed": false
        },
        {
          "address": "0x61bfd6f7df1f72427f472144d043c25d742d145e",
          "topics": [
            "0x15c027cc4fd826d986cad358803439f7326d3aa4ed969ff90dbee4bc150f68e9"
          ],
          "data": "0x0000000000000000000000000000000000000000000000000000082f79ec1480",
          "blockHash": "0x570c3b9878edcc7e4b596738d6666d2459ea1bfbb3e7d8b3b0cc84e3e1a29f73",
          "blockNumber": "0x2ec2556",
          "blockTimestamp": "0x6a62a78f",
          "transactionHash": "0x94465542a55acaab9409b04c5d29546504161ee93ff4624d4a8c7a028da1a0d5",
          "transactionIndex": "0x68",
          "logIndex": "0x161",
          "removed": false
        },
        {
          "address": "0xbbbbbbbbbb9cc5e90e3b3af64bdaf62c37eeffcb",
          "topics": [
            "0x570954540bed6b1304a87dfe815a5eda4a648f7097a16240dcd85c9b5fd42a43",
            "0xa4ec527128b425ee3fcb7f60eca37677b63b3d003345ec2a72ef6a2e72da53fc",
            "0x0000000000000000000000006708e21113922ed588bbccaa5ef756becbb2a7d1",
            "0x000000000000000000000000ed6149de4b8d17da2df7d1b5e67c950efd8aef74"
          ],
          "data": "0x000000000000000000000000ed6149de4b8d17da2df7d1b5e67c950efd8aef740000000000000000000000000000000000000000000000000000082f79cd90000000000000000000000000000000000000000000000000007ce66c50e2840000",
          "blockHash": "0x570c3b9878edcc7e4b596738d6666d2459ea1bfbb3e7d8b3b0cc84e3e1a29f73",
          "blockNumber": "0x2ec2556",
          "blockTimestamp": "0x6a62a78f",
          "transactionHash": "0x94465542a55acaab9409b04c5d29546504161ee93ff4624d4a8c7a028da1a0d5",
          "transactionIndex": "0x68",
          "logIndex": "0x162",
          "removed": false
        },
        {
          "address": "0x833589fcd6edb6e08f4c7c32d4f71b54bda02913",
          "topics": [
            "0xddf252ad1be2c89b69c2b068fc378daa952ba7f163c4a11628f55a4df523b3ef",
            "0x000000000000000000000000bbbbbbbbbb9cc5e90e3b3af64bdaf62c37eeffcb",
            "0x000000000000000000000000ed6149de4b8d17da2df7d1b5e67c950efd8aef74"
          ],
          "data": "0x0000000000000000000000000000000000000000000000000000082f79cd9000",
          "blockHash": "0x570c3b9878edcc7e4b596738d6666d2459ea1bfbb3e7d8b3b0cc84e3e1a29f73",
          "blockNumber": "0x2ec2556",
          "blockTimestamp": "0x6a62a78f",
          "transactionHash": "0x94465542a55acaab9409b04c5d29546504161ee93ff4624d4a8c7a028da1a0d5",
          "transactionIndex": "0x68",
          "logIndex": "0x163",
          "removed": false
        },
        {
          "address": "0x833589fcd6edb6e08f4c7c32d4f71b54bda02913",
          "topics": [
            "0x8c5be1e5ebec7d5bd14f71427d1e84f3dd0314c0f7b2291e5b200ac8c7c3b925",
            "0x000000000000000000000000ed6149de4b8d17da2df7d1b5e67c950efd8aef74",
            "0x000000000000000000000000bbbbbbbbbb9cc5e90e3b3af64bdaf62c37eeffcb"
          ],
          "data": "0x0000000000000000000000000000000000000000000000000000082f79cd9000",
          "blockHash": "0x570c3b9878edcc7e4b596738d6666d2459ea1bfbb3e7d8b3b0cc84e3e1a29f73",
          "blockNumber": "0x2ec2556",
          "blockTimestamp": "0x6a62a78f",
          "transactionHash": "0x94465542a55acaab9409b04c5d29546504161ee93ff4624d4a8c7a028da1a0d5",
          "transactionIndex": "0x68",
          "logIndex": "0x164",
          "removed": false
        },
        {
          "address": "0xed6149de4b8d17da2df7d1b5e67c950efd8aef74",
          "topics": [
            "0xbae9a1d4c3c616dde26bbb5d9640866d675e516a73afef81fb64fd9e87b2a605"
          ],
          "data": "0x00000000000000000000000000000000000000000000000000049e57d63540000000000000000000000000000000000000000000000000000000082f79cd90000000000000000000000000000000000000000000000000000000082f79cd90000000000000000000000000000000000000000000000771d2fa45345aa9000000",
          "blockHash": "0x570c3b9878edcc7e4b596738d6666d2459ea1bfbb3e7d8b3b0cc84e3e1a29f73",
          "blockNumber": "0x2ec2556",
          "blockTimestamp": "0x6a62a78f",
          "transactionHash": "0x94465542a55acaab9409b04c5d29546504161ee93ff4624d4a8c7a028da1a0d5",
          "transactionIndex": "0x68",
          "logIndex": "0x165",
          "removed": false
        },
        {
          "address": "0x833589fcd6edb6e08f4c7c32d4f71b54bda02913",
          "topics": [
            "0xddf252ad1be2c89b69c2b068fc378daa952ba7f163c4a11628f55a4df523b3ef",
            "0x000000000000000000000000ed6149de4b8d17da2df7d1b5e67c950efd8aef74",
            "0x000000000000000000000000bbbbbbbbbb9cc5e90e3b3af64bdaf62c37eeffcb"
          ],
          "data": "0x0000000000000000000000000000000000000000000000000000082f79cd9000",
          "blockHash": "0x570c3b9878edcc7e4b596738d6666d2459ea1bfbb3e7d8b3b0cc84e3e1a29f73",
          "blockNumber": "0x2ec2556",
          "blockTimestamp": "0x6a62a78f",
          "transactionHash": "0x94465542a55acaab9409b04c5d29546504161ee93ff4624d4a8c7a028da1a0d5",
          "transactionIndex": "0x68",
          "logIndex": "0x166",
          "removed": false
        }
      ],
      "logsBloom": "0x00000000000000400002000000000080000000000000000000000000000000000000400000000100000000080000100000000000000084000000200020a04000000000400010040000000008a00000000002000800081000000000080000000000800000020000000000000000020800090000000004000000040010000000002008008000000008400000100010020000000000000100000028000000004400020000000020000000000000000000000000100004000200000000000000000020000002000000000004402000200080080100000008000600000000002020404010004001000008000000200001200000000000000000000000000000080000",
      "transactionHash": "0x94465542a55acaab9409b04c5d29546504161ee93ff4624d4a8c7a028da1a0d5",
      "transactionIndex": "0x68",
      "blockHash": "0x570c3b9878edcc7e4b596738d6666d2459ea1bfbb3e7d8b3b0cc84e3e1a29f73",
      "blockNumber": "0x2ec2556",
      "gasUsed": "0x60fcc",
      "effectiveGasPrice": "0x4dd1e0",
      "blobGasUsed": "0x39d0",
      "from": "0x6708e21113922ed588bbccaa5ef756becbb2a7d1",
      "to": "0xed6149de4b8d17da2df7d1b5e67c950efd8aef74",
      "contractAddress": null,
      "l1GasPrice": "0x580e6b9",
      "l1GasUsed": "0x640",
      "l1Fee": "0x3848d971",
      "l1BaseFeeScalar": "0x8dd",
      "l1BlobBaseFee": "0x5807ed",
      "l1BlobBaseFeeScalar": "0x101c12",
      "daFootprintGasScalar": "0x94"
    }
  ],
  "libraries": [],
  "pending": [],
  "returns": {},
  "timestamp": 1784850319807,
  "chain": 8453,
  "commit": "c2b2095"
}