{
  "transactions": [
    {
      "hash": "0xc33cbe82c047ad0132181b2876fd9ef9f40a811b5bc482435b91bd2350986755",
      "transactionType": "CREATE",
      "contractName": "CrownKusd",
      "contractAddress": "0x0fea62084a024544891f03035e85401c2c886c1b",
      "function": null,
      "arguments": [
        "0x6708e21113922ED588bBCcAA5ef756BEcBb2a7d1"
      ],
      "transaction": {
        "from": "0x6708e21113922ed588bbccaa5ef756becbb2a7d1",
        "to": null,
        "gas": "0xa09ea",
        "value": "0x0",
        "input": "0x60803461007357601f61084838819003918201601f19168301916001600160401b038311848410176100775780849260209460405283398101031261007357516001600160a01b03811690819003610073575f80546001600160a01b0319169190911790556040516107bc908161008c8239f35b5f80fd5b634e487b7160e01b5f52604160045260245ffdfe6080604081815260049081361015610015575f80fd5b5f92833560e01c90816306fdde03146105e55750806307546172146105bd578063095ea7b31461054c57806318160ddd1461052d57806323b872dd14610484578063313ce5671461046857806340c10f19146103d857806370a08231146103a05780638da5cb5b1461037857806395d89b41146103135780639dc29fac14610249578063a9059cbb14610218578063dd62ed3e146101cb578063f2fde38b146101475763fca3b5aa146100c6575f80fd5b34610143576020366003190112610143576100df610684565b83546001600160a01b0392908316330361013457501690816bffffffffffffffffffffffff60a01b8254161790557f726b590ef91a8c76ad05bbe91a57ef84605276528f49cd47d787f558a4e755b68280a280f35b516330cd747160e01b81528390fd5b8280fd5b50903461014357602036600319011261014357610162610684565b835491906001600160a01b039081841633036101bb57169283156101925750506001600160a01b03191617815580f35b60649250519062461bcd60e51b82526020818301526024820152635a45524f60e01b6044820152fd5b84516330cd747160e01b81528390fd5b838234610214578060031936011261021457806020926101e9610684565b6101f161069e565b6001600160a01b0391821683526003865283832091168252845220549051908152f35b5080fd5b838234610214578060031936011261021457602090610242610238610684565b60243590336106e2565b5160018152f35b509034610143578160031936011261014357610263610684565b8154602435926001600160a01b0392918316330361030557831580156102ef575b6102e157508493927fddf252ad1be2c89b69c2b068fc378daa952ba7f163c4a11628f55a4df523b3ef926020921693848652600283528086206102c88382546106d5565b90556102d6826001546106d5565b60015551908152a380f35b845163cbb0251360e01b8152fd5b5082821686526002602052838587205410610284565b8451633e34a41b60e21b8152fd5b508290346102145781600319360112610214578051918183019083821067ffffffffffffffff8311176103655750926103619382528252631ad554d160e21b6020830152519182918261063d565b0390f35b634e487b7160e01b815260418552602490fd5b838234610214578160031936011261021457905490516001600160a01b039091168152602090f35b8382346102145760203660031901126102145760209181906001600160a01b036103c8610684565b1681526002845220549051908152f35b5090346101435781600319360112610143576103f2610684565b8154602435926001600160a01b039291831633036103055783156102e15750827fddf252ad1be2c89b69c2b068fc378daa952ba7f163c4a11628f55a4df523b3ef9260209261044488966001546106b4565b60015516948585526002835280852061045e8382546106b4565b905551908152a380f35b8382346102145781600319360112610214576020905160068152f35b5090346101435760603660031901126101435761049f610684565b6104a761069e565b6001600160a01b03821680865260036020908152858720338852905284862054604435969294919291600182016104e7575b6020876102428a89896106e2565b87821061051f5750918587949261050460209961024298966106d5565b9281526003895281812033825289522055919481935f6104d9565b865163cbb0251360e01b8152fd5b8382346102145781600319360112610214576020906001549051908152f35b8382346102145780600319360112610214576020918161056a610684565b91602435918291338152600387528181209460018060a01b0316948582528752205582519081527f8c5be1e5ebec7d5bd14f71427d1e84f3dd0314c0f7b2291e5b200ac8c7c3b925843392a35160018152f35b5090346101435782600319360112610143575490516001600160a01b03909116815260209150f35b929390503461063a578060031936011261063a578183019083821067ffffffffffffffff831117610365575061036193508152600b82526a12da5b99d91bdb481554d160aa1b6020830152519182918261063d565b80fd5b602080825282518183018190529093925f5b82811061067057505060409293505f838284010152601f8019910116010190565b81810186015184820160400152850161064f565b600435906001600160a01b038216820361069a57565b5f80fd5b602435906001600160a01b038216820361069a57565b919082018092116106c157565b634e487b7160e01b5f52601160045260245ffd5b919082039182116106c157565b6001600160a01b039182169291908315801561076f575b61075d577fddf252ad1be2c89b69c2b068fc378daa952ba7f163c4a11628f55a4df523b3ef916020911692835f526002825260405f2061073a8282546106d5565b9055845f526002825260405f206107528282546106b4565b9055604051908152a3565b60405163cbb0251360e01b8152600490fd5b508181165f5260026020528260405f2054106106f956fea2646970667358221220b8dda61fbc9dc7dd4a02cf9e6342842d3755206e4f1c2c90af0412996708947c64736f6c634300081400330000000000000000000000006708e21113922ed588bbccaa5ef756becbb2a7d1",
        "nonce": "0x359",
        "chainId": "0x2105"
      },
      "additionalContracts": [],
      "isFixedGasLimit": false
    },
    {
      "hash": "0x959d948c483c1d8363fab334db7cf17bfe6c79f961945a0bf72ffa7dc2ab7d94",
      "transactionType": "CREATE",
      "contractName": "CrownCdp",
      "contractAddress": "0x9f9356dd8b17f58d03f3db84e81541cdabbd5768",
      "function": null,
      "arguments": [
        "0x7a305D07B537359cf468eAea9bb176E5308bC337",
        "0x0FEA62084A024544891f03035E85401C2C886c1b",
        "0x6708e21113922ED588bBCcAA5ef756BEcBb2a7d1",
        "0x6708e21113922ED588bBCcAA5ef756BEcBb2a7d1"
      ],
      "transaction": {
        "from": "0x6708e21113922ed588bbccaa5ef756becbb2a7d1",
        "to": null,
        "gas": "0x1109a0",
        "value": "0x0",
        "input": "0x60e0346100f757601f610e0938819003918201601f19168301916001600160401b038311848410176100fb578084926080946040528339810103126100f75761007961004a8261010f565b60606100586020850161010f565b916100656040860161010f565b946001600160a01b0394859384920161010f565b1660018060a01b03195f5416175f5560018055620f42406002556709b6e64a8ec60000600355166080521660a05260c052604051610ce5908161012482396080518181816103350152818161039b015281816104d20152610794015260a0518181816106040152818161089a0152610aba015260c051816101e50152f35b5f80fd5b634e487b7160e01b5f52604160045260245ffd5b51906001600160a01b03821682036100f75756fe6080604081815260049182361015610015575f80fd5b5f92833560e01c918263217b7ffe146108e757508163235ee4a7146108c95781632398a4d7146108855781632e1a7d4d146106f5578163371fd8e6146105cc5781633e405d7f146105925781634082de671461049f5781638da5cb5b14610477578163a0712d6814610423578163b6b55f2514610364578163bcb78dc214610320578163c0324c771461026e578163c61ce7471461024f578163c63d75b614610214578163cc181ca8146101d0578163d283e75f14610196578163f2fde38b14610109575063fc7b9c18146100e8575f80fd5b346101055781600319360112610105576020906005549051908152f35b5080fd5b91905034610192576020366003190112610192576001600160a01b0382358181169391929084900361018e57845492831633036101815783156101585750506001600160a01b03191617815580f35b60649250519062461bcd60e51b82526020818301526024820152635a45524f60e01b6044820152fd5b516330cd747160e01b8152fd5b8480fd5b8280fd5b90503461019257602036600319011261019257356001600160a01b0381169081900361019257828291602094526007845220549051908152f35b505034610105578160031936011261010557517f00000000000000000000000000000000000000000000000000000000000000006001600160a01b03168152602090f35b9050346101925760203660031901126101925735916001600160a01b038316830361024c57506102456020926109cd565b9051908152f35b80fd5b5050346101055781600319360112610105576020906002549051908152f35b8383346101055761027e36610903565b83546001600160a01b031633036103105781158015610304575b6102e357801580156102f3575b6102e3577fb044a1e409eac5c48e5af22d4af52670dd1a99059537a78b31b48c6500a6354e939450816002558060035582519182526020820152a180f35b825163cbb0251360e01b81528590fd5b50670de0b6b3a764000081116102a5565b50620f42408211610298565b82516330cd747160e01b81528590fd5b505034610105578160031936011261010557517f00000000000000000000000000000000000000000000000000000000000000006001600160a01b03168152602090f35b9190503461019257602036600319011261019257813591610388600180541461091d565b60026001558215610415576103bf8330337f0000000000000000000000000000000000000000000000000000000000000000610bd7565b33845260066020528184206103d5848254610955565b90556103e2838254610955565b9055519081527f2da466a7b24304f47e87fa2e1e5a81b9831ce54fec19055ce277ca2f39ba42c460203392a26001805580f35b905163cbb0251360e01b8152fd5b9190503461019257602036600319011261019257610444600180541461091d565b6002600155610454823533610a7c565b61045d33610a51565b1561046a57826001805580f35b51631f561bb560e11b8152fd5b505034610105578160031936011261010557905490516001600160a01b039091168152602090f35b91905034610192576104b036610903565b90926104bf600180541461091d565b60026001558315610584576104f68430337f0000000000000000000000000000000000000000000000000000000000000000610bd7565b338552600660205282852061050c858254610955565b9055610519848254610955565b815581610575575b61052a33610a51565b156105675750907f0e00eb3434eeed137478dadba5581f87fdda6f16b438d9d1b616b24093bfbb4291815193845260208401523392a26001805580f35b8251631f561bb560e11b8152fd5b61057f8233610a7c565b610521565b825163cbb0251360e01b8152fd5b90503461019257602036600319011261019257356001600160a01b0381169081900361019257828291602094526006845220549051908152f35b91905034610192576020366003190112610192578135916105f0600180541461091d565b6002600155821580156106e1575b610415577f00000000000000000000000000000000000000000000000000000000000000006001600160a01b0316908490823b15610105578351632770a7eb60e21b8152339181019182526020820186905292839182908490829060400103925af180156106d7576106c4575b5033835260076020528083206106828382546109c0565b9055610690826005546109c0565b600555519081527f0516911bcc3a0a7412a44601057c0a0a1ec628bde049a84284bc42886653448860203392a26001805580f35b6106d090939193610976565b915f61066b565b82513d86823e3d90fd5b5033845260076020528184205483116105fe565b9190503461019257602090816003193601126108815782359261071b600180541461091d565b60026001558315801561086e575b61041557338552600683528185206107428582546109c0565b905561074f8482546109c0565b815561075a33610a51565b1561086057815163a9059cbb60e01b84820190815233602483015260448083018790528252869182919061078f60648261099e565b5190827f00000000000000000000000000000000000000000000000000000000000000006001600160a01b03165af16107c6610b80565b81610830575b50156108045750907f7084f5476618d8e60b11ef0d7d3f06914655adb8793e28ff7f018d4c76d505d591519283523392a26001805580f35b82606492519162461bcd60e51b835282015260086024820152672a2920a729a322a960c11b6044820152fd5b80518015925085908315610848575b5050505f6107cc565b6108589350820181019101610bbf565b5f848161083f565b9051631f561bb560e11b8152fd5b5033855260068352818520548411610729565b8380fd5b505034610105578160031936011261010557517f00000000000000000000000000000000000000000000000000000000000000006001600160a01b03168152602090f35b90503461019257826003193601126101925760209250549051908152f35b8490346101055781600319360112610105576020906003548152f35b6040906003190112610919576004359060243590565b5f80fd5b1561092457565b60405162461bcd60e51b815260206004820152600960248201526814915153951490539560ba1b6044820152606490fd5b9190820180921161096257565b634e487b7160e01b5f52601160045260245ffd5b67ffffffffffffffff811161098a57604052565b634e487b7160e01b5f52604160045260245ffd5b90601f8019910116810190811067ffffffffffffffff82111761098a57604052565b9190820391821161096257565b6001600160a01b03165f818152600660205260409020546109ed90610a27565b905f52600760205260405f205481811015610a0e57610a0b916109c0565b90565b50505f90565b8181029291811591840414171561096257565b610a4d610a4391670de0b6b3a764000092839160025490610a14565b0460035490610a14565b0490565b60018060a01b03165f52600760205260405f20546006602052610a7760405f2054610a27565b101590565b908015610b6e5760018060a01b03808316925f91848352600760205260408320610aa7858254610955565b9055610ab584600554610955565b6005557f00000000000000000000000000000000000000000000000000000000000000001690813b15610192576040516340c10f1960e01b81526001600160a01b0391909116600482015260248101849052919081908390604490829084905af1908115610b625750916020917f30385c845b448a36257a6a1716e6ad2e1bc2cbe333cde1e69fe849ad6511adfe93610b53575b50604051908152a2565b610b5c90610976565b5f610b49565b604051903d90823e3d90fd5b60405163cbb0251360e01b8152600490fd5b3d15610bba573d9067ffffffffffffffff821161098a5760405191610baf601f8201601f19166020018461099e565b82523d5f602084013e565b606090565b90816020910312610919575180151581036109195790565b6040516323b872dd60e01b602082019081526001600160a01b039384166024830152938316604482015260648082019590955293845290929160a0830167ffffffffffffffff81118482101761098a575f94859485926040525193165af1610c3d610b80565b81610c80575b5015610c4b57565b60405162461bcd60e51b815260206004820152600d60248201526c5452414e534645525f46524f4d60981b6044820152606490fd5b8051801592508215610c95575b50505f610c43565b610ca89250602080918301019101610bbf565b5f80610c8d56fea26469706673582212208a301b1a407ce46edcca5677ba4d56c5ea37de2d84a0511de850790dc133716264736f6c634300081400330000000000000000000000007a305d07b537359cf468eaea9bb176e5308bc3370000000000000000000000000fea62084a024544891f03035e85401c2c886c1b0000000000000000000000006708e21113922ed588bbccaa5ef756becbb2a7d10000000000000000000000006708e21113922ed588bbccaa5ef756becbb2a7d1",
        "nonce": "0x35a",
        "chainId": "0x2105"
      },
      "additionalContracts": [],
      "isFixedGasLimit": false
    },
    {
      "hash": "0xdaa5e75ef6361986a0f28be1f49610b63dd0c966a0e72fd919968cae99a8cc11",
      "transactionType": "CALL",
      "contractName": "CrownKusd",
      "contractAddress": "0x0fea62084a024544891f03035e85401c2c886c1b",
      "function": "setMinter(address)",
      "arguments": [
        "0x9F9356dd8B17f58d03f3Db84e81541cdABBD5768"
      ],
      "transaction": {
        "from": "0x6708e21113922ed588bbccaa5ef756becbb2a7d1",
        "to": "0x0fea62084a024544891f03035e85401c2c886c1b",
        "gas": "0xff97",
        "value": "0x0",
        "input": "0xfca3b5aa0000000000000000000000009f9356dd8b17f58d03f3db84e81541cdabbd5768",
        "nonce": "0x35b",
        "chainId": "0x2105"
      },
      "additionalContracts": [],
      "isFixedGasLimit": false
    },
    {
      "hash": "0x8495d413251fa136984b2eede91c46729c6dce3c7514b79eca9f1f33ff24e305",
      "transactionType": "CALL",
      "contractName": null,
      "contractAddress": "0x7a305d07b537359cf468eaea9bb176e5308bc337",
      "function": "approve(address,uint256)",
      "arguments": [
        "0x9F9356dd8B17f58d03f3Db84e81541cdABBD5768",
        "1000000000000000000000000"
      ],
      "transaction": {
        "from": "0x6708e21113922ed588bbccaa5ef756becbb2a7d1",
        "to": "0x7a305d07b537359cf468eaea9bb176e5308bc337",
        "gas": "0x10aeb",
        "value": "0x0",
        "input": "0x095ea7b30000000000000000000000009f9356dd8b17f58d03f3db84e81541cdabbd576800000000000000000000000000000000000000000000d3c21bcecceda1000000",
        "nonce": "0x35c",
        "chainId": "0x2105"
      },
      "additionalContracts": [],
      "isFixedGasLimit": false
    },
    {
      "hash": "0xf37f3c6cba1ea4f34a5a7deb1464fb5206fd5de6d89ca53f988f6a9963f49399",
      "transactionType": "CALL",
      "contractName": "CrownCdp",
      "contractAddress": "0x9f9356dd8b17f58d03f3db84e81541cdabbd5768",
      "function": "open(uint256,uint256)",
      "arguments": [
        "1000000000000000000000000",
        "700000000000"
      ],
      "transaction": {
        "from": "0x6708e21113922ed588bbccaa5ef756becbb2a7d1",
        "to": "0x9f9356dd8b17f58d03f3db84e81541cdabbd5768",
        "gas": "0x4a35f",
        "value": "0x0",
        "input": "0x4082de6700000000000000000000000000000000000000000000d3c21bcecceda1000000000000000000000000000000000000000000000000000000000000a2fb405800",
        "nonce": "0x35d",
        "chainId": "0x2105"
      },
      "additionalContracts": [],
      "isFixedGasLimit": false
    }
  ],
  "receipts": [
    {
      "type": "0x2",
      "status": "0x1",
      "cumulativeGasUsed": "0xc3101a",
      "logs": [],
      "logsBloom": "0x00000000000000000000000000000000000000000000000000000000000000000000000000000000000000000000000000000000000000000000000000000000000000000000000000000000000000000000000000000000000000000000000000000000000000000000000000000000000000000000000000000000000000000000000000000000000000000000000000000000000000000000000000000000000000000000000000000000000000000000000000000000000000000000000000000000000000000000000000000000000000000000000000000000000000000000000000000000000000000000000000000000000000000000000000000000",
      "transactionHash": "0xc33cbe82c047ad0132181b2876fd9ef9f40a811b5bc482435b91bd2350986755",
      "transactionIndex": "0x67",
      "blockHash": "0x34d21d0995ce3372b39b0e4d04b6d70a4ad54beab178cbc009d8156f01fe4be8",
      "blockNumber": "0x2eaa99e",
      "gasUsed": "0x7b8dc",
      "effectiveGasPrice": "0x5166c3",
      "blobGasUsed": "0x3242c",
      "from": "0x6708e21113922ed588bbccaa5ef756becbb2a7d1",
      "to": null,
      "contractAddress": "0x0fea62084a024544891f03035e85401c2c886c1b",
      "l1GasPrice": "0xf01053e",
      "l1GasUsed": "0x56f2",
      "l1Fee": "0x7562ad50f",
      "l1BaseFeeScalar": "0x8dd",
      "l1BlobBaseFee": "0xc347f9",
      "l1BlobBaseFeeScalar": "0x101c12",
      "daFootprintGasScalar": "0x94"
    },
    {
      "type": "0x2",
      "status": "0x1",
      "cumulativeGasUsed": "0x777e62",
      "logs": [],
      "logsBloom": "0x00000000000000000000000000000000000000000000000000000000000000000000000000000000000000000000000000000000000000000000000000000000000000000000000000000000000000000000000000000000000000000000000000000000000000000000000000000000000000000000000000000000000000000000000000000000000000000000000000000000000000000000000000000000000000000000000000000000000000000000000000000000000000000000000000000000000000000000000000000000000000000000000000000000000000000000000000000000000000000000000000000000000000000000000000000000",
      "transactionHash": "0x959d948c483c1d8363fab334db7cf17bfe6c79f961945a0bf72ffa7dc2ab7d94",
      "transactionIndex": "0x35",
      "blockHash": "0xc59d0ef0017c5b2c1fb188a6f5322f274260a66de44a78cd9d392a25c5b003ec",
      "blockNumber": "0x2eaa99f",
      "gasUsed": "0xd1b19",
      "effectiveGasPrice": "0x5166c3",
      "blobGasUsed": "0x50370",
      "from": "0x6708e21113922ed588bbccaa5ef756becbb2a7d1",
      "to": null,
      "contractAddress": "0x9f9356dd8b17f58d03f3db84e81541cdabbd5768",
      "l1GasPrice": "0xf01053e",
      "l1GasUsed": "0x8acf",
      "l1Fee": "0xbb674c5dd",
      "l1BaseFeeScalar": "0x8dd",
      "l1BlobBaseFee": "0xc347f9",
      "l1BlobBaseFeeScalar": "0x101c12",
      "daFootprintGasScalar": "0x94"
    },
    {
      "type": "0x2",
      "status": "0x1",
      "cumulativeGasUsed": "0x88ca77",
      "logs": [
        {
          "address": "0x0fea62084a024544891f03035e85401c2c886c1b",
          "topics": [
            "0x726b590ef91a8c76ad05bbe91a57ef84605276528f49cd47d787f558a4e755b6",
            "0x0000000000000000000000009f9356dd8b17f58d03f3db84e81541cdabbd5768"
          ],
          "data": "0x",
          "blockHash": "0x66b8b5261bfd0d79ac8a44046fec1e8a62d8443c1d99f82c21e8e76e6ca6ad43",
          "blockNumber": "0x2eaa9a0",
          "blockTimestamp": "0x6a5fb023",
          "transactionHash": "0xdaa5e75ef6361986a0f28be1f49610b63dd0c966a0e72fd919968cae99a8cc11",
          "transactionIndex": "0x35",
          "logIndex": "0xf7",
          "removed": false
        }
      ],
      "logsBloom": "0x00000000000000000000000000000000000000040000000000000000000000000004000000000000000000000000000000000000000000000080000000000000000000000000000000000000000000000000000000000000000000000000000000000000000000100000000400000000000000020000000000000000000000000000000000000000000000000000000000000000000000000000000000000000000000000000000000000000000000000000000000000000000000000000000000000000000000000000000000000800000000080000000000000000000200000000000000000000000000000000000000000000000000000000000000000000",
      "transactionHash": "0xdaa5e75ef6361986a0f28be1f49610b63dd0c966a0e72fd919968cae99a8cc11",
      "transactionIndex": "0x35",
      "blockHash": "0x66b8b5261bfd0d79ac8a44046fec1e8a62d8443c1d99f82c21e8e76e6ca6ad43",
      "blockNumber": "0x2eaa9a0",
      "gasUsed": "0xb90c",
      "effectiveGasPrice": "0x5166c3",
      "blobGasUsed": "0x39d0",
      "from": "0x6708e21113922ed588bbccaa5ef756becbb2a7d1",
      "to": "0x0fea62084a024544891f03035e85401c2c886c1b",
      "contractAddress": null,
      "l1GasPrice": "0xe5e877a",
      "l1GasUsed": "0x640",
      "l1Fee": "0x84b392ce",
      "l1BaseFeeScalar": "0x8dd",
      "l1BlobBaseFee": "0xc347f9",
      "l1BlobBaseFeeScalar": "0x101c12",
      "daFootprintGasScalar": "0x94"
    },
    {
      "type": "0x2",
      "status": "0x1",
      "cumulativeGasUsed": "0x1434a9f",
      "logs": [
        {
          "address": "0x7a305d07b537359cf468eaea9bb176e5308bc337",
          "topics": [
            "0x8c5be1e5ebec7d5bd14f71427d1e84f3dd0314c0f7b2291e5b200ac8c7c3b925",
            "0x0000000000000000000000006708e21113922ed588bbccaa5ef756becbb2a7d1",
            "0x0000000000000000000000009f9356dd8b17f58d03f3db84e81541cdabbd5768"
          ],
          "data": "0x00000000000000000000000000000000000000000000d3c21bcecceda1000000",
          "blockHash": "0x943633842d8832644274259424c911f8438858bdd5cc23f4ecbba110b9ee3843",
          "blockNumber": "0x2eaa9a1",
          "blockTimestamp": "0x6a5fb025",
          "transactionHash": "0x8495d413251fa136984b2eede91c46729c6dce3c7514b79eca9f1f33ff24e305",
          "transactionIndex": "0x7b",
          "logIndex": "0x1ea",
          "removed": false
        }
      ],
      "logsBloom": "0x00000000000000000000000000000000000000060000000000000000000000000004000000000000000000000000000000000000000000000000000000200000000000000000000000000000000000000000000000000000000000000000000000000000000000000000000000000000000000020000000000400000000000000000000000000000000000100000000000000000000000000000000000004004020000000000000000000000000000000000000000000000000000000000000000000000000000000000000000000000000000000000000000000000002000000010000000000000000000000000000000000000000000000000000000000000",
      "transactionHash": "0x8495d413251fa136984b2eede91c46729c6dce3c7514b79eca9f1f33ff24e305",
      "transactionIndex": "0x7b",
      "blockHash": "0x943633842d8832644274259424c911f8438858bdd5cc23f4ecbba110b9ee3843",
      "blockNumber": "0x2eaa9a1",
      "gasUsed": "0xb683",
      "effectiveGasPrice": "0x5166c3",
      "blobGasUsed": "0x39d0",
      "from": "0x6708e21113922ed588bbccaa5ef756becbb2a7d1",
      "to": "0x7a305d07b537359cf468eaea9bb176e5308bc337",
      "contractAddress": null,
      "l1GasPrice": "0xe5e877a",
      "l1GasUsed": "0x640",
      "l1Fee": "0x84b392ce",
      "l1BaseFeeScalar": "0x8dd",
      "l1BlobBaseFee": "0xc347f9",
      "l1BlobBaseFeeScalar": "0x101c12",
      "daFootprintGasScalar": "0x94"
    },
    {
      "type": "0x2",
      "status": "0x1",
      "cumulativeGasUsed": "0xd55c32",
      "logs": [
        {
          "address": "0x7a305d07b537359cf468eaea9bb176e5308bc337",
          "topics": [
            "0xddf252ad1be2c89b69c2b068fc378daa952ba7f163c4a11628f55a4df523b3ef",
            "0x0000000000000000000000006708e21113922ed588bbccaa5ef756becbb2a7d1",
            "0x0000000000000000000000009f9356dd8b17f58d03f3db84e81541cdabbd5768"
          ],
          "data": "0x00000000000000000000000000000000000000000000d3c21bcecceda1000000",
          "blockHash": "0x4788a733f14ef46dcb6939a4e3b16a6b68c023ace3d426dcafa91265f945e9ca",
          "blockNumber": "0x2eaa9a3",
          "blockTimestamp": "0x6a5fb029",
          "transactionHash": "0xf37f3c6cba1ea4f34a5a7deb1464fb5206fd5de6d89ca53f988f6a9963f49399",
          "transactionIndex": "0x69",
          "logIndex": "0xd5",
          "removed": false
        },
        {
          "address": "0x0fea62084a024544891f03035e85401c2c886c1b",
          "topics": [
            "0xddf252ad1be2c89b69c2b068fc378daa952ba7f163c4a11628f55a4df523b3ef",
            "0x0000000000000000000000000000000000000000000000000000000000000000",
            "0x0000000000000000000000006708e21113922ed588bbccaa5ef756becbb2a7d1"
          ],
          "data": "0x000000000000000000000000000000000000000000000000000000a2fb405800",
          "blockHash": "0x4788a733f14ef46dcb6939a4e3b16a6b68c023ace3d426dcafa91265f945e9ca",
          "blockNumber": "0x2eaa9a3",
          "blockTimestamp": "0x6a5fb029",
          "transactionHash": "0xf37f3c6cba1ea4f34a5a7deb1464fb5206fd5de6d89ca53f988f6a9963f49399",
          "transactionIndex": "0x69",
          "logIndex": "0xd6",
          "removed": false
        },
        {
          "address": "0x9f9356dd8b17f58d03f3db84e81541cdabbd5768",
          "topics": [
            "0x30385c845b448a36257a6a1716e6ad2e1bc2cbe333cde1e69fe849ad6511adfe",
            "0x0000000000000000000000006708e21113922ed588bbccaa5ef756becbb2a7d1"
          ],
          "data": "0x000000000000000000000000000000000000000000000000000000a2fb405800",
          "blockHash": "0x4788a733f14ef46dcb6939a4e3b16a6b68c023ace3d426dcafa91265f945e9ca",
          "blockNumber": "0x2eaa9a3",
          "blockTimestamp": "0x6a5fb029",
          "transactionHash": "0xf37f3c6cba1ea4f34a5a7deb1464fb5206fd5de6d89ca53f988f6a9963f49399",
          "transactionIndex": "0x69",
          "logIndex": "0xd7",
          "removed": false
        },
        {
          "address": "0x9f9356dd8b17f58d03f3db84e81541cdabbd5768",
          "topics": [
            "0x0e00eb3434eeed137478dadba5581f87fdda6f16b438d9d1b616b24093bfbb42",
            "0x0000000000000000000000006708e21113922ed588bbccaa5ef756becbb2a7d1"
          ],
          "data": "0x00000000000000000000000000000000000000000000d3c21bcecceda1000000000000000000000000000000000000000000000000000000000000a2fb405800",
          "blockHash": "0x4788a733f14ef46dcb6939a4e3b16a6b68c023ace3d426dcafa91265f945e9ca",
          "blockNumber": "0x2eaa9a3",
          "blockTimestamp": "0x6a5fb029",
          "transactionHash": "0xf37f3c6cba1ea4f34a5a7deb1464fb5206fd5de6d89ca53f988f6a9963f49399",
          "transactionIndex": "0x69",
          "logIndex": "0xd8",
          "removed": false
        }
      ],
      "logsBloom": "0x00000000000000000000008000000000000000060000000000000000002000020004000000000000000000000000000000000000000000002000000000000000000000000000000000000008000000000000000000000000000000000000000000000000020000100000002000000800000000020000000080400010000800000000000000000000000000100000000000000000000000000000000000004004000000000000000000000000000002000000000000000000000000000000000000000002000000000000000000000000000000080040000000000000002220000000000000000000000000000000000000000000000000000000000000000000",
      "transactionHash": "0xf37f3c6cba1ea4f34a5a7deb1464fb5206fd5de6d89ca53f988f6a9963f49399",
      "transactionIndex": "0x69",
      "blockHash": "0x4788a733f14ef46dcb6939a4e3b16a6b68c023ace3d426dcafa91265f945e9ca",
      "blockNumber": "0x2eaa9a3",
      "gasUsed": "0x32be1",
      "effectiveGasPrice": "0x5166c3",
      "blobGasUsed": "0x39d0",
      "from": "0x6708e21113922ed588bbccaa5ef756becbb2a7d1",
      "to": "0x9f9356dd8b17f58d03f3db84e81541cdabbd5768",
      "contractAddress": null,
      "l1GasPrice": "0xe5e877a",
      "l1GasUsed": "0x640",
      "l1Fee": "0x84b392ce",
      "l1BaseFeeScalar": "0x8dd",
      "l1BlobBaseFee": "0xc347f9",
      "l1BlobBaseFeeScalar": "0x101c12",
      "daFootprintGasScalar": "0x94"
    }
  ],
  "libraries": [],
  "pending": [],
  "returns": {},
  "timestamp": 1784655914110,
  "chain": 8453,
  "commit": "0304937"
}