{
  "transactions": [
    {
      "hash": "0xb1f887dd6d27bf69d3178d104671d9ffac807ece95855448fb4d99b982e0d685",
      "transactionType": "CALL",
      "contractName": null,
      "contractAddress": "0xbbbbbbbbbb9cc5e90e3b3af64bdaf62c37eeffcb",
      "function": "createMarket((address,address,address,address,uint256))",
      "arguments": [
        "(0x833589fCD6eDb6E08f4c7C32D4f71b54bdA02913, 0x7a305D07B537359cf468eAea9bb176E5308bC337, 0x284EC3A9674e6C62ea552Bf75BDeE9B799627D2e, 0x46415998764C29aB2a25CbeA6254146D50D22687, 915000000000000000)"
      ],
      "transaction": {
        "from": "0x6708e21113922ed588bbccaa5ef756becbb2a7d1",
        "to": "0xbbbbbbbbbb9cc5e90e3b3af64bdaf62c37eeffcb",
        "gas": "0x46902",
        "value": "0x0",
        "input": "0x8c1358a2000000000000000000000000833589fcd6edb6e08f4c7c32d4f71b54bda029130000000000000000000000007a305d07b537359cf468eaea9bb176e5308bc337000000000000000000000000284ec3a9674e6c62ea552bf75bdee9b799627d2e00000000000000000000000046415998764c29ab2a25cbea6254146d50d226870000000000000000000000000000000000000000000000000cb2bba6f17b8000",
        "nonce": "0x308",
        "chainId": "0x2105"
      },
      "additionalContracts": [],
      "isFixedGasLimit": false
    },
    {
      "hash": "0x6ee294ad9a55c6e46076d50cc9afe0c7f6de9a0601c107bddd48939ff13dc080",
      "transactionType": "CALL",
      "contractName": null,
      "contractAddress": "0x833589fcd6edb6e08f4c7c32d4f71b54bda02913",
      "function": "approve(address,uint256)",
      "arguments": [
        "0xBBBBBbbBBb9cC5e90e3b3Af64bdAF62C37EEFFCb",
        "3000000"
      ],
      "transaction": {
        "from": "0x6708e21113922ed588bbccaa5ef756becbb2a7d1",
        "to": "0x833589fcd6edb6e08f4c7c32d4f71b54bda02913",
        "gas": "0xdb03",
        "value": "0x0",
        "input": "0x095ea7b3000000000000000000000000bbbbbbbbbb9cc5e90e3b3af64bdaf62c37eeffcb00000000000000000000000000000000000000000000000000000000002dc6c0",
        "nonce": "0x309",
        "chainId": "0x2105"
      },
      "additionalContracts": [],
      "isFixedGasLimit": false
    },
    {
      "hash": "0x3949083cb73de7ab23dc59782acbc6ccaf1bf7e285fbfb85e78893ac852dec8f",
      "transactionType": "CALL",
      "contractName": null,
      "contractAddress": "0xbbbbbbbbbb9cc5e90e3b3af64bdaf62c37eeffcb",
      "function": "supply((address,address,address,address,uint256),uint256,uint256,address,bytes)",
      "arguments": [
        "(0x833589fCD6eDb6E08f4c7C32D4f71b54bdA02913, 0x7a305D07B537359cf468eAea9bb176E5308bC337, 0x284EC3A9674e6C62ea552Bf75BDeE9B799627D2e, 0x46415998764C29aB2a25CbeA6254146D50D22687, 770000000000000000)",
        "1000000",
        "0",
        "0x6708e21113922ED588bBCcAA5ef756BEcBb2a7d1",
        "0x"
      ],
      "transaction": {
        "from": "0x6708e21113922ed588bbccaa5ef756becbb2a7d1",
        "to": "0xbbbbbbbbbb9cc5e90e3b3af64bdaf62c37eeffcb",
        "gas": "0x27ebd",
        "value": "0x0",
        "input": "0xa99aad89000000000000000000000000833589fcd6edb6e08f4c7c32d4f71b54bda029130000000000000000000000007a305d07b537359cf468eaea9bb176e5308bc337000000000000000000000000284ec3a9674e6c62ea552bf75bdee9b799627d2e00000000000000000000000046415998764c29ab2a25cbea6254146d50d226870000000000000000000000000000000000000000000000000aaf96eb9d0d000000000000000000000000000000000000000000000000000000000000000f424000000000000000000000000000000000000000000000000000000000000000000000000000000000000000006708e21113922ed588bbccaa5ef756becbb2a7d100000000000000000000000000000000000000000000000000000000000001200000000000000000000000000000000000000000000000000000000000000000",
        "nonce": "0x30a",
        "chainId": "0x2105"
      },
      "additionalContracts": [],
      "isFixedGasLimit": false
    },
    {
      "hash": "0x8796bb210f7448eceee8cd8749b396e1a6835da70184c234b8534c236121e198",
      "transactionType": "CALL",
      "contractName": null,
      "contractAddress": "0xbbbbbbbbbb9cc5e90e3b3af64bdaf62c37eeffcb",
      "function": "supply((address,address,address,address,uint256),uint256,uint256,address,bytes)",
      "arguments": [
        "(0x833589fCD6eDb6E08f4c7C32D4f71b54bdA02913, 0x532f27101965dd16442E59d40670FaF5eBB142E4, 0x3378E48fF1e6bEf07d4d7F6Bb1e87C38A58D2619, 0x46415998764C29aB2a25CbeA6254146D50D22687, 625000000000000000)",
        "1000000",
        "0",
        "0x6708e21113922ED588bBCcAA5ef756BEcBb2a7d1",
        "0x"
      ],
      "transaction": {
        "from": "0x6708e21113922ed588bbccaa5ef756becbb2a7d1",
        "to": "0xbbbbbbbbbb9cc5e90e3b3af64bdaf62c37eeffcb",
        "gas": "0x2cb6d",
        "value": "0x0",
        "input": "0xa99aad89000000000000000000000000833589fcd6edb6e08f4c7c32d4f71b54bda02913000000000000000000000000532f27101965dd16442e59d40670faf5ebb142e40000000000000000000000003378e48ff1e6bef07d4d7f6bb1e87c38a58d261900000000000000000000000046415998764c29ab2a25cbea6254146d50d2268700000000000000000000000000000000000000000000000008ac7230489e800000000000000000000000000000000000000000000000000000000000000f424000000000000000000000000000000000000000000000000000000000000000000000000000000000000000006708e21113922ed588bbccaa5ef756becbb2a7d100000000000000000000000000000000000000000000000000000000000001200000000000000000000000000000000000000000000000000000000000000000",
        "nonce": "0x30b",
        "chainId": "0x2105"
      },
      "additionalContracts": [],
      "isFixedGasLimit": false
    },
    {
      "hash": "0x9fd1a8adf2b2512b4214061212029722a7329763ada943be759ddeef601afb74",
      "transactionType": "CALL",
      "contractName": null,
      "contractAddress": "0xbbbbbbbbbb9cc5e90e3b3af64bdaf62c37eeffcb",
      "function": "supply((address,address,address,address,uint256),uint256,uint256,address,bytes)",
      "arguments": [
        "(0x833589fCD6eDb6E08f4c7C32D4f71b54bdA02913, 0x7a305D07B537359cf468eAea9bb176E5308bC337, 0x284EC3A9674e6C62ea552Bf75BDeE9B799627D2e, 0x46415998764C29aB2a25CbeA6254146D50D22687, 915000000000000000)",
        "1000000",
        "0",
        "0x6708e21113922ED588bBCcAA5ef756BEcBb2a7d1",
        "0x"
      ],
      "transaction": {
        "from": "0x6708e21113922ed588bbccaa5ef756becbb2a7d1",
        "to": "0xbbbbbbbbbb9cc5e90e3b3af64bdaf62c37eeffcb",
        "gas": "0x2362c",
        "value": "0x0",
        "input": "0xa99aad89000000000000000000000000833589fcd6edb6e08f4c7c32d4f71b54bda029130000000000000000000000007a305d07b537359cf468eaea9bb176e5308bc337000000000000000000000000284ec3a9674e6c62ea552bf75bdee9b799627d2e00000000000000000000000046415998764c29ab2a25cbea6254146d50d226870000000000000000000000000000000000000000000000000cb2bba6f17b800000000000000000000000000000000000000000000000000000000000000f424000000000000000000000000000000000000000000000000000000000000000000000000000000000000000006708e21113922ed588bbccaa5ef756becbb2a7d100000000000000000000000000000000000000000000000000000000000001200000000000000000000000000000000000000000000000000000000000000000",
        "nonce": "0x30c",
        "chainId": "0x2105"
      },
      "additionalContracts": [],
      "isFixedGasLimit": false
    },
    {
      "hash": "0x530b8ed543b4509c5814a3dfce1061c53c59a3198d38b5c20ebc49fad7ac89a3",
      "transactionType": "CALL",
      "contractName": null,
      "contractAddress": "0xf80c0529bd94c773844e459853cd91b9263dd525",
      "function": "submitCap((address,address,address,address,uint256),uint256)",
      "arguments": [
        "(0x833589fCD6eDb6E08f4c7C32D4f71b54bdA02913, 0x7a305D07B537359cf468eAea9bb176E5308bC337, 0x284EC3A9674e6C62ea552Bf75BDeE9B799627D2e, 0x46415998764C29aB2a25CbeA6254146D50D22687, 915000000000000000)",
        "14000000000000"
      ],
      "transaction": {
        "from": "0x6708e21113922ed588bbccaa5ef756becbb2a7d1",
        "to": "0xf80c0529bd94c773844e459853cd91b9263dd525",
        "gas": "0x15357",
        "value": "0x0",
        "input": "0x3b24c2bf000000000000000000000000833589fcd6edb6e08f4c7c32d4f71b54bda029130000000000000000000000007a305d07b537359cf468eaea9bb176e5308bc337000000000000000000000000284ec3a9674e6c62ea552bf75bdee9b799627d2e00000000000000000000000046415998764c29ab2a25cbea6254146d50d226870000000000000000000000000000000000000000000000000cb2bba6f17b800000000000000000000000000000000000000000000000000000000cbba106e000",
        "nonce": "0x30d",
        "chainId": "0x2105"
      },
      "additionalContracts": [],
      "isFixedGasLimit": false
    },
    {
      "hash": "0x9ac9af8635c181f1f8438795fd5196c7768095898df7e1784288164c14badd80",
      "transactionType": "CALL",
      "contractName": null,
      "contractAddress": "0xf80c0529bd94c773844e459853cd91b9263dd525",
      "function": "acceptCap((address,address,address,address,uint256))",
      "arguments": [
        "(0x833589fCD6eDb6E08f4c7C32D4f71b54bdA02913, 0x7a305D07B537359cf468eAea9bb176E5308bC337, 0x284EC3A9674e6C62ea552Bf75BDeE9B799627D2e, 0x46415998764C29aB2a25CbeA6254146D50D22687, 915000000000000000)"
      ],
      "transaction": {
        "from": "0x6708e21113922ed588bbccaa5ef756becbb2a7d1",
        "to": "0xf80c0529bd94c773844e459853cd91b9263dd525",
        "gas": "0x24aa2",
        "value": "0x0",
        "input": "0x6fda3868000000000000000000000000833589fcd6edb6e08f4c7c32d4f71b54bda029130000000000000000000000007a305d07b537359cf468eaea9bb176e5308bc337000000000000000000000000284ec3a9674e6c62ea552bf75bdee9b799627d2e00000000000000000000000046415998764c29ab2a25cbea6254146d50d226870000000000000000000000000000000000000000000000000cb2bba6f17b8000",
        "nonce": "0x30e",
        "chainId": "0x2105"
      },
      "additionalContracts": [],
      "isFixedGasLimit": false
    },
    {
      "hash": "0xc3ae824a4dbe8c4c5c2522fe0f4cf36172c28b2d657aa9fa56cd7dfe9aefeafb",
      "transactionType": "CALL",
      "contractName": null,
      "contractAddress": "0xf80c0529bd94c773844e459853cd91b9263dd525",
      "function": "setSupplyQueue(bytes32[])",
      "arguments": [
        "[0x3a5ba11fdbd0a3ef70e98445afeaa5d3d73aac297bcfdcca120114bff5954126, 0x40ac09f34c5bc0b0b6d9b5f1ec1b97a6a149ff6278104797c9cb740453a2b794, 0xf6f43f1660f1f4779e92a2e21086f4ab49a3fc0cae8a17992808e6a6db488c16, 0x9103c3b4e834476c9a62ea009ba2c884ee42e94e6e314a26f04d312434191836, 0x8793cf302b8ffd655ab97bd1c695dbd967807e8367a65cb2f4edaf1380ba1bda]"
      ],
      "transaction": {
        "from": "0x6708e21113922ed588bbccaa5ef756becbb2a7d1",
        "to": "0xf80c0529bd94c773844e459853cd91b9263dd525",
        "gas": "0x1e1ec",
        "value": "0x0",
        "input": "0x2acc56f9000000000000000000000000000000000000000000000000000000000000002000000000000000000000000000000000000000000000000000000000000000053a5ba11fdbd0a3ef70e98445afeaa5d3d73aac297bcfdcca120114bff595412640ac09f34c5bc0b0b6d9b5f1ec1b97a6a149ff6278104797c9cb740453a2b794f6f43f1660f1f4779e92a2e21086f4ab49a3fc0cae8a17992808e6a6db488c169103c3b4e834476c9a62ea009ba2c884ee42e94e6e314a26f04d3124341918368793cf302b8ffd655ab97bd1c695dbd967807e8367a65cb2f4edaf1380ba1bda",
        "nonce": "0x30f",
        "chainId": "0x2105"
      },
      "additionalContracts": [],
      "isFixedGasLimit": false
    },
    {
      "hash": "0x5612b396f5d8e6c3764c98e3d96d46a5f7a19f558e1ce50cfdce06e87ba03ebb",
      "transactionType": "CALL",
      "contractName": null,
      "contractAddress": "0xa090dd1a701408df1d4d0b85b716c87565f90467",
      "function": "setFlowCaps(address,(bytes32,(uint128,uint128))[])",
      "arguments": [
        "0xF80C0529bD94C773844E459853CD91B9263dD525",
        "[(0x3a5ba11fdbd0a3ef70e98445afeaa5d3d73aac297bcfdcca120114bff5954126, (700000000000, 700000000000)), (0x40ac09f34c5bc0b0b6d9b5f1ec1b97a6a149ff6278104797c9cb740453a2b794, (700000000000, 700000000000)), (0xf6f43f1660f1f4779e92a2e21086f4ab49a3fc0cae8a17992808e6a6db488c16, (700000000000, 700000000000))]"
      ],
      "transaction": {
        "from": "0x6708e21113922ed588bbccaa5ef756becbb2a7d1",
        "to": "0xa090dd1a701408df1d4d0b85b716c87565f90467",
        "gas": "0x1b497",
        "value": "0x0",
        "input": "0xf4618046000000000000000000000000f80c0529bd94c773844e459853cd91b9263dd525000000000000000000000000000000000000000000000000000000000000004000000000000000000000000000000000000000000000000000000000000000033a5ba11fdbd0a3ef70e98445afeaa5d3d73aac297bcfdcca120114bff5954126000000000000000000000000000000000000000000000000000000a2fb405800000000000000000000000000000000000000000000000000000000a2fb40580040ac09f34c5bc0b0b6d9b5f1ec1b97a6a149ff6278104797c9cb740453a2b794000000000000000000000000000000000000000000000000000000a2fb405800000000000000000000000000000000000000000000000000000000a2fb405800f6f43f1660f1f4779e92a2e21086f4ab49a3fc0cae8a17992808e6a6db488c16000000000000000000000000000000000000000000000000000000a2fb405800000000000000000000000000000000000000000000000000000000a2fb405800",
        "nonce": "0x310",
        "chainId": "0x2105"
      },
      "additionalContracts": [],
      "isFixedGasLimit": false
    }
  ],
  "receipts": [
    {
      "type": "0x2",
      "status": "0x1",
      "cumulativeGasUsed": "0x93b227",
      "logs": [
        {
          "address": "0xbbbbbbbbbb9cc5e90e3b3af64bdaf62c37eeffcb",
          "topics": [
            "0xac4b2400f169220b0c0afdde7a0b32e775ba727ea1cb30b35f935cdaab8683ac",
            "0x3a5ba11fdbd0a3ef70e98445afeaa5d3d73aac297bcfdcca120114bff5954126"
          ],
          "data": "0x000000000000000000000000833589fcd6edb6e08f4c7c32d4f71b54bda029130000000000000000000000007a305d07b537359cf468eaea9bb176e5308bc337000000000000000000000000284ec3a9674e6c62ea552bf75bdee9b799627d2e00000000000000000000000046415998764c29ab2a25cbea6254146d50d226870000000000000000000000000000000000000000000000000cb2bba6f17b8000",
          "blockHash": "0x260976f8ef7617a8945a527fc0319d1fabec9b1e6a5e740912270014f7c372ac",
          "blockNumber": "0x2ea4aa3",
          "blockTimestamp": "0x6a5ef229",
          "transactionHash": "0xb1f887dd6d27bf69d3178d104671d9ffac807ece95855448fb4d99b982e0d685",
          "transactionIndex": "0x50",
          "logIndex": "0xbb",
          "removed": false
        },
        {
          "address": "0x46415998764c29ab2a25cbea6254146d50d22687",
          "topics": [
            "0x7120161a7b3d31251e01294ab351ef15a41b91659a36032e4641bb89b121e321",
            "0x3a5ba11fdbd0a3ef70e98445afeaa5d3d73aac297bcfdcca120114bff5954126"
          ],
          "data": "0x0000000000000000000000000000000000000000000000000000000012e687bf000000000000000000000000000000000000000000000000000000004b9a1eff",
          "blockHash": "0x260976f8ef7617a8945a527fc0319d1fabec9b1e6a5e740912270014f7c372ac",
          "blockNumber": "0x2ea4aa3",
          "blockTimestamp": "0x6a5ef229",
          "transactionHash": "0xb1f887dd6d27bf69d3178d104671d9ffac807ece95855448fb4d99b982e0d685",
          "transactionIndex": "0x50",
          "logIndex": "0xbc",
          "removed": false
        }
      ],
      "logsBloom": "0x00000000000040000000000000000800000000000000000000000000000000000000000000000100000000000000000000000000000000000000000000804000000000000010000000000000000000000000000000000000000000000000000000000000000000000000000000000000000000000000000000000040000000000000000000000008000000000000000000000000000000000008000000000000000000000000000000000000000000000000000000000000000000000000000020000000000000000000000000000000000100000000000000000000000000000000000000000000080000000001010000000000000000000000000000000010",
      "transactionHash": "0xb1f887dd6d27bf69d3178d104671d9ffac807ece95855448fb4d99b982e0d685",
      "transactionIndex": "0x50",
      "blockHash": "0x260976f8ef7617a8945a527fc0319d1fabec9b1e6a5e740912270014f7c372ac",
      "blockNumber": "0x2ea4aa3",
      "gasUsed": "0x303f9",
      "effectiveGasPrice": "0x5b8d80",
      "blobGasUsed": "0x5908",
      "from": "0x6708e21113922ed588bbccaa5ef756becbb2a7d1",
      "to": "0xbbbbbbbbbb9cc5e90e3b3af64bdaf62c37eeffcb",
      "contractAddress": null,
      "l1GasPrice": "0x25c5b9e",
      "l1GasUsed": "0x9ad",
      "l1Fee": "0x24470078",
      "l1BaseFeeScalar": "0x8dd",
      "l1BlobBaseFee": "0x24085e",
      "l1BlobBaseFeeScalar": "0x101c12",
      "daFootprintGasScalar": "0x94"
    },
    {
      "type": "0x2",
      "status": "0x1",
      "cumulativeGasUsed": "0x89a1c0",
      "logs": [
        {
          "address": "0x833589fcd6edb6e08f4c7c32d4f71b54bda02913",
          "topics": [
            "0x8c5be1e5ebec7d5bd14f71427d1e84f3dd0314c0f7b2291e5b200ac8c7c3b925",
            "0x0000000000000000000000006708e21113922ed588bbccaa5ef756becbb2a7d1",
            "0x000000000000000000000000bbbbbbbbbb9cc5e90e3b3af64bdaf62c37eeffcb"
          ],
          "data": "0x00000000000000000000000000000000000000000000000000000000002dc6c0",
          "blockHash": "0x0000000000000000000000000000000000000000000000000000000000000000",
          "blockNumber": "0x2ea4aa4",
          "blockTimestamp": "0x6a5ef22b",
          "transactionHash": "0x6ee294ad9a55c6e46076d50cc9afe0c7f6de9a0601c107bddd48939ff13dc080",
          "transactionIndex": "0x4d",
          "logIndex": "0xb0",
          "removed": false
        }
      ],
      "logsBloom": "0x00000000000000000000000000000080000000000000000000000000000000000000000000000000000000000000100000000000000000000000000000200000000000000000000000000000000000000000000000080000000000000000000000800000000000000000000000000000000000000000000000000000000000000000000000000000000000100000000000000000000000000000000000004000020000000000000000000000000000000000000000000000000000000000000000000000000000000000000000000000000000000000000000000000002000000010000001000000000000200000000000000000000000000000000000000000",
      "transactionHash": "0x6ee294ad9a55c6e46076d50cc9afe0c7f6de9a0601c107bddd48939ff13dc080",
      "transactionIndex": "0x4d",
      "blockHash": "0x0000000000000000000000000000000000000000000000000000000000000000",
      "blockNumber": "0x2ea4aa4",
      "gasUsed": "0x95c1",
      "effectiveGasPrice": "0x5b8d80",
      "blobGasUsed": "0x39d0",
      "from": "0x6708e21113922ed588bbccaa5ef756becbb2a7d1",
      "to": "0x833589fcd6edb6e08f4c7c32d4f71b54bda02913",
      "contractAddress": null,
      "l1GasPrice": "0x25c5b9e",
      "l1GasUsed": "0x640",
      "l1Fee": "0x176e4136",
      "l1BaseFeeScalar": "0x8dd",
      "l1BlobBaseFee": "0x24085e",
      "l1BlobBaseFeeScalar": "0x101c12",
      "daFootprintGasScalar": "0x94"
    },
    {
      "type": "0x2",
      "status": "0x1",
      "cumulativeGasUsed": "0x6b7c87",
      "logs": [
        {
          "address": "0x46415998764c29ab2a25cbea6254146d50d22687",
          "topics": [
            "0x7120161a7b3d31251e01294ab351ef15a41b91659a36032e4641bb89b121e321",
            "0x40ac09f34c5bc0b0b6d9b5f1ec1b97a6a149ff6278104797c9cb740453a2b794"
          ],
          "data": "0x00000000000000000000000000000000000000000000000000000001186e98ae00000000000000000000000000000000000000000000000000000000477e80e7",
          "blockHash": "0x0000000000000000000000000000000000000000000000000000000000000000",
          "blockNumber": "0x2ea4aa5",
          "blockTimestamp": "0x6a5ef22d",
          "transactionHash": "0x3949083cb73de7ab23dc59782acbc6ccaf1bf7e285fbfb85e78893ac852dec8f",
          "transactionIndex": "0x3b",
          "logIndex": "0x90",
          "removed": false
        },
        {
          "address": "0xbbbbbbbbbb9cc5e90e3b3af64bdaf62c37eeffcb",
          "topics": [
            "0x9d9bd501d0657d7dfe415f779a620a62b78bc508ddc0891fbbd8b7ac0f8fce87",
            "0x40ac09f34c5bc0b0b6d9b5f1ec1b97a6a149ff6278104797c9cb740453a2b794"
          ],
          "data": "0x00000000000000000000000000000000000000000000000000000001186e98ae00000000000000000000000000000000000000000000000000000000000088e50000000000000000000000000000000000000000000000000000000000000000",
          "blockHash": "0x0000000000000000000000000000000000000000000000000000000000000000",
          "blockNumber": "0x2ea4aa5",
          "blockTimestamp": "0x6a5ef22d",
          "transactionHash": "0x3949083cb73de7ab23dc59782acbc6ccaf1bf7e285fbfb85e78893ac852dec8f",
          "transactionIndex": "0x3b",
          "logIndex": "0x91",
          "removed": false
        },
        {
          "address": "0xbbbbbbbbbb9cc5e90e3b3af64bdaf62c37eeffcb",
          "topics": [
            "0xedf8870433c83823eb071d3df1caa8d008f12f6440918c20d75a3602cda30fe0",
            "0x40ac09f34c5bc0b0b6d9b5f1ec1b97a6a149ff6278104797c9cb740453a2b794",
            "0x0000000000000000000000006708e21113922ed588bbccaa5ef756becbb2a7d1",
            "0x0000000000000000000000006708e21113922ed588bbccaa5ef756becbb2a7d1"
          ],
          "data": "0x00000000000000000000000000000000000000000000000000000000000f42400000000000000000000000000000000000000000000000000000001d13830216",
          "blockHash": "0x0000000000000000000000000000000000000000000000000000000000000000",
          "blockNumber": "0x2ea4aa5",
          "blockTimestamp": "0x6a5ef22d",
          "transactionHash": "0x3949083cb73de7ab23dc59782acbc6ccaf1bf7e285fbfb85e78893ac852dec8f",
          "transactionIndex": "0x3b",
          "logIndex": "0x92",
          "removed": false
        },
        {
          "address": "0x833589fcd6edb6e08f4c7c32d4f71b54bda02913",
          "topics": [
            "0xddf252ad1be2c89b69c2b068fc378daa952ba7f163c4a11628f55a4df523b3ef",
            "0x0000000000000000000000006708e21113922ed588bbccaa5ef756becbb2a7d1",
            "0x000000000000000000000000bbbbbbbbbb9cc5e90e3b3af64bdaf62c37eeffcb"
          ],
          "data": "0x00000000000000000000000000000000000000000000000000000000000f4240",
          "blockHash": "0x0000000000000000000000000000000000000000000000000000000000000000",
          "blockNumber": "0x2ea4aa5",
          "blockTimestamp": "0x6a5ef22d",
          "transactionHash": "0x3949083cb73de7ab23dc59782acbc6ccaf1bf7e285fbfb85e78893ac852dec8f",
          "transactionIndex": "0x3b",
          "logIndex": "0x93",
          "removed": false
        }
      ],
      "logsBloom": "0x00000000000000000000000000000081000000000000000000000000000000000000400000000100000000000000100000000000000000000000000020804000000000000010000000000008800000000000000800080000000000080000000000800000000000000000000001000000000000000000000000000010000000000000000000000008000000100000000000000000000000000008000000804000000000000000000000000000000000000000000000000000000000000000000020000002000000000000000000000000000100000000000000000000002000400000000001000000000000200001000000000000000000000000000000000000",
      "transactionHash": "0x3949083cb73de7ab23dc59782acbc6ccaf1bf7e285fbfb85e78893ac852dec8f",
      "transactionIndex": "0x3b",
      "blockHash": "0x0000000000000000000000000000000000000000000000000000000000000000",
      "blockNumber": "0x2ea4aa5",
      "gasUsed": "0x1ce70",
      "effectiveGasPrice": "0x5b8d80",
      "blobGasUsed": "0x6f94",
      "from": "0x6708e21113922ed588bbccaa5ef756becbb2a7d1",
      "to": "0xbbbbbbbbbb9cc5e90e3b3af64bdaf62c37eeffcb",
      "contractAddress": null,
      "l1GasPrice": "0x25c5b9e",
      "l1GasUsed": "0xc14",
      "l1Fee": "0x1efc4419",
      "l1BaseFeeScalar": "0x8dd",
      "l1BlobBaseFee": "0x24085e",
      "l1BlobBaseFeeScalar": "0x101c12",
      "daFootprintGasScalar": "0x94"
    },
    {
      "type": "0x2",
      "status": "0x1",
      "cumulativeGasUsed": "0x45ad5e",
      "logs": [
        {
          "address": "0x46415998764c29ab2a25cbea6254146d50d22687",
          "topics": [
            "0x7120161a7b3d31251e01294ab351ef15a41b91659a36032e4641bb89b121e321",
            "0xf6f43f1660f1f4779e92a2e21086f4ab49a3fc0cae8a17992808e6a6db488c16"
          ],
          "data": "0x000000000000000000000000000000000000000000000000000000000f8274a60000000000000000000000000000000000000000000000000000000034983bd8",
          "blockHash": "0x0000000000000000000000000000000000000000000000000000000000000000",
          "blockNumber": "0x2ea4aa6",
          "blockTimestamp": "0x6a5ef22f",
          "transactionHash": "0x8796bb210f7448eceee8cd8749b396e1a6835da70184c234b8534c236121e198",
          "transactionIndex": "0x23",
          "logIndex": "0x41",
          "removed": false
        },
        {
          "address": "0xbbbbbbbbbb9cc5e90e3b3af64bdaf62c37eeffcb",
          "topics": [
            "0x9d9bd501d0657d7dfe415f779a620a62b78bc508ddc0891fbbd8b7ac0f8fce87",
            "0xf6f43f1660f1f4779e92a2e21086f4ab49a3fc0cae8a17992808e6a6db488c16"
          ],
          "data": "0x000000000000000000000000000000000000000000000000000000000f8274a600000000000000000000000000000000000000000000000000000000000000000000000000000000000000000000000000000000000000000000000000000000",
          "blockHash": "0x0000000000000000000000000000000000000000000000000000000000000000",
          "blockNumber": "0x2ea4aa6",
          "blockTimestamp": "0x6a5ef22f",
          "transactionHash": "0x8796bb210f7448eceee8cd8749b396e1a6835da70184c234b8534c236121e198",
          "transactionIndex": "0x23",
          "logIndex": "0x42",
          "removed": false
        },
        {
          "address": "0xbbbbbbbbbb9cc5e90e3b3af64bdaf62c37eeffcb",
          "topics": [
            "0xedf8870433c83823eb071d3df1caa8d008f12f6440918c20d75a3602cda30fe0",
            "0xf6f43f1660f1f4779e92a2e21086f4ab49a3fc0cae8a17992808e6a6db488c16",
            "0x0000000000000000000000006708e21113922ed588bbccaa5ef756becbb2a7d1",
            "0x0000000000000000000000006708e21113922ed588bbccaa5ef756becbb2a7d1"
          ],
          "data": "0x00000000000000000000000000000000000000000000000000000000000f4240000000000000000000000000000000000000000000000000000000e8d4a51000",
          "blockHash": "0x0000000000000000000000000000000000000000000000000000000000000000",
          "blockNumber": "0x2ea4aa6",
          "blockTimestamp": "0x6a5ef22f",
          "transactionHash": "0x8796bb210f7448eceee8cd8749b396e1a6835da70184c234b8534c236121e198",
          "transactionIndex": "0x23",
          "logIndex": "0x43",
          "removed": false
        },
        {
          "address": "0x833589fcd6edb6e08f4c7c32d4f71b54bda02913",
          "topics": [
            "0xddf252ad1be2c89b69c2b068fc378daa952ba7f163c4a11628f55a4df523b3ef",
            "0x0000000000000000000000006708e21113922ed588bbccaa5ef756becbb2a7d1",
            "0x000000000000000000000000bbbbbbbbbb9cc5e90e3b3af64bdaf62c37eeffcb"
          ],
          "data": "0x00000000000000000000000000000000000000000000000000000000000f4240",
          "blockHash": "0x0000000000000000000000000000000000000000000000000000000000000000",
          "blockNumber": "0x2ea4aa6",
          "blockTimestamp": "0x6a5ef22f",
          "transactionHash": "0x8796bb210f7448eceee8cd8749b396e1a6835da70184c234b8534c236121e198",
          "transactionIndex": "0x23",
          "logIndex": "0x44",
          "removed": false
        }
      ],
      "logsBloom": "0x00000000000000000000000000000080000000000000000000000000000000000000400000000100000000000000100000000000000000000000000020804000000000000010000000000009800000000000000800080000000000088000000000800000000000000000000000000000000000000000000000000010000000000000000000000008000000100000000000000000000000000009000000004000000000000000000000000000000000000000000000000000000000000000000020000002000000000000000000000000000100000000000000000000002000400000000001000000000000200001000000000000000000000000000000000000",
      "transactionHash": "0x8796bb210f7448eceee8cd8749b396e1a6835da70184c234b8534c236121e198",
      "transactionIndex": "0x23",
      "blockHash": "0x0000000000000000000000000000000000000000000000000000000000000000",
      "blockNumber": "0x2ea4aa6",
      "gasUsed": "0x205f5",
      "effectiveGasPrice": "0x5b8d80",
      "blobGasUsed": "0x7028",
      "from": "0x6708e21113922ed588bbccaa5ef756becbb2a7d1",
      "to": "0xbbbbbbbbbb9cc5e90e3b3af64bdaf62c37eeffcb",
      "contractAddress": null,
      "l1GasPrice": "0x25c5b9e",
      "l1GasUsed": "0xc22",
      "l1Fee": "0x491ffa29",
      "l1BaseFeeScalar": "0x8dd",
      "l1BlobBaseFee": "0x24085e",
      "l1BlobBaseFeeScalar": "0x101c12",
      "daFootprintGasScalar": "0x94"
    },
    {
      "type": "0x2",
      "status": "0x1",
      "cumulativeGasUsed": "0xcdeb5b",
      "logs": [
        {
          "address": "0x46415998764c29ab2a25cbea6254146d50d22687",
          "topics": [
            "0x7120161a7b3d31251e01294ab351ef15a41b91659a36032e4641bb89b121e321",
            "0x3a5ba11fdbd0a3ef70e98445afeaa5d3d73aac297bcfdcca120114bff5954126"
          ],
          "data": "0x0000000000000000000000000000000000000000000000000000000012e67fe4000000000000000000000000000000000000000000000000000000004b99e026",
          "blockHash": "0x404db17fb85b670a22575bbadf7285ba204038471ca043e2a9ccc71a000a2ee4",
          "blockNumber": "0x2ea4aa7",
          "blockTimestamp": "0x6a5ef231",
          "transactionHash": "0x9fd1a8adf2b2512b4214061212029722a7329763ada943be759ddeef601afb74",
          "transactionIndex": "0x58",
          "logIndex": "0x177",
          "removed": false
        },
        {
          "address": "0xbbbbbbbbbb9cc5e90e3b3af64bdaf62c37eeffcb",
          "topics": [
            "0x9d9bd501d0657d7dfe415f779a620a62b78bc508ddc0891fbbd8b7ac0f8fce87",
            "0x3a5ba11fdbd0a3ef70e98445afeaa5d3d73aac297bcfdcca120114bff5954126"
          ],
          "data": "0x0000000000000000000000000000000000000000000000000000000012e67fe400000000000000000000000000000000000000000000000000000000000000000000000000000000000000000000000000000000000000000000000000000000",
          "blockHash": "0x404db17fb85b670a22575bbadf7285ba204038471ca043e2a9ccc71a000a2ee4",
          "blockNumber": "0x2ea4aa7",
          "blockTimestamp": "0x6a5ef231",
          "transactionHash": "0x9fd1a8adf2b2512b4214061212029722a7329763ada943be759ddeef601afb74",
          "transactionIndex": "0x58",
          "logIndex": "0x178",
          "removed": false
        },
        {
          "address": "0xbbbbbbbbbb9cc5e90e3b3af64bdaf62c37eeffcb",
          "topics": [
            "0xedf8870433c83823eb071d3df1caa8d008f12f6440918c20d75a3602cda30fe0",
            "0x3a5ba11fdbd0a3ef70e98445afeaa5d3d73aac297bcfdcca120114bff5954126",
            "0x0000000000000000000000006708e21113922ed588bbccaa5ef756becbb2a7d1",
            "0x0000000000000000000000006708e21113922ed588bbccaa5ef756becbb2a7d1"
          ],
          "data": "0x00000000000000000000000000000000000000000000000000000000000f4240000000000000000000000000000000000000000000000000000000e8d4a51000",
          "blockHash": "0x404db17fb85b670a22575bbadf7285ba204038471ca043e2a9ccc71a000a2ee4",
          "blockNumber": "0x2ea4aa7",
          "blockTimestamp": "0x6a5ef231",
          "transactionHash": "0x9fd1a8adf2b2512b4214061212029722a7329763ada943be759ddeef601afb74",
          "transactionIndex": "0x58",
          "logIndex": "0x179",
          "removed": false
        },
        {
          "address": "0x833589fcd6edb6e08f4c7c32d4f71b54bda02913",
          "topics": [
            "0xddf252ad1be2c89b69c2b068fc378daa952ba7f163c4a11628f55a4df523b3ef",
            "0x0000000000000000000000006708e21113922ed588bbccaa5ef756becbb2a7d1",
            "0x000000000000000000000000bbbbbbbbbb9cc5e90e3b3af64bdaf62c37eeffcb"
          ],
          "data": "0x00000000000000000000000000000000000000000000000000000000000f4240",
          "blockHash": "0x404db17fb85b670a22575bbadf7285ba204038471ca043e2a9ccc71a000a2ee4",
          "blockNumber": "0x2ea4aa7",
          "blockTimestamp": "0x6a5ef231",
          "transactionHash": "0x9fd1a8adf2b2512b4214061212029722a7329763ada943be759ddeef601afb74",
          "transactionIndex": "0x58",
          "logIndex": "0x17a",
          "removed": false
        }
      ],
      "logsBloom": "0x00000000000040000000000000000080000000000000000000000000000000000000400000000100000000000000100000000000000000000000000020804000000000000010000000000008800000000000000800080000000000080000000000800000000000000000000000000000000000000000000000000010000000000000000000000008000000100000000000000000000000000008000000004000000000000000000000000000000000000000000000000000000000000000000020000002000000000000000000000000000100000000000000000000002000400000000001000000080000200001010000000000000000000000000000000000",
      "transactionHash": "0x9fd1a8adf2b2512b4214061212029722a7329763ada943be759ddeef601afb74",
      "transactionIndex": "0x58",
      "blockHash": "0x404db17fb85b670a22575bbadf7285ba204038471ca043e2a9ccc71a000a2ee4",
      "blockNumber": "0x2ea4aa7",
      "gasUsed": "0x1f335",
      "effectiveGasPrice": "0x5b8d80",
      "blobGasUsed": "0x7028",
      "from": "0x6708e21113922ed588bbccaa5ef756becbb2a7d1",
      "to": "0xbbbbbbbbbb9cc5e90e3b3af64bdaf62c37eeffcb",
      "contractAddress": null,
      "l1GasPrice": "0x25c5b9e",
      "l1GasUsed": "0xc22",
      "l1Fee": "0x2d7d3ee4",
      "l1BaseFeeScalar": "0x8dd",
      "l1BlobBaseFee": "0x24085e",
      "l1BlobBaseFeeScalar": "0x101c12",
      "daFootprintGasScalar": "0x94"
    },
    {
      "type": "0x2",
      "status": "0x1",
      "cumulativeGasUsed": "0x2b7cd0",
      "logs": [
        {
          "address": "0xf80c0529bd94c773844e459853cd91b9263dd525",
          "topics": [
            "0xe851bb5856808a50efd748be463b8f35bcfb5ec74c5bfde776fe0a4d2a26db27",
            "0x0000000000000000000000006708e21113922ed588bbccaa5ef756becbb2a7d1",
            "0x3a5ba11fdbd0a3ef70e98445afeaa5d3d73aac297bcfdcca120114bff5954126"
          ],
          "data": "0x00000000000000000000000000000000000000000000000000000cbba106e000",
          "blockHash": "0xc6e5bb6de561585a816e4660fe1c5f33f9287b3d4c5965728da6d0d8e2557d49",
          "blockNumber": "0x2ea4aa8",
          "blockTimestamp": "0x6a5ef233",
          "transactionHash": "0x530b8ed543b4509c5814a3dfce1061c53c59a3198d38b5c20ebc49fad7ac89a3",
          "transactionIndex": "0x2a",
          "logIndex": "0x1e",
          "removed": false
        }
      ],
      "logsBloom": "0x00000000000040000000000000000000000000000000000000000000000000000000000000000000000000000000000000001000000000000020000000000000000000000000000000000000000000000000000000000002000000000000000000000000000000000000000200000000000000000000000000000000800000000000000000000000000000100000008000000000000000000000000000004000000000000000000000000000000000000000000000000000000000000000000000000000000000000000000000000000000000000000000000000000002000000000000000000000080000000000010000000000000000000000000000000000",
      "transactionHash": "0x530b8ed543b4509c5814a3dfce1061c53c59a3198d38b5c20ebc49fad7ac89a3",
      "transactionIndex": "0x2a",
      "blockHash": "0xc6e5bb6de561585a816e4660fe1c5f33f9287b3d4c5965728da6d0d8e2557d49",
      "blockNumber": "0x2ea4aa8",
      "gasUsed": "0xf5ae",
      "effectiveGasPrice": "0x5b8d80",
      "blobGasUsed": "0x5f64",
      "from": "0x6708e21113922ed588bbccaa5ef756becbb2a7d1",
      "to": "0xf80c0529bd94c773844e459853cd91b9263dd525",
      "contractAddress": null,
      "l1GasPrice": "0x248540d",
      "l1GasUsed": "0xa5b",
      "l1Fee": "0x274af491",
      "l1BaseFeeScalar": "0x8dd",
      "l1BlobBaseFee": "0x2567cf",
      "l1BlobBaseFeeScalar": "0x101c12",
      "daFootprintGasScalar": "0x94"
    },
    {
      "type": "0x2",
      "status": "0x1",
      "cumulativeGasUsed": "0xa3b6cc",
      "logs": [
        {
          "address": "0xf80c0529bd94c773844e459853cd91b9263dd525",
          "topics": [
            "0x15c027cc4fd826d986cad358803439f7326d3aa4ed969ff90dbee4bc150f68e9"
          ],
          "data": "0x0000000000000000000000000000000000000000000000000000000011d2600b",
          "blockHash": "0x2674f25736c33b136b28135ff0f7d56f9dcabe483a7c1bf1f4d6e9ed4f94c9e4",
          "blockNumber": "0x2ea4aa9",
          "blockTimestamp": "0x6a5ef235",
          "transactionHash": "0x9ac9af8635c181f1f8438795fd5196c7768095898df7e1784288164c14badd80",
          "transactionIndex": "0x39",
          "logIndex": "0x81",
          "removed": false
        },
        {
          "address": "0xf80c0529bd94c773844e459853cd91b9263dd525",
          "topics": [
            "0xe0c2db6b54586be6d7d49943139fccf0dd315ba63e55364a76c73cd8fdba724d",
            "0x0000000000000000000000006708e21113922ed588bbccaa5ef756becbb2a7d1"
          ],
          "data": "0x0000000000000000000000000000000000000000000000000000000000000020000000000000000000000000000000000000000000000000000000000000000540ac09f34c5bc0b0b6d9b5f1ec1b97a6a149ff6278104797c9cb740453a2b7949103c3b4e834476c9a62ea009ba2c884ee42e94e6e314a26f04d3124341918368793cf302b8ffd655ab97bd1c695dbd967807e8367a65cb2f4edaf1380ba1bdaf6f43f1660f1f4779e92a2e21086f4ab49a3fc0cae8a17992808e6a6db488c163a5ba11fdbd0a3ef70e98445afeaa5d3d73aac297bcfdcca120114bff5954126",
          "blockHash": "0x2674f25736c33b136b28135ff0f7d56f9dcabe483a7c1bf1f4d6e9ed4f94c9e4",
          "blockNumber": "0x2ea4aa9",
          "blockTimestamp": "0x6a5ef235",
          "transactionHash": "0x9ac9af8635c181f1f8438795fd5196c7768095898df7e1784288164c14badd80",
          "transactionIndex": "0x39",
          "logIndex": "0x82",
          "removed": false
        },
        {
          "address": "0xf80c0529bd94c773844e459853cd91b9263dd525",
          "topics": [
            "0xe86b6d3313d3098f4c5f689c935de8fde876a597c185def2cedab85efedac686",
            "0x0000000000000000000000006708e21113922ed588bbccaa5ef756becbb2a7d1",
            "0x3a5ba11fdbd0a3ef70e98445afeaa5d3d73aac297bcfdcca120114bff5954126"
          ],
          "data": "0x00000000000000000000000000000000000000000000000000000cbba106e000",
          "blockHash": "0x2674f25736c33b136b28135ff0f7d56f9dcabe483a7c1bf1f4d6e9ed4f94c9e4",
          "blockNumber": "0x2ea4aa9",
          "blockTimestamp": "0x6a5ef235",
          "transactionHash": "0x9ac9af8635c181f1f8438795fd5196c7768095898df7e1784288164c14badd80",
          "transactionIndex": "0x39",
          "logIndex": "0x83",
          "removed": false
        }
      ],
      "logsBloom": "0x00000000000040000000000000000000000000000000000000000000000000000000080000000000000000000000000000001000000000000000000000000000000000000000000000000000000000000000000000000000000000000000000000000000000000000000000200000000004000000000000000001000800000000000000000008000000000100000000000000000000000000020000000004000000000000000000000000000000000000000100004000000000000000000000000000000000000000000000000000000000000000000000000000000002000000000000000000000080000000000050000000000000000000000000000010000",
      "transactionHash": "0x9ac9af8635c181f1f8438795fd5196c7768095898df7e1784288164c14badd80",
      "transactionIndex": "0x39",
      "blockHash": "0x2674f25736c33b136b28135ff0f7d56f9dcabe483a7c1bf1f4d6e9ed4f94c9e4",
      "blockNumber": "0x2ea4aa9",
      "gasUsed": "0x1a8e9",
      "effectiveGasPrice": "0x5b8d80",
      "blobGasUsed": "0x5a30",
      "from": "0x6708e21113922ed588bbccaa5ef756becbb2a7d1",
      "to": "0xf80c0529bd94c773844e459853cd91b9263dd525",
      "contractAddress": null,
      "l1GasPrice": "0x248540d",
      "l1GasUsed": "0x9c8",
      "l1Fee": "0x251c6165",
      "l1BaseFeeScalar": "0x8dd",
      "l1BlobBaseFee": "0x2567cf",
      "l1BlobBaseFeeScalar": "0x101c12",
      "daFootprintGasScalar": "0x94"
    },
    {
      "type": "0x2",
      "status": "0x1",
      "cumulativeGasUsed": "0x669476",
      "logs": [
        {
          "address": "0xf80c0529bd94c773844e459853cd91b9263dd525",
          "topics": [
            "0x6ce31538fc7fba95714ddc8a275a09252b4b1fb8f33d2550aa58a5f62ad934de",
            "0x0000000000000000000000006708e21113922ed588bbccaa5ef756becbb2a7d1"
          ],
          "data": "0x000000000000000000000000000000000000000000000000000000000000002000000000000000000000000000000000000000000000000000000000000000053a5ba11fdbd0a3ef70e98445afeaa5d3d73aac297bcfdcca120114bff595412640ac09f34c5bc0b0b6d9b5f1ec1b97a6a149ff6278104797c9cb740453a2b794f6f43f1660f1f4779e92a2e21086f4ab49a3fc0cae8a17992808e6a6db488c169103c3b4e834476c9a62ea009ba2c884ee42e94e6e314a26f04d3124341918368793cf302b8ffd655ab97bd1c695dbd967807e8367a65cb2f4edaf1380ba1bda",
          "blockHash": "0x58ce30c0ad204b4063208b85dc58978e130ccaef75ab214ce2488ad00f65a47b",
          "blockNumber": "0x2ea4aaa",
          "blockTimestamp": "0x6a5ef237",
          "transactionHash": "0xc3ae824a4dbe8c4c5c2522fe0f4cf36172c28b2d657aa9fa56cd7dfe9aefeafb",
          "transactionIndex": "0x29",
          "logIndex": "0x96",
          "removed": false
        }
      ],
      "logsBloom": "0x00000000000000000000000000000000000000000000000000000000000000000000000000000000000000000000000000001000000000000000000000000000000000000000000000000000000000000000000000000000000000000040000000000000000000000000000200000000000000000000000000000000800000000000000000000000000000100000000000000000000000000000000000004000000000000000000000000000000000000000000000000000080000000000000000000000000000000000000000000000000000000000000000000000002000000000000000000000000000000000000000000000000000000000020000000000",
      "transactionHash": "0xc3ae824a4dbe8c4c5c2522fe0f4cf36172c28b2d657aa9fa56cd7dfe9aefeafb",
      "transactionIndex": "0x29",
      "blockHash": "0x58ce30c0ad204b4063208b85dc58978e130ccaef75ab214ce2488ad00f65a47b",
      "blockNumber": "0x2ea4aaa",
      "gasUsed": "0x15ce8",
      "effectiveGasPrice": "0x5b8d80",
      "blobGasUsed": "0x77ac",
      "from": "0x6708e21113922ed588bbccaa5ef756becbb2a7d1",
      "to": "0xf80c0529bd94c773844e459853cd91b9263dd525",
      "contractAddress": null,
      "l1GasPrice": "0x248540d",
      "l1GasUsed": "0xcf8",
      "l1Fee": "0x3135ee9b",
      "l1BaseFeeScalar": "0x8dd",
      "l1BlobBaseFee": "0x2567cf",
      "l1BlobBaseFeeScalar": "0x101c12",
      "daFootprintGasScalar": "0x94"
    },
    {
      "type": "0x2",
      "status": "0x1",
      "cumulativeGasUsed": "0x576af1",
      "logs": [
        {
          "address": "0xa090dd1a701408df1d4d0b85b716c87565f90467",
          "topics": [
            "0x709e1cb4b0ac458eb1c1a9c708e841ee963b229247afbf1437bd39e01ae4aa14",
            "0x0000000000000000000000006708e21113922ed588bbccaa5ef756becbb2a7d1",
            "0x000000000000000000000000f80c0529bd94c773844e459853cd91b9263dd525"
          ],
          "data": "0x000000000000000000000000000000000000000000000000000000000000002000000000000000000000000000000000000000000000000000000000000000033a5ba11fdbd0a3ef70e98445afeaa5d3d73aac297bcfdcca120114bff5954126000000000000000000000000000000000000000000000000000000a2fb405800000000000000000000000000000000000000000000000000000000a2fb40580040ac09f34c5bc0b0b6d9b5f1ec1b97a6a149ff6278104797c9cb740453a2b794000000000000000000000000000000000000000000000000000000a2fb405800000000000000000000000000000000000000000000000000000000a2fb405800f6f43f1660f1f4779e92a2e21086f4ab49a3fc0cae8a17992808e6a6db488c16000000000000000000000000000000000000000000000000000000a2fb405800000000000000000000000000000000000000000000000000000000a2fb405800",
          "blockHash": "0x0000000000000000000000000000000000000000000000000000000000000000",
          "blockNumber": "0x2ea4aab",
          "blockTimestamp": "0x6a5ef239",
          "transactionHash": "0x5612b396f5d8e6c3764c98e3d96d46a5f7a19f558e1ce50cfdce06e87ba03ebb",
          "transactionIndex": "0x28",
          "logIndex": "0x8c",
          "removed": false
        }
      ],
      "logsBloom": "0x00000000000000000000000000000000000000000000000000000000000000000000000000000000000000000000000000000000800000000040000000000000000000000000000000000000000000040000000000000010400000000000000000000000000000400000000000000000000000000000000000000000000000000000000000000000000000100000000000000000000000000000000000004000000000000000000000000000000000000000000000000000000000000000000000000000000000000000000000000000000000000000000000000000002000000000000000000000000000000000000000004000000000000000000000040000",
      "transactionHash": "0x5612b396f5d8e6c3764c98e3d96d46a5f7a19f558e1ce50cfdce06e87ba03ebb",
      "transactionIndex": "0x28",
      "blockHash": "0x0000000000000000000000000000000000000000000000000000000000000000",
      "blockNumber": "0x2ea4aab",
      "gasUsed": "0x13c16",
      "effectiveGasPrice": "0x5b8d80",
      "blobGasUsed": "0x79fc",
      "from": "0x6708e21113922ed588bbccaa5ef756becbb2a7d1",
      "to": "0xa090dd1a701408df1d4d0b85b716c87565f90467",
      "contractAddress": null,
      "l1GasPrice": "0x248540d",
      "l1GasUsed": "0xd3b",
      "l1Fee": "0x17b679f1",
      "l1BaseFeeScalar": "0x8dd",
      "l1BlobBaseFee": "0x2567cf",
      "l1BlobBaseFeeScalar": "0x101c12",
      "daFootprintGasScalar": "0x94"
    }
  ],
  "libraries": [],
  "pending": [],
  "returns": {},
  "timestamp": 1784607289009,
  "chain": 8453,
  "commit": "7c1b156"
}