{
  "transactions": [
    {
      "hash": "0xe06ade998da621c47700d4310cd4a9dac11fd23e05f7be67edfadc85b3cb3ec4",
      "transactionType": "CALL",
      "contractName": null,
      "contractAddress": "0xcf77a3ba9a5ca399b7c97c74d54e5b1beb874e43",
      "function": "swapExactETHForTokens(uint256,(address,address,bool,address)[],address,uint256)",
      "arguments": [
        "2927271153618570",
        "[(0x4200000000000000000000000000000000000006, 0x2Ae3F1Ec7F1F5012CFEab0185bfc7aa3cf0DEc22, false, 0x420DD381b31aEf6683db6B902084cB0FFECe40Da)]",
        "0x6708e21113922ED588bBCcAA5ef756BEcBb2a7d1",
        "1784380781"
      ],
      "transaction": {
        "from": "0x6708e21113922ed588bbccaa5ef756becbb2a7d1",
        "to": "0xcf77a3ba9a5ca399b7c97c74d54e5b1beb874e43",
        "gas": "0x614e1",
        "value": "0xc6f3b40b6c000",
        "input": "0x903638a4000000000000000000000000000000000000000000000000000a66566d45ce8a00000000000000000000000000000000000000000000000000000000000000800000000000000000000000006708e21113922ed588bbccaa5ef756becbb2a7d1000000000000000000000000000000000000000000000000000000006a5b7d6d000000000000000000000000000000000000000000000000000000000000000100000000000000000000000042000000000000000000000000000000000000060000000000000000000000002ae3f1ec7f1f5012cfeab0185bfc7aa3cf0dec220000000000000000000000000000000000000000000000000000000000000000000000000000000000000000420dd381b31aef6683db6b902084cb0ffece40da",
        "nonce": "0x29b",
        "chainId": "0x2105"
      },
      "additionalContracts": [],
      "isFixedGasLimit": false
    },
    {
      "hash": "0x78088ac45f1d33768d0ceb00c204fac25e5f6b21e3e5053761f866f94c12950d",
      "transactionType": "CALL",
      "contractName": null,
      "contractAddress": "0x2ae3f1ec7f1f5012cfeab0185bfc7aa3cf0dec22",
      "function": "approve(address,uint256)",
      "arguments": [
        "0xBBBBBbbBBb9cC5e90e3b3Af64bdAF62C37EEFFCb",
        "3081338056440601"
      ],
      "transaction": {
        "from": "0x6708e21113922ed588bbccaa5ef756becbb2a7d1",
        "to": "0x2ae3f1ec7f1f5012cfeab0185bfc7aa3cf0dec22",
        "gas": "0x1145d",
        "value": "0x0",
        "input": "0x095ea7b3000000000000000000000000bbbbbbbbbb9cc5e90e3b3af64bdaf62c37eeffcb000000000000000000000000000000000000000000000000000af275ec497b19",
        "nonce": "0x29c",
        "chainId": "0x2105"
      },
      "additionalContracts": [],
      "isFixedGasLimit": false
    },
    {
      "hash": "0x859f07626cd67006eb2dcc8ca58d5d1d84366e1c9540c211c1ef43e1796aa499",
      "transactionType": "CALL",
      "contractName": null,
      "contractAddress": "0xbbbbbbbbbb9cc5e90e3b3af64bdaf62c37eeffcb",
      "function": "supplyCollateral((address,address,address,address,uint256),uint256,address,bytes)",
      "arguments": [
        "(0x833589fCD6eDb6E08f4c7C32D4f71b54bdA02913, 0x2Ae3F1Ec7F1F5012CFEab0185bfc7aa3cf0DEc22, 0xb40d93F44411D8C09aD17d7F88195eF9b05cCD96, 0x46415998764C29aB2a25CbeA6254146D50D22687, 860000000000000000)",
        "3081338056440601",
        "0x6708e21113922ED588bBCcAA5ef756BEcBb2a7d1",
        "0x"
      ],
      "transaction": {
        "from": "0x6708e21113922ed588bbccaa5ef756becbb2a7d1",
        "to": "0xbbbbbbbbbb9cc5e90e3b3af64bdaf62c37eeffcb",
        "gas": "0x1253f",
        "value": "0x0",
        "input": "0x238d6579000000000000000000000000833589fcd6edb6e08f4c7c32d4f71b54bda029130000000000000000000000002ae3f1ec7f1f5012cfeab0185bfc7aa3cf0dec22000000000000000000000000b40d93f44411d8c09ad17d7f88195ef9b05ccd9600000000000000000000000046415998764c29ab2a25cbea6254146d50d226870000000000000000000000000000000000000000000000000bef55718ad60000000000000000000000000000000000000000000000000000000af275ec497b190000000000000000000000006708e21113922ed588bbccaa5ef756becbb2a7d100000000000000000000000000000000000000000000000000000000000001000000000000000000000000000000000000000000000000000000000000000000",
        "nonce": "0x29d",
        "chainId": "0x2105"
      },
      "additionalContracts": [],
      "isFixedGasLimit": false
    },
    {
      "hash": "0xccb866f7d2e18e8159f8454287c2c4519c65be6c5f45f3e5362efbc1d9ec2ed5",
      "transactionType": "CALL",
      "contractName": null,
      "contractAddress": "0xbbbbbbbbbb9cc5e90e3b3af64bdaf62c37eeffcb",
      "function": "borrow((address,address,address,address,uint256),uint256,uint256,address,address)",
      "arguments": [
        "(0x833589fCD6eDb6E08f4c7C32D4f71b54bdA02913, 0x2Ae3F1Ec7F1F5012CFEab0185bfc7aa3cf0DEc22, 0xb40d93F44411D8C09aD17d7F88195eF9b05cCD96, 0x46415998764C29aB2a25CbeA6254146D50D22687, 860000000000000000)",
        "3796552",
        "0",
        "0x6708e21113922ED588bBCcAA5ef756BEcBb2a7d1",
        "0x6708e21113922ED588bBCcAA5ef756BEcBb2a7d1"
      ],
      "transaction": {
        "from": "0x6708e21113922ed588bbccaa5ef756becbb2a7d1",
        "to": "0xbbbbbbbbbb9cc5e90e3b3af64bdaf62c37eeffcb",
        "gas": "0x358a2",
        "value": "0x0",
        "input": "0x50d8cd4b000000000000000000000000833589fcd6edb6e08f4c7c32d4f71b54bda029130000000000000000000000002ae3f1ec7f1f5012cfeab0185bfc7aa3cf0dec22000000000000000000000000b40d93f44411d8c09ad17d7f88195ef9b05ccd9600000000000000000000000046415998764c29ab2a25cbea6254146d50d226870000000000000000000000000000000000000000000000000bef55718ad60000000000000000000000000000000000000000000000000000000000000039ee4800000000000000000000000000000000000000000000000000000000000000000000000000000000000000006708e21113922ed588bbccaa5ef756becbb2a7d10000000000000000000000006708e21113922ed588bbccaa5ef756becbb2a7d1",
        "nonce": "0x29e",
        "chainId": "0x2105"
      },
      "additionalContracts": [],
      "isFixedGasLimit": false
    },
    {
      "hash": "0x42a25ae227ec9e31713f73b146f90719e4fd9ee718b446999410de8180500562",
      "transactionType": "CALL",
      "contractName": null,
      "contractAddress": "0x833589fcd6edb6e08f4c7c32d4f71b54bda02913",
      "function": "approve(address,uint256)",
      "arguments": [
        "0xF80C0529bD94C773844E459853CD91B9263dD525",
        "3796552"
      ],
      "transaction": {
        "from": "0x6708e21113922ed588bbccaa5ef756becbb2a7d1",
        "to": "0x833589fcd6edb6e08f4c7c32d4f71b54bda02913",
        "gas": "0x12b1b",
        "value": "0x0",
        "input": "0x095ea7b3000000000000000000000000f80c0529bd94c773844e459853cd91b9263dd525000000000000000000000000000000000000000000000000000000000039ee48",
        "nonce": "0x29f",
        "chainId": "0x2105"
      },
      "additionalContracts": [],
      "isFixedGasLimit": false
    },
    {
      "hash": "0x37383fc7033c74a47c5afbf2e4573a53023c6e87e07485820b83f5e7b7533de6",
      "transactionType": "CALL",
      "contractName": null,
      "contractAddress": "0xf80c0529bd94c773844e459853cd91b9263dd525",
      "function": "deposit(uint256,address)",
      "arguments": [
        "3796552",
        "0x6708e21113922ED588bBCcAA5ef756BEcBb2a7d1"
      ],
      "transaction": {
        "from": "0x6708e21113922ed588bbccaa5ef756becbb2a7d1",
        "to": "0xf80c0529bd94c773844e459853cd91b9263dd525",
        "gas": "0x638b4",
        "value": "0x0",
        "input": "0x6e553f65000000000000000000000000000000000000000000000000000000000039ee480000000000000000000000006708e21113922ed588bbccaa5ef756becbb2a7d1",
        "nonce": "0x2a0",
        "chainId": "0x2105"
      },
      "additionalContracts": [],
      "isFixedGasLimit": false
    }
  ],
  "receipts": [
    {
      "type": "0x2",
      "status": "0x1",
      "cumulativeGasUsed": "0x5bca64",
      "logs": [
        {
          "address": "0x4200000000000000000000000000000000000006",
          "topics": [
            "0xe1fffcc4923d04b559f4d29a8bfc6cda04eb5b0d3c460751c2402c5c5cc9109c",
            "0x000000000000000000000000cf77a3ba9a5ca399b7c97c74d54e5b1beb874e43"
          ],
          "data": "0x000000000000000000000000000000000000000000000000000c6f3b40b6c000",
          "blockHash": "0x0000000000000000000000000000000000000000000000000000000000000000",
          "blockNumber": "0x2e88df4",
          "blockTimestamp": "0x6a5b78cb",
          "transactionHash": "0xe06ade998da621c47700d4310cd4a9dac11fd23e05f7be67edfadc85b3cb3ec4",
          "transactionIndex": "0x26",
          "logIndex": "0x93",
          "removed": false
        },
        {
          "address": "0x4200000000000000000000000000000000000006",
          "topics": [
            "0xddf252ad1be2c89b69c2b068fc378daa952ba7f163c4a11628f55a4df523b3ef",
            "0x000000000000000000000000cf77a3ba9a5ca399b7c97c74d54e5b1beb874e43",
            "0x00000000000000000000000044ecc644449fc3a9858d2007caa8cfaa4c561f91"
          ],
          "data": "0x000000000000000000000000000000000000000000000000000c6f3b40b6c000",
          "blockHash": "0x0000000000000000000000000000000000000000000000000000000000000000",
          "blockNumber": "0x2e88df4",
          "blockTimestamp": "0x6a5b78cb",
          "transactionHash": "0xe06ade998da621c47700d4310cd4a9dac11fd23e05f7be67edfadc85b3cb3ec4",
          "transactionIndex": "0x26",
          "logIndex": "0x94",
          "removed": false
        },
        {
          "address": "0x2ae3f1ec7f1f5012cfeab0185bfc7aa3cf0dec22",
          "topics": [
            "0xddf252ad1be2c89b69c2b068fc378daa952ba7f163c4a11628f55a4df523b3ef",
            "0x00000000000000000000000044ecc644449fc3a9858d2007caa8cfaa4c561f91",
            "0x0000000000000000000000006708e21113922ed588bbccaa5ef756becbb2a7d1"
          ],
          "data": "0x000000000000000000000000000000000000000000000000000af275ec497b19",
          "blockHash": "0x0000000000000000000000000000000000000000000000000000000000000000",
          "blockNumber": "0x2e88df4",
          "blockTimestamp": "0x6a5b78cb",
          "transactionHash": "0xe06ade998da621c47700d4310cd4a9dac11fd23e05f7be67edfadc85b3cb3ec4",
          "transactionIndex": "0x26",
          "logIndex": "0x95",
          "removed": false
        },
        {
          "address": "0x4200000000000000000000000000000000000006",
          "topics": [
            "0xddf252ad1be2c89b69c2b068fc378daa952ba7f163c4a11628f55a4df523b3ef",
            "0x00000000000000000000000044ecc644449fc3a9858d2007caa8cfaa4c561f91",
            "0x000000000000000000000000f6e3ff7c74e14d6252d1ae0757cfd1b795544b47"
          ],
          "data": "0x0000000000000000000000000000000000000000000000000000098cb8c52800",
          "blockHash": "0x0000000000000000000000000000000000000000000000000000000000000000",
          "blockNumber": "0x2e88df4",
          "blockTimestamp": "0x6a5b78cb",
          "transactionHash": "0xe06ade998da621c47700d4310cd4a9dac11fd23e05f7be67edfadc85b3cb3ec4",
          "transactionIndex": "0x26",
          "logIndex": "0x96",
          "removed": false
        },
        {
          "address": "0x44ecc644449fc3a9858d2007caa8cfaa4c561f91",
          "topics": [
            "0x112c256902bf554b6ed882d2936687aaeb4225e8cd5b51303c90ca6cf43a8602",
            "0x000000000000000000000000cf77a3ba9a5ca399b7c97c74d54e5b1beb874e43"
          ],
          "data": "0x00000000000000000000000000000000000000000000000000000000000000000000000000000000000000000000000000000000000000000000098cb8c52800",
          "blockHash": "0x0000000000000000000000000000000000000000000000000000000000000000",
          "blockNumber": "0x2e88df4",
          "blockTimestamp": "0x6a5b78cb",
          "transactionHash": "0xe06ade998da621c47700d4310cd4a9dac11fd23e05f7be67edfadc85b3cb3ec4",
          "transactionIndex": "0x26",
          "logIndex": "0x97",
          "removed": false
        },
        {
          "address": "0x44ecc644449fc3a9858d2007caa8cfaa4c561f91",
          "topics": [
            "0xcf2aa50876cdfbb541206f89af0ee78d44a2abf8d328e37fa4917f982149848a"
          ],
          "data": "0x0000000000000000000000000000000000000000000000017ad147e80e60c8bf000000000000000000000000000000000000000000000001ad0b8998709f58bc",
          "blockHash": "0x0000000000000000000000000000000000000000000000000000000000000000",
          "blockNumber": "0x2e88df4",
          "blockTimestamp": "0x6a5b78cb",
          "transactionHash": "0xe06ade998da621c47700d4310cd4a9dac11fd23e05f7be67edfadc85b3cb3ec4",
          "transactionIndex": "0x26",
          "logIndex": "0x98",
          "removed": false
        },
        {
          "address": "0x44ecc644449fc3a9858d2007caa8cfaa4c561f91",
          "topics": [
            "0xb3e2773606abfd36b5bd91394b3a54d1398336c65005baf7bf7a05efeffaf75b",
            "0x000000000000000000000000cf77a3ba9a5ca399b7c97c74d54e5b1beb874e43",
            "0x0000000000000000000000006708e21113922ed588bbccaa5ef756becbb2a7d1"
          ],
          "data": "0x0000000000000000000000000000000000000000000000000000000000000000000000000000000000000000000000000000000000000000000c6f3b40b6c000000000000000000000000000000000000000000000000000000af275ec497b190000000000000000000000000000000000000000000000000000000000000000",
          "blockHash": "0x0000000000000000000000000000000000000000000000000000000000000000",
          "blockNumber": "0x2e88df4",
          "blockTimestamp": "0x6a5b78cb",
          "transactionHash": "0xe06ade998da621c47700d4310cd4a9dac11fd23e05f7be67edfadc85b3cb3ec4",
          "transactionIndex": "0x26",
          "logIndex": "0x99",
          "removed": false
        }
      ],
      "logsBloom": "0x00000000000000000000000000000000000000200000000000040000000000000400000000000000000000108000000000000000000000000000000000000000000000000000000000000008000000000080002000000000000000008000000000000000000400000000000000000000000020000000008000000010000000000000000000000000000002100004000000001001002000000000000200004000000000000000000000000000000000000001000000000000000000000000000000000002004000000000000400000000000000000040020000000000002400000000000100000400100000000000010004000000000000500000000000000000",
      "transactionHash": "0xe06ade998da621c47700d4310cd4a9dac11fd23e05f7be67edfadc85b3cb3ec4",
      "transactionIndex": "0x26",
      "blockHash": "0x0000000000000000000000000000000000000000000000000000000000000000",
      "blockNumber": "0x2e88df4",
      "gasUsed": "0x42889",
      "effectiveGasPrice": "0x57bcf0",
      "blobGasUsed": "0x6248",
      "from": "0x6708e21113922ed588bbccaa5ef756becbb2a7d1",
      "to": "0xcf77a3ba9a5ca399b7c97c74d54e5b1beb874e43",
      "contractAddress": null,
      "l1GasPrice": "0x42f69be",
      "l1GasUsed": "0xaab",
      "l1Fee": "0x27e8bbec",
      "l1BaseFeeScalar": "0x8dd",
      "l1BlobBaseFee": "0x362f19",
      "l1BlobBaseFeeScalar": "0x101c12",
      "daFootprintGasScalar": "0x94"
    },
    {
      "type": "0x2",
      "status": "0x1",
      "cumulativeGasUsed": "0x12c6db5",
      "logs": [
        {
          "address": "0x2ae3f1ec7f1f5012cfeab0185bfc7aa3cf0dec22",
          "topics": [
            "0x8c5be1e5ebec7d5bd14f71427d1e84f3dd0314c0f7b2291e5b200ac8c7c3b925",
            "0x0000000000000000000000006708e21113922ed588bbccaa5ef756becbb2a7d1",
            "0x000000000000000000000000bbbbbbbbbb9cc5e90e3b3af64bdaf62c37eeffcb"
          ],
          "data": "0x000000000000000000000000000000000000000000000000000af275ec497b19",
          "blockHash": "0x0f317eb8d4089b3a44478014fdc6314d53bb7fb62fb201ecc1ac0a4201111566",
          "blockNumber": "0x2e88df5",
          "blockTimestamp": "0x6a5b78cd",
          "transactionHash": "0x78088ac45f1d33768d0ceb00c204fac25e5f6b21e3e5053761f866f94c12950d",
          "transactionIndex": "0x7f",
          "logIndex": "0x14c",
          "removed": false
        }
      ],
      "logsBloom": "0x00000000000000000000000000000080000000000000000000000000000000000000000000000000000000000000000000000000000000000000000000200000000000000000000000000000000000000000000000000000000000000000000000000000000000000000000000000000000000000000000000000000000000000000000000000000000000100000000000000000000000000000000000004000020000000000000000000000000000000001000000000000000000000000000000000000000000000000000000000000000000000000000000000000002000000010000001000000100000200000000004000000000000000000000000000000",
      "transactionHash": "0x78088ac45f1d33768d0ceb00c204fac25e5f6b21e3e5053761f866f94c12950d",
      "transactionIndex": "0x7f",
      "blockHash": "0x0f317eb8d4089b3a44478014fdc6314d53bb7fb62fb201ecc1ac0a4201111566",
      "blockNumber": "0x2e88df5",
      "gasUsed": "0xc816",
      "effectiveGasPrice": "0x57bcf0",
      "blobGasUsed": "0x39d0",
      "from": "0x6708e21113922ed588bbccaa5ef756becbb2a7d1",
      "to": "0x2ae3f1ec7f1f5012cfeab0185bfc7aa3cf0dec22",
      "contractAddress": null,
      "l1GasPrice": "0x42f69be",
      "l1GasUsed": "0x640",
      "l1Fee": "0x258a3237",
      "l1BaseFeeScalar": "0x8dd",
      "l1BlobBaseFee": "0x362f19",
      "l1BlobBaseFeeScalar": "0x101c12",
      "daFootprintGasScalar": "0x94"
    },
    {
      "type": "0x2",
      "status": "0x1",
      "cumulativeGasUsed": "0xc10291",
      "logs": [
        {
          "address": "0xbbbbbbbbbb9cc5e90e3b3af64bdaf62c37eeffcb",
          "topics": [
            "0xa3b9472a1399e17e123f3c2e6586c23e504184d504de59cdaa2b375e880c6184",
            "0x1c21c59df9db44bf6f645d854ee710a8ca17b479451447e9f56758aee10a2fad",
            "0x0000000000000000000000006708e21113922ed588bbccaa5ef756becbb2a7d1",
            "0x0000000000000000000000006708e21113922ed588bbccaa5ef756becbb2a7d1"
          ],
          "data": "0x000000000000000000000000000000000000000000000000000af275ec497b19",
          "blockHash": "0xca3e3f01c1359fb5983c787f84f537270386569df2649be324322a19a8cc62a5",
          "blockNumber": "0x2e88df6",
          "blockTimestamp": "0x6a5b78cf",
          "transactionHash": "0x859f07626cd67006eb2dcc8ca58d5d1d84366e1c9540c211c1ef43e1796aa499",
          "transactionIndex": "0x4c",
          "logIndex": "0x10f",
          "removed": false
        },
        {
          "address": "0x2ae3f1ec7f1f5012cfeab0185bfc7aa3cf0dec22",
          "topics": [
            "0x8c5be1e5ebec7d5bd14f71427d1e84f3dd0314c0f7b2291e5b200ac8c7c3b925",
            "0x0000000000000000000000006708e21113922ed588bbccaa5ef756becbb2a7d1",
            "0x000000000000000000000000bbbbbbbbbb9cc5e90e3b3af64bdaf62c37eeffcb"
          ],
          "data": "0x0000000000000000000000000000000000000000000000000000000000000000",
          "blockHash": "0xca3e3f01c1359fb5983c787f84f537270386569df2649be324322a19a8cc62a5",
          "blockNumber": "0x2e88df6",
          "blockTimestamp": "0x6a5b78cf",
          "transactionHash": "0x859f07626cd67006eb2dcc8ca58d5d1d84366e1c9540c211c1ef43e1796aa499",
          "transactionIndex": "0x4c",
          "logIndex": "0x110",
          "removed": false
        },
        {
          "address": "0x2ae3f1ec7f1f5012cfeab0185bfc7aa3cf0dec22",
          "topics": [
            "0xddf252ad1be2c89b69c2b068fc378daa952ba7f163c4a11628f55a4df523b3ef",
            "0x0000000000000000000000006708e21113922ed588bbccaa5ef756becbb2a7d1",
            "0x000000000000000000000000bbbbbbbbbb9cc5e90e3b3af64bdaf62c37eeffcb"
          ],
          "data": "0x000000000000000000000000000000000000000000000000000af275ec497b19",
          "blockHash": "0xca3e3f01c1359fb5983c787f84f537270386569df2649be324322a19a8cc62a5",
          "blockNumber": "0x2e88df6",
          "blockTimestamp": "0x6a5b78cf",
          "transactionHash": "0x859f07626cd67006eb2dcc8ca58d5d1d84366e1c9540c211c1ef43e1796aa499",
          "transactionIndex": "0x4c",
          "logIndex": "0x111",
          "removed": false
        }
      ],
      "logsBloom": "0x00000000000000000000000000000080000000000000000000000000000000000000000000000000000000000000000000000000000000000000000000200000000000000010000000000008000000000000000000000000000000000000000000000000000000000000000000000000000000000000000000000010000000000000008000000008000000100080004000000000000000000000000000004000020000000000000000000000000000000001000000000000000000000000000020000002000000000000000000000000000000000000000400000000002000000010000001000000100000200000200004000400000000000000000000000000",
      "transactionHash": "0x859f07626cd67006eb2dcc8ca58d5d1d84366e1c9540c211c1ef43e1796aa499",
      "transactionIndex": "0x4c",
      "blockHash": "0xca3e3f01c1359fb5983c787f84f537270386569df2649be324322a19a8cc62a5",
      "blockNumber": "0x2e88df6",
      "gasUsed": "0xd44f",
      "effectiveGasPrice": "0x57bcf0",
      "blobGasUsed": "0x71e4",
      "from": "0x6708e21113922ed588bbccaa5ef756becbb2a7d1",
      "to": "0xbbbbbbbbbb9cc5e90e3b3af64bdaf62c37eeffcb",
      "contractAddress": null,
      "l1GasPrice": "0x42f69be",
      "l1GasUsed": "0xc57",
      "l1Fee": "0x4a232ab2",
      "l1BaseFeeScalar": "0x8dd",
      "l1BlobBaseFee": "0x362f19",
      "l1BlobBaseFeeScalar": "0x101c12",
      "daFootprintGasScalar": "0x94"
    },
    {
      "type": "0x2",
      "status": "0x1",
      "cumulativeGasUsed": "0x886689",
      "logs": [
        {
          "address": "0x46415998764c29ab2a25cbea6254146d50d22687",
          "topics": [
            "0x7120161a7b3d31251e01294ab351ef15a41b91659a36032e4641bb89b121e321",
            "0x1c21c59df9db44bf6f645d854ee710a8ca17b479451447e9f56758aee10a2fad"
          ],
          "data": "0x000000000000000000000000000000000000000000000000000000005850d6b70000000000000000000000000000000000000000000000000000000058b5b168",
          "blockHash": "0x897cdf3564a4c10b8336f50a814e607cbe63b4a365e02b5057ccef8c75ac28f7",
          "blockNumber": "0x2e88df7",
          "blockTimestamp": "0x6a5b78d1",
          "transactionHash": "0xccb866f7d2e18e8159f8454287c2c4519c65be6c5f45f3e5362efbc1d9ec2ed5",
          "transactionIndex": "0x45",
          "logIndex": "0xb8",
          "removed": false
        },
        {
          "address": "0xbbbbbbbbbb9cc5e90e3b3af64bdaf62c37eeffcb",
          "topics": [
            "0x9d9bd501d0657d7dfe415f779a620a62b78bc508ddc0891fbbd8b7ac0f8fce87",
            "0x1c21c59df9db44bf6f645d854ee710a8ca17b479451447e9f56758aee10a2fad"
          ],
          "data": "0x000000000000000000000000000000000000000000000000000000005850d6b700000000000000000000000000000000000000000000000000000000002f5f950000000000000000000000000000000000000000000000000000000000000000",
          "blockHash": "0x897cdf3564a4c10b8336f50a814e607cbe63b4a365e02b5057ccef8c75ac28f7",
          "blockNumber": "0x2e88df7",
          "blockTimestamp": "0x6a5b78d1",
          "transactionHash": "0xccb866f7d2e18e8159f8454287c2c4519c65be6c5f45f3e5362efbc1d9ec2ed5",
          "transactionIndex": "0x45",
          "logIndex": "0xb9",
          "removed": false
        },
        {
          "address": "0xbbbbbbbbbb9cc5e90e3b3af64bdaf62c37eeffcb",
          "topics": [
            "0x570954540bed6b1304a87dfe815a5eda4a648f7097a16240dcd85c9b5fd42a43",
            "0x1c21c59df9db44bf6f645d854ee710a8ca17b479451447e9f56758aee10a2fad",
            "0x0000000000000000000000006708e21113922ed588bbccaa5ef756becbb2a7d1",
            "0x0000000000000000000000006708e21113922ed588bbccaa5ef756becbb2a7d1"
          ],
          "data": "0x0000000000000000000000006708e21113922ed588bbccaa5ef756becbb2a7d1000000000000000000000000000000000000000000000000000000000039ee480000000000000000000000000000000000000000000000000000031e30a3c624",
          "blockHash": "0x897cdf3564a4c10b8336f50a814e607cbe63b4a365e02b5057ccef8c75ac28f7",
          "blockNumber": "0x2e88df7",
          "blockTimestamp": "0x6a5b78d1",
          "transactionHash": "0xccb866f7d2e18e8159f8454287c2c4519c65be6c5f45f3e5362efbc1d9ec2ed5",
          "transactionIndex": "0x45",
          "logIndex": "0xba",
          "removed": false
        },
        {
          "address": "0x833589fcd6edb6e08f4c7c32d4f71b54bda02913",
          "topics": [
            "0xddf252ad1be2c89b69c2b068fc378daa952ba7f163c4a11628f55a4df523b3ef",
            "0x000000000000000000000000bbbbbbbbbb9cc5e90e3b3af64bdaf62c37eeffcb",
            "0x0000000000000000000000006708e21113922ed588bbccaa5ef756becbb2a7d1"
          ],
          "data": "0x000000000000000000000000000000000000000000000000000000000039ee48",
          "blockHash": "0x897cdf3564a4c10b8336f50a814e607cbe63b4a365e02b5057ccef8c75ac28f7",
          "blockNumber": "0x2e88df7",
          "blockTimestamp": "0x6a5b78d1",
          "transactionHash": "0xccb866f7d2e18e8159f8454287c2c4519c65be6c5f45f3e5362efbc1d9ec2ed5",
          "transactionIndex": "0x45",
          "logIndex": "0xbb",
          "removed": false
        }
      ],
      "logsBloom": "0x00000000000000000002000000000080000000000000000000000000000000000000400000000100000000000000100000000000000000000000000020804000000000000010000000000008000000000000000000080000000000080000000000800000000000000000000000000000000000000000000000000010000000000000000000000008000000100080004000000000000000000008000000004000000000000000000000000000000000000000000000000000000000000000000020000002000000000000000000000000000100000000000000000000002000000000004001000008000000200001000000000400000000000000000000000000",
      "transactionHash": "0xccb866f7d2e18e8159f8454287c2c4519c65be6c5f45f3e5362efbc1d9ec2ed5",
      "transactionIndex": "0x45",
      "blockHash": "0x897cdf3564a4c10b8336f50a814e607cbe63b4a365e02b5057ccef8c75ac28f7",
      "blockNumber": "0x2e88df7",
      "gasUsed": "0x26c30",
      "effectiveGasPrice": "0x57bcf0",
      "blobGasUsed": "0x6dd8",
      "from": "0x6708e21113922ed588bbccaa5ef756becbb2a7d1",
      "to": "0xbbbbbbbbbb9cc5e90e3b3af64bdaf62c37eeffcb",
      "contractAddress": null,
      "l1GasPrice": "0x42f69be",
      "l1GasUsed": "0xbec",
      "l1Fee": "0x47a00d6e",
      "l1BaseFeeScalar": "0x8dd",
      "l1BlobBaseFee": "0x362f19",
      "l1BlobBaseFeeScalar": "0x101c12",
      "daFootprintGasScalar": "0x94"
    },
    {
      "type": "0x2",
      "status": "0x1",
      "cumulativeGasUsed": "0x165da61",
      "logs": [
        {
          "address": "0x833589fcd6edb6e08f4c7c32d4f71b54bda02913",
          "topics": [
            "0x8c5be1e5ebec7d5bd14f71427d1e84f3dd0314c0f7b2291e5b200ac8c7c3b925",
            "0x0000000000000000000000006708e21113922ed588bbccaa5ef756becbb2a7d1",
            "0x000000000000000000000000f80c0529bd94c773844e459853cd91b9263dd525"
          ],
          "data": "0x000000000000000000000000000000000000000000000000000000000039ee48",
          "blockHash": "0x0000000000000000000000000000000000000000000000000000000000000000",
          "blockNumber": "0x2e88df8",
          "blockTimestamp": "0x6a5b78d3",
          "transactionHash": "0x42a25ae227ec9e31713f73b146f90719e4fd9ee718b446999410de8180500562",
          "transactionIndex": "0x9f",
          "logIndex": "0x1c4",
          "removed": false
        }
      ],
      "logsBloom": "0x00000000000000000000000000000000000000000000000000000000000000000000000000000000000000000000100000000000000000000000000000200000000000000000000000000000000000000000000000080010000000000000000000800000000000000000000000000000000000000000000000000000000000000000000000000000000000100000000000000000000000000000000000004000020000000000000000000000000000000000000000000000000000000000000000000000000000000000000000000000000000000000000000000000002000000010000000000000000000000000000000004000000000000000000000040000",
      "transactionHash": "0x42a25ae227ec9e31713f73b146f90719e4fd9ee718b446999410de8180500562",
      "transactionIndex": "0x9f",
      "blockHash": "0x0000000000000000000000000000000000000000000000000000000000000000",
      "blockNumber": "0x2e88df8",
      "gasUsed": "0xd88d",
      "effectiveGasPrice": "0x57bcf0",
      "blobGasUsed": "0x39d0",
      "from": "0x6708e21113922ed588bbccaa5ef756becbb2a7d1",
      "to": "0x833589fcd6edb6e08f4c7c32d4f71b54bda02913",
      "contractAddress": null,
      "l1GasPrice": "0x42f69be",
      "l1GasUsed": "0x640",
      "l1Fee": "0x258a3237",
      "l1BaseFeeScalar": "0x8dd",
      "l1BlobBaseFee": "0x362f19",
      "l1BlobBaseFeeScalar": "0x101c12",
      "daFootprintGasScalar": "0x94"
    },
    {
      "type": "0x2",
      "status": "0x1",
      "cumulativeGasUsed": "0xca6672",
      "logs": [
        {
          "address": "0xf80c0529bd94c773844e459853cd91b9263dd525",
          "topics": [
            "0x15c027cc4fd826d986cad358803439f7326d3aa4ed969ff90dbee4bc150f68e9"
          ],
          "data": "0x00000000000000000000000000000000000000000000000000000000209d3934",
          "blockHash": "0x0000000000000000000000000000000000000000000000000000000000000000",
          "blockNumber": "0x2e88df9",
          "blockTimestamp": "0x6a5b78d5",
          "transactionHash": "0x37383fc7033c74a47c5afbf2e4573a53023c6e87e07485820b83f5e7b7533de6",
          "transactionIndex": "0x40",
          "logIndex": "0x29c",
          "removed": false
        },
        {
          "address": "0xf80c0529bd94c773844e459853cd91b9263dd525",
          "topics": [
            "0x548669ea9bcc24888e6d74a69c9865fa98d795686853b8aa3eb87814261bbb71"
          ],
          "data": "0x0000000000000000000000000000000000000000000000000000000000000000",
          "blockHash": "0x0000000000000000000000000000000000000000000000000000000000000000",
          "blockNumber": "0x2e88df9",
          "blockTimestamp": "0x6a5b78d5",
          "transactionHash": "0x37383fc7033c74a47c5afbf2e4573a53023c6e87e07485820b83f5e7b7533de6",
          "transactionIndex": "0x40",
          "logIndex": "0x29d",
          "removed": false
        },
        {
          "address": "0xf80c0529bd94c773844e459853cd91b9263dd525",
          "topics": [
            "0xddf252ad1be2c89b69c2b068fc378daa952ba7f163c4a11628f55a4df523b3ef",
            "0x0000000000000000000000000000000000000000000000000000000000000000",
            "0x000000000000000000000000a1afcb46a64c9173519180458c1cf302179c832a"
          ],
          "data": "0x0000000000000000000000000000000000000000000000000001aefea2a38722",
          "blockHash": "0x0000000000000000000000000000000000000000000000000000000000000000",
          "blockNumber": "0x2e88df9",
          "blockTimestamp": "0x6a5b78d5",
          "transactionHash": "0x37383fc7033c74a47c5afbf2e4573a53023c6e87e07485820b83f5e7b7533de6",
          "transactionIndex": "0x40",
          "logIndex": "0x29e",
          "removed": false
        },
        {
          "address": "0xf80c0529bd94c773844e459853cd91b9263dd525",
          "topics": [
            "0xf66f28b40975dbb933913542c7e6a0f50a1d0f20aa74ea6e0efe65ab616323ec"
          ],
          "data": "0x00000000000000000000000000000000000000000000000000000000209d39340000000000000000000000000000000000000000000000000001aefea2a38722",
          "blockHash": "0x0000000000000000000000000000000000000000000000000000000000000000",
          "blockNumber": "0x2e88df9",
          "blockTimestamp": "0x6a5b78d5",
          "transactionHash": "0x37383fc7033c74a47c5afbf2e4573a53023c6e87e07485820b83f5e7b7533de6",
          "transactionIndex": "0x40",
          "logIndex": "0x29f",
          "removed": false
        },
        {
          "address": "0x833589fcd6edb6e08f4c7c32d4f71b54bda02913",
          "topics": [
            "0xddf252ad1be2c89b69c2b068fc378daa952ba7f163c4a11628f55a4df523b3ef",
            "0x0000000000000000000000006708e21113922ed588bbccaa5ef756becbb2a7d1",
            "0x000000000000000000000000f80c0529bd94c773844e459853cd91b9263dd525"
          ],
          "data": "0x000000000000000000000000000000000000000000000000000000000039ee48",
          "blockHash": "0x0000000000000000000000000000000000000000000000000000000000000000",
          "blockNumber": "0x2e88df9",
          "blockTimestamp": "0x6a5b78d5",
          "transactionHash": "0x37383fc7033c74a47c5afbf2e4573a53023c6e87e07485820b83f5e7b7533de6",
          "transactionIndex": "0x40",
          "logIndex": "0x2a0",
          "removed": false
        },
        {
          "address": "0xf80c0529bd94c773844e459853cd91b9263dd525",
          "topics": [
            "0xddf252ad1be2c89b69c2b068fc378daa952ba7f163c4a11628f55a4df523b3ef",
            "0x0000000000000000000000000000000000000000000000000000000000000000",
            "0x0000000000000000000000006708e21113922ed588bbccaa5ef756becbb2a7d1"
          ],
          "data": "0x00000000000000000000000000000000000000000000000034acc05b66003145",
          "blockHash": "0x0000000000000000000000000000000000000000000000000000000000000000",
          "blockNumber": "0x2e88df9",
          "blockTimestamp": "0x6a5b78d5",
          "transactionHash": "0x37383fc7033c74a47c5afbf2e4573a53023c6e87e07485820b83f5e7b7533de6",
          "transactionIndex": "0x40",
          "logIndex": "0x2a1",
          "removed": false
        },
        {
          "address": "0xf80c0529bd94c773844e459853cd91b9263dd525",
          "topics": [
            "0xdcbc1c05240f31ff3ad067ef1ee35ce4997762752e3a095284754544f4c709d7",
            "0x0000000000000000000000006708e21113922ed588bbccaa5ef756becbb2a7d1",
            "0x0000000000000000000000006708e21113922ed588bbccaa5ef756becbb2a7d1"
          ],
          "data": "0x000000000000000000000000000000000000000000000000000000000039ee4800000000000000000000000000000000000000000000000034acc05b66003145",
          "blockHash": "0x0000000000000000000000000000000000000000000000000000000000000000",
          "blockNumber": "0x2e88df9",
          "blockTimestamp": "0x6a5b78d5",
          "transactionHash": "0x37383fc7033c74a47c5afbf2e4573a53023c6e87e07485820b83f5e7b7533de6",
          "transactionIndex": "0x40",
          "logIndex": "0x2a2",
          "removed": false
        },
        {
          "address": "0x46415998764c29ab2a25cbea6254146d50d22687",
          "topics": [
            "0x7120161a7b3d31251e01294ab351ef15a41b91659a36032e4641bb89b121e321",
            "0xf6f43f1660f1f4779e92a2e21086f4ab49a3fc0cae8a17992808e6a6db488c16"
          ],
          "data": "0x0000000000000000000000000000000000000000000000000000000012c03499000000000000000000000000000000000000000000000000000000004ae5210b",
          "blockHash": "0x0000000000000000000000000000000000000000000000000000000000000000",
          "blockNumber": "0x2e88df9",
          "blockTimestamp": "0x6a5b78d5",
          "transactionHash": "0x37383fc7033c74a47c5afbf2e4573a53023c6e87e07485820b83f5e7b7533de6",
          "transactionIndex": "0x40",
          "logIndex": "0x2a3",
          "removed": false
        },
        {
          "address": "0xbbbbbbbbbb9cc5e90e3b3af64bdaf62c37eeffcb",
          "topics": [
            "0x9d9bd501d0657d7dfe415f779a620a62b78bc508ddc0891fbbd8b7ac0f8fce87",
            "0xf6f43f1660f1f4779e92a2e21086f4ab49a3fc0cae8a17992808e6a6db488c16"
          ],
          "data": "0x0000000000000000000000000000000000000000000000000000000012c0349900000000000000000000000000000000000000000000000000000000000000000000000000000000000000000000000000000000000000000000000000000000",
          "blockHash": "0x0000000000000000000000000000000000000000000000000000000000000000",
          "blockNumber": "0x2e88df9",
          "blockTimestamp": "0x6a5b78d5",
          "transactionHash": "0x37383fc7033c74a47c5afbf2e4573a53023c6e87e07485820b83f5e7b7533de6",
          "transactionIndex": "0x40",
          "logIndex": "0x2a4",
          "removed": false
        },
        {
          "address": "0xbbbbbbbbbb9cc5e90e3b3af64bdaf62c37eeffcb",
          "topics": [
            "0xedf8870433c83823eb071d3df1caa8d008f12f6440918c20d75a3602cda30fe0",
            "0xf6f43f1660f1f4779e92a2e21086f4ab49a3fc0cae8a17992808e6a6db488c16",
            "0x000000000000000000000000f80c0529bd94c773844e459853cd91b9263dd525",
            "0x000000000000000000000000f80c0529bd94c773844e459853cd91b9263dd525"
          ],
          "data": "0x000000000000000000000000000000000000000000000000000000000039ee4800000000000000000000000000000000000000000000000000000373f4222200",
          "blockHash": "0x0000000000000000000000000000000000000000000000000000000000000000",
          "blockNumber": "0x2e88df9",
          "blockTimestamp": "0x6a5b78d5",
          "transactionHash": "0x37383fc7033c74a47c5afbf2e4573a53023c6e87e07485820b83f5e7b7533de6",
          "transactionIndex": "0x40",
          "logIndex": "0x2a5",
          "removed": false
        },
        {
          "address": "0x833589fcd6edb6e08f4c7c32d4f71b54bda02913",
          "topics": [
            "0xddf252ad1be2c89b69c2b068fc378daa952ba7f163c4a11628f55a4df523b3ef",
            "0x000000000000000000000000f80c0529bd94c773844e459853cd91b9263dd525",
            "0x000000000000000000000000bbbbbbbbbb9cc5e90e3b3af64bdaf62c37eeffcb"
          ],
          "data": "0x000000000000000000000000000000000000000000000000000000000039ee48",
          "blockHash": "0x0000000000000000000000000000000000000000000000000000000000000000",
          "blockNumber": "0x2e88df9",
          "blockTimestamp": "0x6a5b78d5",
          "transactionHash": "0x37383fc7033c74a47c5afbf2e4573a53023c6e87e07485820b83f5e7b7533de6",
          "transactionIndex": "0x40",
          "logIndex": "0x2a6",
          "removed": false
        },
        {
          "address": "0xf80c0529bd94c773844e459853cd91b9263dd525",
          "topics": [
            "0x15c027cc4fd826d986cad358803439f7326d3aa4ed969ff90dbee4bc150f68e9"
          ],
          "data": "0x0000000000000000000000000000000000000000000000000000000020d7277c",
          "blockHash": "0x0000000000000000000000000000000000000000000000000000000000000000",
          "blockNumber": "0x2e88df9",
          "blockTimestamp": "0x6a5b78d5",
          "transactionHash": "0x37383fc7033c74a47c5afbf2e4573a53023c6e87e07485820b83f5e7b7533de6",
          "transactionIndex": "0x40",
          "logIndex": "0x2a7",
          "removed": false
        }
      ],
      "logsBloom": "0x000000000000000000000000000000800000000000000000020000000000000000004000000001000000000000001400000010000000000000000000208040000000004000100000000000098000000000000008000800100000000880000000008000000200000000000002000008000000000000040000000000108000000000080000000000080000001000000000000000000000000000290000000044000000000000200000000000000000000000001000040000000000000000000000200000020000000000000000000000000801000000080000000000000020204040000040010000000000002000010000000040000000000000000000000c0000",
      "transactionHash": "0x37383fc7033c74a47c5afbf2e4573a53023c6e87e07485820b83f5e7b7533de6",
      "transactionIndex": "0x40",
      "blockHash": "0x0000000000000000000000000000000000000000000000000000000000000000",
      "blockNumber": "0x2e88df9",
      "gasUsed": "0x48117",
      "effectiveGasPrice": "0x57bcf0",
      "blobGasUsed": "0x39d0",
      "from": "0x6708e21113922ed588bbccaa5ef756becbb2a7d1",
      "to": "0xf80c0529bd94c773844e459853cd91b9263dd525",
      "contractAddress": null,
      "l1GasPrice": "0x42f69be",
      "l1GasUsed": "0x640",
      "l1Fee": "0x258a3237",
      "l1BaseFeeScalar": "0x8dd",
      "l1BlobBaseFee": "0x362f19",
      "l1BlobBaseFeeScalar": "0x101c12",
      "daFootprintGasScalar": "0x94"
    }
  ],
  "libraries": [],
  "pending": [],
  "returns": {},
  "timestamp": 1784379604994,
  "chain": 8453,
  "commit": "ffd000d"
}