{
  "transactions": [
    {
      "hash": "0xaf3d093b81a910252e29ff223225f1101332b73ac6deeb3ec66643402908ab0d",
      "transactionType": "CALL",
      "contractName": null,
      "contractAddress": "0xbbbbbbbbbb9cc5e90e3b3af64bdaf62c37eeffcb",
      "function": "withdrawCollateral((address,address,address,address,uint256),uint256,address,address)",
      "arguments": [
        "(0x833589fCD6eDb6E08f4c7C32D4f71b54bdA02913, 0x7a305D07B537359cf468eAea9bb176E5308bC337, 0x284EC3A9674e6C62ea552Bf75BDeE9B799627D2e, 0x46415998764C29aB2a25CbeA6254146D50D22687, 770000000000000000)",
        "999900000000000389610389",
        "0x6708e21113922ED588bBCcAA5ef756BEcBb2a7d1",
        "0x6708e21113922ED588bBCcAA5ef756BEcBb2a7d1"
      ],
      "transaction": {
        "from": "0x6708e21113922ed588bbccaa5ef756becbb2a7d1",
        "to": "0xbbbbbbbbbb9cc5e90e3b3af64bdaf62c37eeffcb",
        "gas": "0x1ec85",
        "value": "0x0",
        "input": "0x8720316d000000000000000000000000833589fcd6edb6e08f4c7c32d4f71b54bda029130000000000000000000000007a305d07b537359cf468eaea9bb176e5308bc337000000000000000000000000284ec3a9674e6c62ea552bf75bdee9b799627d2e00000000000000000000000046415998764c29ab2a25cbea6254146d50d226870000000000000000000000000000000000000000000000000aaf96eb9d0d000000000000000000000000000000000000000000000000d3bcb0076ec05528fb950000000000000000000000006708e21113922ed588bbccaa5ef756becbb2a7d10000000000000000000000006708e21113922ed588bbccaa5ef756becbb2a7d1",
        "nonce": "0x313",
        "chainId": "0x2105"
      },
      "additionalContracts": [],
      "isFixedGasLimit": false
    }
  ],
  "receipts": [
    {
      "type": "0x2",
      "status": "0x1",
      "cumulativeGasUsed": "0xfae0d6",
      "logs": [
        {
          "address": "0x46415998764c29ab2a25cbea6254146d50d22687",
          "topics": [
            "0x7120161a7b3d31251e01294ab351ef15a41b91659a36032e4641bb89b121e321",
            "0x40ac09f34c5bc0b0b6d9b5f1ec1b97a6a149ff6278104797c9cb740453a2b794"
          ],
          "data": "0x0000000000000000000000000000000000000000000000000000000119e0b6ce000000000000000000000000000000000000000000000000000000004845a3ce",
          "blockHash": "0x0643a8f76b09371552a63e5b18f9604b8ba5fb5cca027e92af049949a4fe4e4f",
          "blockNumber": "0x2ea586f",
          "blockTimestamp": "0x6a5f0dc1",
          "transactionHash": "0xaf3d093b81a910252e29ff223225f1101332b73ac6deeb3ec66643402908ab0d",
          "transactionIndex": "0x44",
          "logIndex": "0xd7",
          "removed": false
        },
        {
          "address": "0xbbbbbbbbbb9cc5e90e3b3af64bdaf62c37eeffcb",
          "topics": [
            "0x9d9bd501d0657d7dfe415f779a620a62b78bc508ddc0891fbbd8b7ac0f8fce87",
            "0x40ac09f34c5bc0b0b6d9b5f1ec1b97a6a149ff6278104797c9cb740453a2b794"
          ],
          "data": "0x0000000000000000000000000000000000000000000000000000000119e0b6ce00000000000000000000000000000000000000000000000000000000000000350000000000000000000000000000000000000000000000000000000000000000",
          "blockHash": "0x0643a8f76b09371552a63e5b18f9604b8ba5fb5cca027e92af049949a4fe4e4f",
          "blockNumber": "0x2ea586f",
          "blockTimestamp": "0x6a5f0dc1",
          "transactionHash": "0xaf3d093b81a910252e29ff223225f1101332b73ac6deeb3ec66643402908ab0d",
          "transactionIndex": "0x44",
          "logIndex": "0xd8",
          "removed": false
        },
        {
          "address": "0xbbbbbbbbbb9cc5e90e3b3af64bdaf62c37eeffcb",
          "topics": [
            "0xe80ebd7cc9223d7382aab2e0d1d6155c65651f83d53c8b9b06901d167e321142",
            "0x40ac09f34c5bc0b0b6d9b5f1ec1b97a6a149ff6278104797c9cb740453a2b794",
            "0x0000000000000000000000006708e21113922ed588bbccaa5ef756becbb2a7d1",
            "0x0000000000000000000000006708e21113922ed588bbccaa5ef756becbb2a7d1"
          ],
          "data": "0x0000000000000000000000006708e21113922ed588bbccaa5ef756becbb2a7d100000000000000000000000000000000000000000000d3bcb0076ec05528fb95",
          "blockHash": "0x0643a8f76b09371552a63e5b18f9604b8ba5fb5cca027e92af049949a4fe4e4f",
          "blockNumber": "0x2ea586f",
          "blockTimestamp": "0x6a5f0dc1",
          "transactionHash": "0xaf3d093b81a910252e29ff223225f1101332b73ac6deeb3ec66643402908ab0d",
          "transactionIndex": "0x44",
          "logIndex": "0xd9",
          "removed": false
        },
        {
          "address": "0x7a305d07b537359cf468eaea9bb176e5308bc337",
          "topics": [
            "0xddf252ad1be2c89b69c2b068fc378daa952ba7f163c4a11628f55a4df523b3ef",
            "0x000000000000000000000000bbbbbbbbbb9cc5e90e3b3af64bdaf62c37eeffcb",
            "0x0000000000000000000000006708e21113922ed588bbccaa5ef756becbb2a7d1"
          ],
          "data": "0x00000000000000000000000000000000000000000000d3bcb0076ec05528fb95",
          "blockHash": "0x0643a8f76b09371552a63e5b18f9604b8ba5fb5cca027e92af049949a4fe4e4f",
          "blockNumber": "0x2ea586f",
          "blockTimestamp": "0x6a5f0dc1",
          "transactionHash": "0xaf3d093b81a910252e29ff223225f1101332b73ac6deeb3ec66643402908ab0d",
          "transactionIndex": "0x44",
          "logIndex": "0xda",
          "removed": false
        }
      ],
      "logsBloom": "0x00000000000000000000000000000081000000021000000000000000000000000000400000000100000000000000000000000000000000000000000020804000000000000010000000000008000000000000000040000000000000080000000000000000000000000000000001000000000000000000000000400010000000000000000000000008000000100000000000000000000000000008000000804004000000000000000000000000000000000000000000000000000000000000000020000002000000000000000000000000000100000000000000000000002000000000000001000000000000200001000000000000000400000000000000000000",
      "transactionHash": "0xaf3d093b81a910252e29ff223225f1101332b73ac6deeb3ec66643402908ab0d",
      "transactionIndex": "0x44",
      "blockHash": "0x0643a8f76b09371552a63e5b18f9604b8ba5fb5cca027e92af049949a4fe4e4f",
      "blockNumber": "0x2ea586f",
      "gasUsed": "0x16494",
      "effectiveGasPrice": "0x53ec60",
      "blobGasUsed": "0x7150",
      "from": "0x6708e21113922ed588bbccaa5ef756becbb2a7d1",
      "to": "0xbbbbbbbbbb9cc5e90e3b3af64bdaf62c37eeffcb",
      "contractAddress": null,
      "l1GasPrice": "0x4a5cbc6",
      "l1GasUsed": "0xc4a",
      "l1Fee": "0x593139c6",
      "l1BaseFeeScalar": "0x8dd",
      "l1BlobBaseFee": "0x451042",
      "l1BlobBaseFeeScalar": "0x101c12",
      "daFootprintGasScalar": "0x94"
    }
  ],
  "libraries": [],
  "pending": [],
  "returns": {},
  "timestamp": 1784614337324,
  "chain": 8453,
  "commit": "14b6dbf"
}