{
  "transactions": [
    {
      "hash": "0x02f0cb83fa07cce16f855f976884821c500ae6fd770e180248796c87d017f9f8",
      "transactionType": "CREATE",
      "contractName": "CrownRssLbp",
      "contractAddress": "0x00ccc9c70a403f128335df18320e0bca8905b181",
      "function": null,
      "arguments": [
        "0x7a305D07B537359cf468eAea9bb176E5308bC337",
        "0x833589fCD6eDb6E08f4c7C32D4f71b54bdA02913",
        "0x5Adcea5319eA9Eac1241B95Ca53690574cFa2357",
        "0x6708e21113922ED588bBCcAA5ef756BEcBb2a7d1"
      ],
      "transaction": {
        "from": "0x6708e21113922ed588bbccaa5ef756becbb2a7d1",
        "to": null,
        "gas": "0x1096f2",
        "value": "0x0",
        "input": "0x60e0346100f157601f610e0438819003918201601f19168301916001600160401b038311848410176100f5578084926080946040528339810103126100f15761007961004a82610109565b606061005860208501610109565b9161006560408601610109565b946001600160a01b03948593849201610109565b1660018060a01b03195f5416175f5560018055612710600555166080521660a05260c052604051610ce6908161011e8239608051818181610324015281816104470152610509015260a0518181816102b4015281816105a70152610884015260c05181818161038c015281816106ed01526107a50152f35b5f80fd5b634e487b7160e01b5f52604160045260245ffd5b51906001600160a01b03821682036100f15756fe6080604081815260049081361015610015575f80fd5b5f92833560e01c9081630fb5a6b4146108b3575080633e413bee1461086f57806359ac1a78146108525780635db2d26e146108335780635dcb03de146108165780636a146024146107f35780636a5809cc146107d45780636d0d50ed146107905780636d82145b146107715780636f7ce2e71461074d57806378e97925146107255780637a4e4ecf146106b3578063821f1c6f146106905780638da5cb5b14610668578063957aa58c1461063f578063a7915721146105ec578063b7c3c53714610476578063bcb78dc214610432578063c53c5b491461040f578063d0b7454914610220578063f2fde38b1461019c5763f5ee334814610113575f80fd5b34610198576020366003190112610198578135918215158093036101945783546001600160a01b0316330361018657805460ff60801b1916608084901b60ff60801b16179055519081527f922246a9209ee817846e2e1d10832d8332a7b13d74c9d99cb1b383b36cae881890602090a180f35b90516330cd747160e01b8152fd5b8380fd5b8280fd5b509034610198576020366003190112610198576101b76108dd565b835491906001600160a01b0390818416330361021057169283156101e75750506001600160a01b03191617815580f35b60649250519062461bcd60e51b82526020818301526024820152635a45524f60e01b6044820152fd5b84516330cd747160e01b81528390fd5b5082903461040b578060031936011261040b57823561024260018054146108f7565b600260015560ff845460801c16156103fb5780156103eb5761026261098e565b9261026b610a0d565b9064e8d4a5100083029064e8d4a50fff19848304016103d8575061029361029892869261095d565b610970565b9260243584106103c85760025484116103b8576020945061030b7f00000000000000000000000000000000000000000000000000000000000000006102df84303384610bd8565b6127106102ee6005548661095d565b04906102fa8286610950565b9180610386575b505060035461092f565b60035561031a84600254610950565b60025561034884337f0000000000000000000000000000000000000000000000000000000000000000610b0e565b82519182528385830152828201527fedba86fd2b22962d534e70ad9b0ff8730de46f636146f2bab6a72cbb1ebbcc5360603392a26001805551908152f35b6103b1917f000000000000000000000000000000000000000000000000000000000000000090610b0e565b8780610301565b8251631ed9509560e11b81528590fd5b825163cbb0251360e01b81528590fd5b634e487b7160e01b815260118752602490fd5b815163cbb0251360e01b81528490fd5b815163baf13b3f60e01b81528490fd5b5080fd5b83823461040b578160031936011261040b57602090516702c68af0bb1400008152f35b83823461040b578160031936011261040b57517f00000000000000000000000000000000000000000000000000000000000000006001600160a01b03168152602090f35b509034610198576060366003190112610198578035916024356044359267ffffffffffffffff808516948581036105e85787546001600160a01b03163303610210576104c560018054146108f7565b6002600155861580156105e0575b6105d05791606095939187959361052d7fb04da588109787f2e1bce4cc15cc0e414cae26034cea4902695311f75568bf879930337f0000000000000000000000000000000000000000000000000000000000000000610bd8565b8361059f575b61053f8760025461092f565b60025561054e8460035461092f565b6003556fffffffffffffffff00000000000000008354600160801b9342169070ffffffffffffffffffffffffffffffffff19161791861b161717905581519384526020840152820152a16001805580f35b6105cb8430337f0000000000000000000000000000000000000000000000000000000000000000610bd8565b610533565b845163cbb0251360e01b81528390fd5b5085156104d3565b8780fd5b509034610198576020366003190112610198578254813592906001600160a01b0316330361063257612710831161062557505060055580f35b5163cbb0251360e01b8152fd5b516330cd747160e01b8152fd5b5082346106655780600319360112610665575060ff6020925460801c1690519015158152f35b80fd5b83823461040b578160031936011261040b57905490516001600160a01b039091168152602090f35b83823461040b578160031936011261040b5760209051670b1a2bc2ec5000008152f35b5082903461040b578060031936011261040b576106ce6108dd565b82546001600160a01b03929083163303610716575061071391602435917f00000000000000000000000000000000000000000000000000000000000000009116610b0e565b80f35b516330cd747160e01b81528490fd5b5082346106655780600319360112610665575067ffffffffffffffff60209254169051908152f35b83823461040b578160031936011261040b5760209061076a610a2b565b9051908152f35b83823461040b578160031936011261040b576020906005549051908152f35b83823461040b578160031936011261040b57517f00000000000000000000000000000000000000000000000000000000000000006001600160a01b03168152602090f35b83823461040b578160031936011261040b576020906003549051908152f35b83823461040b578160031936011261040b5760209051670de0b6b3a76400008152f35b83823461040b578160031936011261040b5760209061076a61098e565b83823461040b578160031936011261040b576020906002549051908152f35b83823461040b578160031936011261040b5760209061076a610a0d565b83823461040b578160031936011261040b57517f00000000000000000000000000000000000000000000000000000000000000006001600160a01b03168152602090f35b90508284346106655780600319360112610665575060209267ffffffffffffffff9154901c168152f35b600435906001600160a01b03821682036108f357565b5f80fd5b156108fe57565b60405162461bcd60e51b815260206004820152600960248201526814915153951490539560ba1b6044820152606490fd5b9190820180921161093c57565b634e487b7160e01b5f52601160045260245ffd5b9190820391821161093c57565b8181029291811591840414171561093c57565b811561097a570490565b634e487b7160e01b5f52601260045260245ffd5b60045467ffffffffffffffff808216804211156109fe576109af9042610950565b9160401c16808210156109f057670853a0d2313c0000918083029283040361093c576109da91610970565b670b1a2bc2ec50000090810390811161093c5790565b50506702c68af0bb14000090565b505050670b1a2bc2ec50000090565b610a1561098e565b670de0b6b3a764000090810390811161093c5790565b60025480158015610a8e575b610a8957610a4361098e565b90610a58610a4f610a0d565b9260035461095d565b90670de0b6b3a76400009182810292818404149015171561093c57610a8692610a809161095d565b90610970565b90565b505f90565b5060035415610a37565b3d15610af15767ffffffffffffffff903d828111610add5760405192601f8201601f19908116603f0116840190811184821017610add5760405282523d5f602084013e565b634e487b7160e01b5f52604160045260245ffd5b606090565b908160209103126108f3575180151581036108f35790565b60405163a9059cbb60e01b602082019081526001600160a01b03938416602483015260448083019590955293815291926080830167ffffffffffffffff811184821017610add575f94859485926040525193165af1610b6b610a98565b81610ba9575b5015610b7957565b60405162461bcd60e51b81526020600482015260086024820152672a2920a729a322a960c11b6044820152606490fd5b8051801592508215610bbe575b50505f610b71565b610bd19250602080918301019101610af6565b5f80610bb6565b6040516323b872dd60e01b602082019081526001600160a01b039384166024830152938316604482015260648082019590955293845290929160a0830167ffffffffffffffff811184821017610add575f94859485926040525193165af1610c3e610a98565b81610c81575b5015610c4c57565b60405162461bcd60e51b815260206004820152600d60248201526c5452414e534645525f46524f4d60981b6044820152606490fd5b8051801592508215610c96575b50505f610c44565b610ca99250602080918301019101610af6565b5f80610c8e56fea26469706673582212200a889160b13e0062a8dc041c03d1291264b2533a52c394b03ead62e48541a1b164736f6c634300081400330000000000000000000000007a305d07b537359cf468eaea9bb176e5308bc337000000000000000000000000833589fcd6edb6e08f4c7c32d4f71b54bda029130000000000000000000000005adcea5319ea9eac1241b95ca53690574cfa23570000000000000000000000006708e21113922ed588bbccaa5ef756becbb2a7d1",
        "nonce": "0x382",
        "chainId": "0x2105"
      },
      "additionalContracts": [],
      "isFixedGasLimit": false
    },
    {
      "hash": "0xe201b5ad7cad1633ae1353f599e1bbee41a2c2fe9e1f6758ff7b25194c70969a",
      "transactionType": "CREATE",
      "contractName": "CrownPcvController",
      "contractAddress": "0x3ec948137c176c85a55ea9966edbe5b0ea6eb6c9",
      "function": null,
      "arguments": [
        "0x7a305D07B537359cf468eAea9bb176E5308bC337",
        "0x833589fCD6eDb6E08f4c7C32D4f71b54bdA02913",
        "0xAf9570a3Fe67988AE1c7d4dA0cD5c54CFE147205",
        "0xBBBBBbbBBb9cC5e90e3b3Af64bdAF62C37EEFFCb",
        "0x5Adcea5319eA9Eac1241B95Ca53690574cFa2357",
        "0x6708e21113922ED588bBCcAA5ef756BEcBb2a7d1",
        "0x284EC3A9674e6C62ea552Bf75BDeE9B799627D2e",
        "0x46415998764C29aB2a25CbeA6254146D50D22687",
        "0x6708e21113922ED588bBCcAA5ef756BEcBb2a7d1"
      ],
      "transaction": {
        "from": "0x6708e21113922ed588bbccaa5ef756becbb2a7d1",
        "to": null,
        "gas": "0x16a301",
        "value": "0x0",
        "input": "0x61018034620001ce576200145b38819003601f8101601f191683016001600160401b03811184821017620001d25783928291604052833961012091829181010312620001ce576200005082620001e6565b6200005e60208401620001e6565b906200006d60408501620001e6565b916200007c60608601620001e6565b906200008b60808701620001e6565b906200009a60a08801620001e6565b92620000a960c08901620001e6565b94620000b860e08a01620001e6565b96600160a01b600190038094818094816101009e8f01620000d990620001e6565b5f80546001600160a01b03191692909116919091179055600180556005805460ff60a81b1916600160a81b179055166080521660a0521660c0521660e0528552835261014090815261016091825260405161125f9490939085620001fc8639608051858181610304015281816104a0015281816104fd0152818161076001526108c4015260a0518581816103f3015281816109060152610d18015260c051858181610c170152610fe3015260e0518581816101d9015261099b015251848181610b2a0152610c5b0152518381816102210152610fb101525182818161080b01526109380152518181816109620152610d5c0152f35b5f80fd5b634e487b7160e01b5f52604160045260245ffd5b51906001600160a01b0382168203620001ce5756fe60806040818152600480361015610014575f80fd5b5f92833560e01c908163092f7de714610e7c575080630e5f0a5c14610e57578063110c18ab14610e3057806316c38b3c14610daa5780631bad410714610d8b57806328e8fe7d14610d475780633e413bee14610d0357806352da08f014610cda5780635c975abb14610cb35780635eb9bad614610c8a5780636d0d50ed14610c465780637a0ebc8814610c025780637a4e4ecf14610ae25780637bc0c8121461083a5780637dc0d1d0146107f6578063824a33ba146107175780638da5cb5b146106ef5780638fcc89d11461068c5780639c88d8d5146105a75780639e125fa114610580578063a07becc4146104cf578063bcb78dc21461048b578063bdabc52f14610250578063cc181ca81461020c578063d8fbc833146101c45763f2fde38b1461013e575f80fd5b346101c05760203660031901126101c057610157610ea1565b835491906001600160a01b039081841633036101b057169283156101875750506001600160a01b03191617815580f35b60649250519062461bcd60e51b82526020818301526024820152635a45524f60e01b6044820152fd5b84516330cd747160e01b81528390fd5b8280fd5b505034610208578160031936011261020857517f00000000000000000000000000000000000000000000000000000000000000006001600160a01b03168152602090f35b5080fd5b505034610208578160031936011261020857517f00000000000000000000000000000000000000000000000000000000000000006001600160a01b03168152602090f35b5090346101c05760603660031901126101c0578135602435916044359367ffffffffffffffff851685036104875785546001600160a01b0390811633036104785761029e6001805414610eb7565b600260015560ff60055460a01c16610469576102b8610f72565b80600254168015610459578415801561044e575b61043e5760065469152d02c7e14af68000006102e88783610eef565b1061042e5785899493926102ff8261032894610eef565b6006557f000000000000000000000000000000000000000000000000000000000000000061116a565b856103ed575b60025416803b156101c057835163b7c3c53760e01b81529182018581526020810187905267ffffffffffffffff881660408201528391839182908490829060600103925af180156103e3576103cb575b505051908152602081019190915267ffffffffffffffff9190911660408201527f383c17ca96ee606b029974321d5296226ca92e280fe7fe094910e928c949b73790606090a16001805580f35b6103d490610f10565b6103df57845f61037e565b8480fd5b83513d84823e3d90fd5b610429867f000000000000000000000000000000000000000000000000000000000000000061041e82303384611092565b83600254169061116a565b61032e565b845163273f148b60e11b81528490fd5b835163cbb0251360e01b81528390fd5b5060065485116102cc565b835163e7734e8f60e01b81528390fd5b50905163da82933960e01b8152fd5b5090516330cd747160e01b8152fd5b8580fd5b505034610208578160031936011261020857517f00000000000000000000000000000000000000000000000000000000000000006001600160a01b03168152602090f35b5090346101c057826003193601126101c05780516370a0823160e01b815230928101929092526020826024817f00000000000000000000000000000000000000000000000000000000000000006001600160a01b03165afa91821561057657839261053f575b6020838351908152f35b9091506020813d821161056e575b8161055a60209383610f38565b810103126101c0576020925051905f610535565b3d915061054d565b81513d85823e3d90fd5b50346101c057826003193601126101c0575490516001600160a01b03909116815260209150f35b5090346101c05760803660031901126101c0576105c2610ea1565b906001600160a01b039060243582811690819003610688576044359280841680940361068857606435948186168096036106885781885416330361067857918560809694927f179105829a7ded9d784bcc3aa208c2460b197bbda2ce77c6a8ee169965c9395798969416956bffffffffffffffffffffffff60a01b90878260025416176002558382600354161760035585828254161790556005541617600555815194855260208501528301526060820152a180f35b83516330cd747160e01b81528790fd5b5f80fd5b50346101c05760203660031901126101c0578035918215158093036106eb5783546001600160a01b031633036106de5750506005805460ff60a81b191660a89290921b60ff60a81b1691909117905580f35b516330cd747160e01b8152fd5b8380fd5b505034610208578160031936011261020857905490516001600160a01b039091168152602090f35b50919034610208576020366003190112610208578154833591906001600160a01b031633036107e75761074d6001805414610eb7565b600260015581156107d8576107848230337f0000000000000000000000000000000000000000000000000000000000000000611092565b6006548281018091116107c557600655519081527f63e44e596c609ef46281500aba2fcfe2b3dc0589d607cffdd9b6a4ca881edeea90602090a16001805580f35b634e487b7160e01b845260118552602484fd5b5163cbb0251360e01b81528390fd5b516330cd747160e01b81528390fd5b505034610208578160031936011261020857517f00000000000000000000000000000000000000000000000000000000000000006001600160a01b03168152602090f35b5090346101c05760203660031901126101c0578254823592906001600160a01b039081163303610478576108716001805414610eb7565b600260015560ff60055460a01c166104695761088b610f72565b83158015610ad7575b610ac85760065469152d02c7e14af68000006108b08683610eef565b10610ab857846108bf91610eef565b6006557f0000000000000000000000000000000000000000000000000000000000000000835160a0810181811067ffffffffffffffff821117610aa55790879392918652827f000000000000000000000000000000000000000000000000000000000000000016815260208101838316815286820192847f00000000000000000000000000000000000000000000000000000000000000001684526060830193857f00000000000000000000000000000000000000000000000000000000000000001685526080840190670aaf96eb9d0d000082526109c28b887f000000000000000000000000000000000000000000000000000000000000000016809561116a565b823b15610aa15761012495878092818b978e519d8e9c8d9b63238d657960e01b8d525116908b01525116602489015251166044870152511660648501525160848401528860a48401523060c484015261010060e4840152816101048401525af18015610a9757610a5f575b507f8193ba7e936bac1df237655468d3e8a24915499e3832d43c0f41b0c8a8279a0a9160209151908152a16001805580f35b9160209193610a8e7f8193ba7e936bac1df237655468d3e8a24915499e3832d43c0f41b0c8a8279a0a94610f10565b93915091610a2d565b82513d86823e3d90fd5b8780fd5b634e487b7160e01b885260418552602488fd5b835163273f148b60e11b81528390fd5b50905163cbb0251360e01b8152fd5b506006548411610894565b5090346101c057806003193601126101c057610afc610ea1565b83546001600160a01b039081163303610bf357825163a9059cbb60e01b602082019081526001600160a01b037f000000000000000000000000000000000000000000000000000000000000000016602480840191909152356044830152869384939092849190610b7981606481015b03601f198101835282610f38565b5193165af1610b86611053565b81610bc4575b5015610b96578280f35b906020606492519162461bcd60e51b835282015260086024820152672a2920a729a322a960c11b6044820152fd5b8051801592508215610bd9575b50505f610b8c565b610bec9250602080918301019101610f5a565b5f80610bd1565b5050516330cd747160e01b8152fd5b505034610208578160031936011261020857517f00000000000000000000000000000000000000000000000000000000000000006001600160a01b03168152602090f35b505034610208578160031936011261020857517f00000000000000000000000000000000000000000000000000000000000000006001600160a01b03168152602090f35b50503461020857816003193601126102085760055490516001600160a01b039091168152602090f35b50503461020857816003193601126102085760209060ff60055460a01c1690519015158152f35b50503461020857816003193601126102085760035490516001600160a01b039091168152602090f35b505034610208578160031936011261020857517f00000000000000000000000000000000000000000000000000000000000000006001600160a01b03168152602090f35b505034610208578160031936011261020857517f00000000000000000000000000000000000000000000000000000000000000006001600160a01b03168152602090f35b5050346102085781600319360112610208576020906006549051908152f35b5090346101c05760203660031901126101c0578135918215158093036106eb5783546001600160a01b03163303610e2257506005805460ff60a01b191660a084901b60ff60a01b16179055519081527f0e2fb031ee032dc02d8011dc50b816eb450cf856abd8261680dac74f72165bd290602090a180f35b90516330cd747160e01b8152fd5b50503461020857816003193601126102085760209060ff60055460a81c1690519015158152f35b5050346102085781600319360112610208576020905169152d02c7e14af68000008152f35b8490346102085781600319360112610208576002546001600160a01b03168152602090f35b600435906001600160a01b038216820361068857565b15610ebe57565b60405162461bcd60e51b815260206004820152600960248201526814915153951490539560ba1b6044820152606490fd5b91908203918211610efc57565b634e487b7160e01b5f52601160045260245ffd5b67ffffffffffffffff8111610f2457604052565b634e487b7160e01b5f52604160045260245ffd5b90601f8019910116810190811067ffffffffffffffff821117610f2457604052565b90816020910312610688575180151581036106885790565b60ff60055460a81c1680610f99575b610f8757565b604051632941b4cd60e21b8152600490fd5b5060405163194b68ef60e31b81526001600160a01b037f000000000000000000000000000000000000000000000000000000000000000081166004830152602090829060249082907f0000000000000000000000000000000000000000000000000000000000000000165afa908115611048575f9161101a575b5015610f81565b61103b915060203d8111611041575b6110338183610f38565b810190610f5a565b5f611013565b503d611029565b6040513d5f823e3d90fd5b3d1561108d573d9067ffffffffffffffff8211610f245760405191611082601f8201601f191660200184610f38565b82523d5f602084013e565b606090565b6040516323b872dd60e01b602082019081526001600160a01b039384166024830152938316604482015260648082019590955293845290929160a0830167ffffffffffffffff811184821017610f24575f94859485926040525193165af16110f8611053565b8161113b575b501561110657565b60405162461bcd60e51b815260206004820152600d60248201526c5452414e534645525f46524f4d60981b6044820152606490fd5b8051801592508215611150575b50505f6110fe565b6111639250602080918301019101610f5a565b5f80611148565b60405163095ea7b360e01b602082019081526001600160a01b03909316602482015260448101939093525f9283929083906111a88160648101610b6b565b51926001600160a01b03165af16111bd611053565b816111fa575b50156111cb57565b60405162461bcd60e51b8152602060048201526007602482015266415050524f564560c81b6044820152606490fd5b805180159250821561120f575b50505f6111c3565b6112229250602080918301019101610f5a565b5f8061120756fea26469706673582212207b2e6b6eaa5e153db1171f0d38f4bcffbbab2a4b347f807de37b91b87db7172864736f6c634300081400330000000000000000000000007a305d07b537359cf468eaea9bb176e5308bc337000000000000000000000000833589fcd6edb6e08f4c7c32d4f71b54bda02913000000000000000000000000af9570a3fe67988ae1c7d4da0cd5c54cfe147205000000000000000000000000bbbbbbbbbb9cc5e90e3b3af64bdaf62c37eeffcb0000000000000000000000005adcea5319ea9eac1241b95ca53690574cfa23570000000000000000000000006708e21113922ed588bbccaa5ef756becbb2a7d1000000000000000000000000284ec3a9674e6c62ea552bf75bdee9b799627d2e00000000000000000000000046415998764c29ab2a25cbea6254146d50d226870000000000000000000000006708e21113922ed588bbccaa5ef756becbb2a7d1",
        "nonce": "0x383",
        "chainId": "0x2105"
      },
      "additionalContracts": [],
      "isFixedGasLimit": false
    },
    {
      "hash": "0x2eb8357e0ccea4f8c666ee17c2c6dd565400728e72df3e6b5087a77b086c821e",
      "transactionType": "CALL",
      "contractName": "CrownPcvController",
      "contractAddress": "0x3ec948137c176c85a55ea9966edbe5b0ea6eb6c9",
      "function": "setRails(address,address,address,address)",
      "arguments": [
        "0x00CcC9c70a403F128335dF18320e0bCa8905B181",
        "0x683886A3911323e92A6C764c3331CAC168D0029E",
        "0xbC47996a7B34F049DF4701116BA7936F360a7242",
        "0xB96BcfFBB458581a3AF7fEd3150B7CD4b233A7b9"
      ],
      "transaction": {
        "from": "0x6708e21113922ed588bbccaa5ef756becbb2a7d1",
        "to": "0x3ec948137c176c85a55ea9966edbe5b0ea6eb6c9",
        "gas": "0x21454",
        "value": "0x0",
        "input": "0x9c88d8d500000000000000000000000000ccc9c70a403f128335df18320e0bca8905b181000000000000000000000000683886a3911323e92a6c764c3331cac168d0029e000000000000000000000000bc47996a7b34f049df4701116ba7936f360a7242000000000000000000000000b96bcffbb458581a3af7fed3150b7cd4b233a7b9",
        "nonce": "0x384",
        "chainId": "0x2105"
      },
      "additionalContracts": [],
      "isFixedGasLimit": false
    },
    {
      "hash": "0x849ae6680477cf10cf1c1bfe6d34282c447398d8dd6ba28a8f59f62e9a4fb280",
      "transactionType": "CALL",
      "contractName": "CrownRssLbp",
      "contractAddress": "0x00ccc9c70a403f128335df18320e0bca8905b181",
      "function": "transferOwnership(address)",
      "arguments": [
        "0x3EC948137c176C85a55ea9966EDBe5B0eA6Eb6C9"
      ],
      "transaction": {
        "from": "0x6708e21113922ed588bbccaa5ef756becbb2a7d1",
        "to": "0x00ccc9c70a403f128335df18320e0bca8905b181",
        "gas": "0x92cc",
        "value": "0x0",
        "input": "0xf2fde38b0000000000000000000000003ec948137c176c85a55ea9966edbe5b0ea6eb6c9",
        "nonce": "0x385",
        "chainId": "0x2105"
      },
      "additionalContracts": [],
      "isFixedGasLimit": false
    },
    {
      "hash": null,
      "transactionType": "CALL",
      "contractName": null,
      "contractAddress": "0x7a305d07b537359cf468eaea9bb176e5308bc337",
      "function": "approve(address,uint256)",
      "arguments": [
        "0x3EC948137c176C85a55ea9966EDBe5B0eA6Eb6C9",
        "200000000000000000000000"
      ],
      "transaction": {
        "from": "0x6708e21113922ed588bbccaa5ef756becbb2a7d1",
        "to": "0x7a305d07b537359cf468eaea9bb176e5308bc337",
        "gas": "0x10aeb",
        "value": "0x0",
        "input": "0x095ea7b30000000000000000000000003ec948137c176c85a55ea9966edbe5b0ea6eb6c9000000000000000000000000000000000000000000002a5a058fc295ed000000",
        "nonce": "0x386",
        "chainId": "0x2105"
      },
      "additionalContracts": [],
      "isFixedGasLimit": false
    },
    {
      "hash": null,
      "transactionType": "CALL",
      "contractName": "CrownPcvController",
      "contractAddress": "0x3ec948137c176c85a55ea9966edbe5b0ea6eb6c9",
      "function": "depositPcv(uint256)",
      "arguments": [
        "200000000000000000000000"
      ],
      "transaction": {
        "from": "0x6708e21113922ed588bbccaa5ef756becbb2a7d1",
        "to": "0x3ec948137c176c85a55ea9966edbe5b0ea6eb6c9",
        "gas": "0x1c893",
        "value": "0x0",
        "input": "0x824a33ba000000000000000000000000000000000000000000002a5a058fc295ed000000",
        "nonce": "0x387",
        "chainId": "0x2105"
      },
      "additionalContracts": [],
      "isFixedGasLimit": false
    },
    {
      "hash": null,
      "transactionType": "CALL",
      "contractName": null,
      "contractAddress": "0x833589fcd6edb6e08f4c7c32d4f71b54bda02913",
      "function": "approve(address,uint256)",
      "arguments": [
        "0x3EC948137c176C85a55ea9966EDBe5B0eA6Eb6C9",
        "1000000"
      ],
      "transaction": {
        "from": "0x6708e21113922ed588bbccaa5ef756becbb2a7d1",
        "to": "0x833589fcd6edb6e08f4c7c32d4f71b54bda02913",
        "gas": "0x12b1b",
        "value": "0x0",
        "input": "0x095ea7b30000000000000000000000003ec948137c176c85a55ea9966edbe5b0ea6eb6c900000000000000000000000000000000000000000000000000000000000f4240",
        "nonce": "0x388",
        "chainId": "0x2105"
      },
      "additionalContracts": [],
      "isFixedGasLimit": false
    },
    {
      "hash": null,
      "transactionType": "CALL",
      "contractName": "CrownPcvController",
      "contractAddress": "0x3ec948137c176c85a55ea9966edbe5b0ea6eb6c9",
      "function": "seedLbpFromPcv(uint256,uint256,uint64)",
      "arguments": [
        "50000000000000000000000",
        "1000000",
        "172800"
      ],
      "transaction": {
        "from": "0x6708e21113922ed588bbccaa5ef756becbb2a7d1",
        "to": "0x3ec948137c176c85a55ea9966edbe5b0ea6eb6c9",
        "gas": "0x508a5",
        "value": "0x0",
        "input": "0xbdabc52f000000000000000000000000000000000000000000000a968163f0a57b40000000000000000000000000000000000000000000000000000000000000000f4240000000000000000000000000000000000000000000000000000000000002a300",
        "nonce": "0x389",
        "chainId": "0x2105"
      },
      "additionalContracts": [],
      "isFixedGasLimit": false
    },
    {
      "hash": null,
      "transactionType": "CALL",
      "contractName": "CrownPcvController",
      "contractAddress": "0x3ec948137c176c85a55ea9966edbe5b0ea6eb6c9",
      "function": "postMorphoBook(uint256)",
      "arguments": [
        "50000000000000000000000"
      ],
      "transaction": {
        "from": "0x6708e21113922ed588bbccaa5ef756becbb2a7d1",
        "to": "0x3ec948137c176c85a55ea9966edbe5b0ea6eb6c9",
        "gas": "0x22ed2",
        "value": "0x0",
        "input": "0x7bc0c812000000000000000000000000000000000000000000000a968163f0a57b400000",
        "nonce": "0x38a",
        "chainId": "0x2105"
      },
      "additionalContracts": [],
      "isFixedGasLimit": false
    }
  ],
  "receipts": [],
  "libraries": [],
  "pending": [
    "0x02f0cb83fa07cce16f855f976884821c500ae6fd770e180248796c87d017f9f8",
    "0xe201b5ad7cad1633ae1353f599e1bbee41a2c2fe9e1f6758ff7b25194c70969a",
    "0x2eb8357e0ccea4f8c666ee17c2c6dd565400728e72df3e6b5087a77b086c821e",
    "0x849ae6680477cf10cf1c1bfe6d34282c447398d8dd6ba28a8f59f62e9a4fb280"
  ],
  "returns": {},
  "timestamp": 1784678782443,
  "chain": 8453,
  "commit": "0c63520"
}