{
  "transactions": [
    {
      "hash": "0x078460852044e3443dbfa1096b9cf58179dbd94ab961a810270e52fe0224f248",
      "transactionType": "CALL",
      "contractName": null,
      "contractAddress": "0xf80c0529bd94c773844e459853cd91b9263dd525",
      "function": "submitCap((address,address,address,address,uint256),uint256)",
      "arguments": [
        "(0x833589fCD6eDb6E08f4c7C32D4f71b54bdA02913, 0x532f27101965dd16442E59d40670FaF5eBB142E4, 0x3378E48fF1e6bEf07d4d7F6Bb1e87C38A58D2619, 0x46415998764C29aB2a25CbeA6254146D50D22687, 625000000000000000)",
        "2000000000000"
      ],
      "transaction": {
        "from": "0x6708e21113922ed588bbccaa5ef756becbb2a7d1",
        "to": "0xf80c0529bd94c773844e459853cd91b9263dd525",
        "gas": "0x15357",
        "value": "0x0",
        "input": "0x3b24c2bf000000000000000000000000833589fcd6edb6e08f4c7c32d4f71b54bda02913000000000000000000000000532f27101965dd16442e59d40670faf5ebb142e40000000000000000000000003378e48ff1e6bef07d4d7f6bb1e87c38a58d261900000000000000000000000046415998764c29ab2a25cbea6254146d50d2268700000000000000000000000000000000000000000000000008ac7230489e8000000000000000000000000000000000000000000000000000000001d1a94a2000",
        "nonce": "0x289",
        "chainId": "0x2105"
      },
      "additionalContracts": [],
      "isFixedGasLimit": false
    },
    {
      "hash": "0xc8b8ce38fa307e6aeb6029afeceebfa37dd6aac1fcf6d69f56be07b062f09a97",
      "transactionType": "CALL",
      "contractName": null,
      "contractAddress": "0xf80c0529bd94c773844e459853cd91b9263dd525",
      "function": "acceptCap((address,address,address,address,uint256))",
      "arguments": [
        "(0x833589fCD6eDb6E08f4c7C32D4f71b54bdA02913, 0x532f27101965dd16442E59d40670FaF5eBB142E4, 0x3378E48fF1e6bEf07d4d7F6Bb1e87C38A58D2619, 0x46415998764C29aB2a25CbeA6254146D50D22687, 625000000000000000)"
      ],
      "transaction": {
        "from": "0x6708e21113922ed588bbccaa5ef756becbb2a7d1",
        "to": "0xf80c0529bd94c773844e459853cd91b9263dd525",
        "gas": "0x23dc3",
        "value": "0x0",
        "input": "0x6fda3868000000000000000000000000833589fcd6edb6e08f4c7c32d4f71b54bda02913000000000000000000000000532f27101965dd16442e59d40670faf5ebb142e40000000000000000000000003378e48ff1e6bef07d4d7f6bb1e87c38a58d261900000000000000000000000046415998764c29ab2a25cbea6254146d50d2268700000000000000000000000000000000000000000000000008ac7230489e8000",
        "nonce": "0x28a",
        "chainId": "0x2105"
      },
      "additionalContracts": [],
      "isFixedGasLimit": false
    },
    {
      "hash": "0xdf87001b7355dd5722265edf5635f9a82f81aa6c06ca53b20da6be2c27a2842f",
      "transactionType": "CALL",
      "contractName": null,
      "contractAddress": "0xf80c0529bd94c773844e459853cd91b9263dd525",
      "function": "setSupplyQueue(bytes32[])",
      "arguments": [
        "[0x9103c3b4e834476c9a62ea009ba2c884ee42e94e6e314a26f04d312434191836, 0x8793cf302b8ffd655ab97bd1c695dbd967807e8367a65cb2f4edaf1380ba1bda, 0x40ac09f34c5bc0b0b6d9b5f1ec1b97a6a149ff6278104797c9cb740453a2b794, 0xf6f43f1660f1f4779e92a2e21086f4ab49a3fc0cae8a17992808e6a6db488c16]"
      ],
      "transaction": {
        "from": "0x6708e21113922ed588bbccaa5ef756becbb2a7d1",
        "to": "0xf80c0529bd94c773844e459853cd91b9263dd525",
        "gas": "0x18823",
        "value": "0x0",
        "input": "0x2acc56f9000000000000000000000000000000000000000000000000000000000000002000000000000000000000000000000000000000000000000000000000000000049103c3b4e834476c9a62ea009ba2c884ee42e94e6e314a26f04d3124341918368793cf302b8ffd655ab97bd1c695dbd967807e8367a65cb2f4edaf1380ba1bda40ac09f34c5bc0b0b6d9b5f1ec1b97a6a149ff6278104797c9cb740453a2b794f6f43f1660f1f4779e92a2e21086f4ab49a3fc0cae8a17992808e6a6db488c16",
        "nonce": "0x28b",
        "chainId": "0x2105"
      },
      "additionalContracts": [],
      "isFixedGasLimit": false
    },
    {
      "hash": "0xcf5b0e0051fa0721bd5a2477ee7e0cdc9c492c7584a1aa38c416e5685de35adb",
      "transactionType": "CALL",
      "contractName": null,
      "contractAddress": "0xa090dd1a701408df1d4d0b85b716c87565f90467",
      "function": "setFlowCaps(address,(bytes32,(uint128,uint128))[])",
      "arguments": [
        "0xF80C0529bD94C773844E459853CD91B9263dD525",
        "[(0xf6f43f1660f1f4779e92a2e21086f4ab49a3fc0cae8a17992808e6a6db488c16, (700000000000, 700000000000))]"
      ],
      "transaction": {
        "from": "0x6708e21113922ed588bbccaa5ef756becbb2a7d1",
        "to": "0xa090dd1a701408df1d4d0b85b716c87565f90467",
        "gas": "0x13cf0",
        "value": "0x0",
        "input": "0xf4618046000000000000000000000000f80c0529bd94c773844e459853cd91b9263dd52500000000000000000000000000000000000000000000000000000000000000400000000000000000000000000000000000000000000000000000000000000001f6f43f1660f1f4779e92a2e21086f4ab49a3fc0cae8a17992808e6a6db488c16000000000000000000000000000000000000000000000000000000a2fb405800000000000000000000000000000000000000000000000000000000a2fb405800",
        "nonce": "0x28c",
        "chainId": "0x2105"
      },
      "additionalContracts": [],
      "isFixedGasLimit": false
    }
  ],
  "receipts": [
    {
      "type": "0x2",
      "status": "0x1",
      "cumulativeGasUsed": "0xc74f4b",
      "logs": [
        {
          "address": "0xf80c0529bd94c773844e459853cd91b9263dd525",
          "topics": [
            "0xe851bb5856808a50efd748be463b8f35bcfb5ec74c5bfde776fe0a4d2a26db27",
            "0x0000000000000000000000006708e21113922ed588bbccaa5ef756becbb2a7d1",
            "0xf6f43f1660f1f4779e92a2e21086f4ab49a3fc0cae8a17992808e6a6db488c16"
          ],
          "data": "0x000000000000000000000000000000000000000000000000000001d1a94a2000",
          "blockHash": "0x80b6d13bcafe70ec07b4e472f7cee7ff32066ad47a66c1627ce23033f02be947",
          "blockNumber": "0x2e88279",
          "blockTimestamp": "0x6a5b61d5",
          "transactionHash": "0x078460852044e3443dbfa1096b9cf58179dbd94ab961a810270e52fe0224f248",
          "transactionIndex": "0x62",
          "logIndex": "0x12e",
          "removed": false
        }
      ],
      "logsBloom": "0x00000000000000000000000000000000000000000000000000000000000000000000000000000000000000000000000000001000000000000020000000000000000000000000000000000001000000000000000000000002000000008000000000000000000000000000000200000000000000000000000000000000800000000000000000000000000000100000008000000000000000000001000000004000000000000000000000000000000000000000000000000000000000000000000000000000000000000000000000000000000000000000000000000000002000000000000000000000000000000000000000000000000000000000000000000000",
      "transactionHash": "0x078460852044e3443dbfa1096b9cf58179dbd94ab961a810270e52fe0224f248",
      "transactionIndex": "0x62",
      "blockHash": "0x80b6d13bcafe70ec07b4e472f7cee7ff32066ad47a66c1627ce23033f02be947",
      "blockNumber": "0x2e88279",
      "gasUsed": "0xf5ae",
      "effectiveGasPrice": "0x4c7250",
      "blobGasUsed": "0x5ed0",
      "from": "0x6708e21113922ed588bbccaa5ef756becbb2a7d1",
      "to": "0xf80c0529bd94c773844e459853cd91b9263dd525",
      "contractAddress": null,
      "l1GasPrice": "0x5bc9c63",
      "l1GasUsed": "0xa4d",
      "l1Fee": "0x5b9c1ca9",
      "l1BaseFeeScalar": "0x8dd",
      "l1BlobBaseFee": "0x543c50",
      "l1BlobBaseFeeScalar": "0x101c12",
      "daFootprintGasScalar": "0x94"
    },
    {
      "type": "0x2",
      "status": "0x1",
      "cumulativeGasUsed": "0xf95a95",
      "logs": [
        {
          "address": "0xf80c0529bd94c773844e459853cd91b9263dd525",
          "topics": [
            "0x15c027cc4fd826d986cad358803439f7326d3aa4ed969ff90dbee4bc150f68e9"
          ],
          "data": "0x0000000000000000000000000000000000000000000000000000000020878da6",
          "blockHash": "0x2f5928125b82d2bf89ec4adddb4ad1206c8be5f13a4b1b56c474bcd2d2d2b3b2",
          "blockNumber": "0x2e8827a",
          "blockTimestamp": "0x6a5b61d7",
          "transactionHash": "0xc8b8ce38fa307e6aeb6029afeceebfa37dd6aac1fcf6d69f56be07b062f09a97",
          "transactionIndex": "0x69",
          "logIndex": "0x15a",
          "removed": false
        },
        {
          "address": "0xf80c0529bd94c773844e459853cd91b9263dd525",
          "topics": [
            "0xe0c2db6b54586be6d7d49943139fccf0dd315ba63e55364a76c73cd8fdba724d",
            "0x0000000000000000000000006708e21113922ed588bbccaa5ef756becbb2a7d1"
          ],
          "data": "0x0000000000000000000000000000000000000000000000000000000000000020000000000000000000000000000000000000000000000000000000000000000440ac09f34c5bc0b0b6d9b5f1ec1b97a6a149ff6278104797c9cb740453a2b7949103c3b4e834476c9a62ea009ba2c884ee42e94e6e314a26f04d3124341918368793cf302b8ffd655ab97bd1c695dbd967807e8367a65cb2f4edaf1380ba1bdaf6f43f1660f1f4779e92a2e21086f4ab49a3fc0cae8a17992808e6a6db488c16",
          "blockHash": "0x2f5928125b82d2bf89ec4adddb4ad1206c8be5f13a4b1b56c474bcd2d2d2b3b2",
          "blockNumber": "0x2e8827a",
          "blockTimestamp": "0x6a5b61d7",
          "transactionHash": "0xc8b8ce38fa307e6aeb6029afeceebfa37dd6aac1fcf6d69f56be07b062f09a97",
          "transactionIndex": "0x69",
          "logIndex": "0x15b",
          "removed": false
        },
        {
          "address": "0xf80c0529bd94c773844e459853cd91b9263dd525",
          "topics": [
            "0xe86b6d3313d3098f4c5f689c935de8fde876a597c185def2cedab85efedac686",
            "0x0000000000000000000000006708e21113922ed588bbccaa5ef756becbb2a7d1",
            "0xf6f43f1660f1f4779e92a2e21086f4ab49a3fc0cae8a17992808e6a6db488c16"
          ],
          "data": "0x000000000000000000000000000000000000000000000000000001d1a94a2000",
          "blockHash": "0x2f5928125b82d2bf89ec4adddb4ad1206c8be5f13a4b1b56c474bcd2d2d2b3b2",
          "blockNumber": "0x2e8827a",
          "blockTimestamp": "0x6a5b61d7",
          "transactionHash": "0xc8b8ce38fa307e6aeb6029afeceebfa37dd6aac1fcf6d69f56be07b062f09a97",
          "transactionIndex": "0x69",
          "logIndex": "0x15c",
          "removed": false
        }
      ],
      "logsBloom": "0x00000000000000000000000000000000000000000000000000000000000000000000080000000000000000000000000000001000000000000000000000000000000000000000000000000001000000000000000000000000000000008000000000000000000000000000000200000000004000000000000000001000800000000000000000008000000000100000000000000000000000000021000000004000000000000000000000000000000000000000100004000000000000000000000000000000000000000000000000000000000000000000000000000000002000000000000000000000000000000000040000000000000000000000000000010000",
      "transactionHash": "0xc8b8ce38fa307e6aeb6029afeceebfa37dd6aac1fcf6d69f56be07b062f09a97",
      "transactionIndex": "0x69",
      "blockHash": "0x2f5928125b82d2bf89ec4adddb4ad1206c8be5f13a4b1b56c474bcd2d2d2b3b2",
      "blockNumber": "0x2e8827a",
      "gasUsed": "0x19f65",
      "effectiveGasPrice": "0x4c7250",
      "blobGasUsed": "0x599c",
      "from": "0x6708e21113922ed588bbccaa5ef756becbb2a7d1",
      "to": "0xf80c0529bd94c773844e459853cd91b9263dd525",
      "contractAddress": null,
      "l1GasPrice": "0x5bc9c63",
      "l1GasUsed": "0x9ba",
      "l1Fee": "0x567f34be",
      "l1BaseFeeScalar": "0x8dd",
      "l1BlobBaseFee": "0x543c50",
      "l1BlobBaseFeeScalar": "0x101c12",
      "daFootprintGasScalar": "0x94"
    },
    {
      "type": "0x2",
      "status": "0x1",
      "cumulativeGasUsed": "0xb87434",
      "logs": [
        {
          "address": "0xf80c0529bd94c773844e459853cd91b9263dd525",
          "topics": [
            "0x6ce31538fc7fba95714ddc8a275a09252b4b1fb8f33d2550aa58a5f62ad934de",
            "0x0000000000000000000000006708e21113922ed588bbccaa5ef756becbb2a7d1"
          ],
          "data": "0x000000000000000000000000000000000000000000000000000000000000002000000000000000000000000000000000000000000000000000000000000000049103c3b4e834476c9a62ea009ba2c884ee42e94e6e314a26f04d3124341918368793cf302b8ffd655ab97bd1c695dbd967807e8367a65cb2f4edaf1380ba1bda40ac09f34c5bc0b0b6d9b5f1ec1b97a6a149ff6278104797c9cb740453a2b794f6f43f1660f1f4779e92a2e21086f4ab49a3fc0cae8a17992808e6a6db488c16",
          "blockHash": "0x0d541ab16a344352a3b91c49f864d0f15280cfb520edb91145604f82eda1b679",
          "blockNumber": "0x2e8827b",
          "blockTimestamp": "0x6a5b61d9",
          "transactionHash": "0xdf87001b7355dd5722265edf5635f9a82f81aa6c06ca53b20da6be2c27a2842f",
          "transactionIndex": "0x51",
          "logIndex": "0x110",
          "removed": false
        }
      ],
      "logsBloom": "0x00000000000000000000000000000000000000000000000000000000000000000000000000000000000000000000000000001000000000000000000000000000000000000000000000000000000000000000000000000000000000000040000000000000000000000000000200000000000000000000000000000000800000000000000000000000000000100000000000000000000000000000000000004000000000000000000000000000000000000000000000000000080000000000000000000000000000000000000000000000000000000000000000000000002000000000000000000000000000000000000000000000000000000000020000000000",
      "transactionHash": "0xdf87001b7355dd5722265edf5635f9a82f81aa6c06ca53b20da6be2c27a2842f",
      "transactionIndex": "0x51",
      "blockHash": "0x0d541ab16a344352a3b91c49f864d0f15280cfb520edb91145604f82eda1b679",
      "blockNumber": "0x2e8827b",
      "gasUsed": "0x11be7",
      "effectiveGasPrice": "0x4c7250",
      "blobGasUsed": "0x677c",
      "from": "0x6708e21113922ed588bbccaa5ef756becbb2a7d1",
      "to": "0xf80c0529bd94c773844e459853cd91b9263dd525",
      "contractAddress": null,
      "l1GasPrice": "0x5bc9c63",
      "l1GasUsed": "0xb31",
      "l1Fee": "0x6382f771",
      "l1BaseFeeScalar": "0x8dd",
      "l1BlobBaseFee": "0x543c50",
      "l1BlobBaseFeeScalar": "0x101c12",
      "daFootprintGasScalar": "0x94"
    },
    {
      "type": "0x2",
      "status": "0x1",
      "cumulativeGasUsed": "0x124a666",
      "logs": [
        {
          "address": "0xa090dd1a701408df1d4d0b85b716c87565f90467",
          "topics": [
            "0x709e1cb4b0ac458eb1c1a9c708e841ee963b229247afbf1437bd39e01ae4aa14",
            "0x0000000000000000000000006708e21113922ed588bbccaa5ef756becbb2a7d1",
            "0x000000000000000000000000f80c0529bd94c773844e459853cd91b9263dd525"
          ],
          "data": "0x00000000000000000000000000000000000000000000000000000000000000200000000000000000000000000000000000000000000000000000000000000001f6f43f1660f1f4779e92a2e21086f4ab49a3fc0cae8a17992808e6a6db488c16000000000000000000000000000000000000000000000000000000a2fb405800000000000000000000000000000000000000000000000000000000a2fb405800",
          "blockHash": "0xee96a789d69102588fc4ec8e4ab4195b139de4efaa4612963028fce5c605df3f",
          "blockNumber": "0x2e8827c",
          "blockTimestamp": "0x6a5b61db",
          "transactionHash": "0xcf5b0e0051fa0721bd5a2477ee7e0cdc9c492c7584a1aa38c416e5685de35adb",
          "transactionIndex": "0x6f",
          "logIndex": "0x136",
          "removed": false
        }
      ],
      "logsBloom": "0x00000000000000000000000000000000000000000000000000000000000000000000000000000000000000000000000000000000800000000040000000000000000000000000000000000000000000040000000000000010400000000000000000000000000000400000000000000000000000000000000000000000000000000000000000000000000000100000000000000000000000000000000000004000000000000000000000000000000000000000000000000000000000000000000000000000000000000000000000000000000000000000000000000000002000000000000000000000000000000000000000004000000000000000000000040000",
      "transactionHash": "0xcf5b0e0051fa0721bd5a2477ee7e0cdc9c492c7584a1aa38c416e5685de35adb",
      "transactionIndex": "0x6f",
      "blockHash": "0xee96a789d69102588fc4ec8e4ab4195b139de4efaa4612963028fce5c605df3f",
      "blockNumber": "0x2e8827c",
      "gasUsed": "0xe576",
      "effectiveGasPrice": "0x4c7250",
      "blobGasUsed": "0x4f34",
      "from": "0x6708e21113922ed588bbccaa5ef756becbb2a7d1",
      "to": "0xa090dd1a701408df1d4d0b85b716c87565f90467",
      "contractAddress": null,
      "l1GasPrice": "0x5bc9c63",
      "l1GasUsed": "0x894",
      "l1Fee": "0x4c4564e8",
      "l1BaseFeeScalar": "0x8dd",
      "l1BlobBaseFee": "0x543c50",
      "l1BlobBaseFeeScalar": "0x101c12",
      "daFootprintGasScalar": "0x94"
    }
  ],
  "libraries": [],
  "pending": [],
  "returns": {},
  "timestamp": 1784373723606,
  "chain": 8453,
  "commit": "91c7594"
}