{
  "transactions": [
    {
      "hash": "0x7f03e8360af53ff49c3d30062d7bee99c7bc02ebc4fd9510d1ea89bde14bf536",
      "transactionType": "CREATE",
      "contractName": "MorphoFixedRssLoanOracle",
      "contractAddress": "0x3bb87b8ef3df289c82540f89de3e4f7762ed4a98",
      "function": null,
      "arguments": [
        "0xd0b53D9277642d899DF5C87A3966A349A798F224",
        "0x4200000000000000000000000000000000000006",
        "0x833589fCD6eDb6E08f4c7C32D4f71b54bdA02913",
        "1800",
        "18"
      ],
      "transaction": {
        "from": "0x6708e21113922ed588bbccaa5ef756becbb2a7d1",
        "to": null,
        "gas": "0xe5561",
        "value": "0x0",
        "input": "0x610140604090808252346200027a5760a08162000eab80380380916200002682856200027e565b8339810103126200027a576200003c81620002b6565b916020926200004d848401620002b6565b6200005a838501620002b6565b9060608501519263ffffffff8416958685036200027a57608001519560ff871687036200027a57156200024e5760018060a01b03809116938460805260a052610100968288526101209684885260e052855194630dfe168160e01b86528186600481845afa958615620001ff575f9662000209575b50908060049288519384809263d21220a760e01b82525afa908115620001ff575f91620001c0575b505f958316938316915081841480620001b2575b156200017f5750505050505060015b60c0525190610bdf9283620002cc84396080518381816102440152610385015260a0518381816101c90152610311015260c05183818161028a0152610581015260e051838181608f0152818161012101526105590152518260cb015251816102010152f35b8216149283620001a5575b5050505f036200011a57815163f90483fd60e01b8152600490fd5b161490505f80806200018a565b50828116838616146200010b565b82813d8311620001f7575b620001d781836200027e565b81010312620001f45750620001ec90620002b6565b805f620000f7565b80fd5b503d620001cb565b87513d5f823e3d90fd5b90958282813d831162000246575b6200022381836200027e565b81010312620001f4575090806200023c600493620002b6565b96919250620000cf565b503d62000217565b845162461bcd60e51b8152600481018890526005602482015264054574150360dc1b6044820152606490fd5b5f80fd5b601f909101601f19168101906001600160401b03821190821017620002a257604052565b634e487b7160e01b5f52604160045260245ffd5b51906001600160a01b03821682036200027a5756fe608060408181526004361015610013575f80fd5b5f91823560e01c9081631035e10b146102735750806316f0115b146102305780633e413bee146101ed5780634b85f96c146101ad57806388ff382f14610190578063a035b1fe146100fa578063d285b7b4146100b75763f4bb86e214610077575f80fd5b346100b357816003193601126100b3576020905160ff7f0000000000000000000000000000000000000000000000000000000000000000168152f35b5080fd5b50346100b357816003193601126100b357517f00000000000000000000000000000000000000000000000000000000000000006001600160a01b03168152602090f35b50346100b357816003193601126100b3576101136102d1565b91821561017f5761014660ff7f0000000000000000000000000000000000000000000000000000000000000000166102af565b90620f4240918083029283040361016b575060209261016491610a55565b9051908152f35b634e487b7160e01b81526011600452602490fd5b815163fd1ee34960e01b8152600490fd5b50346100b357816003193601126100b35760209051620f42408152f35b50346100b357816003193601126100b3576020905163ffffffff7f0000000000000000000000000000000000000000000000000000000000000000168152f35b50346100b357816003193601126100b357517f00000000000000000000000000000000000000000000000000000000000000006001600160a01b03168152602090f35b50346100b357816003193601126100b357517f00000000000000000000000000000000000000000000000000000000000000006001600160a01b03168152602090f35b8390346100b357816003193601126100b3576020907f000000000000000000000000000000000000000000000000000000000000000015158152f35b604d81116102bd57600a0a90565b634e487b7160e01b5f52601160045260245ffd5b604080519067ffffffffffffffff60608301818111848210176109d6578252600283526020808401908336833761030785610a24565b9363ffffffff90817f0000000000000000000000000000000000000000000000000000000000000000168096525f948561034089610a45565b5281519663883bdbfd60e01b885260249788810160049a878c84015251809152604482019790895b8181106109c057506001600160a01b03988a9250839150819003817f00000000000000000000000000000000000000000000000000000000000000008b165afa9283156109b65788936108a5575b50506103cb6103c483610a45565b5192610a24565b5160069290830b90830b0390667fffffffffffff90667fffffffffffff19908184128385131761089357840b92840b938315610881575f19948281148587141661086f57908185879305958c82129182610861575b5050610834575b5050505060020b8681125f1461082e578087035b620d89e881116108085787919060018116156107f6576001600160881b036ffffcb933bd6fad37aa2d162d1a5940015b1694600282166107da575b8b82166107be575b600882166107a2575b60108216610786575b87821661076a575b811661074e575b608090818116610733575b6101008116610718575b61020081166106fd575b61040081166106e2575b61080081166106c7575b61100081166106ac575b6120008116610691575b6140008116610676575b618000811661065b575b620100008116610640575b620200008116610626575b62040000811661060c575b62080000166105f3575b50136105d4575b509081166105cb5760ff845b16911c011692838002938085048114901517156105bb5750505061057e60ff7f0000000000000000000000000000000000000000000000000000000000000000166102af565b907f0000000000000000000000000000000000000000000000000000000000000000156105b257906105af91610b65565b90565b6105af91610ae5565b634e487b7160e01b825260119052fd5b60ff6001610538565b81156105e157045f61052c565b634e487b7160e01b8652601288528686fd5b90936b048a170391f7dc42444e8fa202901c925f610525565b6d2216e584f5fa1ea926041bedfe98909502811c9461051b565b946e5d6af8dedb81196699c329225ee60402811c94610510565b946f09aa508b5b7a84e1c677de54f3e99bc902811c94610505565b946f31be135f97d08fd981231505542fcfa602811c946104fa565b946f70d869a156d2a1b890bb3df62baf32f702811c946104f0565b946fa9f746462d870fdf8a65dc1f90e061e502811c946104e6565b946fd097f3bdfd2022b8845ad8f792aa582502811c946104dc565b946fe7159475a2c29b7443b29c7fa6e889d902811c946104d2565b946ff3392b0822b70005940c7a398e4b70f302811c946104c8565b946ff987a7253ac413176f2b074cf7815e5402811c946104be565b946ffcbe86c7900a88aedcffc83b479aa3a402811c946104b4565b946ffe5dee046a99a2a811c461f1969c305302811c946104aa565b936fff2ea16466c96a3843ec78b326b528610260801c9361049f565b946fff973b41fa98c081472e6896dfb254c00260801c94610498565b946fffcb9843d60f6159c9db58835c9266440260801c94610490565b946fffe5caca7e10e4e61c3624eaa0941cd00260801c94610487565b946ffff2e50f5f656932ef12357cf3c7fdcc0260801c9461047e565b946ffff97272373d413259a46990580e213a0260801c94610476565b6001600160881b03600160801b61046b565b835162461bcd60e51b8152808b018790526001818b0152601560fa1b6044820152606490fd5b8061043b565b93909192930b019182139082121761084f575f808381610427565b634e487b7160e01b8752601189528787fd5b07820b151590505f80610420565b634e487b7160e01b8b5260118d528b8bfd5b634e487b7160e01b8a5260128c528a8afd5b634e487b7160e01b8a5260118c528a8afd5b909192503d8089843e6108b881846109ea565b820190848383031261099157825181811161098d5783019282601f8501121561098d578351936108e785610a0c565b946108f4885196876109ea565b808652898087019160051b830101918583116109b2578a01905b828210610995575050508781015191821161098d570181601f8201121561099157805190878061093d84610a0c565b610949895191826109ea565b848152019260051b82010192831161098d578701905b82821061097157505050905f806103b6565b8151898116810361098957815290870190870161095f565b8a80fd5b8980fd5b8880fd5b81518060060b81036109ae578152908a01908a0161090e565b8d80fd5b8c80fd5b84513d8a823e3d90fd5b825188168a529888019891880191600101610368565b634e487b7160e01b5f52604160045260245ffd5b90601f8019910116810190811067ffffffffffffffff8211176109d657604052565b67ffffffffffffffff81116109d65760051b60200190565b805115610a315760200190565b634e487b7160e01b5f52603260045260245ffd5b805160011015610a315760400190565b90670de0b6b3a7640000905f19828409928281029283808610950394808603958415610ad95714610add5784831115610ad95782910960018219018216809204600280826003021880830282030280830282030280830282030280830282030280830282030280920290030293600183805f03040190848311900302920304170290565b5f80fd5b505091500490565b600160c01b915f19828409928260c01b9283808610950394808603958415610ad95714610add5784831115610ad95782910960018219018216809204600280826003021880830282030280830282030280830282030280830282030280830282030280920290030293600183805f03040190848311900302920304170290565b5f198282099082810292838084109303928084039314610ba057600160c01b9183831115610ad9570990828211900360401b910360c01c1790565b50505060c01c9056fea264697066735822122033c4ee26af39ed1d7c0d7b755f80bf255af086070b0c5c0d311e85400ededf9764736f6c63430008140033000000000000000000000000d0b53d9277642d899df5c87a3966a349a798f2240000000000000000000000004200000000000000000000000000000000000006000000000000000000000000833589fcd6edb6e08f4c7c32d4f71b54bda0291300000000000000000000000000000000000000000000000000000000000007080000000000000000000000000000000000000000000000000000000000000012",
        "nonce": "0x390",
        "chainId": "0x2105"
      },
      "additionalContracts": [],
      "isFixedGasLimit": false
    },
    {
      "hash": "0x2d3221f0dd846d737b63a433032a80b6c57a7661c4e62aa836e9276e9c4b3f37",
      "transactionType": "CREATE",
      "contractName": "MorphoFixedRssLoanOracle",
      "contractAddress": "0x7c60830200d14f7cdd020bd1c0aa10d6f254bd0b",
      "function": null,
      "arguments": [
        "0xfBB6Eed8e7aa03B138556eeDaF5D271A5E1e43ef",
        "0xcbB7C0000aB88B473b1f5aFd9ef808440eed33Bf",
        "0x833589fCD6eDb6E08f4c7C32D4f71b54bdA02913",
        "1800",
        "8"
      ],
      "transaction": {
        "from": "0x6708e21113922ed588bbccaa5ef756becbb2a7d1",
        "to": null,
        "gas": "0xe5698",
        "value": "0x0",
        "input": "0x610140604090808252346200027a5760a08162000eab80380380916200002682856200027e565b8339810103126200027a576200003c81620002b6565b916020926200004d848401620002b6565b6200005a838501620002b6565b9060608501519263ffffffff8416958685036200027a57608001519560ff871687036200027a57156200024e5760018060a01b03809116938460805260a052610100968288526101209684885260e052855194630dfe168160e01b86528186600481845afa958615620001ff575f9662000209575b50908060049288519384809263d21220a760e01b82525afa908115620001ff575f91620001c0575b505f958316938316915081841480620001b2575b156200017f5750505050505060015b60c0525190610bdf9283620002cc84396080518381816102440152610385015260a0518381816101c90152610311015260c05183818161028a0152610581015260e051838181608f0152818161012101526105590152518260cb015251816102010152f35b8216149283620001a5575b5050505f036200011a57815163f90483fd60e01b8152600490fd5b161490505f80806200018a565b50828116838616146200010b565b82813d8311620001f7575b620001d781836200027e565b81010312620001f45750620001ec90620002b6565b805f620000f7565b80fd5b503d620001cb565b87513d5f823e3d90fd5b90958282813d831162000246575b6200022381836200027e565b81010312620001f4575090806200023c600493620002b6565b96919250620000cf565b503d62000217565b845162461bcd60e51b8152600481018890526005602482015264054574150360dc1b6044820152606490fd5b5f80fd5b601f909101601f19168101906001600160401b03821190821017620002a257604052565b634e487b7160e01b5f52604160045260245ffd5b51906001600160a01b03821682036200027a5756fe608060408181526004361015610013575f80fd5b5f91823560e01c9081631035e10b146102735750806316f0115b146102305780633e413bee146101ed5780634b85f96c146101ad57806388ff382f14610190578063a035b1fe146100fa578063d285b7b4146100b75763f4bb86e214610077575f80fd5b346100b357816003193601126100b3576020905160ff7f0000000000000000000000000000000000000000000000000000000000000000168152f35b5080fd5b50346100b357816003193601126100b357517f00000000000000000000000000000000000000000000000000000000000000006001600160a01b03168152602090f35b50346100b357816003193601126100b3576101136102d1565b91821561017f5761014660ff7f0000000000000000000000000000000000000000000000000000000000000000166102af565b90620f4240918083029283040361016b575060209261016491610a55565b9051908152f35b634e487b7160e01b81526011600452602490fd5b815163fd1ee34960e01b8152600490fd5b50346100b357816003193601126100b35760209051620f42408152f35b50346100b357816003193601126100b3576020905163ffffffff7f0000000000000000000000000000000000000000000000000000000000000000168152f35b50346100b357816003193601126100b357517f00000000000000000000000000000000000000000000000000000000000000006001600160a01b03168152602090f35b50346100b357816003193601126100b357517f00000000000000000000000000000000000000000000000000000000000000006001600160a01b03168152602090f35b8390346100b357816003193601126100b3576020907f000000000000000000000000000000000000000000000000000000000000000015158152f35b604d81116102bd57600a0a90565b634e487b7160e01b5f52601160045260245ffd5b604080519067ffffffffffffffff60608301818111848210176109d6578252600283526020808401908336833761030785610a24565b9363ffffffff90817f0000000000000000000000000000000000000000000000000000000000000000168096525f948561034089610a45565b5281519663883bdbfd60e01b885260249788810160049a878c84015251809152604482019790895b8181106109c057506001600160a01b03988a9250839150819003817f00000000000000000000000000000000000000000000000000000000000000008b165afa9283156109b65788936108a5575b50506103cb6103c483610a45565b5192610a24565b5160069290830b90830b0390667fffffffffffff90667fffffffffffff19908184128385131761089357840b92840b938315610881575f19948281148587141661086f57908185879305958c82129182610861575b5050610834575b5050505060020b8681125f1461082e578087035b620d89e881116108085787919060018116156107f6576001600160881b036ffffcb933bd6fad37aa2d162d1a5940015b1694600282166107da575b8b82166107be575b600882166107a2575b60108216610786575b87821661076a575b811661074e575b608090818116610733575b6101008116610718575b61020081166106fd575b61040081166106e2575b61080081166106c7575b61100081166106ac575b6120008116610691575b6140008116610676575b618000811661065b575b620100008116610640575b620200008116610626575b62040000811661060c575b62080000166105f3575b50136105d4575b509081166105cb5760ff845b16911c011692838002938085048114901517156105bb5750505061057e60ff7f0000000000000000000000000000000000000000000000000000000000000000166102af565b907f0000000000000000000000000000000000000000000000000000000000000000156105b257906105af91610b65565b90565b6105af91610ae5565b634e487b7160e01b825260119052fd5b60ff6001610538565b81156105e157045f61052c565b634e487b7160e01b8652601288528686fd5b90936b048a170391f7dc42444e8fa202901c925f610525565b6d2216e584f5fa1ea926041bedfe98909502811c9461051b565b946e5d6af8dedb81196699c329225ee60402811c94610510565b946f09aa508b5b7a84e1c677de54f3e99bc902811c94610505565b946f31be135f97d08fd981231505542fcfa602811c946104fa565b946f70d869a156d2a1b890bb3df62baf32f702811c946104f0565b946fa9f746462d870fdf8a65dc1f90e061e502811c946104e6565b946fd097f3bdfd2022b8845ad8f792aa582502811c946104dc565b946fe7159475a2c29b7443b29c7fa6e889d902811c946104d2565b946ff3392b0822b70005940c7a398e4b70f302811c946104c8565b946ff987a7253ac413176f2b074cf7815e5402811c946104be565b946ffcbe86c7900a88aedcffc83b479aa3a402811c946104b4565b946ffe5dee046a99a2a811c461f1969c305302811c946104aa565b936fff2ea16466c96a3843ec78b326b528610260801c9361049f565b946fff973b41fa98c081472e6896dfb254c00260801c94610498565b946fffcb9843d60f6159c9db58835c9266440260801c94610490565b946fffe5caca7e10e4e61c3624eaa0941cd00260801c94610487565b946ffff2e50f5f656932ef12357cf3c7fdcc0260801c9461047e565b946ffff97272373d413259a46990580e213a0260801c94610476565b6001600160881b03600160801b61046b565b835162461bcd60e51b8152808b018790526001818b0152601560fa1b6044820152606490fd5b8061043b565b93909192930b019182139082121761084f575f808381610427565b634e487b7160e01b8752601189528787fd5b07820b151590505f80610420565b634e487b7160e01b8b5260118d528b8bfd5b634e487b7160e01b8a5260128c528a8afd5b634e487b7160e01b8a5260118c528a8afd5b909192503d8089843e6108b881846109ea565b820190848383031261099157825181811161098d5783019282601f8501121561098d578351936108e785610a0c565b946108f4885196876109ea565b808652898087019160051b830101918583116109b2578a01905b828210610995575050508781015191821161098d570181601f8201121561099157805190878061093d84610a0c565b610949895191826109ea565b848152019260051b82010192831161098d578701905b82821061097157505050905f806103b6565b8151898116810361098957815290870190870161095f565b8a80fd5b8980fd5b8880fd5b81518060060b81036109ae578152908a01908a0161090e565b8d80fd5b8c80fd5b84513d8a823e3d90fd5b825188168a529888019891880191600101610368565b634e487b7160e01b5f52604160045260245ffd5b90601f8019910116810190811067ffffffffffffffff8211176109d657604052565b67ffffffffffffffff81116109d65760051b60200190565b805115610a315760200190565b634e487b7160e01b5f52603260045260245ffd5b805160011015610a315760400190565b90670de0b6b3a7640000905f19828409928281029283808610950394808603958415610ad95714610add5784831115610ad95782910960018219018216809204600280826003021880830282030280830282030280830282030280830282030280830282030280920290030293600183805f03040190848311900302920304170290565b5f80fd5b505091500490565b600160c01b915f19828409928260c01b9283808610950394808603958415610ad95714610add5784831115610ad95782910960018219018216809204600280826003021880830282030280830282030280830282030280830282030280830282030280920290030293600183805f03040190848311900302920304170290565b5f198282099082810292838084109303928084039314610ba057600160c01b9183831115610ad9570990828211900360401b910360c01c1790565b50505060c01c9056fea264697066735822122033c4ee26af39ed1d7c0d7b755f80bf255af086070b0c5c0d311e85400ededf9764736f6c63430008140033000000000000000000000000fbb6eed8e7aa03b138556eedaf5d271a5e1e43ef000000000000000000000000cbb7c0000ab88b473b1f5afd9ef808440eed33bf000000000000000000000000833589fcd6edb6e08f4c7c32d4f71b54bda0291300000000000000000000000000000000000000000000000000000000000007080000000000000000000000000000000000000000000000000000000000000008",
        "nonce": "0x391",
        "chainId": "0x2105"
      },
      "additionalContracts": [],
      "isFixedGasLimit": false
    },
    {
      "hash": "0xb77592c64d0e229b2dbdfd8711964d88a64f03be421a3143b17cd0428147d0b3",
      "transactionType": "CALL",
      "contractName": null,
      "contractAddress": "0xbbbbbbbbbb9cc5e90e3b3af64bdaf62c37eeffcb",
      "function": "createMarket((address,address,address,address,uint256))",
      "arguments": [
        "(0x4200000000000000000000000000000000000006, 0x7a305D07B537359cf468eAea9bb176E5308bC337, 0x3BB87B8ef3Df289C82540F89DE3e4f7762Ed4A98, 0x46415998764C29aB2a25CbeA6254146D50D22687, 770000000000000000)"
      ],
      "transaction": {
        "from": "0x6708e21113922ed588bbccaa5ef756becbb2a7d1",
        "to": "0xbbbbbbbbbb9cc5e90e3b3af64bdaf62c37eeffcb",
        "gas": "0x4290e",
        "value": "0x0",
        "input": "0x8c1358a200000000000000000000000042000000000000000000000000000000000000060000000000000000000000007a305d07b537359cf468eaea9bb176e5308bc3370000000000000000000000003bb87b8ef3df289c82540f89de3e4f7762ed4a9800000000000000000000000046415998764c29ab2a25cbea6254146d50d226870000000000000000000000000000000000000000000000000aaf96eb9d0d0000",
        "nonce": "0x392",
        "chainId": "0x2105"
      },
      "additionalContracts": [],
      "isFixedGasLimit": false
    },
    {
      "hash": "0x5009edfac4f64c44215dab51a6437a5cccc4fa2b61d5e4fc6e6be03ed32a2e67",
      "transactionType": "CALL",
      "contractName": null,
      "contractAddress": "0xbbbbbbbbbb9cc5e90e3b3af64bdaf62c37eeffcb",
      "function": "createMarket((address,address,address,address,uint256))",
      "arguments": [
        "(0xcbB7C0000aB88B473b1f5aFd9ef808440eed33Bf, 0x7a305D07B537359cf468eAea9bb176E5308bC337, 0x7c60830200D14F7cDd020bd1c0Aa10d6F254bd0b, 0x46415998764C29aB2a25CbeA6254146D50D22687, 770000000000000000)"
      ],
      "transaction": {
        "from": "0x6708e21113922ed588bbccaa5ef756becbb2a7d1",
        "to": "0xbbbbbbbbbb9cc5e90e3b3af64bdaf62c37eeffcb",
        "gas": "0x42a17",
        "value": "0x0",
        "input": "0x8c1358a2000000000000000000000000cbb7c0000ab88b473b1f5afd9ef808440eed33bf0000000000000000000000007a305d07b537359cf468eaea9bb176e5308bc3370000000000000000000000007c60830200d14f7cdd020bd1c0aa10d6f254bd0b00000000000000000000000046415998764c29ab2a25cbea6254146d50d226870000000000000000000000000000000000000000000000000aaf96eb9d0d0000",
        "nonce": "0x393",
        "chainId": "0x2105"
      },
      "additionalContracts": [],
      "isFixedGasLimit": false
    },
    {
      "hash": "0x465d2462cd43aab368024d5ab0255726b9f516e07e0e3f1d4cdc9dc919c48f96",
      "transactionType": "CREATE",
      "contractName": "CrownFatFlashSeed",
      "contractAddress": "0x4120d1db772d68d7de2d624448b36d64e1cf4577",
      "function": null,
      "arguments": [
        "0xBBBBBbbBBb9cC5e90e3b3Af64bdAF62C37EEFFCb",
        "0x7a305D07B537359cf468eAea9bb176E5308bC337",
        "0x6708e21113922ED588bBCcAA5ef756BEcBb2a7d1",
        "0x5Adcea5319eA9Eac1241B95Ca53690574cFa2357",
        "0x6708e21113922ED588bBCcAA5ef756BEcBb2a7d1"
      ],
      "transaction": {
        "from": "0x6708e21113922ed588bbccaa5ef756becbb2a7d1",
        "to": null,
        "gas": "0x13461e",
        "value": "0x0",
        "input": "0x6101003461012057601f61110d38819003918201601f19168301916001600160401b038311848410176101245780849260a0946040528339810103126101205761004881610138565b61008661005760208401610138565b608061006560408601610138565b9361007260608701610138565b956001600160a01b03948593849201610138565b1660018060a01b03195f5416175f5560018055166080521660a05260c05260e052604051610fc0908161014d823960805181818161011d01528181610537015281816105c9015281816106c30152610a73015260a0518181816101a701528181610458015281816106280152610ad0015260c05181818161016201528181610246015281816104130152610b58015260e051816109eb0152f35b5f80fd5b634e487b7160e01b5f52604160045260245ffd5b51906001600160a01b03821682036101205756fe6080806040526004361015610012575f80fd5b5f90813560e01c90816331f5707214610a1a575080636d0d50ed146109d557806372a3e642146103105780637a4e4ecf146101fd5780638da5cb5b146101d6578063bcb78dc214610191578063cc181ca81461014c578063d8fbc833146101075763f2fde38b14610081575f80fd5b346101045760203660031901126101045761009a610d80565b8154906001600160a01b039081831633036100f257169081156100c7576001600160a01b03191617815580f35b606460405162461bcd60e51b81526020600482015260046024820152635a45524f60e01b6044820152fd5b6040516330cd747160e01b8152600490fd5b80fd5b50346101045780600319360112610104576040517f00000000000000000000000000000000000000000000000000000000000000006001600160a01b03168152602090f35b50346101045780600319360112610104576040517f00000000000000000000000000000000000000000000000000000000000000006001600160a01b03168152602090f35b50346101045780600319360112610104576040517f00000000000000000000000000000000000000000000000000000000000000006001600160a01b03168152602090f35b5034610104578060031936011261010457546040516001600160a01b039091168152602090f35b503461010457604036600319011261010457610217610d80565b81546001600160a01b0390811633036100f25760405163a9059cbb60e01b602082019081526001600160a01b037f00000000000000000000000000000000000000000000000000000000000000001660248084019190915235604483015284938493909284919061029581606481015b03601f198101835282610dc6565b5193165af16102a2610e74565b816102e1575b50156102b15780f35b60405162461bcd60e51b81526020600482015260086024820152672a2920a729a322a960c11b6044820152606490fd5b80518015925082156102f6575b50505f6102a8565b6103099250602080918301019101610eb3565b5f806102ee565b50346101045760c03660031901126101045761032a610d80565b6024356001600160a01b038116810361095a57604435916001600160a01b038316830361095a5783546001600160a01b031633036100f25760018054036109a457600260015560843515801561099a575b8015610989575b8015610978575b6109665760405163501ad8ff60e11b81526020816004816001600160a01b0387165afa90811561085d578591610930575b50670de0b6b3a76400006103f0608435926ec097ce7bc90715b34b9f10000000006103ea6064359260a435610de8565b04610de8565b041061091e57838060405160208101906323b872dd60e01b825260018060a01b037f000000000000000000000000000000000000000000000000000000000000000016602482015230604482015260a43560648201526064815261045381610d96565b5190827f00000000000000000000000000000000000000000000000000000000000000006001600160a01b03165af161048a610e74565b816108ef575b50156108ba576001600254818060a01b0384166001600160601b0360a01b6003541617600355818060a01b0385166001600160601b0360a01b600454161760045560643560055560a4356006556084356007556101008260a81b038360081b16906affffffffffffffffffffff60a81b16171760025560405160843560208201526020815280604081011067ffffffffffffffff60408301111761086857604081810190527f00000000000000000000000000000000000000000000000000000000000000006001600160a01b03163b156108515763701195a160e11b60408201526001600160a01b0382166044820152608480356064830152606090820152805160a48201819052859190825b8181106108a2575081810160c40183905282906040830190601f01601f1916830183900360840181837f00000000000000000000000000000000000000000000000000000000000000006001600160a01b03165af180156108975761087c575b50506002549260ff1984166002556040519261061984610d96565b6001600160a01b0383811685527f0000000000000000000000000000000000000000000000000000000000000000811660208087019190915291811660408087019190915292166060850152606435608085015290519261067c91840190610e39565b60a082528160c081011067ffffffffffffffff60c0840111176108685760c0828101604081905283516020850120632e3071cd60e11b825260c485018190529391906024817f00000000000000000000000000000000000000000000000000000000000000006001600160a01b03165afa91821561085d57859186936107d2575b506001600160801b0380921691608435831080156107c5575b6107b3577fbe334cff3409b9cc05629917e680bd5b922d5f2c9c75272fe1650216d724ac2c9360a093604051968752608435602088015260a43560408801526060870152166080850152600180831b031692a26affffffffffffffffffffff60a81b166002556001600160601b0360a01b600354166003556001600160601b0360a01b600454166004558060055580600655806007556001805580f35b60405163382fc8d160e21b8152600490fd5b5060843581851610610716565b9150915060c0813d60c011610855575b816107f160c093848401610dc6565b810103126108515761080560c08201610e0f565b61081160e08301610e0f565b506108486101606108256101008501610e0f565b936108336101208201610e0f565b506108416101408201610e0f565b5001610e0f565b5090915f6106fd565b8480fd5b3d91506107e2565b6040513d87823e3d90fd5b634e487b7160e01b5f52604160045260245ffd5b60406108889101610db2565b61089357835f6105fe565b8380fd5b6040513d84823e3d90fd5b60208382018181015160c4909101528894500161059e565b60405162461bcd60e51b815260206004820152600d60248201526c5452414e534645525f46524f4d60981b6044820152606490fd5b8051801592508215610904575b50505f610490565b6109179250602080918301019101610eb3565b5f806108fc565b60405163b4d4bd8b60e01b8152600490fd5b90506020813d60201161095e575b8161094b60209383610dc6565b8101031261095a57515f6103ba565b5f80fd5b3d915061093e565b60405163cbb0251360e01b8152600490fd5b506001600160a01b03821615610389565b506001600160a01b03811615610382565b5060a4351561037b565b60405162461bcd60e51b815260206004820152600960248201526814915153951490539560ba1b6044820152606490fd5b50346101045780600319360112610104576040517f00000000000000000000000000000000000000000000000000000000000000006001600160a01b03168152602090f35b905034610d7c576040366003190112610d7c576004356024359167ffffffffffffffff808411610851573660238501121561085157836004013590811161085157830192366024850111610851576001600160a01b03937f0000000000000000000000000000000000000000000000000000000000000000851692338414801590610d6f575b610d605750819060209283910312610d5c57602401358314801590610d50575b610966578360025460081c1693857f000000000000000000000000000000000000000000000000000000000000000082600354169280600454166005549060405195610b0b87610d96565b8a875283851688880152604087015260608601526080850152610b2f87878a610ecb565b60405163a99aad8960e01b815290610b4a6004830186610e39565b8760a48301528360c48301527f000000000000000000000000000000000000000000000000000000000000000016908160e482015261010492610120848301526040826101448161012498808a8301528c5af1918215610d4557610bb892610d27575b508760065491610ecb565b600654863b15610d235760405163238d657960e01b815290610bdd6004830187610e39565b60a48201528160c482015261010060e4820152898382015289818581838b5af18015610d1857610cfa575b5091610c2b939160409384519586946350d8cd4b60e01b86526004860190610e39565b8860a48501528a60c485015260e484015230908301528189875af18015610cc157610ccc575b506040516370a0823160e01b81523060048201528181602481885afa908115610cc15784928792610c90575b5050106107b357610c8d92610ecb565b80f35b8193508092503d8311610cba575b610ca88183610dc6565b8101031261095a578290515f80610c7d565b503d610c9e565b6040513d88823e3d90fd5b610ced9060403d604011610cf3575b610ce58183610dc6565b810190610e23565b50610c51565b503d610cdb565b916040939199610d0d610c2b9694610db2565b999193509193610c08565b6040513d8c823e3d90fd5b8980fd5b610d3f9060403d604011610cf357610ce58183610dc6565b50610bad565b6040513d8d823e3d90fd5b50600754831415610ac0565b8580fd5b637e5f4b6160e01b8152600490fd5b5060ff6002541615610aa0565b5080fd5b600435906001600160a01b038216820361095a57565b60a0810190811067ffffffffffffffff82111761086857604052565b67ffffffffffffffff811161086857604052565b90601f8019910116810190811067ffffffffffffffff82111761086857604052565b81810292918115918404141715610dfb57565b634e487b7160e01b5f52601160045260245ffd5b51906001600160801b038216820361095a57565b919082604091031261095a576020825192015190565b6080809160018060a01b0380825116855280602083015116602086015280604083015116604086015260608201511660608501520151910152565b3d15610eae573d9067ffffffffffffffff82116108685760405191610ea3601f8201601f191660200184610dc6565b82523d5f602084013e565b606090565b9081602091031261095a5751801515810361095a5790565b60405163095ea7b360e01b602082019081526001600160a01b03909316602482015260448101939093525f928392908390610f098160648101610287565b51926001600160a01b03165af1610f1e610e74565b81610f5b575b5015610f2c57565b60405162461bcd60e51b8152602060048201526007602482015266415050524f564560c81b6044820152606490fd5b8051801592508215610f70575b50505f610f24565b610f839250602080918301019101610eb3565b5f80610f6856fea2646970667358221220d28b066cd2153da3b1d405603c90a867f248239abfdb71987cc90ff135fe502064736f6c63430008140033000000000000000000000000bbbbbbbbbb9cc5e90e3b3af64bdaf62c37eeffcb0000000000000000000000007a305d07b537359cf468eaea9bb176e5308bc3370000000000000000000000006708e21113922ed588bbccaa5ef756becbb2a7d10000000000000000000000005adcea5319ea9eac1241b95ca53690574cfa23570000000000000000000000006708e21113922ed588bbccaa5ef756becbb2a7d1",
        "nonce": "0x394",
        "chainId": "0x2105"
      },
      "additionalContracts": [],
      "isFixedGasLimit": false
    },
    {
      "hash": "0xbb244d6726ce1ee843c6e1d4ec1e344c0d15af68544b7b1dcd39cbad1b7c1a66",
      "transactionType": "CALL",
      "contractName": null,
      "contractAddress": "0xbbbbbbbbbb9cc5e90e3b3af64bdaf62c37eeffcb",
      "function": "setAuthorization(address,bool)",
      "arguments": [
        "0x4120D1Db772d68D7De2D624448B36D64e1Cf4577",
        "true"
      ],
      "transaction": {
        "from": "0x6708e21113922ed588bbccaa5ef756becbb2a7d1",
        "to": "0xbbbbbbbbbb9cc5e90e3b3af64bdaf62c37eeffcb",
        "gas": "0x10dee",
        "value": "0x0",
        "input": "0xeecea0000000000000000000000000004120d1db772d68d7de2d624448b36d64e1cf45770000000000000000000000000000000000000000000000000000000000000001",
        "nonce": "0x395",
        "chainId": "0x2105"
      },
      "additionalContracts": [],
      "isFixedGasLimit": false
    },
    {
      "hash": "0x3e0c32205a23931929b1fef40d01d43b2d277bbb1431ff232281d485ba318629",
      "transactionType": "CALL",
      "contractName": null,
      "contractAddress": "0x7a305d07b537359cf468eaea9bb176e5308bc337",
      "function": "approve(address,uint256)",
      "arguments": [
        "0x4120D1Db772d68D7De2D624448B36D64e1Cf4577",
        "69549995674207792207809"
      ],
      "transaction": {
        "from": "0x6708e21113922ed588bbccaa5ef756becbb2a7d1",
        "to": "0x7a305d07b537359cf468eaea9bb176e5308bc337",
        "gas": "0xfc49",
        "value": "0x0",
        "input": "0x095ea7b30000000000000000000000004120d1db772d68d7de2d624448b36d64e1cf4577000000000000000000000000000000000000000000000eba5014fe05a60d17c1",
        "nonce": "0x396",
        "chainId": "0x2105"
      },
      "additionalContracts": [],
      "isFixedGasLimit": false
    },
    {
      "hash": "0xe51c25da485f339b1947f86cb5c7fcfafcb58c2cde8f8f3592ba08aab0519a97",
      "transactionType": "CALL",
      "contractName": "CrownFatFlashSeed",
      "contractAddress": "0x4120d1db772d68d7de2d624448b36d64e1cf4577",
      "function": "flashSeed(address,address,address,uint256,uint256,uint256)",
      "arguments": [
        "0x4200000000000000000000000000000000000006",
        "0x3BB87B8ef3Df289C82540F89DE3e4f7762Ed4A98",
        "0x46415998764C29aB2a25CbeA6254146D50D22687",
        "770000000000000000",
        "10000000000000000000",
        "25593068151428571428570"
      ],
      "transaction": {
        "from": "0x6708e21113922ed588bbccaa5ef756becbb2a7d1",
        "to": "0x4120d1db772d68d7de2d624448b36d64e1cf4577",
        "gas": "0xa1257",
        "value": "0x0",
        "input": "0x72a3e64200000000000000000000000042000000000000000000000000000000000000060000000000000000000000003bb87b8ef3df289c82540f89de3e4f7762ed4a9800000000000000000000000046415998764c29ab2a25cbea6254146d50d226870000000000000000000000000000000000000000000000000aaf96eb9d0d00000000000000000000000000000000000000000000000000008ac7230489e8000000000000000000000000000000000000000000000000056b672b4dd6773376da",
        "nonce": "0x397",
        "chainId": "0x2105"
      },
      "additionalContracts": [],
      "isFixedGasLimit": false
    },
    {
      "hash": "0xdf6836c280503fa477ece16a2876bbd14f54860d0a47d9a178445ff7ab1d1f50",
      "transactionType": "CALL",
      "contractName": "CrownFatFlashSeed",
      "contractAddress": "0x4120d1db772d68d7de2d624448b36d64e1cf4577",
      "function": "flashSeed(address,address,address,uint256,uint256,uint256)",
      "arguments": [
        "0xcbB7C0000aB88B473b1f5aFd9ef808440eed33Bf",
        "0x7c60830200D14F7cDd020bd1c0Aa10d6F254bd0b",
        "0x46415998764C29aB2a25CbeA6254146D50D22687",
        "770000000000000000",
        "50000000",
        "43956927522779220779239"
      ],
      "transaction": {
        "from": "0x6708e21113922ed588bbccaa5ef756becbb2a7d1",
        "to": "0x4120d1db772d68d7de2d624448b36d64e1cf4577",
        "gas": "0xa60c9",
        "value": "0x0",
        "input": "0x72a3e642000000000000000000000000cbb7c0000ab88b473b1f5afd9ef808440eed33bf0000000000000000000000007c60830200d14f7cdd020bd1c0aa10d6f254bd0b00000000000000000000000046415998764c29ab2a25cbea6254146d50d226870000000000000000000000000000000000000000000000000aaf96eb9d0d00000000000000000000000000000000000000000000000000000000000002faf08000000000000000000000000000000000000000000000094ee8e9b02f2ed9a0e7",
        "nonce": "0x398",
        "chainId": "0x2105"
      },
      "additionalContracts": [],
      "isFixedGasLimit": false
    }
  ],
  "receipts": [
    {
      "type": "0x2",
      "status": "0x1",
      "cumulativeGasUsed": "0x37deae",
      "logs": [],
      "logsBloom": "0x00000000000000000000000000000000000000000000000000000000000000000000000000000000000000000000000000000000000000000000000000000000000000000000000000000000000000000000000000000000000000000000000000000000000000000000000000000000000000000000000000000000000000000000000000000000000000000000000000000000000000000000000000000000000000000000000000000000000000000000000000000000000000000000000000000000000000000000000000000000000000000000000000000000000000000000000000000000000000000000000000000000000000000000000000000000",
      "transactionHash": "0x7f03e8360af53ff49c3d30062d7bee99c7bc02ebc4fd9510d1ea89bde14bf536",
      "transactionIndex": "0x22",
      "blockHash": "0x0000000000000000000000000000000000000000000000000000000000000000",
      "blockNumber": "0x2eae2dd",
      "gasUsed": "0xb069a",
      "effectiveGasPrice": "0x4d056c",
      "blobGasUsed": "0x56e64",
      "from": "0x6708e21113922ed588bbccaa5ef756becbb2a7d1",
      "to": null,
      "contractAddress": "0x3bb87b8ef3df289c82540f89de3e4f7762ed4a98",
      "l1GasPrice": "0x518372b",
      "l1GasUsed": "0x9650",
      "l1Fee": "0x183a2a95d",
      "l1BaseFeeScalar": "0x8dd",
      "l1BlobBaseFee": "0x4d8ae2",
      "l1BlobBaseFeeScalar": "0x101c12",
      "daFootprintGasScalar": "0x94"
    },
    {
      "type": "0x2",
      "status": "0x1",
      "cumulativeGasUsed": "0xaafb0d",
      "logs": [],
      "logsBloom": "0x00000000000000000000000000000000000000000000000000000000000000000000000000000000000000000000000000000000000000000000000000000000000000000000000000000000000000000000000000000000000000000000000000000000000000000000000000000000000000000000000000000000000000000000000000000000000000000000000000000000000000000000000000000000000000000000000000000000000000000000000000000000000000000000000000000000000000000000000000000000000000000000000000000000000000000000000000000000000000000000000000000000000000000000000000000000",
      "transactionHash": "0x2d3221f0dd846d737b63a433032a80b6c57a7661c4e62aa836e9276e9c4b3f37",
      "transactionIndex": "0x64",
      "blockHash": "0x3ced5519713ee16c495b62ce5851592069469e7640d1990d4484f6c9c6404c87",
      "blockNumber": "0x2eae2de",
      "gasUsed": "0xb0789",
      "effectiveGasPrice": "0x4d056c",
      "blobGasUsed": "0x5742c",
      "from": "0x6708e21113922ed588bbccaa5ef756becbb2a7d1",
      "to": null,
      "contractAddress": "0x7c60830200d14f7cdd020bd1c0aa10d6f254bd0b",
      "l1GasPrice": "0x518372b",
      "l1GasUsed": "0x96f0",
      "l1Fee": "0x4c2fc158b",
      "l1BaseFeeScalar": "0x8dd",
      "l1BlobBaseFee": "0x4d8ae2",
      "l1BlobBaseFeeScalar": "0x101c12",
      "daFootprintGasScalar": "0x94"
    },
    {
      "type": "0x2",
      "status": "0x1",
      "cumulativeGasUsed": "0x910d65",
      "logs": [
        {
          "address": "0xbbbbbbbbbb9cc5e90e3b3af64bdaf62c37eeffcb",
          "topics": [
            "0xac4b2400f169220b0c0afdde7a0b32e775ba727ea1cb30b35f935cdaab8683ac",
            "0x6d0c2531ad3078b19f569d3d9b48fb9348682a1b769f726c4196e6091a3c35e9"
          ],
          "data": "0x00000000000000000000000042000000000000000000000000000000000000060000000000000000000000007a305d07b537359cf468eaea9bb176e5308bc3370000000000000000000000003bb87b8ef3df289c82540f89de3e4f7762ed4a9800000000000000000000000046415998764c29ab2a25cbea6254146d50d226870000000000000000000000000000000000000000000000000aaf96eb9d0d0000",
          "blockHash": "0x9b2119827fa5ca613f30ba253a87d29346caa9c84d4b62e584be820428685f1a",
          "blockNumber": "0x2eae2df",
          "blockTimestamp": "0x6a6022a1",
          "transactionHash": "0xb77592c64d0e229b2dbdfd8711964d88a64f03be421a3143b17cd0428147d0b3",
          "transactionIndex": "0x46",
          "logIndex": "0xc1",
          "removed": false
        },
        {
          "address": "0x46415998764c29ab2a25cbea6254146d50d22687",
          "topics": [
            "0x7120161a7b3d31251e01294ab351ef15a41b91659a36032e4641bb89b121e321",
            "0x6d0c2531ad3078b19f569d3d9b48fb9348682a1b769f726c4196e6091a3c35e9"
          ],
          "data": "0x0000000000000000000000000000000000000000000000000000000012e687bf000000000000000000000000000000000000000000000000000000004b9a1eff",
          "blockHash": "0x9b2119827fa5ca613f30ba253a87d29346caa9c84d4b62e584be820428685f1a",
          "blockNumber": "0x2eae2df",
          "blockTimestamp": "0x6a6022a1",
          "transactionHash": "0xb77592c64d0e229b2dbdfd8711964d88a64f03be421a3143b17cd0428147d0b3",
          "transactionIndex": "0x46",
          "logIndex": "0xc2",
          "removed": false
        }
      ],
      "logsBloom": "0x00000000000000000000000000000800000000000000000000000000000000000000000000000100000000040000000000000000000000000000000000804000000000000010000000000000000000000000000000000000400000000000000000000000000000000000000000000000000000000000000000000040000000000000000000000008000020000000000000000000000000000008000000000000000000000000000000000000000000000000000000000000000000000000000020000000000000000000000000000000000100000000000000000000000000000000000000000000000000000001000000000000000000000000000000000010",
      "transactionHash": "0xb77592c64d0e229b2dbdfd8711964d88a64f03be421a3143b17cd0428147d0b3",
      "transactionIndex": "0x46",
      "blockHash": "0x9b2119827fa5ca613f30ba253a87d29346caa9c84d4b62e584be820428685f1a",
      "blockNumber": "0x2eae2df",
      "gasUsed": "0x30315",
      "effectiveGasPrice": "0x4d056c",
      "blobGasUsed": "0x5218",
      "from": "0x6708e21113922ed588bbccaa5ef756becbb2a7d1",
      "to": "0xbbbbbbbbbb9cc5e90e3b3af64bdaf62c37eeffcb",
      "contractAddress": null,
      "l1GasPrice": "0x518372b",
      "l1GasUsed": "0x8e4",
      "l1Fee": "0x47d0c7c7",
      "l1BaseFeeScalar": "0x8dd",
      "l1BlobBaseFee": "0x4d8ae2",
      "l1BlobBaseFeeScalar": "0x101c12",
      "daFootprintGasScalar": "0x94"
    },
    {
      "type": "0x2",
      "status": "0x1",
      "cumulativeGasUsed": "0x10daca3",
      "logs": [
        {
          "address": "0xbbbbbbbbbb9cc5e90e3b3af64bdaf62c37eeffcb",
          "topics": [
            "0xac4b2400f169220b0c0afdde7a0b32e775ba727ea1cb30b35f935cdaab8683ac",
            "0x88fb488074c9f9f3acaa5f84a2f4181bc371defa66ff4a9e42e1e5f0d563be0e"
          ],
          "data": "0x000000000000000000000000cbb7c0000ab88b473b1f5afd9ef808440eed33bf0000000000000000000000007a305d07b537359cf468eaea9bb176e5308bc3370000000000000000000000007c60830200d14f7cdd020bd1c0aa10d6f254bd0b00000000000000000000000046415998764c29ab2a25cbea6254146d50d226870000000000000000000000000000000000000000000000000aaf96eb9d0d0000",
          "blockHash": "0x5bc95c55324681b7479512e8f1dcf916264c1d8ab61c98e7df2803be56a66b1a",
          "blockNumber": "0x2eae2e0",
          "blockTimestamp": "0x6a6022a3",
          "transactionHash": "0x5009edfac4f64c44215dab51a6437a5cccc4fa2b61d5e4fc6e6be03ed32a2e67",
          "transactionIndex": "0x56",
          "logIndex": "0x1e7",
          "removed": false
        },
        {
          "address": "0x46415998764c29ab2a25cbea6254146d50d22687",
          "topics": [
            "0x7120161a7b3d31251e01294ab351ef15a41b91659a36032e4641bb89b121e321",
            "0x88fb488074c9f9f3acaa5f84a2f4181bc371defa66ff4a9e42e1e5f0d563be0e"
          ],
          "data": "0x0000000000000000000000000000000000000000000000000000000012e687bf000000000000000000000000000000000000000000000000000000004b9a1eff",
          "blockHash": "0x5bc95c55324681b7479512e8f1dcf916264c1d8ab61c98e7df2803be56a66b1a",
          "blockNumber": "0x2eae2e0",
          "blockTimestamp": "0x6a6022a3",
          "transactionHash": "0x5009edfac4f64c44215dab51a6437a5cccc4fa2b61d5e4fc6e6be03ed32a2e67",
          "transactionIndex": "0x56",
          "logIndex": "0x1e8",
          "removed": false
        }
      ],
      "logsBloom": "0x00000000000000000000000000000800000000000000008100000000000000000000000000000100000000000000000000000000000000000000000000804000000000000010000000000000000000000000000000000000000000000000000000800000000000000000000000000000000000000000000000000040000000000000000000000008000000000000000000000000000000000008000000000000000000000000000000000000000000000000000000000000000000000000000020000000000000000000000000000000000100000000000000000000000000000000000000000000000000000001000000000000000000000000000000000010",
      "transactionHash": "0x5009edfac4f64c44215dab51a6437a5cccc4fa2b61d5e4fc6e6be03ed32a2e67",
      "transactionIndex": "0x56",
      "blockHash": "0x5bc95c55324681b7479512e8f1dcf916264c1d8ab61c98e7df2803be56a66b1a",
      "blockNumber": "0x2eae2e0",
      "gasUsed": "0x303d5",
      "effectiveGasPrice": "0x4d056c",
      "blobGasUsed": "0x5874",
      "from": "0x6708e21113922ed588bbccaa5ef756becbb2a7d1",
      "to": "0xbbbbbbbbbb9cc5e90e3b3af64bdaf62c37eeffcb",
      "contractAddress": null,
      "l1GasPrice": "0x518372b",
      "l1GasUsed": "0x99f",
      "l1Fee": "0x4dba0372",
      "l1BaseFeeScalar": "0x8dd",
      "l1BlobBaseFee": "0x4d8ae2",
      "l1BlobBaseFeeScalar": "0x101c12",
      "daFootprintGasScalar": "0x94"
    },
    {
      "type": "0x2",
      "status": "0x1",
      "cumulativeGasUsed": "0x94feb0",
      "logs": [],
      "logsBloom": "0x00000000000000000000000000000000000000000000000000000000000000000000000000000000000000000000000000000000000000000000000000000000000000000000000000000000000000000000000000000000000000000000000000000000000000000000000000000000000000000000000000000000000000000000000000000000000000000000000000000000000000000000000000000000000000000000000000000000000000000000000000000000000000000000000000000000000000000000000000000000000000000000000000000000000000000000000000000000000000000000000000000000000000000000000000000000",
      "transactionHash": "0x465d2462cd43aab368024d5ab0255726b9f516e07e0e3f1d4cdc9dc919c48f96",
      "transactionIndex": "0x41",
      "blockHash": "0xaa44bebae25dc934f5bc403f3b88c89c1268a88b7e43a400de12b4cfcea5e6b3",
      "blockNumber": "0x2eae2e1",
      "gasUsed": "0xed37a",
      "effectiveGasPrice": "0x4d056c",
      "blobGasUsed": "0x5f078",
      "from": "0x6708e21113922ed588bbccaa5ef756becbb2a7d1",
      "to": null,
      "contractAddress": "0x4120d1db772d68d7de2d624448b36d64e1cf4577",
      "l1GasPrice": "0x518372b",
      "l1GasUsed": "0xa46d",
      "l1Fee": "0x52feaced1",
      "l1BaseFeeScalar": "0x8dd",
      "l1BlobBaseFee": "0x4d8ae2",
      "l1BlobBaseFeeScalar": "0x101c12",
      "daFootprintGasScalar": "0x94"
    },
    {
      "type": "0x2",
      "status": "0x1",
      "cumulativeGasUsed": "0x6566cc",
      "logs": [
        {
          "address": "0xbbbbbbbbbb9cc5e90e3b3af64bdaf62c37eeffcb",
          "topics": [
            "0xd5e969f01efe921d3f766bdebad25f0a05e3f237311f56482bf132d0326309c0",
            "0x0000000000000000000000006708e21113922ed588bbccaa5ef756becbb2a7d1",
            "0x0000000000000000000000006708e21113922ed588bbccaa5ef756becbb2a7d1",
            "0x0000000000000000000000004120d1db772d68d7de2d624448b36d64e1cf4577"
          ],
          "data": "0x0000000000000000000000000000000000000000000000000000000000000001",
          "blockHash": "0x953384c027975da48c82275e2eefc111584f5ff50d611011d285d9320b0078ad",
          "blockNumber": "0x2eae2e2",
          "blockTimestamp": "0x6a6022a7",
          "transactionHash": "0xbb244d6726ce1ee843c6e1d4ec1e344c0d15af68544b7b1dcd39cbad1b7c1a66",
          "transactionIndex": "0x3f",
          "logIndex": "0x8a",
          "removed": false
        }
      ],
      "logsBloom": "0x00000000000000000000002000000000000000000000000000000000000000000000000000000000000000000000000010000000000000000000000000000000000000000010000000000000000000100000000800000000000000000000000000000000000000000000200000000000000000000000000000000000000000000000000000000008000000100000000000000000000000000000000000004000000000000000000000000000000000000000000000000000000000000000000020000000000000000000000000000000000000000000000000000000002000000000000000000000100000000000000000000000000000000000000000000000",
      "transactionHash": "0xbb244d6726ce1ee843c6e1d4ec1e344c0d15af68544b7b1dcd39cbad1b7c1a66",
      "transactionIndex": "0x3f",
      "blockHash": "0x953384c027975da48c82275e2eefc111584f5ff50d611011d285d9320b0078ad",
      "blockNumber": "0x2eae2e2",
      "gasUsed": "0xb892",
      "effectiveGasPrice": "0x4d056c",
      "blobGasUsed": "0x39d0",
      "from": "0x6708e21113922ed588bbccaa5ef756becbb2a7d1",
      "to": "0xbbbbbbbbbb9cc5e90e3b3af64bdaf62c37eeffcb",
      "contractAddress": null,
      "l1GasPrice": "0x4de5576",
      "l1GasUsed": "0x640",
      "l1Fee": "0x3241d429",
      "l1BaseFeeScalar": "0x8dd",
      "l1BlobBaseFee": "0x4f0180",
      "l1BlobBaseFeeScalar": "0x101c12",
      "daFootprintGasScalar": "0x94"
    },
    {
      "type": "0x2",
      "status": "0x1",
      "cumulativeGasUsed": "0xa9f093",
      "logs": [
        {
          "address": "0x7a305d07b537359cf468eaea9bb176e5308bc337",
          "topics": [
            "0x8c5be1e5ebec7d5bd14f71427d1e84f3dd0314c0f7b2291e5b200ac8c7c3b925",
            "0x0000000000000000000000006708e21113922ed588bbccaa5ef756becbb2a7d1",
            "0x0000000000000000000000004120d1db772d68d7de2d624448b36d64e1cf4577"
          ],
          "data": "0x000000000000000000000000000000000000000000000eba5014fe05a60d17c1",
          "blockHash": "0xf0fa7b6108c47ecf6256e009f9db5cb065cddcccfca9cfce62398747d4cc5f92",
          "blockNumber": "0x2eae2e3",
          "blockTimestamp": "0x6a6022a9",
          "transactionHash": "0x3e0c32205a23931929b1fef40d01d43b2d277bbb1431ff232281d485ba318629",
          "transactionIndex": "0x47",
          "logIndex": "0xc1",
          "removed": false
        }
      ],
      "logsBloom": "0x00000000000000000000000000000000000000020000000000000000000000000000000000000000000000000000000010000000000000000000000000200000000000000000000000000000000000100000000000000000000000000000000000000000000000000000000000000000000000000000000000400000000000000000000000000000000000100000000000000000000000000000000000004004020000000000000000000000000000000000000000000000000000000000000000000000000000000000000000000000000000000000000000000000002000000010000000000000100000000000000000000000000000000000000000000000",
      "transactionHash": "0x3e0c32205a23931929b1fef40d01d43b2d277bbb1431ff232281d485ba318629",
      "transactionIndex": "0x47",
      "blockHash": "0xf0fa7b6108c47ecf6256e009f9db5cb065cddcccfca9cfce62398747d4cc5f92",
      "blockNumber": "0x2eae2e3",
      "gasUsed": "0xb6a7",
      "effectiveGasPrice": "0x4d056c",
      "blobGasUsed": "0x39d0",
      "from": "0x6708e21113922ed588bbccaa5ef756becbb2a7d1",
      "to": "0x7a305d07b537359cf468eaea9bb176e5308bc337",
      "contractAddress": null,
      "l1GasPrice": "0x4de5576",
      "l1GasUsed": "0x640",
      "l1Fee": "0x3241d429",
      "l1BaseFeeScalar": "0x8dd",
      "l1BlobBaseFee": "0x4f0180",
      "l1BlobBaseFeeScalar": "0x101c12",
      "daFootprintGasScalar": "0x94"
    },
    {
      "type": "0x2",
      "status": "0x1",
      "cumulativeGasUsed": "0x14ba006",
      "logs": [
        {
          "address": "0x7a305d07b537359cf468eaea9bb176e5308bc337",
          "topics": [
            "0xddf252ad1be2c89b69c2b068fc378daa952ba7f163c4a11628f55a4df523b3ef",
            "0x0000000000000000000000006708e21113922ed588bbccaa5ef756becbb2a7d1",
            "0x0000000000000000000000004120d1db772d68d7de2d624448b36d64e1cf4577"
          ],
          "data": "0x00000000000000000000000000000000000000000000056b672b4dd6773376da",
          "blockHash": "0x9acd3d1d5f099e27c977d0665ac1f6830dd4816bdec7c85600fbdb908549f419",
          "blockNumber": "0x2eae2e4",
          "blockTimestamp": "0x6a6022ab",
          "transactionHash": "0xe51c25da485f339b1947f86cb5c7fcfafcb58c2cde8f8f3592ba08aab0519a97",
          "transactionIndex": "0x74",
          "logIndex": "0x22e",
          "removed": false
        },
        {
          "address": "0xbbbbbbbbbb9cc5e90e3b3af64bdaf62c37eeffcb",
          "topics": [
            "0xc76f1b4fe4396ac07a9fa55a415d4ca430e72651d37d3401f3bed7cb13fc4f12",
            "0x0000000000000000000000004120d1db772d68d7de2d624448b36d64e1cf4577",
            "0x0000000000000000000000004200000000000000000000000000000000000006"
          ],
          "data": "0x0000000000000000000000000000000000000000000000008ac7230489e80000",
          "blockHash": "0x9acd3d1d5f099e27c977d0665ac1f6830dd4816bdec7c85600fbdb908549f419",
          "blockNumber": "0x2eae2e4",
          "blockTimestamp": "0x6a6022ab",
          "transactionHash": "0xe51c25da485f339b1947f86cb5c7fcfafcb58c2cde8f8f3592ba08aab0519a97",
          "transactionIndex": "0x74",
          "logIndex": "0x22f",
          "removed": false
        },
        {
          "address": "0x4200000000000000000000000000000000000006",
          "topics": [
            "0xddf252ad1be2c89b69c2b068fc378daa952ba7f163c4a11628f55a4df523b3ef",
            "0x000000000000000000000000bbbbbbbbbb9cc5e90e3b3af64bdaf62c37eeffcb",
            "0x0000000000000000000000004120d1db772d68d7de2d624448b36d64e1cf4577"
          ],
          "data": "0x0000000000000000000000000000000000000000000000008ac7230489e80000",
          "blockHash": "0x9acd3d1d5f099e27c977d0665ac1f6830dd4816bdec7c85600fbdb908549f419",
          "blockNumber": "0x2eae2e4",
          "blockTimestamp": "0x6a6022ab",
          "transactionHash": "0xe51c25da485f339b1947f86cb5c7fcfafcb58c2cde8f8f3592ba08aab0519a97",
          "transactionIndex": "0x74",
          "logIndex": "0x230",
          "removed": false
        },
        {
          "address": "0x4200000000000000000000000000000000000006",
          "topics": [
            "0x8c5be1e5ebec7d5bd14f71427d1e84f3dd0314c0f7b2291e5b200ac8c7c3b925",
            "0x0000000000000000000000004120d1db772d68d7de2d624448b36d64e1cf4577",
            "0x000000000000000000000000bbbbbbbbbb9cc5e90e3b3af64bdaf62c37eeffcb"
          ],
          "data": "0x0000000000000000000000000000000000000000000000008ac7230489e80000",
          "blockHash": "0x9acd3d1d5f099e27c977d0665ac1f6830dd4816bdec7c85600fbdb908549f419",
          "blockNumber": "0x2eae2e4",
          "blockTimestamp": "0x6a6022ab",
          "transactionHash": "0xe51c25da485f339b1947f86cb5c7fcfafcb58c2cde8f8f3592ba08aab0519a97",
          "transactionIndex": "0x74",
          "logIndex": "0x231",
          "removed": false
        },
        {
          "address": "0x46415998764c29ab2a25cbea6254146d50d22687",
          "topics": [
            "0x7120161a7b3d31251e01294ab351ef15a41b91659a36032e4641bb89b121e321",
            "0x6d0c2531ad3078b19f569d3d9b48fb9348682a1b769f726c4196e6091a3c35e9"
          ],
          "data": "0x0000000000000000000000000000000000000000000000000000000012e67ded000000000000000000000000000000000000000000000000000000004b99d070",
          "blockHash": "0x9acd3d1d5f099e27c977d0665ac1f6830dd4816bdec7c85600fbdb908549f419",
          "blockNumber": "0x2eae2e4",
          "blockTimestamp": "0x6a6022ab",
          "transactionHash": "0xe51c25da485f339b1947f86cb5c7fcfafcb58c2cde8f8f3592ba08aab0519a97",
          "transactionIndex": "0x74",
          "logIndex": "0x232",
          "removed": false
        },
        {
          "address": "0xbbbbbbbbbb9cc5e90e3b3af64bdaf62c37eeffcb",
          "topics": [
            "0x9d9bd501d0657d7dfe415f779a620a62b78bc508ddc0891fbbd8b7ac0f8fce87",
            "0x6d0c2531ad3078b19f569d3d9b48fb9348682a1b769f726c4196e6091a3c35e9"
          ],
          "data": "0x0000000000000000000000000000000000000000000000000000000012e67ded00000000000000000000000000000000000000000000000000000000000000000000000000000000000000000000000000000000000000000000000000000000",
          "blockHash": "0x9acd3d1d5f099e27c977d0665ac1f6830dd4816bdec7c85600fbdb908549f419",
          "blockNumber": "0x2eae2e4",
          "blockTimestamp": "0x6a6022ab",
          "transactionHash": "0xe51c25da485f339b1947f86cb5c7fcfafcb58c2cde8f8f3592ba08aab0519a97",
          "transactionIndex": "0x74",
          "logIndex": "0x233",
          "removed": false
        },
        {
          "address": "0xbbbbbbbbbb9cc5e90e3b3af64bdaf62c37eeffcb",
          "topics": [
            "0xedf8870433c83823eb071d3df1caa8d008f12f6440918c20d75a3602cda30fe0",
            "0x6d0c2531ad3078b19f569d3d9b48fb9348682a1b769f726c4196e6091a3c35e9",
            "0x0000000000000000000000004120d1db772d68d7de2d624448b36d64e1cf4577",
            "0x0000000000000000000000006708e21113922ed588bbccaa5ef756becbb2a7d1"
          ],
          "data": "0x0000000000000000000000000000000000000000000000008ac7230489e80000000000000000000000000000000000000000000000084595161401484a000000",
          "blockHash": "0x9acd3d1d5f099e27c977d0665ac1f6830dd4816bdec7c85600fbdb908549f419",
          "blockNumber": "0x2eae2e4",
          "blockTimestamp": "0x6a6022ab",
          "transactionHash": "0xe51c25da485f339b1947f86cb5c7fcfafcb58c2cde8f8f3592ba08aab0519a97",
          "transactionIndex": "0x74",
          "logIndex": "0x234",
          "removed": false
        },
        {
          "address": "0x4200000000000000000000000000000000000006",
          "topics": [
            "0xddf252ad1be2c89b69c2b068fc378daa952ba7f163c4a11628f55a4df523b3ef",
            "0x0000000000000000000000004120d1db772d68d7de2d624448b36d64e1cf4577",
            "0x000000000000000000000000bbbbbbbbbb9cc5e90e3b3af64bdaf62c37eeffcb"
          ],
          "data": "0x0000000000000000000000000000000000000000000000008ac7230489e80000",
          "blockHash": "0x9acd3d1d5f099e27c977d0665ac1f6830dd4816bdec7c85600fbdb908549f419",
          "blockNumber": "0x2eae2e4",
          "blockTimestamp": "0x6a6022ab",
          "transactionHash": "0xe51c25da485f339b1947f86cb5c7fcfafcb58c2cde8f8f3592ba08aab0519a97",
          "transactionIndex": "0x74",
          "logIndex": "0x235",
          "removed": false
        },
        {
          "address": "0x7a305d07b537359cf468eaea9bb176e5308bc337",
          "topics": [
            "0x8c5be1e5ebec7d5bd14f71427d1e84f3dd0314c0f7b2291e5b200ac8c7c3b925",
            "0x0000000000000000000000004120d1db772d68d7de2d624448b36d64e1cf4577",
            "0x000000000000000000000000bbbbbbbbbb9cc5e90e3b3af64bdaf62c37eeffcb"
          ],
          "data": "0x00000000000000000000000000000000000000000000056b672b4dd6773376da",
          "blockHash": "0x9acd3d1d5f099e27c977d0665ac1f6830dd4816bdec7c85600fbdb908549f419",
          "blockNumber": "0x2eae2e4",
          "blockTimestamp": "0x6a6022ab",
          "transactionHash": "0xe51c25da485f339b1947f86cb5c7fcfafcb58c2cde8f8f3592ba08aab0519a97",
          "transactionIndex": "0x74",
          "logIndex": "0x236",
          "removed": false
        },
        {
          "address": "0xbbbbbbbbbb9cc5e90e3b3af64bdaf62c37eeffcb",
          "topics": [
            "0xa3b9472a1399e17e123f3c2e6586c23e504184d504de59cdaa2b375e880c6184",
            "0x6d0c2531ad3078b19f569d3d9b48fb9348682a1b769f726c4196e6091a3c35e9",
            "0x0000000000000000000000004120d1db772d68d7de2d624448b36d64e1cf4577",
            "0x0000000000000000000000006708e21113922ed588bbccaa5ef756becbb2a7d1"
          ],
          "data": "0x00000000000000000000000000000000000000000000056b672b4dd6773376da",
          "blockHash": "0x9acd3d1d5f099e27c977d0665ac1f6830dd4816bdec7c85600fbdb908549f419",
          "blockNumber": "0x2eae2e4",
          "blockTimestamp": "0x6a6022ab",
          "transactionHash": "0xe51c25da485f339b1947f86cb5c7fcfafcb58c2cde8f8f3592ba08aab0519a97",
          "transactionIndex": "0x74",
          "logIndex": "0x237",
          "removed": false
        },
        {
          "address": "0x7a305d07b537359cf468eaea9bb176e5308bc337",
          "topics": [
            "0xddf252ad1be2c89b69c2b068fc378daa952ba7f163c4a11628f55a4df523b3ef",
            "0x0000000000000000000000004120d1db772d68d7de2d624448b36d64e1cf4577",
            "0x000000000000000000000000bbbbbbbbbb9cc5e90e3b3af64bdaf62c37eeffcb"
          ],
          "data": "0x00000000000000000000000000000000000000000000056b672b4dd6773376da",
          "blockHash": "0x9acd3d1d5f099e27c977d0665ac1f6830dd4816bdec7c85600fbdb908549f419",
          "blockNumber": "0x2eae2e4",
          "blockTimestamp": "0x6a6022ab",
          "transactionHash": "0xe51c25da485f339b1947f86cb5c7fcfafcb58c2cde8f8f3592ba08aab0519a97",
          "transactionIndex": "0x74",
          "logIndex": "0x238",
          "removed": false
        },
        {
          "address": "0xbbbbbbbbbb9cc5e90e3b3af64bdaf62c37eeffcb",
          "topics": [
            "0x570954540bed6b1304a87dfe815a5eda4a648f7097a16240dcd85c9b5fd42a43",
            "0x6d0c2531ad3078b19f569d3d9b48fb9348682a1b769f726c4196e6091a3c35e9",
            "0x0000000000000000000000006708e21113922ed588bbccaa5ef756becbb2a7d1",
            "0x0000000000000000000000004120d1db772d68d7de2d624448b36d64e1cf4577"
          ],
          "data": "0x0000000000000000000000004120d1db772d68d7de2d624448b36d64e1cf45770000000000000000000000000000000000000000000000008ac7230489e80000000000000000000000000000000000000000000000084595161401484a000000",
          "blockHash": "0x9acd3d1d5f099e27c977d0665ac1f6830dd4816bdec7c85600fbdb908549f419",
          "blockNumber": "0x2eae2e4",
          "blockTimestamp": "0x6a6022ab",
          "transactionHash": "0xe51c25da485f339b1947f86cb5c7fcfafcb58c2cde8f8f3592ba08aab0519a97",
          "transactionIndex": "0x74",
          "logIndex": "0x239",
          "removed": false
        },
        {
          "address": "0x4200000000000000000000000000000000000006",
          "topics": [
            "0xddf252ad1be2c89b69c2b068fc378daa952ba7f163c4a11628f55a4df523b3ef",
            "0x000000000000000000000000bbbbbbbbbb9cc5e90e3b3af64bdaf62c37eeffcb",
            "0x0000000000000000000000004120d1db772d68d7de2d624448b36d64e1cf4577"
          ],
          "data": "0x0000000000000000000000000000000000000000000000008ac7230489e80000",
          "blockHash": "0x9acd3d1d5f099e27c977d0665ac1f6830dd4816bdec7c85600fbdb908549f419",
          "blockNumber": "0x2eae2e4",
          "blockTimestamp": "0x6a6022ab",
          "transactionHash": "0xe51c25da485f339b1947f86cb5c7fcfafcb58c2cde8f8f3592ba08aab0519a97",
          "transactionIndex": "0x74",
          "logIndex": "0x23a",
          "removed": false
        },
        {
          "address": "0x4200000000000000000000000000000000000006",
          "topics": [
            "0x8c5be1e5ebec7d5bd14f71427d1e84f3dd0314c0f7b2291e5b200ac8c7c3b925",
            "0x0000000000000000000000004120d1db772d68d7de2d624448b36d64e1cf4577",
            "0x000000000000000000000000bbbbbbbbbb9cc5e90e3b3af64bdaf62c37eeffcb"
          ],
          "data": "0x0000000000000000000000000000000000000000000000008ac7230489e80000",
          "blockHash": "0x9acd3d1d5f099e27c977d0665ac1f6830dd4816bdec7c85600fbdb908549f419",
          "blockNumber": "0x2eae2e4",
          "blockTimestamp": "0x6a6022ab",
          "transactionHash": "0xe51c25da485f339b1947f86cb5c7fcfafcb58c2cde8f8f3592ba08aab0519a97",
          "transactionIndex": "0x74",
          "logIndex": "0x23b",
          "removed": false
        },
        {
          "address": "0x4200000000000000000000000000000000000006",
          "topics": [
            "0xddf252ad1be2c89b69c2b068fc378daa952ba7f163c4a11628f55a4df523b3ef",
            "0x0000000000000000000000004120d1db772d68d7de2d624448b36d64e1cf4577",
            "0x000000000000000000000000bbbbbbbbbb9cc5e90e3b3af64bdaf62c37eeffcb"
          ],
          "data": "0x0000000000000000000000000000000000000000000000008ac7230489e80000",
          "blockHash": "0x9acd3d1d5f099e27c977d0665ac1f6830dd4816bdec7c85600fbdb908549f419",
          "blockNumber": "0x2eae2e4",
          "blockTimestamp": "0x6a6022ab",
          "transactionHash": "0xe51c25da485f339b1947f86cb5c7fcfafcb58c2cde8f8f3592ba08aab0519a97",
          "transactionIndex": "0x74",
          "logIndex": "0x23c",
          "removed": false
        },
        {
          "address": "0x4120d1db772d68d7de2d624448b36d64e1cf4577",
          "topics": [
            "0xbe334cff3409b9cc05629917e680bd5b922d5f2c9c75272fe1650216d724ac2c",
            "0x0000000000000000000000004200000000000000000000000000000000000006"
          ],
          "data": "0x6d0c2531ad3078b19f569d3d9b48fb9348682a1b769f726c4196e6091a3c35e90000000000000000000000000000000000000000000000008ac7230489e8000000000000000000000000000000000000000000000000056b672b4dd6773376da0000000000000000000000000000000000000000000000008ac7230489e800000000000000000000000000000000000000000000000000008ac7230489e80000",
          "blockHash": "0x9acd3d1d5f099e27c977d0665ac1f6830dd4816bdec7c85600fbdb908549f419",
          "blockNumber": "0x2eae2e4",
          "blockTimestamp": "0x6a6022ab",
          "transactionHash": "0xe51c25da485f339b1947f86cb5c7fcfafcb58c2cde8f8f3592ba08aab0519a97",
          "transactionIndex": "0x74",
          "logIndex": "0x23d",
          "removed": false
        }
      ],
      "logsBloom": "0x00000000020000000002000000000080000000020000000000040000000000000000400000000100000000140000000010000000000000000020000020a04000000000000010000000000008800000100002000800000000400002080000000000000000000000000000000000000010000010000000000000400010000000000000008000000008000020100010000000000040002000000008000000005004020000000000000000000000000000000000000000000000000000000000000020000002000004000000000000000000000100000000000400000000802000400010004001000008100000200001200000000000000000000000000000000000",
      "transactionHash": "0xe51c25da485f339b1947f86cb5c7fcfafcb58c2cde8f8f3592ba08aab0519a97",
      "transactionIndex": "0x74",
      "blockHash": "0x9acd3d1d5f099e27c977d0665ac1f6830dd4816bdec7c85600fbdb908549f419",
      "blockNumber": "0x2eae2e4",
      "gasUsed": "0x79a24",
      "effectiveGasPrice": "0x4d056c",
      "blobGasUsed": "0x52ac",
      "from": "0x6708e21113922ed588bbccaa5ef756becbb2a7d1",
      "to": "0x4120d1db772d68d7de2d624448b36d64e1cf4577",
      "contractAddress": null,
      "l1GasPrice": "0x4de5576",
      "l1GasUsed": "0x8f1",
      "l1Fee": "0x47ed3d56",
      "l1BaseFeeScalar": "0x8dd",
      "l1BlobBaseFee": "0x4f0180",
      "l1BlobBaseFeeScalar": "0x101c12",
      "daFootprintGasScalar": "0x94"
    },
    {
      "type": "0x2",
      "status": "0x1",
      "cumulativeGasUsed": "0x7417be",
      "logs": [
        {
          "address": "0x7a305d07b537359cf468eaea9bb176e5308bc337",
          "topics": [
            "0xddf252ad1be2c89b69c2b068fc378daa952ba7f163c4a11628f55a4df523b3ef",
            "0x0000000000000000000000006708e21113922ed588bbccaa5ef756becbb2a7d1",
            "0x0000000000000000000000004120d1db772d68d7de2d624448b36d64e1cf4577"
          ],
          "data": "0x00000000000000000000000000000000000000000000094ee8e9b02f2ed9a0e7",
          "blockHash": "0x8a1c23c4c20689e30eca6ad6babce6a87c8040eecdcb2691ed5f14dff9421425",
          "blockNumber": "0x2eae2e5",
          "blockTimestamp": "0x6a6022ad",
          "transactionHash": "0xdf6836c280503fa477ece16a2876bbd14f54860d0a47d9a178445ff7ab1d1f50",
          "transactionIndex": "0x36",
          "logIndex": "0x8e",
          "removed": false
        },
        {
          "address": "0xbbbbbbbbbb9cc5e90e3b3af64bdaf62c37eeffcb",
          "topics": [
            "0xc76f1b4fe4396ac07a9fa55a415d4ca430e72651d37d3401f3bed7cb13fc4f12",
            "0x0000000000000000000000004120d1db772d68d7de2d624448b36d64e1cf4577",
            "0x000000000000000000000000cbb7c0000ab88b473b1f5afd9ef808440eed33bf"
          ],
          "data": "0x0000000000000000000000000000000000000000000000000000000002faf080",
          "blockHash": "0x8a1c23c4c20689e30eca6ad6babce6a87c8040eecdcb2691ed5f14dff9421425",
          "blockNumber": "0x2eae2e5",
          "blockTimestamp": "0x6a6022ad",
          "transactionHash": "0xdf6836c280503fa477ece16a2876bbd14f54860d0a47d9a178445ff7ab1d1f50",
          "transactionIndex": "0x36",
          "logIndex": "0x8f",
          "removed": false
        },
        {
          "address": "0xcbb7c0000ab88b473b1f5afd9ef808440eed33bf",
          "topics": [
            "0xddf252ad1be2c89b69c2b068fc378daa952ba7f163c4a11628f55a4df523b3ef",
            "0x000000000000000000000000bbbbbbbbbb9cc5e90e3b3af64bdaf62c37eeffcb",
            "0x0000000000000000000000004120d1db772d68d7de2d624448b36d64e1cf4577"
          ],
          "data": "0x0000000000000000000000000000000000000000000000000000000002faf080",
          "blockHash": "0x8a1c23c4c20689e30eca6ad6babce6a87c8040eecdcb2691ed5f14dff9421425",
          "blockNumber": "0x2eae2e5",
          "blockTimestamp": "0x6a6022ad",
          "transactionHash": "0xdf6836c280503fa477ece16a2876bbd14f54860d0a47d9a178445ff7ab1d1f50",
          "transactionIndex": "0x36",
          "logIndex": "0x90",
          "removed": false
        },
        {
          "address": "0xcbb7c0000ab88b473b1f5afd9ef808440eed33bf",
          "topics": [
            "0x8c5be1e5ebec7d5bd14f71427d1e84f3dd0314c0f7b2291e5b200ac8c7c3b925",
            "0x0000000000000000000000004120d1db772d68d7de2d624448b36d64e1cf4577",
            "0x000000000000000000000000bbbbbbbbbb9cc5e90e3b3af64bdaf62c37eeffcb"
          ],
          "data": "0x0000000000000000000000000000000000000000000000000000000002faf080",
          "blockHash": "0x8a1c23c4c20689e30eca6ad6babce6a87c8040eecdcb2691ed5f14dff9421425",
          "blockNumber": "0x2eae2e5",
          "blockTimestamp": "0x6a6022ad",
          "transactionHash": "0xdf6836c280503fa477ece16a2876bbd14f54860d0a47d9a178445ff7ab1d1f50",
          "transactionIndex": "0x36",
          "logIndex": "0x91",
          "removed": false
        },
        {
          "address": "0x46415998764c29ab2a25cbea6254146d50d22687",
          "topics": [
            "0x7120161a7b3d31251e01294ab351ef15a41b91659a36032e4641bb89b121e321",
            "0x88fb488074c9f9f3acaa5f84a2f4181bc371defa66ff4a9e42e1e5f0d563be0e"
          ],
          "data": "0x0000000000000000000000000000000000000000000000000000000012e67ded000000000000000000000000000000000000000000000000000000004b99d070",
          "blockHash": "0x8a1c23c4c20689e30eca6ad6babce6a87c8040eecdcb2691ed5f14dff9421425",
          "blockNumber": "0x2eae2e5",
          "blockTimestamp": "0x6a6022ad",
          "transactionHash": "0xdf6836c280503fa477ece16a2876bbd14f54860d0a47d9a178445ff7ab1d1f50",
          "transactionIndex": "0x36",
          "logIndex": "0x92",
          "removed": false
        },
        {
          "address": "0xbbbbbbbbbb9cc5e90e3b3af64bdaf62c37eeffcb",
          "topics": [
            "0x9d9bd501d0657d7dfe415f779a620a62b78bc508ddc0891fbbd8b7ac0f8fce87",
            "0x88fb488074c9f9f3acaa5f84a2f4181bc371defa66ff4a9e42e1e5f0d563be0e"
          ],
          "data": "0x0000000000000000000000000000000000000000000000000000000012e67ded00000000000000000000000000000000000000000000000000000000000000000000000000000000000000000000000000000000000000000000000000000000",
          "blockHash": "0x8a1c23c4c20689e30eca6ad6babce6a87c8040eecdcb2691ed5f14dff9421425",
          "blockNumber": "0x2eae2e5",
          "blockTimestamp": "0x6a6022ad",
          "transactionHash": "0xdf6836c280503fa477ece16a2876bbd14f54860d0a47d9a178445ff7ab1d1f50",
          "transactionIndex": "0x36",
          "logIndex": "0x93",
          "removed": false
        },
        {
          "address": "0xbbbbbbbbbb9cc5e90e3b3af64bdaf62c37eeffcb",
          "topics": [
            "0xedf8870433c83823eb071d3df1caa8d008f12f6440918c20d75a3602cda30fe0",
            "0x88fb488074c9f9f3acaa5f84a2f4181bc371defa66ff4a9e42e1e5f0d563be0e",
            "0x0000000000000000000000004120d1db772d68d7de2d624448b36d64e1cf4577",
            "0x0000000000000000000000006708e21113922ed588bbccaa5ef756becbb2a7d1"
          ],
          "data": "0x0000000000000000000000000000000000000000000000000000000002faf08000000000000000000000000000000000000000000000000000002d79883d2000",
          "blockHash": "0x8a1c23c4c20689e30eca6ad6babce6a87c8040eecdcb2691ed5f14dff9421425",
          "blockNumber": "0x2eae2e5",
          "blockTimestamp": "0x6a6022ad",
          "transactionHash": "0xdf6836c280503fa477ece16a2876bbd14f54860d0a47d9a178445ff7ab1d1f50",
          "transactionIndex": "0x36",
          "logIndex": "0x94",
          "removed": false
        },
        {
          "address": "0xcbb7c0000ab88b473b1f5afd9ef808440eed33bf",
          "topics": [
            "0xddf252ad1be2c89b69c2b068fc378daa952ba7f163c4a11628f55a4df523b3ef",
            "0x0000000000000000000000004120d1db772d68d7de2d624448b36d64e1cf4577",
            "0x000000000000000000000000bbbbbbbbbb9cc5e90e3b3af64bdaf62c37eeffcb"
          ],
          "data": "0x0000000000000000000000000000000000000000000000000000000002faf080",
          "blockHash": "0x8a1c23c4c20689e30eca6ad6babce6a87c8040eecdcb2691ed5f14dff9421425",
          "blockNumber": "0x2eae2e5",
          "blockTimestamp": "0x6a6022ad",
          "transactionHash": "0xdf6836c280503fa477ece16a2876bbd14f54860d0a47d9a178445ff7ab1d1f50",
          "transactionIndex": "0x36",
          "logIndex": "0x95",
          "removed": false
        },
        {
          "address": "0x7a305d07b537359cf468eaea9bb176e5308bc337",
          "topics": [
            "0x8c5be1e5ebec7d5bd14f71427d1e84f3dd0314c0f7b2291e5b200ac8c7c3b925",
            "0x0000000000000000000000004120d1db772d68d7de2d624448b36d64e1cf4577",
            "0x000000000000000000000000bbbbbbbbbb9cc5e90e3b3af64bdaf62c37eeffcb"
          ],
          "data": "0x00000000000000000000000000000000000000000000094ee8e9b02f2ed9a0e7",
          "blockHash": "0x8a1c23c4c20689e30eca6ad6babce6a87c8040eecdcb2691ed5f14dff9421425",
          "blockNumber": "0x2eae2e5",
          "blockTimestamp": "0x6a6022ad",
          "transactionHash": "0xdf6836c280503fa477ece16a2876bbd14f54860d0a47d9a178445ff7ab1d1f50",
          "transactionIndex": "0x36",
          "logIndex": "0x96",
          "removed": false
        },
        {
          "address": "0xbbbbbbbbbb9cc5e90e3b3af64bdaf62c37eeffcb",
          "topics": [
            "0xa3b9472a1399e17e123f3c2e6586c23e504184d504de59cdaa2b375e880c6184",
            "0x88fb488074c9f9f3acaa5f84a2f4181bc371defa66ff4a9e42e1e5f0d563be0e",
            "0x0000000000000000000000004120d1db772d68d7de2d624448b36d64e1cf4577",
            "0x0000000000000000000000006708e21113922ed588bbccaa5ef756becbb2a7d1"
          ],
          "data": "0x00000000000000000000000000000000000000000000094ee8e9b02f2ed9a0e7",
          "blockHash": "0x8a1c23c4c20689e30eca6ad6babce6a87c8040eecdcb2691ed5f14dff9421425",
          "blockNumber": "0x2eae2e5",
          "blockTimestamp": "0x6a6022ad",
          "transactionHash": "0xdf6836c280503fa477ece16a2876bbd14f54860d0a47d9a178445ff7ab1d1f50",
          "transactionIndex": "0x36",
          "logIndex": "0x97",
          "removed": false
        },
        {
          "address": "0x7a305d07b537359cf468eaea9bb176e5308bc337",
          "topics": [
            "0xddf252ad1be2c89b69c2b068fc378daa952ba7f163c4a11628f55a4df523b3ef",
            "0x0000000000000000000000004120d1db772d68d7de2d624448b36d64e1cf4577",
            "0x000000000000000000000000bbbbbbbbbb9cc5e90e3b3af64bdaf62c37eeffcb"
          ],
          "data": "0x00000000000000000000000000000000000000000000094ee8e9b02f2ed9a0e7",
          "blockHash": "0x8a1c23c4c20689e30eca6ad6babce6a87c8040eecdcb2691ed5f14dff9421425",
          "blockNumber": "0x2eae2e5",
          "blockTimestamp": "0x6a6022ad",
          "transactionHash": "0xdf6836c280503fa477ece16a2876bbd14f54860d0a47d9a178445ff7ab1d1f50",
          "transactionIndex": "0x36",
          "logIndex": "0x98",
          "removed": false
        },
        {
          "address": "0xbbbbbbbbbb9cc5e90e3b3af64bdaf62c37eeffcb",
          "topics": [
            "0x570954540bed6b1304a87dfe815a5eda4a648f7097a16240dcd85c9b5fd42a43",
            "0x88fb488074c9f9f3acaa5f84a2f4181bc371defa66ff4a9e42e1e5f0d563be0e",
            "0x0000000000000000000000006708e21113922ed588bbccaa5ef756becbb2a7d1",
            "0x0000000000000000000000004120d1db772d68d7de2d624448b36d64e1cf4577"
          ],
          "data": "0x0000000000000000000000004120d1db772d68d7de2d624448b36d64e1cf45770000000000000000000000000000000000000000000000000000000002faf08000000000000000000000000000000000000000000000000000002d79883d2000",
          "blockHash": "0x8a1c23c4c20689e30eca6ad6babce6a87c8040eecdcb2691ed5f14dff9421425",
          "blockNumber": "0x2eae2e5",
          "blockTimestamp": "0x6a6022ad",
          "transactionHash": "0xdf6836c280503fa477ece16a2876bbd14f54860d0a47d9a178445ff7ab1d1f50",
          "transactionIndex": "0x36",
          "logIndex": "0x99",
          "removed": false
        },
        {
          "address": "0xcbb7c0000ab88b473b1f5afd9ef808440eed33bf",
          "topics": [
            "0xddf252ad1be2c89b69c2b068fc378daa952ba7f163c4a11628f55a4df523b3ef",
            "0x000000000000000000000000bbbbbbbbbb9cc5e90e3b3af64bdaf62c37eeffcb",
            "0x0000000000000000000000004120d1db772d68d7de2d624448b36d64e1cf4577"
          ],
          "data": "0x0000000000000000000000000000000000000000000000000000000002faf080",
          "blockHash": "0x8a1c23c4c20689e30eca6ad6babce6a87c8040eecdcb2691ed5f14dff9421425",
          "blockNumber": "0x2eae2e5",
          "blockTimestamp": "0x6a6022ad",
          "transactionHash": "0xdf6836c280503fa477ece16a2876bbd14f54860d0a47d9a178445ff7ab1d1f50",
          "transactionIndex": "0x36",
          "logIndex": "0x9a",
          "removed": false
        },
        {
          "address": "0xcbb7c0000ab88b473b1f5afd9ef808440eed33bf",
          "topics": [
            "0x8c5be1e5ebec7d5bd14f71427d1e84f3dd0314c0f7b2291e5b200ac8c7c3b925",
            "0x0000000000000000000000004120d1db772d68d7de2d624448b36d64e1cf4577",
            "0x000000000000000000000000bbbbbbbbbb9cc5e90e3b3af64bdaf62c37eeffcb"
          ],
          "data": "0x0000000000000000000000000000000000000000000000000000000002faf080",
          "blockHash": "0x8a1c23c4c20689e30eca6ad6babce6a87c8040eecdcb2691ed5f14dff9421425",
          "blockNumber": "0x2eae2e5",
          "blockTimestamp": "0x6a6022ad",
          "transactionHash": "0xdf6836c280503fa477ece16a2876bbd14f54860d0a47d9a178445ff7ab1d1f50",
          "transactionIndex": "0x36",
          "logIndex": "0x9b",
          "removed": false
        },
        {
          "address": "0xcbb7c0000ab88b473b1f5afd9ef808440eed33bf",
          "topics": [
            "0xddf252ad1be2c89b69c2b068fc378daa952ba7f163c4a11628f55a4df523b3ef",
            "0x0000000000000000000000004120d1db772d68d7de2d624448b36d64e1cf4577",
            "0x000000000000000000000000bbbbbbbbbb9cc5e90e3b3af64bdaf62c37eeffcb"
          ],
          "data": "0x0000000000000000000000000000000000000000000000000000000002faf080",
          "blockHash": "0x8a1c23c4c20689e30eca6ad6babce6a87c8040eecdcb2691ed5f14dff9421425",
          "blockNumber": "0x2eae2e5",
          "blockTimestamp": "0x6a6022ad",
          "transactionHash": "0xdf6836c280503fa477ece16a2876bbd14f54860d0a47d9a178445ff7ab1d1f50",
          "transactionIndex": "0x36",
          "logIndex": "0x9c",
          "removed": false
        },
        {
          "address": "0x4120d1db772d68d7de2d624448b36d64e1cf4577",
          "topics": [
            "0xbe334cff3409b9cc05629917e680bd5b922d5f2c9c75272fe1650216d724ac2c",
            "0x000000000000000000000000cbb7c0000ab88b473b1f5afd9ef808440eed33bf"
          ],
          "data": "0x88fb488074c9f9f3acaa5f84a2f4181bc371defa66ff4a9e42e1e5f0d563be0e0000000000000000000000000000000000000000000000000000000002faf08000000000000000000000000000000000000000000000094ee8e9b02f2ed9a0e70000000000000000000000000000000000000000000000000000000002faf0800000000000000000000000000000000000000000000000000000000002faf080",
          "blockHash": "0x8a1c23c4c20689e30eca6ad6babce6a87c8040eecdcb2691ed5f14dff9421425",
          "blockNumber": "0x2eae2e5",
          "blockTimestamp": "0x6a6022ad",
          "transactionHash": "0xdf6836c280503fa477ece16a2876bbd14f54860d0a47d9a178445ff7ab1d1f50",
          "transactionIndex": "0x36",
          "logIndex": "0x9d",
          "removed": false
        }
      ],
      "logsBloom": "0x00000000020000000002000000000080000000020000008100000000000000000000400000000100040000000000000010000000000000000000000020a44000000000000010000000000008800000100002000800000000000002080000000000800000000000000000000000000010000000020000000000400010000000000000008000000008000000100010000000000040000000000008000000005004020000000000000000000000000000000400000000000000000000000000000020000002000080000000000000000000000100000000000400000000802000400010004001000008100000200001208000000000000000000000000000000000",
      "transactionHash": "0xdf6836c280503fa477ece16a2876bbd14f54860d0a47d9a178445ff7ab1d1f50",
      "transactionIndex": "0x36",
      "blockHash": "0x8a1c23c4c20689e30eca6ad6babce6a87c8040eecdcb2691ed5f14dff9421425",
      "blockNumber": "0x2eae2e5",
      "gasUsed": "0x7ccb0",
      "effectiveGasPrice": "0x4d056c",
      "blobGasUsed": "0x599c",
      "from": "0x6708e21113922ed588bbccaa5ef756becbb2a7d1",
      "to": "0x4120d1db772d68d7de2d624448b36d64e1cf4577",
      "contractAddress": null,
      "l1GasPrice": "0x4de5576",
      "l1GasUsed": "0x9ba",
      "l1Fee": "0x4e3b9457",
      "l1BaseFeeScalar": "0x8dd",
      "l1BlobBaseFee": "0x4f0180",
      "l1BlobBaseFeeScalar": "0x101c12",
      "daFootprintGasScalar": "0x94"
    }
  ],
  "libraries": [],
  "pending": [],
  "returns": {},
  "timestamp": 1784685229179,
  "chain": 8453,
  "commit": "b80e698"
}