{
  "transactions": [
    {
      "hash": "0x2e722888b2fe844c3e04b16df672f33441bc2dc78facdfa5346e15a9796cde0c",
      "transactionType": "CALL",
      "contractName": null,
      "contractAddress": "0x7a305d07b537359cf468eaea9bb176e5308bc337",
      "function": "approve(address,uint256)",
      "arguments": [
        "0xBBBBBbbBBb9cC5e90e3b3Af64bdAF62C37EEFFCb",
        "11710999999999983344192878"
      ],
      "transaction": {
        "from": "0x6708e21113922ed588bbccaa5ef756becbb2a7d1",
        "to": "0x7a305d07b537359cf468eaea9bb176e5308bc337",
        "gas": "0x10b32",
        "value": "0x0",
        "input": "0x095ea7b3000000000000000000000000bbbbbbbbbb9cc5e90e3b3af64bdaf62c37eeffcb00000000000000000000000000000000000000000009afe695046ebf589c8d6e",
        "nonce": "0x33e",
        "chainId": "0x2105"
      },
      "additionalContracts": [],
      "isFixedGasLimit": false
    },
    {
      "hash": "0x9fd2a7958e94f82d3654eb4a895b438c526dba4fa7b58d02cfa4d618bad653bd",
      "transactionType": "CALL",
      "contractName": null,
      "contractAddress": "0xbbbbbbbbbb9cc5e90e3b3af64bdaf62c37eeffcb",
      "function": "supplyCollateral((address,address,address,address,uint256),uint256,address,bytes)",
      "arguments": [
        "(0x833589fCD6eDb6E08f4c7C32D4f71b54bdA02913, 0x7a305D07B537359cf468eAea9bb176E5308bC337, 0x284EC3A9674e6C62ea552Bf75BDeE9B799627D2e, 0x46415998764C29aB2a25CbeA6254146D50D22687, 770000000000000000)",
        "11710999999999983344192878",
        "0x6708e21113922ED588bBCcAA5ef756BEcBb2a7d1",
        "0x"
      ],
      "transaction": {
        "from": "0x6708e21113922ed588bbccaa5ef756becbb2a7d1",
        "to": "0xbbbbbbbbbb9cc5e90e3b3af64bdaf62c37eeffcb",
        "gas": "0x1d9fb",
        "value": "0x0",
        "input": "0x238d6579000000000000000000000000833589fcd6edb6e08f4c7c32d4f71b54bda029130000000000000000000000007a305d07b537359cf468eaea9bb176e5308bc337000000000000000000000000284ec3a9674e6c62ea552bf75bdee9b799627d2e00000000000000000000000046415998764c29ab2a25cbea6254146d50d226870000000000000000000000000000000000000000000000000aaf96eb9d0d000000000000000000000000000000000000000000000009afe695046ebf589c8d6e0000000000000000000000006708e21113922ed588bbccaa5ef756becbb2a7d100000000000000000000000000000000000000000000000000000000000001000000000000000000000000000000000000000000000000000000000000000000",
        "nonce": "0x33f",
        "chainId": "0x2105"
      },
      "additionalContracts": [],
      "isFixedGasLimit": false
    },
    {
      "hash": "0x4c14a7252dbac821e9a0eb443b5dca1adc3de0eb9e9c091c7d9fbaba3a29545a",
      "transactionType": "CALL",
      "contractName": null,
      "contractAddress": "0xbbbbbbbbbb9cc5e90e3b3af64bdaf62c37eeffcb",
      "function": "borrow((address,address,address,address,uint256),uint256,uint256,address,address)",
      "arguments": [
        "(0x833589fCD6eDb6E08f4c7C32D4f71b54bdA02913, 0x7a305D07B537359cf468eAea9bb176E5308bC337, 0x284EC3A9674e6C62ea552Bf75BDeE9B799627D2e, 0x46415998764C29aB2a25CbeA6254146D50D22687, 770000000000000000)",
        "1000344",
        "0",
        "0x6708e21113922ED588bBCcAA5ef756BEcBb2a7d1",
        "0x6708e21113922ED588bBCcAA5ef756BEcBb2a7d1"
      ],
      "transaction": {
        "from": "0x6708e21113922ed588bbccaa5ef756becbb2a7d1",
        "to": "0xbbbbbbbbbb9cc5e90e3b3af64bdaf62c37eeffcb",
        "gas": "0x27c4f",
        "value": "0x0",
        "input": "0x50d8cd4b000000000000000000000000833589fcd6edb6e08f4c7c32d4f71b54bda029130000000000000000000000007a305d07b537359cf468eaea9bb176e5308bc337000000000000000000000000284ec3a9674e6c62ea552bf75bdee9b799627d2e00000000000000000000000046415998764c29ab2a25cbea6254146d50d226870000000000000000000000000000000000000000000000000aaf96eb9d0d000000000000000000000000000000000000000000000000000000000000000f439800000000000000000000000000000000000000000000000000000000000000000000000000000000000000006708e21113922ed588bbccaa5ef756becbb2a7d10000000000000000000000006708e21113922ed588bbccaa5ef756becbb2a7d1",
        "nonce": "0x340",
        "chainId": "0x2105"
      },
      "additionalContracts": [],
      "isFixedGasLimit": false
    },
    {
      "hash": "0x6bd8bd4cae2a2628eb2390ec9cfbe511d9a553ca77ee7f0ea9c9513973799551",
      "transactionType": "CALL",
      "contractName": null,
      "contractAddress": "0x7a305d07b537359cf468eaea9bb176e5308bc337",
      "function": "approve(address,uint256)",
      "arguments": [
        "0xBBBBBbbBBb9cC5e90e3b3Af64bdAF62C37EEFFCb",
        "5018999999999992861796948"
      ],
      "transaction": {
        "from": "0x6708e21113922ed588bbccaa5ef756becbb2a7d1",
        "to": "0x7a305d07b537359cf468eaea9bb176e5308bc337",
        "gas": "0x10b32",
        "value": "0x0",
        "input": "0x095ea7b3000000000000000000000000bbbbbbbbbb9cc5e90e3b3af64bdaf62c37eeffcb0000000000000000000000000000000000000000000426d08901e6520167aa54",
        "nonce": "0x341",
        "chainId": "0x2105"
      },
      "additionalContracts": [],
      "isFixedGasLimit": false
    },
    {
      "hash": "0x5e2f02e3f9bb63fd9f314090661c49f440f939a691cf180f718b59831b1c2657",
      "transactionType": "CALL",
      "contractName": null,
      "contractAddress": "0xbbbbbbbbbb9cc5e90e3b3af64bdaf62c37eeffcb",
      "function": "supplyCollateral((address,address,address,address,uint256),uint256,address,bytes)",
      "arguments": [
        "(0x833589fCD6eDb6E08f4c7C32D4f71b54bdA02913, 0x7a305D07B537359cf468eAea9bb176E5308bC337, 0x284EC3A9674e6C62ea552Bf75BDeE9B799627D2e, 0x46415998764C29aB2a25CbeA6254146D50D22687, 915000000000000000)",
        "5018999999999992861796948",
        "0x6708e21113922ED588bBCcAA5ef756BEcBb2a7d1",
        "0x"
      ],
      "transaction": {
        "from": "0x6708e21113922ed588bbccaa5ef756becbb2a7d1",
        "to": "0xbbbbbbbbbb9cc5e90e3b3af64bdaf62c37eeffcb",
        "gas": "0x163e2",
        "value": "0x0",
        "input": "0x238d6579000000000000000000000000833589fcd6edb6e08f4c7c32d4f71b54bda029130000000000000000000000007a305d07b537359cf468eaea9bb176e5308bc337000000000000000000000000284ec3a9674e6c62ea552bf75bdee9b799627d2e00000000000000000000000046415998764c29ab2a25cbea6254146d50d226870000000000000000000000000000000000000000000000000cb2bba6f17b80000000000000000000000000000000000000000000000426d08901e6520167aa540000000000000000000000006708e21113922ed588bbccaa5ef756becbb2a7d100000000000000000000000000000000000000000000000000000000000001000000000000000000000000000000000000000000000000000000000000000000",
        "nonce": "0x342",
        "chainId": "0x2105"
      },
      "additionalContracts": [],
      "isFixedGasLimit": false
    },
    {
      "hash": "0x77cc01737f718e88e1706bb722499f0ee81107fde8fff9a1dcd0f7aed4d57c79",
      "transactionType": "CALL",
      "contractName": null,
      "contractAddress": "0xbbbbbbbbbb9cc5e90e3b3af64bdaf62c37eeffcb",
      "function": "borrow((address,address,address,address,uint256),uint256,uint256,address,address)",
      "arguments": [
        "(0x833589fCD6eDb6E08f4c7C32D4f71b54bdA02913, 0x7a305D07B537359cf468eAea9bb176E5308bC337, 0x284EC3A9674e6C62ea552Bf75BDeE9B799627D2e, 0x46415998764C29aB2a25CbeA6254146D50D22687, 915000000000000000)",
        "1000000",
        "0",
        "0x6708e21113922ED588bBCcAA5ef756BEcBb2a7d1",
        "0x6708e21113922ED588bBCcAA5ef756BEcBb2a7d1"
      ],
      "transaction": {
        "from": "0x6708e21113922ed588bbccaa5ef756becbb2a7d1",
        "to": "0xbbbbbbbbbb9cc5e90e3b3af64bdaf62c37eeffcb",
        "gas": "0x2a1cf",
        "value": "0x0",
        "input": "0x50d8cd4b000000000000000000000000833589fcd6edb6e08f4c7c32d4f71b54bda029130000000000000000000000007a305d07b537359cf468eaea9bb176e5308bc337000000000000000000000000284ec3a9674e6c62ea552bf75bdee9b799627d2e00000000000000000000000046415998764c29ab2a25cbea6254146d50d226870000000000000000000000000000000000000000000000000cb2bba6f17b800000000000000000000000000000000000000000000000000000000000000f424000000000000000000000000000000000000000000000000000000000000000000000000000000000000000006708e21113922ed588bbccaa5ef756becbb2a7d10000000000000000000000006708e21113922ed588bbccaa5ef756becbb2a7d1",
        "nonce": "0x343",
        "chainId": "0x2105"
      },
      "additionalContracts": [],
      "isFixedGasLimit": false
    }
  ],
  "receipts": [
    {
      "type": "0x2",
      "status": "0x1",
      "cumulativeGasUsed": "0x1cf3f49",
      "logs": [
        {
          "address": "0x7a305d07b537359cf468eaea9bb176e5308bc337",
          "topics": [
            "0x8c5be1e5ebec7d5bd14f71427d1e84f3dd0314c0f7b2291e5b200ac8c7c3b925",
            "0x0000000000000000000000006708e21113922ed588bbccaa5ef756becbb2a7d1",
            "0x000000000000000000000000bbbbbbbbbb9cc5e90e3b3af64bdaf62c37eeffcb"
          ],
          "data": "0x00000000000000000000000000000000000000000009afe695046ebf589c8d6e",
          "blockHash": "0x0000000000000000000000000000000000000000000000000000000000000000",
          "blockNumber": "0x2ea793b",
          "blockTimestamp": "0x6a5f4f59",
          "transactionHash": "0x2e722888b2fe844c3e04b16df672f33441bc2dc78facdfa5346e15a9796cde0c",
          "transactionIndex": "0x93",
          "logIndex": "0x2bd",
          "removed": false
        }
      ],
      "logsBloom": "0x00000000000000000000000000000080000000020000000000000000000000000000000000000000000000000000000000000000000000000000000000200000000000000000000000000000000000000000000000000000000000000000000000000000000000000000000000000000000000000000000000400000000000000000000000000000000000100000000000000000000000000000000000004004020000000000000000000000000000000000000000000000000000000000000000000000000000000000000000000000000000000000000000000000002000000010000001000000000000200000000000000000000000000000000000000000",
      "transactionHash": "0x2e722888b2fe844c3e04b16df672f33441bc2dc78facdfa5346e15a9796cde0c",
      "transactionIndex": "0x93",
      "blockHash": "0x0000000000000000000000000000000000000000000000000000000000000000",
      "blockNumber": "0x2ea793b",
      "gasUsed": "0xb6b3",
      "effectiveGasPrice": "0x50b36a",
      "blobGasUsed": "0x39d0",
      "from": "0x6708e21113922ed588bbccaa5ef756becbb2a7d1",
      "to": "0x7a305d07b537359cf468eaea9bb176e5308bc337",
      "contractAddress": null,
      "l1GasPrice": "0x5de2ee6",
      "l1GasUsed": "0x640",
      "l1Fee": "0x399ecafe",
      "l1BaseFeeScalar": "0x8dd",
      "l1BlobBaseFee": "0x580fe9",
      "l1BlobBaseFeeScalar": "0x101c12",
      "daFootprintGasScalar": "0x94"
    },
    {
      "type": "0x2",
      "status": "0x1",
      "cumulativeGasUsed": "0xac9a23",
      "logs": [
        {
          "address": "0xbbbbbbbbbb9cc5e90e3b3af64bdaf62c37eeffcb",
          "topics": [
            "0xa3b9472a1399e17e123f3c2e6586c23e504184d504de59cdaa2b375e880c6184",
            "0x40ac09f34c5bc0b0b6d9b5f1ec1b97a6a149ff6278104797c9cb740453a2b794",
            "0x0000000000000000000000006708e21113922ed588bbccaa5ef756becbb2a7d1",
            "0x0000000000000000000000006708e21113922ed588bbccaa5ef756becbb2a7d1"
          ],
          "data": "0x00000000000000000000000000000000000000000009afe695046ebf589c8d6e",
          "blockHash": "0x0000000000000000000000000000000000000000000000000000000000000000",
          "blockNumber": "0x2ea793c",
          "blockTimestamp": "0x6a5f4f5b",
          "transactionHash": "0x9fd2a7958e94f82d3654eb4a895b438c526dba4fa7b58d02cfa4d618bad653bd",
          "transactionIndex": "0x5d",
          "logIndex": "0xdd",
          "removed": false
        },
        {
          "address": "0x7a305d07b537359cf468eaea9bb176e5308bc337",
          "topics": [
            "0xddf252ad1be2c89b69c2b068fc378daa952ba7f163c4a11628f55a4df523b3ef",
            "0x0000000000000000000000006708e21113922ed588bbccaa5ef756becbb2a7d1",
            "0x000000000000000000000000bbbbbbbbbb9cc5e90e3b3af64bdaf62c37eeffcb"
          ],
          "data": "0x00000000000000000000000000000000000000000009afe695046ebf589c8d6e",
          "blockHash": "0x0000000000000000000000000000000000000000000000000000000000000000",
          "blockNumber": "0x2ea793c",
          "blockTimestamp": "0x6a5f4f5b",
          "transactionHash": "0x9fd2a7958e94f82d3654eb4a895b438c526dba4fa7b58d02cfa4d618bad653bd",
          "transactionIndex": "0x5d",
          "logIndex": "0xde",
          "removed": false
        }
      ],
      "logsBloom": "0x00000000000000000000000000000081000000020000000000000000000000000000000000000000000000000000000000000000000000000000000000000000000000000010000000000008000000000000000000000000000000000000000000000000000000000000000001000000000000000000000000400010000000000000008000000008000000100000000000000000000000000000000000804004000000000000000000000000000000000000000000000000000000000000000020000002000000000000000000000000000000000000000400000000002000000000000001000000000000200000200000000000000000000000000000000000",
      "transactionHash": "0x9fd2a7958e94f82d3654eb4a895b438c526dba4fa7b58d02cfa4d618bad653bd",
      "transactionIndex": "0x5d",
      "blockHash": "0x0000000000000000000000000000000000000000000000000000000000000000",
      "blockNumber": "0x2ea793c",
      "gasUsed": "0x15728",
      "effectiveGasPrice": "0x50b36a",
      "blobGasUsed": "0x74c8",
      "from": "0x6708e21113922ed588bbccaa5ef756becbb2a7d1",
      "to": "0xbbbbbbbbbb9cc5e90e3b3af64bdaf62c37eeffcb",
      "contractAddress": null,
      "l1GasPrice": "0x5de2ee6",
      "l1GasUsed": "0xca8",
      "l1Fee": "0x6999b091",
      "l1BaseFeeScalar": "0x8dd",
      "l1BlobBaseFee": "0x580fe9",
      "l1BlobBaseFeeScalar": "0x101c12",
      "daFootprintGasScalar": "0x94"
    },
    {
      "type": "0x2",
      "status": "0x1",
      "cumulativeGasUsed": "0xfb9dbb",
      "logs": [
        {
          "address": "0x46415998764c29ab2a25cbea6254146d50d22687",
          "topics": [
            "0x7120161a7b3d31251e01294ab351ef15a41b91659a36032e4641bb89b121e321",
            "0x40ac09f34c5bc0b0b6d9b5f1ec1b97a6a149ff6278104797c9cb740453a2b794"
          ],
          "data": "0x0000000000000000000000000000000000000000000000000000000011d3991f0000000000000000000000000000000000000000000000000000000046d78d79",
          "blockHash": "0x7c3158bda1ecc4379cf979aaf0777b167dc0f740f52afcb85328bf71cadbe61c",
          "blockNumber": "0x2ea793d",
          "blockTimestamp": "0x6a5f4f5d",
          "transactionHash": "0x4c14a7252dbac821e9a0eb443b5dca1adc3de0eb9e9c091c7d9fbaba3a29545a",
          "transactionIndex": "0x84",
          "logIndex": "0xee",
          "removed": false
        },
        {
          "address": "0xbbbbbbbbbb9cc5e90e3b3af64bdaf62c37eeffcb",
          "topics": [
            "0x9d9bd501d0657d7dfe415f779a620a62b78bc508ddc0891fbbd8b7ac0f8fce87",
            "0x40ac09f34c5bc0b0b6d9b5f1ec1b97a6a149ff6278104797c9cb740453a2b794"
          ],
          "data": "0x0000000000000000000000000000000000000000000000000000000011d3991f00000000000000000000000000000000000000000000000000000000000000000000000000000000000000000000000000000000000000000000000000000000",
          "blockHash": "0x7c3158bda1ecc4379cf979aaf0777b167dc0f740f52afcb85328bf71cadbe61c",
          "blockNumber": "0x2ea793d",
          "blockTimestamp": "0x6a5f4f5d",
          "transactionHash": "0x4c14a7252dbac821e9a0eb443b5dca1adc3de0eb9e9c091c7d9fbaba3a29545a",
          "transactionIndex": "0x84",
          "logIndex": "0xef",
          "removed": false
        },
        {
          "address": "0xbbbbbbbbbb9cc5e90e3b3af64bdaf62c37eeffcb",
          "topics": [
            "0x570954540bed6b1304a87dfe815a5eda4a648f7097a16240dcd85c9b5fd42a43",
            "0x40ac09f34c5bc0b0b6d9b5f1ec1b97a6a149ff6278104797c9cb740453a2b794",
            "0x0000000000000000000000006708e21113922ed588bbccaa5ef756becbb2a7d1",
            "0x0000000000000000000000006708e21113922ed588bbccaa5ef756becbb2a7d1"
          ],
          "data": "0x0000000000000000000000006708e21113922ed588bbccaa5ef756becbb2a7d100000000000000000000000000000000000000000000000000000000000f4398000000000000000000000000000000000000000000000000000000e8e9261600",
          "blockHash": "0x7c3158bda1ecc4379cf979aaf0777b167dc0f740f52afcb85328bf71cadbe61c",
          "blockNumber": "0x2ea793d",
          "blockTimestamp": "0x6a5f4f5d",
          "transactionHash": "0x4c14a7252dbac821e9a0eb443b5dca1adc3de0eb9e9c091c7d9fbaba3a29545a",
          "transactionIndex": "0x84",
          "logIndex": "0xf0",
          "removed": false
        },
        {
          "address": "0x833589fcd6edb6e08f4c7c32d4f71b54bda02913",
          "topics": [
            "0xddf252ad1be2c89b69c2b068fc378daa952ba7f163c4a11628f55a4df523b3ef",
            "0x000000000000000000000000bbbbbbbbbb9cc5e90e3b3af64bdaf62c37eeffcb",
            "0x0000000000000000000000006708e21113922ed588bbccaa5ef756becbb2a7d1"
          ],
          "data": "0x00000000000000000000000000000000000000000000000000000000000f4398",
          "blockHash": "0x7c3158bda1ecc4379cf979aaf0777b167dc0f740f52afcb85328bf71cadbe61c",
          "blockNumber": "0x2ea793d",
          "blockTimestamp": "0x6a5f4f5d",
          "transactionHash": "0x4c14a7252dbac821e9a0eb443b5dca1adc3de0eb9e9c091c7d9fbaba3a29545a",
          "transactionIndex": "0x84",
          "logIndex": "0xf1",
          "removed": false
        }
      ],
      "logsBloom": "0x00000000000000000002000000000081000000000000000000000000000000000000400000000100000000000000100000000000000000000000000020804000000000000010000000000008000000000000000000080000000000080000000000800000000000000000000001000000000000000000000000000010000000000000000000000008000000100000000000000000000000000008000000804000000000000000000000000000000000000000000000000000000000000000000020000002000000000000000000000000000100000000000000000000002000000000004001000008000000200001000000000000000000000000000000000000",
      "transactionHash": "0x4c14a7252dbac821e9a0eb443b5dca1adc3de0eb9e9c091c7d9fbaba3a29545a",
      "transactionIndex": "0x84",
      "blockHash": "0x7c3158bda1ecc4379cf979aaf0777b167dc0f740f52afcb85328bf71cadbe61c",
      "blockNumber": "0x2ea793d",
      "gasUsed": "0x1ccae",
      "effectiveGasPrice": "0x50b36a",
      "blobGasUsed": "0x6dd8",
      "from": "0x6708e21113922ed588bbccaa5ef756becbb2a7d1",
      "to": "0xbbbbbbbbbb9cc5e90e3b3af64bdaf62c37eeffcb",
      "contractAddress": null,
      "l1GasPrice": "0x5de2ee6",
      "l1GasUsed": "0xbec",
      "l1Fee": "0x6df03402",
      "l1BaseFeeScalar": "0x8dd",
      "l1BlobBaseFee": "0x580fe9",
      "l1BlobBaseFeeScalar": "0x101c12",
      "daFootprintGasScalar": "0x94"
    },
    {
      "type": "0x2",
      "status": "0x1",
      "cumulativeGasUsed": "0x80b958",
      "logs": [
        {
          "address": "0x7a305d07b537359cf468eaea9bb176e5308bc337",
          "topics": [
            "0x8c5be1e5ebec7d5bd14f71427d1e84f3dd0314c0f7b2291e5b200ac8c7c3b925",
            "0x0000000000000000000000006708e21113922ed588bbccaa5ef756becbb2a7d1",
            "0x000000000000000000000000bbbbbbbbbb9cc5e90e3b3af64bdaf62c37eeffcb"
          ],
          "data": "0x0000000000000000000000000000000000000000000426d08901e6520167aa54",
          "blockHash": "0xad6b9490c3c85f4eb6a48752d8dd6a4baf4f8f55491e37bb522f7d8fa2e63b52",
          "blockNumber": "0x2ea793e",
          "blockTimestamp": "0x6a5f4f5f",
          "transactionHash": "0x6bd8bd4cae2a2628eb2390ec9cfbe511d9a553ca77ee7f0ea9c9513973799551",
          "transactionIndex": "0x53",
          "logIndex": "0x77",
          "removed": false
        }
      ],
      "logsBloom": "0x00000000000000000000000000000080000000020000000000000000000000000000000000000000000000000000000000000000000000000000000000200000000000000000000000000000000000000000000000000000000000000000000000000000000000000000000000000000000000000000000000400000000000000000000000000000000000100000000000000000000000000000000000004004020000000000000000000000000000000000000000000000000000000000000000000000000000000000000000000000000000000000000000000000002000000010000001000000000000200000000000000000000000000000000000000000",
      "transactionHash": "0x6bd8bd4cae2a2628eb2390ec9cfbe511d9a553ca77ee7f0ea9c9513973799551",
      "transactionIndex": "0x53",
      "blockHash": "0xad6b9490c3c85f4eb6a48752d8dd6a4baf4f8f55491e37bb522f7d8fa2e63b52",
      "blockNumber": "0x2ea793e",
      "gasUsed": "0xb6b3",
      "effectiveGasPrice": "0x50b36a",
      "blobGasUsed": "0x39d0",
      "from": "0x6708e21113922ed588bbccaa5ef756becbb2a7d1",
      "to": "0x7a305d07b537359cf468eaea9bb176e5308bc337",
      "contractAddress": null,
      "l1GasPrice": "0x5de2ee6",
      "l1GasUsed": "0x640",
      "l1Fee": "0x399ecafe",
      "l1BaseFeeScalar": "0x8dd",
      "l1BlobBaseFee": "0x580fe9",
      "l1BlobBaseFeeScalar": "0x101c12",
      "daFootprintGasScalar": "0x94"
    },
    {
      "type": "0x2",
      "status": "0x1",
      "cumulativeGasUsed": "0xe38d30",
      "logs": [
        {
          "address": "0xbbbbbbbbbb9cc5e90e3b3af64bdaf62c37eeffcb",
          "topics": [
            "0xa3b9472a1399e17e123f3c2e6586c23e504184d504de59cdaa2b375e880c6184",
            "0x3a5ba11fdbd0a3ef70e98445afeaa5d3d73aac297bcfdcca120114bff5954126",
            "0x0000000000000000000000006708e21113922ed588bbccaa5ef756becbb2a7d1",
            "0x0000000000000000000000006708e21113922ed588bbccaa5ef756becbb2a7d1"
          ],
          "data": "0x0000000000000000000000000000000000000000000426d08901e6520167aa54",
          "blockHash": "0xf7c63fd27a98a437059027bd4570c154c9301e6082c208641557cc0030ffe839",
          "blockNumber": "0x2ea793f",
          "blockTimestamp": "0x6a5f4f61",
          "transactionHash": "0x5e2f02e3f9bb63fd9f314090661c49f440f939a691cf180f718b59831b1c2657",
          "transactionIndex": "0x58",
          "logIndex": "0xdd",
          "removed": false
        },
        {
          "address": "0x7a305d07b537359cf468eaea9bb176e5308bc337",
          "topics": [
            "0xddf252ad1be2c89b69c2b068fc378daa952ba7f163c4a11628f55a4df523b3ef",
            "0x0000000000000000000000006708e21113922ed588bbccaa5ef756becbb2a7d1",
            "0x000000000000000000000000bbbbbbbbbb9cc5e90e3b3af64bdaf62c37eeffcb"
          ],
          "data": "0x0000000000000000000000000000000000000000000426d08901e6520167aa54",
          "blockHash": "0xf7c63fd27a98a437059027bd4570c154c9301e6082c208641557cc0030ffe839",
          "blockNumber": "0x2ea793f",
          "blockTimestamp": "0x6a5f4f61",
          "transactionHash": "0x5e2f02e3f9bb63fd9f314090661c49f440f939a691cf180f718b59831b1c2657",
          "transactionIndex": "0x58",
          "logIndex": "0xde",
          "removed": false
        }
      ],
      "logsBloom": "0x00000000000040000000000000000080000000020000000000000000000000000000000000000000000000000000000000000000000000000000000000000000000000000010000000000008000000000000000000000000000000000000000000000000000000000000000000000000000000000000000000400010000000000000008000000008000000100000000000000000000000000000000000004004000000000000000000000000000000000000000000000000000000000000000020000002000000000000000000000000000000000000000400000000002000000000000001000000080000200000210000000000000000000000000000000000",
      "transactionHash": "0x5e2f02e3f9bb63fd9f314090661c49f440f939a691cf180f718b59831b1c2657",
      "transactionIndex": "0x58",
      "blockHash": "0xf7c63fd27a98a437059027bd4570c154c9301e6082c208641557cc0030ffe839",
      "blockNumber": "0x2ea793f",
      "gasUsed": "0x101a8",
      "effectiveGasPrice": "0x50b36a",
      "blobGasUsed": "0x74c8",
      "from": "0x6708e21113922ed588bbccaa5ef756becbb2a7d1",
      "to": "0xbbbbbbbbbb9cc5e90e3b3af64bdaf62c37eeffcb",
      "contractAddress": null,
      "l1GasPrice": "0x5de2ee6",
      "l1GasUsed": "0xca8",
      "l1Fee": "0x74afab24",
      "l1BaseFeeScalar": "0x8dd",
      "l1BlobBaseFee": "0x580fe9",
      "l1BlobBaseFeeScalar": "0x101c12",
      "daFootprintGasScalar": "0x94"
    },
    {
      "type": "0x2",
      "status": "0x1",
      "cumulativeGasUsed": "0x1240595",
      "logs": [
        {
          "address": "0x46415998764c29ab2a25cbea6254146d50d22687",
          "topics": [
            "0x7120161a7b3d31251e01294ab351ef15a41b91659a36032e4641bb89b121e321",
            "0x3a5ba11fdbd0a3ef70e98445afeaa5d3d73aac297bcfdcca120114bff5954126"
          ],
          "data": "0x00000000000000000000000000000000000000000000000000000000126181df0000000000000000000000000000000000000000000000000000000048cb7de8",
          "blockHash": "0x56868f0d70429a31fc7f4062b7ee9f2e65cb4776e8fd03722172e16dadc9d8d2",
          "blockNumber": "0x2ea7940",
          "blockTimestamp": "0x6a5f4f63",
          "transactionHash": "0x77cc01737f718e88e1706bb722499f0ee81107fde8fff9a1dcd0f7aed4d57c79",
          "transactionIndex": "0x59",
          "logIndex": "0x10b",
          "removed": false
        },
        {
          "address": "0xbbbbbbbbbb9cc5e90e3b3af64bdaf62c37eeffcb",
          "topics": [
            "0x9d9bd501d0657d7dfe415f779a620a62b78bc508ddc0891fbbd8b7ac0f8fce87",
            "0x3a5ba11fdbd0a3ef70e98445afeaa5d3d73aac297bcfdcca120114bff5954126"
          ],
          "data": "0x00000000000000000000000000000000000000000000000000000000126181df00000000000000000000000000000000000000000000000000000000000000000000000000000000000000000000000000000000000000000000000000000000",
          "blockHash": "0x56868f0d70429a31fc7f4062b7ee9f2e65cb4776e8fd03722172e16dadc9d8d2",
          "blockNumber": "0x2ea7940",
          "blockTimestamp": "0x6a5f4f63",
          "transactionHash": "0x77cc01737f718e88e1706bb722499f0ee81107fde8fff9a1dcd0f7aed4d57c79",
          "transactionIndex": "0x59",
          "logIndex": "0x10c",
          "removed": false
        },
        {
          "address": "0xbbbbbbbbbb9cc5e90e3b3af64bdaf62c37eeffcb",
          "topics": [
            "0x570954540bed6b1304a87dfe815a5eda4a648f7097a16240dcd85c9b5fd42a43",
            "0x3a5ba11fdbd0a3ef70e98445afeaa5d3d73aac297bcfdcca120114bff5954126",
            "0x0000000000000000000000006708e21113922ed588bbccaa5ef756becbb2a7d1",
            "0x0000000000000000000000006708e21113922ed588bbccaa5ef756becbb2a7d1"
          ],
          "data": "0x0000000000000000000000006708e21113922ed588bbccaa5ef756becbb2a7d100000000000000000000000000000000000000000000000000000000000f4240000000000000000000000000000000000000000000000000000000e8d4a51000",
          "blockHash": "0x56868f0d70429a31fc7f4062b7ee9f2e65cb4776e8fd03722172e16dadc9d8d2",
          "blockNumber": "0x2ea7940",
          "blockTimestamp": "0x6a5f4f63",
          "transactionHash": "0x77cc01737f718e88e1706bb722499f0ee81107fde8fff9a1dcd0f7aed4d57c79",
          "transactionIndex": "0x59",
          "logIndex": "0x10d",
          "removed": false
        },
        {
          "address": "0x833589fcd6edb6e08f4c7c32d4f71b54bda02913",
          "topics": [
            "0xddf252ad1be2c89b69c2b068fc378daa952ba7f163c4a11628f55a4df523b3ef",
            "0x000000000000000000000000bbbbbbbbbb9cc5e90e3b3af64bdaf62c37eeffcb",
            "0x0000000000000000000000006708e21113922ed588bbccaa5ef756becbb2a7d1"
          ],
          "data": "0x00000000000000000000000000000000000000000000000000000000000f4240",
          "blockHash": "0x56868f0d70429a31fc7f4062b7ee9f2e65cb4776e8fd03722172e16dadc9d8d2",
          "blockNumber": "0x2ea7940",
          "blockTimestamp": "0x6a5f4f63",
          "transactionHash": "0x77cc01737f718e88e1706bb722499f0ee81107fde8fff9a1dcd0f7aed4d57c79",
          "transactionIndex": "0x59",
          "logIndex": "0x10e",
          "removed": false
        }
      ],
      "logsBloom": "0x00000000000040000002000000000080000000000000000000000000000000000000400000000100000000000000100000000000000000000000000020804000000000000010000000000008000000000000000000080000000000080000000000800000000000000000000000000000000000000000000000000010000000000000000000000008000000100000000000000000000000000008000000004000000000000000000000000000000000000000000000000000000000000000000020000002000000000000000000000000000100000000000000000000002000000000004001000008080000200001010000000000000000000000000000000000",
      "transactionHash": "0x77cc01737f718e88e1706bb722499f0ee81107fde8fff9a1dcd0f7aed4d57c79",
      "transactionIndex": "0x59",
      "blockHash": "0x56868f0d70429a31fc7f4062b7ee9f2e65cb4776e8fd03722172e16dadc9d8d2",
      "blockNumber": "0x2ea7940",
      "gasUsed": "0x1ccba",
      "effectiveGasPrice": "0x50b36a",
      "blobGasUsed": "0x6e6c",
      "from": "0x6708e21113922ed588bbccaa5ef756becbb2a7d1",
      "to": "0xbbbbbbbbbb9cc5e90e3b3af64bdaf62c37eeffcb",
      "contractAddress": null,
      "l1GasPrice": "0x5de2ee6",
      "l1GasUsed": "0xbfa",
      "l1Fee": "0x6e6b97f2",
      "l1BaseFeeScalar": "0x8dd",
      "l1BlobBaseFee": "0x580fe9",
      "l1BlobBaseFeeScalar": "0x101c12",
      "daFootprintGasScalar": "0x94"
    }
  ],
  "libraries": [],
  "pending": [],
  "returns": {},
  "timestamp": 1784631139545,
  "chain": 8453,
  "commit": "6e3e2ee"
}